{
  "contractName": "BettingEvents",
  "abi": [
    {
      "inputs": [],
      "stateMutability": "nonpayable",
      "type": "constructor"
    },
    {
      "anonymous": false,
      "inputs": [
        {
          "indexed": false,
          "internalType": "uint256",
          "name": "eventId",
          "type": "uint256"
        },
        {
          "indexed": false,
          "internalType": "address",
          "name": "bettor",
          "type": "address"
        },
        {
          "indexed": false,
          "internalType": "uint256",
          "name": "amount",
          "type": "uint256"
        },
        {
          "indexed": false,
          "internalType": "string",
          "name": "option",
          "type": "string"
        }
      ],
      "name": "BetPlaced",
      "type": "event"
    },
    {
      "anonymous": false,
      "inputs": [
        {
          "indexed": false,
          "internalType": "uint256",
          "name": "eventId",
          "type": "uint256"
        },
        {
          "indexed": false,
          "internalType": "string",
          "name": "name",
          "type": "string"
        },
        {
          "indexed": false,
          "internalType": "uint256",
          "name": "startTime",
          "type": "uint256"
        },
        {
          "indexed": false,
          "internalType": "uint256",
          "name": "endTime",
          "type": "uint256"
        }
      ],
      "name": "EventCreated",
      "type": "event"
    },
    {
      "anonymous": false,
      "inputs": [
        {
          "indexed": false,
          "internalType": "uint256",
          "name": "eventId",
          "type": "uint256"
        },
        {
          "indexed": false,
          "internalType": "string",
          "name": "winningOption",
          "type": "string"
        }
      ],
      "name": "WinnerDeclared",
      "type": "event"
    },
    {
      "inputs": [],
      "name": "admin",
      "outputs": [
        {
          "internalType": "address",
          "name": "",
          "type": "address"
        }
      ],
      "stateMutability": "view",
      "type": "function",
      "constant": true
    },
    {
      "inputs": [
        {
          "internalType": "uint256",
          "name": "",
          "type": "uint256"
        }
      ],
      "name": "eventIds",
      "outputs": [
        {
          "internalType": "uint256",
          "name": "",
          "type": "uint256"
        }
      ],
      "stateMutability": "view",
      "type": "function",
      "constant": true
    },
    {
      "inputs": [
        {
          "internalType": "uint256",
          "name": "",
          "type": "uint256"
        }
      ],
      "name": "events",
      "outputs": [
        {
          "internalType": "uint256",
          "name": "eventId",
          "type": "uint256"
        },
        {
          "internalType": "string",
          "name": "name",
          "type": "string"
        },
        {
          "internalType": "string",
          "name": "description",
          "type": "string"
        },
        {
          "internalType": "string",
          "name": "imageURL",
          "type": "string"
        },
        {
          "internalType": "uint256",
          "name": "startTime",
          "type": "uint256"
        },
        {
          "internalType": "uint256",
          "name": "endTime",
          "type": "uint256"
        },
        {
          "internalType": "bool",
          "name": "isCompleted",
          "type": "bool"
        },
        {
          "internalType": "string",
          "name": "winningOption",
          "type": "string"
        },
        {
          "internalType": "uint256",
          "name": "prizePool",
          "type": "uint256"
        },
        {
          "internalType": "string",
          "name": "rules",
          "type": "string"
        },
        {
          "internalType": "string",
          "name": "notificationImageURL",
          "type": "string"
        },
        {
          "internalType": "string",
          "name": "notificationMessage",
          "type": "string"
        }
      ],
      "stateMutability": "view",
      "type": "function",
      "constant": true
    },
    {
      "inputs": [],
      "name": "nextEventId",
      "outputs": [
        {
          "internalType": "uint256",
          "name": "",
          "type": "uint256"
        }
      ],
      "stateMutability": "view",
      "type": "function",
      "constant": true
    },
    {
      "inputs": [],
      "name": "totalAdminProfit",
      "outputs": [
        {
          "internalType": "uint256",
          "name": "",
          "type": "uint256"
        }
      ],
      "stateMutability": "view",
      "type": "function",
      "constant": true
    },
    {
      "inputs": [
        {
          "internalType": "uint256",
          "name": "_eventId",
          "type": "uint256"
        },
        {
          "internalType": "address",
          "name": "_user",
          "type": "address"
        }
      ],
      "name": "getUserBet",
      "outputs": [
        {
          "internalType": "string",
          "name": "",
          "type": "string"
        },
        {
          "internalType": "uint256",
          "name": "",
          "type": "uint256"
        },
        {
          "internalType": "bool",
          "name": "",
          "type": "bool"
        }
      ],
      "stateMutability": "view",
      "type": "function",
      "constant": true
    },
    {
      "inputs": [],
      "name": "getAllEventIds",
      "outputs": [
        {
          "internalType": "uint256[]",
          "name": "",
          "type": "uint256[]"
        }
      ],
      "stateMutability": "view",
      "type": "function",
      "constant": true
    },
    {
      "inputs": [
        {
          "internalType": "uint256",
          "name": "_eventId",
          "type": "uint256"
        },
        {
          "internalType": "string",
          "name": "_name",
          "type": "string"
        },
        {
          "internalType": "string",
          "name": "_description",
          "type": "string"
        },
        {
          "internalType": "string",
          "name": "_imageURL",
          "type": "string"
        },
        {
          "internalType": "string[]",
          "name": "_options",
          "type": "string[]"
        },
        {
          "internalType": "uint256",
          "name": "_startTime",
          "type": "uint256"
        },
        {
          "internalType": "uint256",
          "name": "_endTime",
          "type": "uint256"
        },
        {
          "internalType": "string",
          "name": "_rules",
          "type": "string"
        },
        {
          "internalType": "string",
          "name": "_notificationImageURL",
          "type": "string"
        },
        {
          "internalType": "string",
          "name": "_notificationMessage",
          "type": "string"
        }
      ],
      "name": "createEvent",
      "outputs": [],
      "stateMutability": "nonpayable",
      "type": "function"
    },
    {
      "inputs": [
        {
          "internalType": "uint256",
          "name": "_eventId",
          "type": "uint256"
        },
        {
          "internalType": "string",
          "name": "_option",
          "type": "string"
        }
      ],
      "name": "placeBet",
      "outputs": [],
      "stateMutability": "payable",
      "type": "function",
      "payable": true
    },
    {
      "inputs": [
        {
          "internalType": "uint256",
          "name": "_eventId",
          "type": "uint256"
        },
        {
          "internalType": "string",
          "name": "_winningOption",
          "type": "string"
        }
      ],
      "name": "declareWinner",
      "outputs": [],
      "stateMutability": "nonpayable",
      "type": "function"
    },
    {
      "inputs": [
        {
          "internalType": "uint256",
          "name": "_eventId",
          "type": "uint256"
        }
      ],
      "name": "getEvent",
      "outputs": [
        {
          "components": [
            {
              "internalType": "uint256",
              "name": "eventId",
              "type": "uint256"
            },
            {
              "internalType": "string",
              "name": "name",
              "type": "string"
            },
            {
              "internalType": "string",
              "name": "description",
              "type": "string"
            },
            {
              "internalType": "string",
              "name": "imageURL",
              "type": "string"
            },
            {
              "internalType": "string[]",
              "name": "options",
              "type": "string[]"
            },
            {
              "internalType": "uint256",
              "name": "startTime",
              "type": "uint256"
            },
            {
              "internalType": "uint256",
              "name": "endTime",
              "type": "uint256"
            },
            {
              "internalType": "bool",
              "name": "isCompleted",
              "type": "bool"
            },
            {
              "internalType": "string",
              "name": "winningOption",
              "type": "string"
            },
            {
              "internalType": "uint256",
              "name": "prizePool",
              "type": "uint256"
            },
            {
              "internalType": "string",
              "name": "rules",
              "type": "string"
            },
            {
              "internalType": "string",
              "name": "notificationImageURL",
              "type": "string"
            },
            {
              "internalType": "string",
              "name": "notificationMessage",
              "type": "string"
            }
          ],
          "internalType": "struct BettingEvents.BetEventView",
          "name": "",
          "type": "tuple"
        }
      ],
      "stateMutability": "view",
      "type": "function",
      "constant": true
    },
    {
      "inputs": [
        {
          "internalType": "uint256",
          "name": "_eventId",
          "type": "uint256"
        }
      ],
      "name": "getEventOptions",
      "outputs": [
        {
          "internalType": "string[]",
          "name": "",
          "type": "string[]"
        }
      ],
      "stateMutability": "view",
      "type": "function",
      "constant": true
    },
    {
      "inputs": [
        {
          "internalType": "uint256",
          "name": "_eventId",
          "type": "uint256"
        }
      ],
      "name": "getEventPrizePool",
      "outputs": [
        {
          "internalType": "uint256",
          "name": "",
          "type": "uint256"
        }
      ],
      "stateMutability": "view",
      "type": "function",
      "constant": true
    },
    {
      "inputs": [
        {
          "internalType": "uint256",
          "name": "_eventId",
          "type": "uint256"
        }
      ],
      "name": "getEventOdds",
      "outputs": [
        {
          "components": [
            {
              "internalType": "string",
              "name": "optionName",
              "type": "string"
            },
            {
              "internalType": "uint256",
              "name": "oddsPercentage",
              "type": "uint256"
            }
          ],
          "internalType": "struct BettingEvents.OptionOdds[]",
          "name": "",
          "type": "tuple[]"
        }
      ],
      "stateMutability": "view",
      "type": "function",
      "constant": true
    },
    {
      "inputs": [],
      "name": "getTotalAdminProfit",
      "outputs": [
        {
          "internalType": "uint256",
          "name": "",
          "type": "uint256"
        }
      ],
      "stateMutability": "view",
      "type": "function",
      "constant": true
    },
    {
      "inputs": [],
      "name": "getTotalBetsPlaced",
      "outputs": [
        {
          "internalType": "uint256",
          "name": "",
          "type": "uint256"
        }
      ],
      "stateMutability": "view",
      "type": "function",
      "constant": true
    }
  ],
  "bytecode": "0x608060405234801561001057600080fd5b5033600260006101000a81548173ffffffffffffffffffffffffffffffffffffffff021916908373ffffffffffffffffffffffffffffffffffffffff1602179055506000600381905550613c1c806100696000396000f3fe6080604052600436106100f35760003560e01c806395db9b0b1161008a578063bb61799611610059578063bb6179961461034e578063c03fb87c1461038b578063d74982ef146103ca578063f851a440146103f5576100f3565b806395db9b0b1461027e578063998f6ac0146102a95780639f9d903a146102e6578063acc566a514610311576100f3565b80635e8af735116100c65780635e8af735146101cf578063682e54cd146101eb5780636d1884e0146102165780638ff8550c14610253576100f3565b80630b791430146100f85780633801f697146101405780633c6f876c146101695780635be9cc9c14610192575b600080fd5b34801561010457600080fd5b5061011f600480360381019061011a91906127b9565b610420565b6040516101379c9b9a99989796959493929190613604565b60405180910390f35b34801561014c57600080fd5b506101676004803603810190610162919061281e565b610845565b005b34801561017557600080fd5b50610190600480360381019061018b9190612872565b610fa9565b005b34801561019e57600080fd5b506101b960048036038101906101b491906127b9565b6112d1565b6040516101c69190613307565b60405180910390f35b6101e960048036038101906101e4919061281e565b61141a565b005b3480156101f757600080fd5b50610200611835565b60405161020d919061334b565b60405180910390f35b34801561022257600080fd5b5061023d600480360381019061023891906127b9565b61188d565b60405161024a919061354b565b60405180910390f35b34801561025f57600080fd5b50610268611e30565b604051610275919061356d565b60405180910390f35b34801561028a57600080fd5b50610293611e36565b6040516102a0919061356d565b60405180910390f35b3480156102b557600080fd5b506102d060048036038101906102cb91906127b9565b611e40565b6040516102dd919061356d565b60405180910390f35b3480156102f257600080fd5b506102fb611e64565b604051610308919061356d565b60405180910390f35b34801561031d57600080fd5b50610338600480360381019061033391906127b9565b611e6a565b6040516103459190613329565b60405180910390f35b34801561035a57600080fd5b50610375600480360381019061037091906127b9565b61226c565b604051610382919061356d565b60405180910390f35b34801561039757600080fd5b506103b260048036038101906103ad91906127e2565b6122e6565b6040516103c19392919061336d565b60405180910390f35b3480156103d657600080fd5b506103df6123f6565b6040516103ec919061356d565b60405180910390f35b34801561040157600080fd5b5061040a61248f565b60405161041791906132ec565b60405180910390f35b600060205280600052604060002060009150905080600001549080600101805461044990613a70565b80601f016020809104026020016040519081016040528092919081815260200182805461047590613a70565b80156104c25780601f10610497576101008083540402835291602001916104c2565b820191906000526020600020905b8154815290600101906020018083116104a557829003601f168201915b5050505050908060020180546104d790613a70565b80601f016020809104026020016040519081016040528092919081815260200182805461050390613a70565b80156105505780601f1061052557610100808354040283529160200191610550565b820191906000526020600020905b81548152906001019060200180831161053357829003601f168201915b50505050509080600301805461056590613a70565b80601f016020809104026020016040519081016040528092919081815260200182805461059190613a70565b80156105de5780601f106105b3576101008083540402835291602001916105de565b820191906000526020600020905b8154815290600101906020018083116105c157829003601f168201915b5050505050908060050154908060060154908060070160009054906101000a900460ff169080600801805461061290613a70565b80601f016020809104026020016040519081016040528092919081815260200182805461063e90613a70565b801561068b5780601f106106605761010080835404028352916020019161068b565b820191906000526020600020905b81548152906001019060200180831161066e57829003601f168201915b50505050509080600901549080600a0180546106a690613a70565b80601f01602080910402602001604051908101604052809291908181526020018280546106d290613a70565b801561071f5780601f106106f45761010080835404028352916020019161071f565b820191906000526020600020905b81548152906001019060200180831161070257829003601f168201915b50505050509080600b01805461073490613a70565b80601f016020809104026020016040519081016040528092919081815260200182805461076090613a70565b80156107ad5780601f10610782576101008083540402835291602001916107ad565b820191906000526020600020905b81548152906001019060200180831161079057829003601f168201915b50505050509080600c0180546107c290613a70565b80601f01602080910402602001604051908101604052809291908181526020018280546107ee90613a70565b801561083b5780601f106108105761010080835404028352916020019161083b565b820191906000526020600020905b81548152906001019060200180831161081e57829003601f168201915b505050505090508c565b600260009054906101000a900473ffffffffffffffffffffffffffffffffffffffff1673ffffffffffffffffffffffffffffffffffffffff163373ffffffffffffffffffffffffffffffffffffffff16146108d5576040517f08c379a00000000000000000000000000000000000000000000000000000000081526004016108cc906134ab565b60405180910390fd5b81600080600083815260200190815260200160002060000154141561092f576040517f08c379a0000000000000000000000000000000000000000000000000000000008152600401610926906134cb565b60405180910390fd5b600080600085815260200190815260200160002090508060070160009054906101000a900460ff1615610997576040517f08c379a000000000000000000000000000000000000000000000000000000000815260040161098e906134eb565b60405180910390fd5b80600601544210156109de576040517f08c379a00000000000000000000000000000000000000000000000000000000081526004016109d59061350b565b60405180910390fd5b6000805b8260040180549050811015610aa65784604051602001610a0291906132be565b60405160208183030381529060405280519060200120836004018281548110610a54577f4e487b7100000000000000000000000000000000000000000000000000000000600052603260045260246000fd5b90600052602060002001604051602001610a6e91906132d5565b604051602081830303815290604052805190602001201415610a935760019150610aa6565b8080610a9e90613aa2565b9150506109e2565b5080610ae7576040517f08c379a0000000000000000000000000000000000000000000000000000000008152600401610ade906133eb565b60405180910390fd5b83826008019080519060200190610aff9291906124b5565b5060018260070160006101000a81548160ff02191690831515021790555060008083600e018054905067ffffffffffffffff811115610b67577f4e487b7100000000000000000000000000000000000000000000000000000000600052604160045260246000fd5b604051908082528060200260200182016040528015610b955781602001602082028036833780820191505090505b5090506000805b85600e0180549050811015610d9657600086600e018281548110610be9577f4e487b7100000000000000000000000000000000000000000000000000000000600052603260045260246000fd5b9060005260206000200160009054906101000a900473ffffffffffffffffffffffffffffffffffffffff16905088604051602001610c2791906132be565b6040516020818303038152906040528051906020012087600d0160008373ffffffffffffffffffffffffffffffffffffffff1673ffffffffffffffffffffffffffffffffffffffff168152602001908152602001600020600001604051602001610c9191906132d5565b604051602081830303815290604052805190602001201415610d825786600d0160008273ffffffffffffffffffffffffffffffffffffffff1673ffffffffffffffffffffffffffffffffffffffff1681526020019081526020016000206001015485610cfd91906138d1565b945080848481518110610d39577f4e487b7100000000000000000000000000000000000000000000000000000000600052603260045260246000fd5b602002602001019073ffffffffffffffffffffffffffffffffffffffff16908173ffffffffffffffffffffffffffffffffffffffff16815250508280610d7e90613aa2565b9350505b508080610d8e90613aa2565b915050610b9c565b506000606460058760090154610dac9190613958565b610db69190613927565b90506000818760090154610dca91906139b2565b90508160036000828254610dde91906138d1565b92505081905550600260009054906101000a900473ffffffffffffffffffffffffffffffffffffffff1673ffffffffffffffffffffffffffffffffffffffff166108fc839081150290604051600060405180830381858888f19350505050158015610e4d573d6000803e3d6000fd5b506000851115610f645760005b83811015610f62576000858281518110610e9d577f4e487b7100000000000000000000000000000000000000000000000000000000600052603260045260246000fd5b60200260200101519050600087848b600d0160008573ffffffffffffffffffffffffffffffffffffffff1673ffffffffffffffffffffffffffffffffffffffff16815260200190815260200160002060010154610efa9190613958565b610f049190613927565b90508173ffffffffffffffffffffffffffffffffffffffff166108fc829081150290604051600060405180830381858888f19350505050158015610f4c573d6000803e3d6000fd5b5050508080610f5a90613aa2565b915050610e5a565b505b7f174d40141d388f930fca11a3c885eba334def4ea654c9b34dbe4c549f3af5a3d8a8a604051610f959291906135d4565b60405180910390a150505050505050505050565b600260009054906101000a900473ffffffffffffffffffffffffffffffffffffffff1673ffffffffffffffffffffffffffffffffffffffff163373ffffffffffffffffffffffffffffffffffffffff1614611039576040517f08c379a0000000000000000000000000000000000000000000000000000000008152600401611030906134ab565b60405180910390fd5b83851061107b576040517f08c379a0000000000000000000000000000000000000000000000000000000008152600401611072906133cb565b60405180910390fd5b60018651116110bf576040517f08c379a00000000000000000000000000000000000000000000000000000000081526004016110b69061340b565b60405180910390fd5b60008060008c81526020019081526020016000206000015414611117576040517f08c379a000000000000000000000000000000000000000000000000000000000815260040161110e9061344b565b60405180910390fd5b60048a908060018154018082558091505060019003906000526020600020016000909190919091505560008060008c815260200190815260200160002090508a8160000181905550898160010190805190602001906111779291906124b5565b50888160020190805190602001906111909291906124b5565b50878160030190805190602001906111a99291906124b5565b50868160040190805190602001906111c292919061253b565b5085816005018190555084816006018190555060008160070160006101000a81548160ff021916908315150217905550604051806020016040528060008152508160080190805190602001906112199291906124b5565b50600081600901819055508381600a01908051906020019061123c9291906124b5565b508281600b0190805190602001906112559291906124b5565b508181600c01908051906020019061126e9291906124b5565b507f42e6867e52299b45991308391cccb9ee79466d194059ff10fc15c2d88f0ea0618b8b88886040516112a494939291906136ef565b60405180910390a1600160008154809291906112bf90613aa2565b91905055505050505050505050505050565b606081600080600083815260200190815260200160002060000154141561132d576040517f08c379a0000000000000000000000000000000000000000000000000000000008152600401611324906134cb565b60405180910390fd5b600080848152602001908152602001600020600401805480602002602001604051908101604052809291908181526020016000905b8282101561140e57838290600052602060002001805461138190613a70565b80601f01602080910402602001604051908101604052809291908181526020018280546113ad90613a70565b80156113fa5780601f106113cf576101008083540402835291602001916113fa565b820191906000526020600020905b8154815290600101906020018083116113dd57829003601f168201915b505050505081526020019060010190611362565b50505050915050919050565b816000806000838152602001908152602001600020600001541415611474576040517f08c379a000000000000000000000000000000000000000000000000000000000815260040161146b906134cb565b60405180910390fd5b6000806000858152602001908152602001600020905080600501544210156114d1576040517f08c379a00000000000000000000000000000000000000000000000000000000081526004016114c8906133ab565b60405180910390fd5b8060060154421115611518576040517f08c379a000000000000000000000000000000000000000000000000000000000815260040161150f9061346b565b60405180910390fd5b6000341161155b576040517f08c379a00000000000000000000000000000000000000000000000000000000081526004016115529061342b565b60405180910390fd5b6000805b8260040180549050811015611623578460405160200161157f91906132be565b604051602081830303815290604052805190602001208360040182815481106115d1577f4e487b7100000000000000000000000000000000000000000000000000000000600052603260045260246000fd5b906000526020600020016040516020016115eb91906132d5565b6040516020818303038152906040528051906020012014156116105760019150611623565b808061161b90613aa2565b91505061155f565b5080611664576040517f08c379a000000000000000000000000000000000000000000000000000000000815260040161165b9061352b565b60405180910390fd5b600082600d0160003373ffffffffffffffffffffffffffffffffffffffff1673ffffffffffffffffffffffffffffffffffffffff16815260200190815260200160002090508060020160009054906101000a900460ff16156116fb576040517f08c379a00000000000000000000000000000000000000000000000000000000081526004016116f29061348b565b60405180910390fd5b848160000190805190602001906117139291906124b5565b5034816001018190555060018160020160006101000a81548160ff02191690831515021790555082600e01339080600181540180825580915050600190039060005260206000200160009091909190916101000a81548173ffffffffffffffffffffffffffffffffffffffff021916908373ffffffffffffffffffffffffffffffffffffffff160217905550348360090160008282546117b391906138d1565b9250508190555082600f01856040516117cc91906132be565b908152602001604051809103902060008154809291906117eb90613aa2565b91905055507f3a5b25f48e15ab3e4d810304ed7368c35de823921fa3fd504ba8ab2841bf1ad7863334886040516118259493929190613588565b60405180910390a1505050505050565b6060600480548060200260200160405190810160405280929190818152602001828054801561188357602002820191906000526020600020905b81548152602001906001019080831161186f575b5050505050905090565b61189561259b565b8160008060008381526020019081526020016000206000015414156118ef576040517f08c379a00000000000000000000000000000000000000000000000000000000081526004016118e6906134cb565b60405180910390fd5b60008060008581526020019081526020016000209050604051806101a001604052808260000154815260200182600101805461192a90613a70565b80601f016020809104026020016040519081016040528092919081815260200182805461195690613a70565b80156119a35780601f10611978576101008083540402835291602001916119a3565b820191906000526020600020905b81548152906001019060200180831161198657829003601f168201915b505050505081526020018260020180546119bc90613a70565b80601f01602080910402602001604051908101604052809291908181526020018280546119e890613a70565b8015611a355780601f10611a0a57610100808354040283529160200191611a35565b820191906000526020600020905b815481529060010190602001808311611a1857829003601f168201915b50505050508152602001826003018054611a4e90613a70565b80601f0160208091040260200160405190810160405280929190818152602001828054611a7a90613a70565b8015611ac75780601f10611a9c57610100808354040283529160200191611ac7565b820191906000526020600020905b815481529060010190602001808311611aaa57829003601f168201915b5050505050815260200182600401805480602002602001604051908101604052809291908181526020016000905b82821015611ba1578382906000526020600020018054611b1490613a70565b80601f0160208091040260200160405190810160405280929190818152602001828054611b4090613a70565b8015611b8d5780601f10611b6257610100808354040283529160200191611b8d565b820191906000526020600020905b815481529060010190602001808311611b7057829003601f168201915b505050505081526020019060010190611af5565b50505050815260200182600501548152602001826006015481526020018260070160009054906101000a900460ff1615158152602001826008018054611be690613a70565b80601f0160208091040260200160405190810160405280929190818152602001828054611c1290613a70565b8015611c5f5780601f10611c3457610100808354040283529160200191611c5f565b820191906000526020600020905b815481529060010190602001808311611c4257829003601f168201915b505050505081526020018260090154815260200182600a018054611c8290613a70565b80601f0160208091040260200160405190810160405280929190818152602001828054611cae90613a70565b8015611cfb5780601f10611cd057610100808354040283529160200191611cfb565b820191906000526020600020905b815481529060010190602001808311611cde57829003601f168201915b5050505050815260200182600b018054611d1490613a70565b80601f0160208091040260200160405190810160405280929190818152602001828054611d4090613a70565b8015611d8d5780601f10611d6257610100808354040283529160200191611d8d565b820191906000526020600020905b815481529060010190602001808311611d7057829003601f168201915b5050505050815260200182600c018054611da690613a70565b80601f0160208091040260200160405190810160405280929190818152602001828054611dd290613a70565b8015611e1f5780601f10611df457610100808354040283529160200191611e1f565b820191906000526020600020905b815481529060010190602001808311611e0257829003601f168201915b505050505081525092505050919050565b60035481565b6000600354905090565b60048181548110611e5057600080fd5b906000526020600020016000915090505481565b60015481565b6060816000806000838152602001908152602001600020600001541415611ec6576040517f08c379a0000000000000000000000000000000000000000000000000000000008152600401611ebd906134cb565b60405180910390fd5b60008060008581526020019081526020016000209050600081600e018054905090506000826004018054905067ffffffffffffffff811115611f31577f4e487b7100000000000000000000000000000000000000000000000000000000600052604160045260246000fd5b604051908082528060200260200182016040528015611f6a57816020015b611f57612605565b815260200190600190039081611f4f5790505b50905060008214156120cf5760005b83600401805490508110156120c3576040518060400160405280856004018381548110611fcf577f4e487b7100000000000000000000000000000000000000000000000000000000600052603260045260246000fd5b906000526020600020018054611fe490613a70565b80601f016020809104026020016040519081016040528092919081815260200182805461201090613a70565b801561205d5780601f106120325761010080835404028352916020019161205d565b820191906000526020600020905b81548152906001019060200180831161204057829003601f168201915b5050505050815260200160008152508282815181106120a5577f4e487b7100000000000000000000000000000000000000000000000000000000600052603260045260246000fd5b602002602001018190525080806120bb90613aa2565b915050611f79565b50809450505050612266565b60005b836004018054905081101561225e57600084600401828154811061211f577f4e487b7100000000000000000000000000000000000000000000000000000000600052603260045260246000fd5b90600052602060002001805461213490613a70565b80601f016020809104026020016040519081016040528092919081815260200182805461216090613a70565b80156121ad5780601f10612182576101008083540402835291602001916121ad565b820191906000526020600020905b81548152906001019060200180831161219057829003601f168201915b50505050509050600085600f01826040516121c891906132be565b90815260200160405180910390205490506040518060400160405280838152602001866064846121f89190613958565b6122029190613927565b81525084848151811061223e577f4e487b7100000000000000000000000000000000000000000000000000000000600052603260045260246000fd5b60200260200101819052505050808061225690613aa2565b9150506120d2565b508094505050505b50919050565b60008160008060008381526020019081526020016000206000015414156122c8576040517f08c379a00000000000000000000000000000000000000000000000000000000081526004016122bf906134cb565b60405180910390fd5b60008084815260200190815260200160002060090154915050919050565b60606000806000806000878152602001908152602001600020600d0160008673ffffffffffffffffffffffffffffffffffffffff1673ffffffffffffffffffffffffffffffffffffffff16815260200190815260200160002090508060000181600101548260020160009054906101000a900460ff1682805461236890613a70565b80601f016020809104026020016040519081016040528092919081815260200182805461239490613a70565b80156123e15780601f106123b6576101008083540402835291602001916123e1565b820191906000526020600020905b8154815290600101906020018083116123c457829003601f168201915b50505050509250935093509350509250925092565b6000806000905060005b600480549050811015612487576000806004838154811061244a577f4e487b7100000000000000000000000000000000000000000000000000000000600052603260045260246000fd5b90600052602060002001548152602001908152602001600020600901548261247291906138d1565b9150808061247f90613aa2565b915050612400565b508091505090565b600260009054906101000a900473ffffffffffffffffffffffffffffffffffffffff1681565b8280546124c190613a70565b90600052602060002090601f0160209004810192826124e3576000855561252a565b82601f106124fc57805160ff191683800117855561252a565b8280016001018555821561252a579182015b8281111561252957825182559160200191906001019061250e565b5b509050612537919061261f565b5090565b82805482825590600052602060002090810192821561258a579160200282015b828111156125895782518290805190602001906125799291906124b5565b509160200191906001019061255b565b5b509050612597919061263c565b5090565b604051806101a001604052806000815260200160608152602001606081526020016060815260200160608152602001600081526020016000815260200160001515815260200160608152602001600081526020016060815260200160608152602001606081525090565b604051806040016040528060608152602001600081525090565b5b80821115612638576000816000905550600101612620565b5090565b5b8082111561265c57600081816126539190612660565b5060010161263d565b5090565b50805461266c90613a70565b6000825580601f1061267e575061269d565b601f01602090049060005260206000209081019061269c919061261f565b5b50565b60006126b36126ae8461376c565b61373b565b9050808382526020820190508260005b858110156126f357813585016126d9888261277a565b8452602084019350602083019250506001810190506126c3565b5050509392505050565b600061271061270b84613798565b61373b565b90508281526020810184848401111561272857600080fd5b612733848285613a2e565b509392505050565b60008135905061274a81613bb8565b92915050565b600082601f83011261276157600080fd5b81356127718482602086016126a0565b91505092915050565b600082601f83011261278b57600080fd5b813561279b8482602086016126fd565b91505092915050565b6000813590506127b381613bcf565b92915050565b6000602082840312156127cb57600080fd5b60006127d9848285016127a4565b91505092915050565b600080604083850312156127f557600080fd5b6000612803858286016127a4565b92505060206128148582860161273b565b9150509250929050565b6000806040838503121561283157600080fd5b600061283f858286016127a4565b925050602083013567ffffffffffffffff81111561285c57600080fd5b6128688582860161277a565b9150509250929050565b6000806000806000806000806000806101408b8d03121561289257600080fd5b60006128a08d828e016127a4565b9a505060208b013567ffffffffffffffff8111156128bd57600080fd5b6128c98d828e0161277a565b99505060408b013567ffffffffffffffff8111156128e657600080fd5b6128f28d828e0161277a565b98505060608b013567ffffffffffffffff81111561290f57600080fd5b61291b8d828e0161277a565b97505060808b013567ffffffffffffffff81111561293857600080fd5b6129448d828e01612750565b96505060a06129558d828e016127a4565b95505060c06129668d828e016127a4565b94505060e08b013567ffffffffffffffff81111561298357600080fd5b61298f8d828e0161277a565b9350506101008b013567ffffffffffffffff8111156129ad57600080fd5b6129b98d828e0161277a565b9250506101208b013567ffffffffffffffff8111156129d757600080fd5b6129e38d828e0161277a565b9150509295989b9194979a5092959850565b6000612a018383612c1f565b905092915050565b6000612a158383613263565b905092915050565b6000612a2983836132a0565b60208301905092915050565b612a3e816139e6565b82525050565b6000612a4f8261380d565b612a598185613860565b935083602082028501612a6b856137c8565b8060005b85811015612aa75784840389528151612a8885826129f5565b9450612a9383613839565b925060208a01995050600181019050612a6f565b50829750879550505050505092915050565b6000612ac48261380d565b612ace8185613871565b935083602082028501612ae0856137c8565b8060005b85811015612b1c5784840389528151612afd85826129f5565b9450612b0883613839565b925060208a01995050600181019050612ae4565b50829750879550505050505092915050565b6000612b3982613818565b612b438185613882565b935083602082028501612b55856137d8565b8060005b85811015612b915784840389528151612b728582612a09565b9450612b7d83613846565b925060208a01995050600181019050612b59565b50829750879550505050505092915050565b6000612bae82613823565b612bb88185613893565b9350612bc3836137e8565b8060005b83811015612bf4578151612bdb8882612a1d565b9750612be683613853565b925050600181019050612bc7565b5085935050505092915050565b612c0a816139f8565b82525050565b612c19816139f8565b82525050565b6000612c2a8261382e565b612c3481856138a4565b9350612c44818560208601613a3d565b612c4d81613ba7565b840191505092915050565b6000612c638261382e565b612c6d81856138b5565b9350612c7d818560208601613a3d565b612c8681613ba7565b840191505092915050565b6000612c9c8261382e565b612ca681856138c6565b9350612cb6818560208601613a3d565b80840191505092915050565b60008154612ccf81613a70565b612cd981866138c6565b94506001821660008114612cf45760018114612d0557612d38565b60ff19831686528186019350612d38565b612d0e856137f8565b60005b83811015612d3057815481890152600182019150602081019050612d11565b838801955050505b50505092915050565b6000612d4e6019836138b5565b91507f4576656e7420686173206e6f74207374617274656420796574000000000000006000830152602082019050919050565b6000612d8e6022836138b5565b91507f53746172742074696d65206d757374206265206265666f726520656e6420746960008301527f6d650000000000000000000000000000000000000000000000000000000000006020830152604082019050919050565b6000612df4600e836138b5565b91507f496e76616c6964206f7074696f6e0000000000000000000000000000000000006000830152602082019050919050565b6000612e34602a836138b5565b91507f5468657265206d757374206265206174206c656173742074776f20626574746960008301527f6e67206f7074696f6e73000000000000000000000000000000000000000000006020830152604082019050919050565b6000612e9a6021836138b5565b91507f42657420616d6f756e74206d7573742062652067726561746572207468616e2060008301527f30000000000000000000000000000000000000000000000000000000000000006020830152604082019050919050565b6000612f006017836138b5565b91507f4576656e7420494420616c7265616479206578697374730000000000000000006000830152602082019050919050565b6000612f40600f836138b5565b91507f4576656e742068617320656e64656400000000000000000000000000000000006000830152602082019050919050565b6000612f80601d836138b5565b91507f596f75206861766520616c726561647920706c616365642061206265740000006000830152602082019050919050565b6000612fc06022836138b5565b91507f4f6e6c792061646d696e2063616e20706572666f726d2074686973206163746960008301527f6f6e0000000000000000000000000000000000000000000000000000000000006020830152604082019050919050565b60006130266014836138b5565b91507f4576656e7420646f6573206e6f742065786973740000000000000000000000006000830152602082019050919050565b60006130666017836138b5565b91507f4576656e7420616c726561647920636f6d706c657465640000000000000000006000830152602082019050919050565b60006130a66013836138b5565b91507f4576656e74206e6f7420656e64656420796574000000000000000000000000006000830152602082019050919050565b60006130e66016836138b5565b91507f496e76616c69642062657474696e67206f7074696f6e000000000000000000006000830152602082019050919050565b60006101a08301600083015161313260008601826132a0565b506020830151848203602086015261314a8282612c1f565b915050604083015184820360408601526131648282612c1f565b9150506060830151848203606086015261317e8282612c1f565b915050608083015184820360808601526131988282612a44565b91505060a08301516131ad60a08601826132a0565b5060c08301516131c060c08601826132a0565b5060e08301516131d360e0860182612c01565b506101008301518482036101008601526131ed8282612c1f565b9150506101208301516132046101208601826132a0565b5061014083015184820361014086015261321e8282612c1f565b91505061016083015184820361016086015261323a8282612c1f565b9150506101808301518482036101808601526132568282612c1f565b9150508091505092915050565b600060408301600083015184820360008601526132808282612c1f565b915050602083015161329560208601826132a0565b508091505092915050565b6132a981613a24565b82525050565b6132b881613a24565b82525050565b60006132ca8284612c91565b915081905092915050565b60006132e18284612cc2565b915081905092915050565b60006020820190506133016000830184612a35565b92915050565b600060208201905081810360008301526133218184612ab9565b905092915050565b600060208201905081810360008301526133438184612b2e565b905092915050565b600060208201905081810360008301526133658184612ba3565b905092915050565b600060608201905081810360008301526133878186612c58565b905061339660208301856132af565b6133a36040830184612c10565b949350505050565b600060208201905081810360008301526133c481612d41565b9050919050565b600060208201905081810360008301526133e481612d81565b9050919050565b6000602082019050818103600083015261340481612de7565b9050919050565b6000602082019050818103600083015261342481612e27565b9050919050565b6000602082019050818103600083015261344481612e8d565b9050919050565b6000602082019050818103600083015261346481612ef3565b9050919050565b6000602082019050818103600083015261348481612f33565b9050919050565b600060208201905081810360008301526134a481612f73565b9050919050565b600060208201905081810360008301526134c481612fb3565b9050919050565b600060208201905081810360008301526134e481613019565b9050919050565b6000602082019050818103600083015261350481613059565b9050919050565b6000602082019050818103600083015261352481613099565b9050919050565b60006020820190508181036000830152613544816130d9565b9050919050565b600060208201905081810360008301526135658184613119565b905092915050565b600060208201905061358260008301846132af565b92915050565b600060808201905061359d60008301876132af565b6135aa6020830186612a35565b6135b760408301856132af565b81810360608301526135c98184612c58565b905095945050505050565b60006040820190506135e960008301856132af565b81810360208301526135fb8184612c58565b90509392505050565b60006101808201905061361a600083018f6132af565b818103602083015261362c818e612c58565b90508181036040830152613640818d612c58565b90508181036060830152613654818c612c58565b9050613663608083018b6132af565b61367060a083018a6132af565b61367d60c0830189612c10565b81810360e083015261368f8188612c58565b905061369f6101008301876132af565b8181036101208301526136b28186612c58565b90508181036101408301526136c78185612c58565b90508181036101608301526136dc8184612c58565b90509d9c50505050505050505050505050565b600060808201905061370460008301876132af565b81810360208301526137168186612c58565b905061372560408301856132af565b61373260608301846132af565b95945050505050565b6000604051905081810181811067ffffffffffffffff8211171561376257613761613b78565b5b8060405250919050565b600067ffffffffffffffff82111561378757613786613b78565b5b602082029050602081019050919050565b600067ffffffffffffffff8211156137b3576137b2613b78565b5b601f19601f8301169050602081019050919050565b6000819050602082019050919050565b6000819050602082019050919050565b6000819050602082019050919050565b60008190508160005260206000209050919050565b600081519050919050565b600081519050919050565b600081519050919050565b600081519050919050565b6000602082019050919050565b6000602082019050919050565b6000602082019050919050565b600082825260208201905092915050565b600082825260208201905092915050565b600082825260208201905092915050565b600082825260208201905092915050565b600082825260208201905092915050565b600082825260208201905092915050565b600081905092915050565b60006138dc82613a24565b91506138e783613a24565b9250827fffffffffffffffffffffffffffffffffffffffffffffffffffffffffffffffff0382111561391c5761391b613aeb565b5b828201905092915050565b600061393282613a24565b915061393d83613a24565b92508261394d5761394c613b1a565b5b828204905092915050565b600061396382613a24565b915061396e83613a24565b9250817fffffffffffffffffffffffffffffffffffffffffffffffffffffffffffffffff04831182151516156139a7576139a6613aeb565b5b828202905092915050565b60006139bd82613a24565b91506139c883613a24565b9250828210156139db576139da613aeb565b5b828203905092915050565b60006139f182613a04565b9050919050565b60008115159050919050565b600073ffffffffffffffffffffffffffffffffffffffff82169050919050565b6000819050919050565b82818337600083830152505050565b60005b83811015613a5b578082015181840152602081019050613a40565b83811115613a6a576000848401525b50505050565b60006002820490506001821680613a8857607f821691505b60208210811415613a9c57613a9b613b49565b5b50919050565b6000613aad82613a24565b91507fffffffffffffffffffffffffffffffffffffffffffffffffffffffffffffffff821415613ae057613adf613aeb565b5b600182019050919050565b7f4e487b7100000000000000000000000000000000000000000000000000000000600052601160045260246000fd5b7f4e487b7100000000000000000000000000000000000000000000000000000000600052601260045260246000fd5b7f4e487b7100000000000000000000000000000000000000000000000000000000600052602260045260246000fd5b7f4e487b7100000000000000000000000000000000000000000000000000000000600052604160045260246000fd5b6000601f19601f8301169050919050565b613bc1816139e6565b8114613bcc57600080fd5b50565b613bd881613a24565b8114613be357600080fd5b5056fea26469706673582212201300005e229c4ca5693ac1567fbedb208a7412fcae0954cbbc579b96f36ae96f64736f6c63430008000033",
  "immutableReferences": {},
  "source": "// SPDX-License-Identifier: MIT\r\npragma solidity ^0.8.0;\r\n\r\ncontract BettingEvents {\r\n    struct Bet {\r\n        string option;\r\n        uint256 amount;\r\n        bool exists;\r\n    }\r\n\r\n    struct OptionOdds {\r\n        string optionName;\r\n        uint256 oddsPercentage;\r\n    }\r\n\r\n    struct BetEvent {\r\n        uint256 eventId;\r\n        string name;\r\n        string description;\r\n        string imageURL;\r\n        string[] options;\r\n        uint256 startTime;\r\n        uint256 endTime;\r\n        bool isCompleted;\r\n        string winningOption;\r\n        uint256 prizePool;\r\n        string rules;\r\n        string notificationImageURL;\r\n        string notificationMessage;\r\n        mapping(address => Bet) bets;\r\n        address[] bettors;\r\n        mapping(string => uint256) optionBetCounts;\r\n    }\r\n\r\n    // Readable version of BetEvent for return\r\n    struct BetEventView {\r\n        uint256 eventId;\r\n        string name;\r\n        string description;\r\n        string imageURL;\r\n        string[] options;\r\n        uint256 startTime;\r\n        uint256 endTime;\r\n        bool isCompleted;\r\n        string winningOption;\r\n        uint256 prizePool;\r\n        string rules;\r\n        string notificationImageURL;\r\n        string notificationMessage;\r\n    }\r\n\r\n    mapping(uint256 => BetEvent) public events;\r\n    uint256 public nextEventId;\r\n    address public admin;\r\n    uint256 public totalAdminProfit;\r\n\r\n    event EventCreated(\r\n        uint256 eventId,\r\n        string name,\r\n        uint256 startTime,\r\n        uint256 endTime\r\n    );\r\n    event BetPlaced(\r\n        uint256 eventId,\r\n        address bettor,\r\n        uint256 amount,\r\n        string option\r\n    );\r\n    event WinnerDeclared(uint256 eventId, string winningOption);\r\n\r\n    modifier onlyAdmin() {\r\n        require(msg.sender == admin, \"Only admin can perform this action\");\r\n        _;\r\n    }\r\n\r\n    modifier eventExists(uint256 _eventId) {\r\n        require(events[_eventId].eventId != 0, \"Event does not exist\");\r\n        _;\r\n    }\r\n\r\n    constructor() {\r\n        admin = msg.sender;\r\n        totalAdminProfit = 0;\r\n    }\r\n\r\n    uint256[] public eventIds;\r\n\r\n    function getUserBet(\r\n        uint256 _eventId,\r\n        address _user\r\n    ) public view returns (string memory, uint256, bool) {\r\n        Bet storage bet = events[_eventId].bets[_user];\r\n        return (bet.option, bet.amount, bet.exists);\r\n    }\r\n\r\n    function getAllEventIds() public view returns (uint256[] memory) {\r\n        return eventIds;\r\n    }\r\n\r\n    function createEvent(\r\n        uint256 _eventId,\r\n        string memory _name,\r\n        string memory _description,\r\n        string memory _imageURL,\r\n        string[] memory _options,\r\n        uint256 _startTime,\r\n        uint256 _endTime,\r\n        string memory _rules,\r\n        string memory _notificationImageURL,\r\n        string memory _notificationMessage\r\n    ) external onlyAdmin {\r\n        require(_startTime < _endTime, \"Start time must be before end time\");\r\n        require(\r\n            _options.length > 1,\r\n            \"There must be at least two betting options\"\r\n        );\r\n        require(events[_eventId].eventId == 0, \"Event ID already exists\");\r\n        eventIds.push(_eventId);\r\n\r\n        BetEvent storage newEvent = events[_eventId];\r\n        newEvent.eventId = _eventId;\r\n        newEvent.name = _name;\r\n        newEvent.description = _description;\r\n        newEvent.imageURL = _imageURL;\r\n        newEvent.options = _options;\r\n        newEvent.startTime = _startTime;\r\n        newEvent.endTime = _endTime;\r\n        newEvent.isCompleted = false;\r\n        newEvent.winningOption = \"\";\r\n        newEvent.prizePool = 0;\r\n        newEvent.rules = _rules;\r\n        newEvent.notificationImageURL = _notificationImageURL;\r\n        newEvent.notificationMessage = _notificationMessage;\r\n\r\n        emit EventCreated(_eventId, _name, _startTime, _endTime);\r\n        nextEventId++;\r\n    }\r\n\r\n    function placeBet(\r\n        uint256 _eventId,\r\n        string memory _option\r\n    ) external payable eventExists(_eventId) {\r\n        BetEvent storage betEvent = events[_eventId];\r\n        require(\r\n            block.timestamp >= betEvent.startTime,\r\n            \"Event has not started yet\"\r\n        );\r\n        require(block.timestamp <= betEvent.endTime, \"Event has ended\");\r\n        require(msg.value > 0, \"Bet amount must be greater than 0\");\r\n\r\n        bool validOption = false;\r\n        for (uint256 i = 0; i < betEvent.options.length; i++) {\r\n            if (\r\n                keccak256(abi.encodePacked(betEvent.options[i])) ==\r\n                keccak256(abi.encodePacked(_option))\r\n            ) {\r\n                validOption = true;\r\n                break;\r\n            }\r\n        }\r\n        require(validOption, \"Invalid betting option\");\r\n\r\n        Bet storage userBet = betEvent.bets[msg.sender];\r\n        require(!userBet.exists, \"You have already placed a bet\");\r\n\r\n        userBet.option = _option;\r\n        userBet.amount = msg.value;\r\n        userBet.exists = true;\r\n        betEvent.bettors.push(msg.sender);\r\n        betEvent.prizePool += msg.value;\r\n        betEvent.optionBetCounts[_option]++;\r\n\r\n        emit BetPlaced(_eventId, msg.sender, msg.value, _option);\r\n    }\r\n\r\n    function declareWinner(\r\n        uint256 _eventId,\r\n        string memory _winningOption\r\n    ) external onlyAdmin eventExists(_eventId) {\r\n        BetEvent storage betEvent = events[_eventId];\r\n        require(!betEvent.isCompleted, \"Event already completed\");\r\n        require(block.timestamp >= betEvent.endTime, \"Event not ended yet\");\r\n\r\n        bool validOption = false;\r\n        for (uint256 i = 0; i < betEvent.options.length; i++) {\r\n            if (\r\n                keccak256(abi.encodePacked(betEvent.options[i])) ==\r\n                keccak256(abi.encodePacked(_winningOption))\r\n            ) {\r\n                validOption = true;\r\n                break;\r\n            }\r\n        }\r\n        require(validOption, \"Invalid option\");\r\n\r\n        betEvent.winningOption = _winningOption;\r\n        betEvent.isCompleted = true;\r\n\r\n        uint256 totalWinnersBetAmount = 0;\r\n        address payable[] memory winnersPayable = new address payable[](\r\n            betEvent.bettors.length\r\n        );\r\n        uint256 winnersCount = 0;\r\n\r\n        for (uint256 i = 0; i < betEvent.bettors.length; i++) {\r\n            address bettor = betEvent.bettors[i];\r\n            if (\r\n                keccak256(abi.encodePacked(betEvent.bets[bettor].option)) ==\r\n                keccak256(abi.encodePacked(_winningOption))\r\n            ) {\r\n                totalWinnersBetAmount += betEvent.bets[bettor].amount;\r\n                winnersPayable[winnersCount] = payable(bettor);\r\n                winnersCount++;\r\n            }\r\n        }\r\n\r\n        uint256 adminFee = (betEvent.prizePool * 5) / 100;\r\n        uint256 remainingPrizePool = betEvent.prizePool - adminFee;\r\n        totalAdminProfit += adminFee;\r\n        payable(admin).transfer(adminFee);\r\n\r\n        if (totalWinnersBetAmount > 0) {\r\n            for (uint256 i = 0; i < winnersCount; i++) {\r\n                address payable winner = winnersPayable[i];\r\n                uint256 winnerReward = (betEvent.bets[winner].amount *\r\n                    remainingPrizePool) / totalWinnersBetAmount;\r\n                winner.transfer(winnerReward);\r\n            }\r\n        }\r\n\r\n        emit WinnerDeclared(_eventId, _winningOption);\r\n    }\r\n\r\n    function getEvent(\r\n        uint256 _eventId\r\n    ) external view eventExists(_eventId) returns (BetEventView memory) {\r\n        BetEvent storage betEvent = events[_eventId];\r\n        return\r\n            BetEventView(\r\n                betEvent.eventId,\r\n                betEvent.name,\r\n                betEvent.description,\r\n                betEvent.imageURL,\r\n                betEvent.options,\r\n                betEvent.startTime,\r\n                betEvent.endTime,\r\n                betEvent.isCompleted,\r\n                betEvent.winningOption,\r\n                betEvent.prizePool,\r\n                betEvent.rules,\r\n                betEvent.notificationImageURL,\r\n                betEvent.notificationMessage\r\n            );\r\n    }\r\n\r\n    function getEventOptions(\r\n        uint256 _eventId\r\n    ) external view eventExists(_eventId) returns (string[] memory) {\r\n        return events[_eventId].options;\r\n    }\r\n\r\n    function getEventPrizePool(\r\n        uint256 _eventId\r\n    ) external view eventExists(_eventId) returns (uint256) {\r\n        return events[_eventId].prizePool;\r\n    }\r\n\r\n    function getEventOdds(\r\n        uint256 _eventId\r\n    ) external view eventExists(_eventId) returns (OptionOdds[] memory) {\r\n        BetEvent storage betEvent = events[_eventId];\r\n        uint256 totalBets = betEvent.bettors.length;\r\n        OptionOdds[] memory optionOddsArray = new OptionOdds[](\r\n            betEvent.options.length\r\n        );\r\n\r\n        if (totalBets == 0) {\r\n            for (uint256 i = 0; i < betEvent.options.length; i++) {\r\n                optionOddsArray[i] = OptionOdds({\r\n                    optionName: betEvent.options[i],\r\n                    oddsPercentage: 0\r\n                });\r\n            }\r\n            return optionOddsArray;\r\n        }\r\n\r\n        for (uint256 i = 0; i < betEvent.options.length; i++) {\r\n            string memory option = betEvent.options[i];\r\n            uint256 betCount = betEvent.optionBetCounts[option];\r\n            optionOddsArray[i] = OptionOdds({\r\n                optionName: option,\r\n                oddsPercentage: (betCount * 100) / totalBets\r\n            });\r\n        }\r\n\r\n        return optionOddsArray;\r\n    }\r\n\r\n    function getTotalAdminProfit() external view returns (uint256) {\r\n        return totalAdminProfit;\r\n    }\r\n\r\n    function getTotalBetsPlaced() public view returns (uint256) {\r\n        uint256 total = 0;\r\n        for (uint256 i = 0; i < eventIds.length; i++) {\r\n            total += events[eventIds[i]].prizePool;\r\n        }\r\n        return total;\r\n    }\r\n}\r\n",
  "sourcePath": "C:\\Project\\StakeWise-Blockchain\\contracts\\BettingEvents.sol",
  "compiler": {
    "name": "solc",
    "version": "0.8.0+commit.c7dfd78e.Emscripten.clang"
  },
  "schemaVersion": "3.4.16",
  "updatedAt": "2025-05-21T07:56:46.546Z",
  "networkType": "ethereum",
  "devdoc": {
    "kind": "dev",
    "methods": {},
    "version": 1
  },
  "userdoc": {
    "kind": "user",
    "methods": {},
    "version": 1
  }
}