{
  "contractName": "BettingEvents",
  "abi": [
    {
      "inputs": [],
      "stateMutability": "nonpayable",
      "type": "constructor"
    },
    {
      "anonymous": false,
      "inputs": [
        {
          "indexed": false,
          "internalType": "uint256",
          "name": "eventId",
          "type": "uint256"
        },
        {
          "indexed": false,
          "internalType": "address",
          "name": "bettor",
          "type": "address"
        },
        {
          "indexed": false,
          "internalType": "uint256",
          "name": "amount",
          "type": "uint256"
        },
        {
          "indexed": false,
          "internalType": "string",
          "name": "option",
          "type": "string"
        }
      ],
      "name": "BetPlaced",
      "type": "event"
    },
    {
      "anonymous": false,
      "inputs": [
        {
          "indexed": false,
          "internalType": "uint256",
          "name": "eventId",
          "type": "uint256"
        },
        {
          "indexed": false,
          "internalType": "string",
          "name": "name",
          "type": "string"
        },
        {
          "indexed": false,
          "internalType": "uint256",
          "name": "startTime",
          "type": "uint256"
        },
        {
          "indexed": false,
          "internalType": "uint256",
          "name": "endTime",
          "type": "uint256"
        }
      ],
      "name": "EventCreated",
      "type": "event"
    },
    {
      "anonymous": false,
      "inputs": [
        {
          "indexed": false,
          "internalType": "uint256",
          "name": "eventId",
          "type": "uint256"
        },
        {
          "indexed": false,
          "internalType": "string",
          "name": "winningOption",
          "type": "string"
        }
      ],
      "name": "WinnerDeclared",
      "type": "event"
    },
    {
      "inputs": [],
      "name": "admin",
      "outputs": [
        {
          "internalType": "address",
          "name": "",
          "type": "address"
        }
      ],
      "stateMutability": "view",
      "type": "function",
      "constant": true
    },
    {
      "inputs": [
        {
          "internalType": "uint256",
          "name": "",
          "type": "uint256"
        }
      ],
      "name": "events",
      "outputs": [
        {
          "internalType": "uint256",
          "name": "eventId",
          "type": "uint256"
        },
        {
          "internalType": "string",
          "name": "name",
          "type": "string"
        },
        {
          "internalType": "string",
          "name": "description",
          "type": "string"
        },
        {
          "internalType": "string",
          "name": "imageURL",
          "type": "string"
        },
        {
          "internalType": "uint256",
          "name": "startTime",
          "type": "uint256"
        },
        {
          "internalType": "uint256",
          "name": "endTime",
          "type": "uint256"
        },
        {
          "internalType": "bool",
          "name": "isCompleted",
          "type": "bool"
        },
        {
          "internalType": "string",
          "name": "winningOption",
          "type": "string"
        },
        {
          "internalType": "uint256",
          "name": "prizePool",
          "type": "uint256"
        },
        {
          "internalType": "string",
          "name": "notificationMessage",
          "type": "string"
        }
      ],
      "stateMutability": "view",
      "type": "function",
      "constant": true
    },
    {
      "inputs": [],
      "name": "nextEventId",
      "outputs": [
        {
          "internalType": "uint256",
          "name": "",
          "type": "uint256"
        }
      ],
      "stateMutability": "view",
      "type": "function",
      "constant": true
    },
    {
      "inputs": [
        {
          "internalType": "uint256",
          "name": "_eventId",
          "type": "uint256"
        },
        {
          "internalType": "string",
          "name": "_name",
          "type": "string"
        },
        {
          "internalType": "string",
          "name": "_description",
          "type": "string"
        },
        {
          "internalType": "string",
          "name": "_imageURL",
          "type": "string"
        },
        {
          "internalType": "string[]",
          "name": "_options",
          "type": "string[]"
        },
        {
          "internalType": "uint256",
          "name": "_startTime",
          "type": "uint256"
        },
        {
          "internalType": "uint256",
          "name": "_endTime",
          "type": "uint256"
        },
        {
          "internalType": "string",
          "name": "_notificationMessage",
          "type": "string"
        }
      ],
      "name": "createEvent",
      "outputs": [],
      "stateMutability": "nonpayable",
      "type": "function"
    },
    {
      "inputs": [
        {
          "internalType": "uint256",
          "name": "_eventId",
          "type": "uint256"
        },
        {
          "internalType": "string",
          "name": "_option",
          "type": "string"
        }
      ],
      "name": "placeBet",
      "outputs": [],
      "stateMutability": "payable",
      "type": "function",
      "payable": true
    },
    {
      "inputs": [
        {
          "internalType": "uint256",
          "name": "_eventId",
          "type": "uint256"
        },
        {
          "internalType": "string",
          "name": "_winningOption",
          "type": "string"
        }
      ],
      "name": "declareWinner",
      "outputs": [],
      "stateMutability": "nonpayable",
      "type": "function"
    },
    {
      "inputs": [
        {
          "internalType": "uint256",
          "name": "_eventId",
          "type": "uint256"
        }
      ],
      "name": "getEvent",
      "outputs": [
        {
          "internalType": "uint256",
          "name": "eventId",
          "type": "uint256"
        },
        {
          "internalType": "string",
          "name": "name",
          "type": "string"
        },
        {
          "internalType": "string",
          "name": "description",
          "type": "string"
        },
        {
          "internalType": "string",
          "name": "imageURL",
          "type": "string"
        },
        {
          "internalType": "string[]",
          "name": "options",
          "type": "string[]"
        },
        {
          "internalType": "uint256",
          "name": "startTime",
          "type": "uint256"
        },
        {
          "internalType": "uint256",
          "name": "endTime",
          "type": "uint256"
        },
        {
          "internalType": "bool",
          "name": "isCompleted",
          "type": "bool"
        },
        {
          "internalType": "string",
          "name": "winningOption",
          "type": "string"
        },
        {
          "internalType": "uint256",
          "name": "prizePool",
          "type": "uint256"
        },
        {
          "internalType": "string",
          "name": "notificationMessage",
          "type": "string"
        }
      ],
      "stateMutability": "view",
      "type": "function",
      "constant": true
    },
    {
      "inputs": [
        {
          "internalType": "uint256",
          "name": "_eventId",
          "type": "uint256"
        }
      ],
      "name": "getEventOptions",
      "outputs": [
        {
          "internalType": "string[]",
          "name": "",
          "type": "string[]"
        }
      ],
      "stateMutability": "view",
      "type": "function",
      "constant": true
    },
    {
      "inputs": [
        {
          "internalType": "uint256",
          "name": "_eventId",
          "type": "uint256"
        }
      ],
      "name": "getEventPrizePool",
      "outputs": [
        {
          "internalType": "uint256",
          "name": "",
          "type": "uint256"
        }
      ],
      "stateMutability": "view",
      "type": "function",
      "constant": true
    },
    {
      "inputs": [
        {
          "internalType": "uint256",
          "name": "_eventId",
          "type": "uint256"
        }
      ],
      "name": "getEventOdds",
      "outputs": [
        {
          "components": [
            {
              "internalType": "string",
              "name": "optionName",
              "type": "string"
            },
            {
              "internalType": "uint256",
              "name": "oddsPercentage",
              "type": "uint256"
            }
          ],
          "internalType": "struct BettingEvents.OptionOdds[]",
          "name": "",
          "type": "tuple[]"
        }
      ],
      "stateMutability": "view",
      "type": "function",
      "constant": true
    }
  ],
  "bytecode": "0x608060405234801561001057600080fd5b5033600260006101000a81548173ffffffffffffffffffffffffffffffffffffffff021916908373ffffffffffffffffffffffffffffffffffffffff160217905550613145806100616000396000f3fe6080604052600436106100915760003560e01c80637653a3c1116100595780637653a3c1146101a55780639f9d903a146101ce578063acc566a5146101f9578063bb61799614610236578063f851a4401461027357610091565b80630b791430146100965780633801f697146100dc5780635be9cc9c146101055780635e8af735146101425780636d1884e01461015e575b600080fd5b3480156100a257600080fd5b506100bd60048036038101906100b89190612029565b61029e565b6040516100d39a99989796959493929190612bee565b60405180910390f35b3480156100e857600080fd5b5061010360048036038101906100fe9190612052565b6105a7565b005b34801561011157600080fd5b5061012c60048036038101906101279190612029565b610c56565b604051610139919061289e565b60405180910390f35b61015c60048036038101906101579190612052565b610d9f565b005b34801561016a57600080fd5b5061018560048036038101906101809190612029565b6111ba565b60405161019c9b9a99989796959493929190612b19565b60405180910390f35b3480156101b157600080fd5b506101cc60048036038101906101c791906120a6565b611631565b005b3480156101da57600080fd5b506101e36118fc565b6040516101f09190612a82565b60405180910390f35b34801561020557600080fd5b50610220600480360381019061021b9190612029565b611902565b60405161022d91906128c0565b60405180910390f35b34801561024257600080fd5b5061025d60048036038101906102589190612029565b611d04565b60405161026a9190612a82565b60405180910390f35b34801561027f57600080fd5b50610288611d7e565b6040516102959190612883565b60405180910390f35b60006020528060005260406000206000915090508060000154908060010180546102c790612fb0565b80601f01602080910402602001604051908101604052809291908181526020018280546102f390612fb0565b80156103405780601f1061031557610100808354040283529160200191610340565b820191906000526020600020905b81548152906001019060200180831161032357829003601f168201915b50505050509080600201805461035590612fb0565b80601f016020809104026020016040519081016040528092919081815260200182805461038190612fb0565b80156103ce5780601f106103a3576101008083540402835291602001916103ce565b820191906000526020600020905b8154815290600101906020018083116103b157829003601f168201915b5050505050908060030180546103e390612fb0565b80601f016020809104026020016040519081016040528092919081815260200182805461040f90612fb0565b801561045c5780601f106104315761010080835404028352916020019161045c565b820191906000526020600020905b81548152906001019060200180831161043f57829003601f168201915b5050505050908060050154908060060154908060070160009054906101000a900460ff169080600801805461049090612fb0565b80601f01602080910402602001604051908101604052809291908181526020018280546104bc90612fb0565b80156105095780601f106104de57610100808354040283529160200191610509565b820191906000526020600020905b8154815290600101906020018083116104ec57829003601f168201915b50505050509080600901549080600c01805461052490612fb0565b80601f016020809104026020016040519081016040528092919081815260200182805461055090612fb0565b801561059d5780601f106105725761010080835404028352916020019161059d565b820191906000526020600020905b81548152906001019060200180831161058057829003601f168201915b505050505090508a565b600260009054906101000a900473ffffffffffffffffffffffffffffffffffffffff1673ffffffffffffffffffffffffffffffffffffffff163373ffffffffffffffffffffffffffffffffffffffff1614610637576040517f08c379a000000000000000000000000000000000000000000000000000000000815260040161062e906129e2565b60405180910390fd5b816000806000838152602001908152602001600020600001541415610691576040517f08c379a000000000000000000000000000000000000000000000000000000000815260040161068890612a02565b60405180910390fd5b600080600085815260200190815260200160002090508060070160009054906101000a900460ff16156106f9576040517f08c379a00000000000000000000000000000000000000000000000000000000081526004016106f090612a22565b60405180910390fd5b8060060154421015610740576040517f08c379a000000000000000000000000000000000000000000000000000000000815260040161073790612a42565b60405180910390fd5b6000805b826004018054905081101561080857846040516020016107649190612855565b604051602081830303815290604052805190602001208360040182815481106107b6577f4e487b7100000000000000000000000000000000000000000000000000000000600052603260045260246000fd5b906000526020600020016040516020016107d0919061286c565b6040516020818303038152906040528051906020012014156107f55760019150610808565b808061080090612fe2565b915050610744565b5080610849576040517f08c379a000000000000000000000000000000000000000000000000000000000815260040161084090612922565b60405180910390fd5b83826008019080519060200190610861929190611da4565b5060018260070160006101000a81548160ff02191690831515021790555060008083600b018054905067ffffffffffffffff8111156108c9577f4e487b7100000000000000000000000000000000000000000000000000000000600052604160045260246000fd5b6040519080825280602002602001820160405280156108f75781602001602082028036833780820191505090505b5090506000805b85600b0180549050811015610af857600086600b01828154811061094b577f4e487b7100000000000000000000000000000000000000000000000000000000600052603260045260246000fd5b9060005260206000200160009054906101000a900473ffffffffffffffffffffffffffffffffffffffff169050886040516020016109899190612855565b6040516020818303038152906040528051906020012087600a0160008373ffffffffffffffffffffffffffffffffffffffff1673ffffffffffffffffffffffffffffffffffffffff1681526020019081526020016000206000016040516020016109f3919061286c565b604051602081830303815290604052805190602001201415610ae45786600a0160008273ffffffffffffffffffffffffffffffffffffffff1673ffffffffffffffffffffffffffffffffffffffff1681526020019081526020016000206001015485610a5f9190612e45565b945080848481518110610a9b577f4e487b7100000000000000000000000000000000000000000000000000000000600052603260045260246000fd5b602002602001019073ffffffffffffffffffffffffffffffffffffffff16908173ffffffffffffffffffffffffffffffffffffffff16815250508280610ae090612fe2565b9350505b508080610af090612fe2565b9150506108fe565b506000831115610c135760005b81811015610c11576000838281518110610b48577f4e487b7100000000000000000000000000000000000000000000000000000000600052603260045260246000fd5b60200260200101519050600085886009015489600a0160008573ffffffffffffffffffffffffffffffffffffffff1673ffffffffffffffffffffffffffffffffffffffff16815260200190815260200160002060010154610ba99190612ecc565b610bb39190612e9b565b90508173ffffffffffffffffffffffffffffffffffffffff166108fc829081150290604051600060405180830381858888f19350505050158015610bfb573d6000803e3d6000fd5b5050508080610c0990612fe2565b915050610b05565b505b7f174d40141d388f930fca11a3c885eba334def4ea654c9b34dbe4c549f3af5a3d8888604051610c44929190612ae9565b60405180910390a15050505050505050565b6060816000806000838152602001908152602001600020600001541415610cb2576040517f08c379a0000000000000000000000000000000000000000000000000000000008152600401610ca990612a02565b60405180910390fd5b600080848152602001908152602001600020600401805480602002602001604051908101604052809291908181526020016000905b82821015610d93578382906000526020600020018054610d0690612fb0565b80601f0160208091040260200160405190810160405280929190818152602001828054610d3290612fb0565b8015610d7f5780601f10610d5457610100808354040283529160200191610d7f565b820191906000526020600020905b815481529060010190602001808311610d6257829003601f168201915b505050505081526020019060010190610ce7565b50505050915050919050565b816000806000838152602001908152602001600020600001541415610df9576040517f08c379a0000000000000000000000000000000000000000000000000000000008152600401610df090612a02565b60405180910390fd5b600080600085815260200190815260200160002090508060050154421015610e56576040517f08c379a0000000000000000000000000000000000000000000000000000000008152600401610e4d906128e2565b60405180910390fd5b8060060154421115610e9d576040517f08c379a0000000000000000000000000000000000000000000000000000000008152600401610e94906129a2565b60405180910390fd5b60003411610ee0576040517f08c379a0000000000000000000000000000000000000000000000000000000008152600401610ed790612962565b60405180910390fd5b6000805b8260040180549050811015610fa85784604051602001610f049190612855565b60405160208183030381529060405280519060200120836004018281548110610f56577f4e487b7100000000000000000000000000000000000000000000000000000000600052603260045260246000fd5b90600052602060002001604051602001610f70919061286c565b604051602081830303815290604052805190602001201415610f955760019150610fa8565b8080610fa090612fe2565b915050610ee4565b5080610fe9576040517f08c379a0000000000000000000000000000000000000000000000000000000008152600401610fe090612a62565b60405180910390fd5b600082600a0160003373ffffffffffffffffffffffffffffffffffffffff1673ffffffffffffffffffffffffffffffffffffffff16815260200190815260200160002090508060020160009054906101000a900460ff1615611080576040517f08c379a0000000000000000000000000000000000000000000000000000000008152600401611077906129c2565b60405180910390fd5b84816000019080519060200190611098929190611da4565b5034816001018190555060018160020160006101000a81548160ff02191690831515021790555082600b01339080600181540180825580915050600190039060005260206000200160009091909190916101000a81548173ffffffffffffffffffffffffffffffffffffffff021916908373ffffffffffffffffffffffffffffffffffffffff160217905550348360090160008282546111389190612e45565b9250508190555082600d01856040516111519190612855565b9081526020016040518091039020600081548092919061117090612fe2565b91905055507f3a5b25f48e15ab3e4d810304ed7368c35de823921fa3fd504ba8ab2841bf1ad7863334886040516111aa9493929190612a9d565b60405180910390a1505050505050565b600060608060608060008060006060600060608b6000806000838152602001908152602001600020600001541415611227576040517f08c379a000000000000000000000000000000000000000000000000000000000815260040161121e90612a02565b60405180910390fd5b60008060008f81526020019081526020016000209050806000015481600101826002018360030184600401856005015486600601548760070160009054906101000a900460ff168860080189600901548a600c0189805461128790612fb0565b80601f01602080910402602001604051908101604052809291908181526020018280546112b390612fb0565b80156113005780601f106112d557610100808354040283529160200191611300565b820191906000526020600020905b8154815290600101906020018083116112e357829003601f168201915b5050505050995088805461131390612fb0565b80601f016020809104026020016040519081016040528092919081815260200182805461133f90612fb0565b801561138c5780601f106113615761010080835404028352916020019161138c565b820191906000526020600020905b81548152906001019060200180831161136f57829003601f168201915b5050505050985087805461139f90612fb0565b80601f01602080910402602001604051908101604052809291908181526020018280546113cb90612fb0565b80156114185780601f106113ed57610100808354040283529160200191611418565b820191906000526020600020905b8154815290600101906020018083116113fb57829003601f168201915b5050505050975086805480602002602001604051908101604052809291908181526020016000905b828210156114ec57838290600052602060002001805461145f90612fb0565b80601f016020809104026020016040519081016040528092919081815260200182805461148b90612fb0565b80156114d85780601f106114ad576101008083540402835291602001916114d8565b820191906000526020600020905b8154815290600101906020018083116114bb57829003601f168201915b505050505081526020019060010190611440565b5050505096508280546114fe90612fb0565b80601f016020809104026020016040519081016040528092919081815260200182805461152a90612fb0565b80156115775780601f1061154c57610100808354040283529160200191611577565b820191906000526020600020905b81548152906001019060200180831161155a57829003601f168201915b5050505050925080805461158a90612fb0565b80601f01602080910402602001604051908101604052809291908181526020018280546115b690612fb0565b80156116035780601f106115d857610100808354040283529160200191611603565b820191906000526020600020905b8154815290600101906020018083116115e657829003601f168201915b505050505090509c509c509c509c509c509c509c509c509c509c509c50505091939597999b90929496989a50565b600260009054906101000a900473ffffffffffffffffffffffffffffffffffffffff1673ffffffffffffffffffffffffffffffffffffffff163373ffffffffffffffffffffffffffffffffffffffff16146116c1576040517f08c379a00000000000000000000000000000000000000000000000000000000081526004016116b8906129e2565b60405180910390fd5b818310611703576040517f08c379a00000000000000000000000000000000000000000000000000000000081526004016116fa90612902565b60405180910390fd5b6001845111611747576040517f08c379a000000000000000000000000000000000000000000000000000000000815260040161173e90612942565b60405180910390fd5b60008060008a8152602001908152602001600020600001541461179f576040517f08c379a000000000000000000000000000000000000000000000000000000000815260040161179690612982565b60405180910390fd5b60008060008a81526020019081526020016000209050888160000181905550878160010190805190602001906117d6929190611da4565b50868160020190805190602001906117ef929190611da4565b5085816003019080519060200190611808929190611da4565b5084816004019080519060200190611821929190611e2a565b5083816005018190555082816006018190555060008160070160006101000a81548160ff02191690831515021790555060405180602001604052806000815250816008019080519060200190611878929190611da4565b50600081600901819055508181600c01908051906020019061189b929190611da4565b507f42e6867e52299b45991308391cccb9ee79466d194059ff10fc15c2d88f0ea061898986866040516118d19493929190612cad565b60405180910390a1600160008154809291906118ec90612fe2565b9190505550505050505050505050565b60015481565b606081600080600083815260200190815260200160002060000154141561195e576040517f08c379a000000000000000000000000000000000000000000000000000000000815260040161195590612a02565b60405180910390fd5b60008060008581526020019081526020016000209050600081600b018054905090506000826004018054905067ffffffffffffffff8111156119c9577f4e487b7100000000000000000000000000000000000000000000000000000000600052604160045260246000fd5b604051908082528060200260200182016040528015611a0257816020015b6119ef611e8a565b8152602001906001900390816119e75790505b5090506000821415611b675760005b8360040180549050811015611b5b576040518060400160405280856004018381548110611a67577f4e487b7100000000000000000000000000000000000000000000000000000000600052603260045260246000fd5b906000526020600020018054611a7c90612fb0565b80601f0160208091040260200160405190810160405280929190818152602001828054611aa890612fb0565b8015611af55780601f10611aca57610100808354040283529160200191611af5565b820191906000526020600020905b815481529060010190602001808311611ad857829003601f168201915b505050505081526020016000815250828281518110611b3d577f4e487b7100000000000000000000000000000000000000000000000000000000600052603260045260246000fd5b60200260200101819052508080611b5390612fe2565b915050611a11565b50809450505050611cfe565b60005b8360040180549050811015611cf6576000846004018281548110611bb7577f4e487b7100000000000000000000000000000000000000000000000000000000600052603260045260246000fd5b906000526020600020018054611bcc90612fb0565b80601f0160208091040260200160405190810160405280929190818152602001828054611bf890612fb0565b8015611c455780601f10611c1a57610100808354040283529160200191611c45565b820191906000526020600020905b815481529060010190602001808311611c2857829003601f168201915b50505050509050600085600d0182604051611c609190612855565b9081526020016040518091039020549050604051806040016040528083815260200186606484611c909190612ecc565b611c9a9190612e9b565b815250848481518110611cd6577f4e487b7100000000000000000000000000000000000000000000000000000000600052603260045260246000fd5b602002602001018190525050508080611cee90612fe2565b915050611b6a565b508094505050505b50919050565b6000816000806000838152602001908152602001600020600001541415611d60576040517f08c379a0000000000000000000000000000000000000000000000000000000008152600401611d5790612a02565b60405180910390fd5b60008084815260200190815260200160002060090154915050919050565b600260009054906101000a900473ffffffffffffffffffffffffffffffffffffffff1681565b828054611db090612fb0565b90600052602060002090601f016020900481019282611dd25760008555611e19565b82601f10611deb57805160ff1916838001178555611e19565b82800160010185558215611e19579182015b82811115611e18578251825591602001919060010190611dfd565b5b509050611e269190611ea4565b5090565b828054828255906000526020600020908101928215611e79579160200282015b82811115611e78578251829080519060200190611e68929190611da4565b5091602001919060010190611e4a565b5b509050611e869190611ec1565b5090565b604051806040016040528060608152602001600081525090565b5b80821115611ebd576000816000905550600101611ea5565b5090565b5b80821115611ee15760008181611ed89190611ee5565b50600101611ec2565b5090565b508054611ef190612fb0565b6000825580601f10611f035750611f22565b601f016020900490600052602060002090810190611f219190611ea4565b5b50565b6000611f38611f3384612d2a565b612cf9565b9050808382526020820190508260005b85811015611f785781358501611f5e8882611fea565b845260208401935060208301925050600181019050611f48565b5050509392505050565b6000611f95611f9084612d56565b612cf9565b905082815260208101848484011115611fad57600080fd5b611fb8848285612f6e565b509392505050565b600082601f830112611fd157600080fd5b8135611fe1848260208601611f25565b91505092915050565b600082601f830112611ffb57600080fd5b813561200b848260208601611f82565b91505092915050565b600081359050612023816130f8565b92915050565b60006020828403121561203b57600080fd5b600061204984828501612014565b91505092915050565b6000806040838503121561206557600080fd5b600061207385828601612014565b925050602083013567ffffffffffffffff81111561209057600080fd5b61209c85828601611fea565b9150509250929050565b600080600080600080600080610100898b0312156120c357600080fd5b60006120d18b828c01612014565b985050602089013567ffffffffffffffff8111156120ee57600080fd5b6120fa8b828c01611fea565b975050604089013567ffffffffffffffff81111561211757600080fd5b6121238b828c01611fea565b965050606089013567ffffffffffffffff81111561214057600080fd5b61214c8b828c01611fea565b955050608089013567ffffffffffffffff81111561216957600080fd5b6121758b828c01611fc0565b94505060a06121868b828c01612014565b93505060c06121978b828c01612014565b92505060e089013567ffffffffffffffff8111156121b457600080fd5b6121c08b828c01611fea565b9150509295985092959890939650565b60006121dc8383612300565b905092915050565b60006121f083836127fa565b905092915050565b61220181612f26565b82525050565b600061221282612dbb565b61221c8185612df6565b93508360208202850161222e85612d86565b8060005b8581101561226a578484038952815161224b85826121d0565b945061225683612ddc565b925060208a01995050600181019050612232565b50829750879550505050505092915050565b600061228782612dc6565b6122918185612e07565b9350836020820285016122a385612d96565b8060005b858110156122df57848403895281516122c085826121e4565b94506122cb83612de9565b925060208a019950506001810190506122a7565b50829750879550505050505092915050565b6122fa81612f38565b82525050565b600061230b82612dd1565b6123158185612e18565b9350612325818560208601612f7d565b61232e816130e7565b840191505092915050565b600061234482612dd1565b61234e8185612e29565b935061235e818560208601612f7d565b612367816130e7565b840191505092915050565b600061237d82612dd1565b6123878185612e3a565b9350612397818560208601612f7d565b80840191505092915050565b600081546123b081612fb0565b6123ba8186612e3a565b945060018216600081146123d557600181146123e657612419565b60ff19831686528186019350612419565b6123ef85612da6565b60005b83811015612411578154818901526001820191506020810190506123f2565b838801955050505b50505092915050565b600061242f601983612e29565b91507f4576656e7420686173206e6f74207374617274656420796574000000000000006000830152602082019050919050565b600061246f602283612e29565b91507f53746172742074696d65206d757374206265206265666f726520656e6420746960008301527f6d650000000000000000000000000000000000000000000000000000000000006020830152604082019050919050565b60006124d5600e83612e29565b91507f496e76616c6964206f7074696f6e0000000000000000000000000000000000006000830152602082019050919050565b6000612515602a83612e29565b91507f5468657265206d757374206265206174206c656173742074776f20626574746960008301527f6e67206f7074696f6e73000000000000000000000000000000000000000000006020830152604082019050919050565b600061257b602183612e29565b91507f42657420616d6f756e74206d7573742062652067726561746572207468616e2060008301527f30000000000000000000000000000000000000000000000000000000000000006020830152604082019050919050565b60006125e1601783612e29565b91507f4576656e7420494420616c7265616479206578697374730000000000000000006000830152602082019050919050565b6000612621600f83612e29565b91507f4576656e742068617320656e64656400000000000000000000000000000000006000830152602082019050919050565b6000612661601d83612e29565b91507f596f75206861766520616c726561647920706c616365642061206265740000006000830152602082019050919050565b60006126a1602283612e29565b91507f4f6e6c792061646d696e2063616e20706572666f726d2074686973206163746960008301527f6f6e0000000000000000000000000000000000000000000000000000000000006020830152604082019050919050565b6000612707601483612e29565b91507f4576656e7420646f6573206e6f742065786973740000000000000000000000006000830152602082019050919050565b6000612747601783612e29565b91507f4576656e7420616c726561647920636f6d706c657465640000000000000000006000830152602082019050919050565b6000612787601383612e29565b91507f4576656e74206e6f7420656e64656420796574000000000000000000000000006000830152602082019050919050565b60006127c7601683612e29565b91507f496e76616c69642062657474696e67206f7074696f6e000000000000000000006000830152602082019050919050565b600060408301600083015184820360008601526128178282612300565b915050602083015161282c6020860182612837565b508091505092915050565b61284081612f64565b82525050565b61284f81612f64565b82525050565b60006128618284612372565b915081905092915050565b600061287882846123a3565b915081905092915050565b600060208201905061289860008301846121f8565b92915050565b600060208201905081810360008301526128b88184612207565b905092915050565b600060208201905081810360008301526128da818461227c565b905092915050565b600060208201905081810360008301526128fb81612422565b9050919050565b6000602082019050818103600083015261291b81612462565b9050919050565b6000602082019050818103600083015261293b816124c8565b9050919050565b6000602082019050818103600083015261295b81612508565b9050919050565b6000602082019050818103600083015261297b8161256e565b9050919050565b6000602082019050818103600083015261299b816125d4565b9050919050565b600060208201905081810360008301526129bb81612614565b9050919050565b600060208201905081810360008301526129db81612654565b9050919050565b600060208201905081810360008301526129fb81612694565b9050919050565b60006020820190508181036000830152612a1b816126fa565b9050919050565b60006020820190508181036000830152612a3b8161273a565b9050919050565b60006020820190508181036000830152612a5b8161277a565b9050919050565b60006020820190508181036000830152612a7b816127ba565b9050919050565b6000602082019050612a976000830184612846565b92915050565b6000608082019050612ab26000830187612846565b612abf60208301866121f8565b612acc6040830185612846565b8181036060830152612ade8184612339565b905095945050505050565b6000604082019050612afe6000830185612846565b8181036020830152612b108184612339565b90509392505050565b600061016082019050612b2f600083018e612846565b8181036020830152612b41818d612339565b90508181036040830152612b55818c612339565b90508181036060830152612b69818b612339565b90508181036080830152612b7d818a612207565b9050612b8c60a0830189612846565b612b9960c0830188612846565b612ba660e08301876122f1565b818103610100830152612bb98186612339565b9050612bc9610120830185612846565b818103610140830152612bdc8184612339565b90509c9b505050505050505050505050565b600061014082019050612c04600083018d612846565b8181036020830152612c16818c612339565b90508181036040830152612c2a818b612339565b90508181036060830152612c3e818a612339565b9050612c4d6080830189612846565b612c5a60a0830188612846565b612c6760c08301876122f1565b81810360e0830152612c798186612339565b9050612c89610100830185612846565b818103610120830152612c9c8184612339565b90509b9a5050505050505050505050565b6000608082019050612cc26000830187612846565b8181036020830152612cd48186612339565b9050612ce36040830185612846565b612cf06060830184612846565b95945050505050565b6000604051905081810181811067ffffffffffffffff82111715612d2057612d1f6130b8565b5b8060405250919050565b600067ffffffffffffffff821115612d4557612d446130b8565b5b602082029050602081019050919050565b600067ffffffffffffffff821115612d7157612d706130b8565b5b601f19601f8301169050602081019050919050565b6000819050602082019050919050565b6000819050602082019050919050565b60008190508160005260206000209050919050565b600081519050919050565b600081519050919050565b600081519050919050565b6000602082019050919050565b6000602082019050919050565b600082825260208201905092915050565b600082825260208201905092915050565b600082825260208201905092915050565b600082825260208201905092915050565b600081905092915050565b6000612e5082612f64565b9150612e5b83612f64565b9250827fffffffffffffffffffffffffffffffffffffffffffffffffffffffffffffffff03821115612e9057612e8f61302b565b5b828201905092915050565b6000612ea682612f64565b9150612eb183612f64565b925082612ec157612ec061305a565b5b828204905092915050565b6000612ed782612f64565b9150612ee283612f64565b9250817fffffffffffffffffffffffffffffffffffffffffffffffffffffffffffffffff0483118215151615612f1b57612f1a61302b565b5b828202905092915050565b6000612f3182612f44565b9050919050565b60008115159050919050565b600073ffffffffffffffffffffffffffffffffffffffff82169050919050565b6000819050919050565b82818337600083830152505050565b60005b83811015612f9b578082015181840152602081019050612f80565b83811115612faa576000848401525b50505050565b60006002820490506001821680612fc857607f821691505b60208210811415612fdc57612fdb613089565b5b50919050565b6000612fed82612f64565b91507fffffffffffffffffffffffffffffffffffffffffffffffffffffffffffffffff8214156130205761301f61302b565b5b600182019050919050565b7f4e487b7100000000000000000000000000000000000000000000000000000000600052601160045260246000fd5b7f4e487b7100000000000000000000000000000000000000000000000000000000600052601260045260246000fd5b7f4e487b7100000000000000000000000000000000000000000000000000000000600052602260045260246000fd5b7f4e487b7100000000000000000000000000000000000000000000000000000000600052604160045260246000fd5b6000601f19601f8301169050919050565b61310181612f64565b811461310c57600080fd5b5056fea2646970667358221220f589aad2617dfe240eff2134bdeda99dbeffeaa7b66ccf59cc864060af9d206764736f6c63430008000033",
  "immutableReferences": {},
  "source": "// SPDX-License-Identifier: MIT\r\npragma solidity ^0.8.0;\r\n\r\ncontract BettingEvents {\r\n    struct BetEvent {\r\n        uint256 eventId; // Renamed 'id' to 'eventId'\r\n        string name;\r\n        string description;\r\n        string imageURL;\r\n        string[] options;\r\n        uint256 startTime;\r\n        uint256 endTime;\r\n        bool isCompleted;\r\n        string winningOption;\r\n        uint256 prizePool;\r\n        mapping(address => Bet) bets;\r\n        address[] bettors;\r\n        string notificationMessage;\r\n        mapping(string => uint256) optionBetCounts; // Track bet counts per option\r\n    }\r\n\r\n    struct Bet {\r\n        string option;\r\n        uint256 amount;\r\n        bool exists;\r\n    }\r\n\r\n    struct OptionOdds {\r\n        string optionName;\r\n        uint256 oddsPercentage;\r\n    }\r\n\r\n    mapping(uint256 => BetEvent) public events;\r\n    uint256 public nextEventId;\r\n    address public admin;\r\n\r\n    event EventCreated(\r\n        uint256 eventId, // Event emits eventId, not id\r\n        string name,\r\n        uint256 startTime,\r\n        uint256 endTime\r\n    );\r\n    event BetPlaced(\r\n        uint256 eventId,\r\n        address bettor,\r\n        uint256 amount,\r\n        string option\r\n    );\r\n    event WinnerDeclared(uint256 eventId, string winningOption);\r\n\r\n    modifier onlyAdmin() {\r\n        require(msg.sender == admin, \"Only admin can perform this action\");\r\n        _;\r\n    }\r\n\r\n    modifier eventExists(uint256 _eventId) {\r\n        require(events[_eventId].eventId != 0, \"Event does not exist\"); // Check eventId instead of id\r\n        _;\r\n    }\r\n\r\n    constructor() {\r\n        admin = msg.sender;\r\n    }\r\n\r\n    function createEvent(\r\n        uint256 _eventId, // ADDED _eventId parameter - VERY IMPORTANT\r\n        string memory _name,\r\n        string memory _description,\r\n        string memory _imageURL,\r\n        string[] memory _options,\r\n        uint256 _startTime,\r\n        uint256 _endTime,\r\n        string memory _notificationMessage\r\n    ) external onlyAdmin {\r\n        require(_startTime < _endTime, \"Start time must be before end time\");\r\n        require(\r\n            _options.length > 1,\r\n            \"There must be at least two betting options\"\r\n        );\r\n        require(events[_eventId].eventId == 0, \"Event ID already exists\"); // Ensure eventId is not already used\r\n\r\n        BetEvent storage newEvent = events[_eventId];\r\n        newEvent.eventId = _eventId; // Use _eventId provided from frontend - VERY IMPORTANT\r\n        newEvent.name = _name;\r\n        newEvent.description = _description;\r\n        newEvent.imageURL = _imageURL;\r\n        newEvent.options = _options;\r\n        newEvent.startTime = _startTime;\r\n        newEvent.endTime = _endTime;\r\n        newEvent.isCompleted = false;\r\n        newEvent.winningOption = \"\";\r\n        newEvent.prizePool = 0;\r\n        newEvent.notificationMessage = _notificationMessage;\r\n\r\n        emit EventCreated(_eventId, _name, _startTime, _endTime); // Emit eventId - VERY IMPORTANT\r\n        nextEventId++; // Increment nextEventId AFTER using current value\r\n    }\r\n\r\n    function placeBet(\r\n        uint256 _eventId,\r\n        string memory _option\r\n    ) external payable eventExists(_eventId) {\r\n        BetEvent storage betEvent = events[_eventId];\r\n        require(\r\n            block.timestamp >= betEvent.startTime,\r\n            \"Event has not started yet\"\r\n        );\r\n        require(block.timestamp <= betEvent.endTime, \"Event has ended\");\r\n        require(msg.value > 0, \"Bet amount must be greater than 0\");\r\n\r\n        bool validOption = false;\r\n        for (uint256 i = 0; i < betEvent.options.length; i++) {\r\n            if (\r\n                keccak256(abi.encodePacked(betEvent.options[i])) ==\r\n                keccak256(abi.encodePacked(_option))\r\n            ) {\r\n                validOption = true;\r\n                break;\r\n            }\r\n        }\r\n        require(validOption, \"Invalid betting option\");\r\n\r\n        Bet storage userBet = betEvent.bets[msg.sender];\r\n        require(!userBet.exists, \"You have already placed a bet\");\r\n\r\n        userBet.option = _option;\r\n        userBet.amount = msg.value;\r\n        userBet.exists = true;\r\n        betEvent.bettors.push(msg.sender);\r\n        betEvent.prizePool += msg.value;\r\n        betEvent.optionBetCounts[_option]++; // Increment bet count for the option\r\n\r\n        emit BetPlaced(_eventId, msg.sender, msg.value, _option);\r\n    }\r\n\r\n    function declareWinner(\r\n        uint256 _eventId,\r\n        string memory _winningOption\r\n    ) external onlyAdmin eventExists(_eventId) {\r\n        BetEvent storage betEvent = events[_eventId];\r\n        require(!betEvent.isCompleted, \"Event already completed\");\r\n        require(block.timestamp >= betEvent.endTime, \"Event not ended yet\");\r\n\r\n        bool validOption = false;\r\n        for (uint256 i = 0; i < betEvent.options.length; i++) {\r\n            if (\r\n                keccak256(abi.encodePacked(betEvent.options[i])) ==\r\n                keccak256(abi.encodePacked(_winningOption))\r\n            ) {\r\n                validOption = true;\r\n                break;\r\n            }\r\n        }\r\n        require(validOption, \"Invalid option\");\r\n\r\n        betEvent.winningOption = _winningOption;\r\n        betEvent.isCompleted = true;\r\n\r\n        uint256 totalWinnersBetAmount = 0;\r\n        address payable[] memory winnersPayable = new address payable[](\r\n            betEvent.bettors.length\r\n        );\r\n        uint256 winnersCount = 0;\r\n\r\n        for (uint256 i = 0; i < betEvent.bettors.length; i++) {\r\n            address bettor = betEvent.bettors[i];\r\n            if (\r\n                keccak256(abi.encodePacked(betEvent.bets[bettor].option)) ==\r\n                keccak256(abi.encodePacked(_winningOption))\r\n            ) {\r\n                totalWinnersBetAmount += betEvent.bets[bettor].amount;\r\n                winnersPayable[winnersCount] = payable(bettor);\r\n                winnersCount++;\r\n            }\r\n        }\r\n\r\n        if (totalWinnersBetAmount > 0) {\r\n            for (uint256 i = 0; i < winnersCount; i++) {\r\n                address payable winner = winnersPayable[i];\r\n                uint256 winnerReward = (betEvent.bets[winner].amount *\r\n                    betEvent.prizePool) / totalWinnersBetAmount;\r\n                winner.transfer(winnerReward);\r\n            }\r\n        }\r\n\r\n        emit WinnerDeclared(_eventId, _winningOption);\r\n    }\r\n\r\n    function getEvent(\r\n        uint256 _eventId\r\n    )\r\n        external\r\n        view\r\n        eventExists(_eventId)\r\n        returns (\r\n            uint256 eventId, // Returns eventId, not id\r\n            string memory name,\r\n            string memory description,\r\n            string memory imageURL,\r\n            string[] memory options,\r\n            uint256 startTime,\r\n            uint256 endTime,\r\n            bool isCompleted,\r\n            string memory winningOption,\r\n            uint256 prizePool,\r\n            string memory notificationMessage\r\n        )\r\n    {\r\n        BetEvent storage betEvent = events[_eventId];\r\n        return (\r\n            betEvent.eventId, // Returns betEvent.eventId\r\n            betEvent.name,\r\n            betEvent.description,\r\n            betEvent.imageURL,\r\n            betEvent.options,\r\n            betEvent.startTime,\r\n            betEvent.endTime,\r\n            betEvent.isCompleted,\r\n            betEvent.winningOption,\r\n            betEvent.prizePool,\r\n            betEvent.notificationMessage\r\n        );\r\n    }\r\n\r\n    function getEventOptions(\r\n        uint256 _eventId\r\n    ) external view eventExists(_eventId) returns (string[] memory) {\r\n        return events[_eventId].options;\r\n    }\r\n\r\n    function getEventPrizePool(\r\n        uint256 _eventId\r\n    ) external view eventExists(_eventId) returns (uint256) {\r\n        return events[_eventId].prizePool;\r\n    }\r\n\r\n    function getEventOdds(\r\n        uint256 _eventId\r\n    ) external view eventExists(_eventId) returns (OptionOdds[] memory) {\r\n        BetEvent storage betEvent = events[_eventId];\r\n        uint256 totalBets = betEvent.bettors.length;\r\n        OptionOdds[] memory optionOddsArray = new OptionOdds[](\r\n            betEvent.options.length\r\n        );\r\n\r\n        if (totalBets == 0) {\r\n            for (uint256 i = 0; i < betEvent.options.length; i++) {\r\n                optionOddsArray[i] = OptionOdds({\r\n                    optionName: betEvent.options[i],\r\n                    oddsPercentage: 0\r\n                }); // Default to 0% if no bets yet\r\n            }\r\n            return optionOddsArray;\r\n        }\r\n\r\n        for (uint256 i = 0; i < betEvent.options.length; i++) {\r\n            string memory option = betEvent.options[i];\r\n            uint256 betCount = betEvent.optionBetCounts[option];\r\n            optionOddsArray[i] = OptionOdds({\r\n                optionName: option,\r\n                oddsPercentage: (betCount * 100) / totalBets // Percentage of bets for each option\r\n            });\r\n        }\r\n        return optionOddsArray;\r\n    }\r\n}\r\n",
  "sourcePath": "F:\\Software Project\\project Files\\StakeWise-Blockchain\\contracts\\BettingEvents.sol",
  "compiler": {
    "name": "solc",
    "version": "0.8.0+commit.c7dfd78e.Emscripten.clang"
  },
  "schemaVersion": "3.4.16",
  "updatedAt": "2025-03-06T05:24:38.022Z",
  "networkType": "ethereum",
  "devdoc": {
    "kind": "dev",
    "methods": {},
    "version": 1
  },
  "userdoc": {
    "kind": "user",
    "methods": {},
    "version": 1
  }
}