{
  "contractName": "BettingEvents",
  "abi": [
    {
      "inputs": [],
      "stateMutability": "nonpayable",
      "type": "constructor"
    },
    {
      "anonymous": false,
      "inputs": [
        {
          "indexed": false,
          "internalType": "uint256",
          "name": "eventId",
          "type": "uint256"
        },
        {
          "indexed": false,
          "internalType": "address",
          "name": "bettor",
          "type": "address"
        },
        {
          "indexed": false,
          "internalType": "uint256",
          "name": "amount",
          "type": "uint256"
        },
        {
          "indexed": false,
          "internalType": "string",
          "name": "option",
          "type": "string"
        }
      ],
      "name": "BetPlaced",
      "type": "event"
    },
    {
      "anonymous": false,
      "inputs": [
        {
          "indexed": false,
          "internalType": "uint256",
          "name": "id",
          "type": "uint256"
        },
        {
          "indexed": false,
          "internalType": "string",
          "name": "name",
          "type": "string"
        },
        {
          "indexed": false,
          "internalType": "uint256",
          "name": "startTime",
          "type": "uint256"
        },
        {
          "indexed": false,
          "internalType": "uint256",
          "name": "endTime",
          "type": "uint256"
        }
      ],
      "name": "EventCreated",
      "type": "event"
    },
    {
      "anonymous": false,
      "inputs": [
        {
          "indexed": false,
          "internalType": "uint256",
          "name": "eventId",
          "type": "uint256"
        },
        {
          "indexed": false,
          "internalType": "string",
          "name": "winningOption",
          "type": "string"
        }
      ],
      "name": "WinnerDeclared",
      "type": "event"
    },
    {
      "inputs": [],
      "name": "admin",
      "outputs": [
        {
          "internalType": "address",
          "name": "",
          "type": "address"
        }
      ],
      "stateMutability": "view",
      "type": "function",
      "constant": true
    },
    {
      "inputs": [
        {
          "internalType": "uint256",
          "name": "",
          "type": "uint256"
        }
      ],
      "name": "events",
      "outputs": [
        {
          "internalType": "uint256",
          "name": "id",
          "type": "uint256"
        },
        {
          "internalType": "string",
          "name": "name",
          "type": "string"
        },
        {
          "internalType": "string",
          "name": "description",
          "type": "string"
        },
        {
          "internalType": "string",
          "name": "imageURL",
          "type": "string"
        },
        {
          "internalType": "uint256",
          "name": "startTime",
          "type": "uint256"
        },
        {
          "internalType": "uint256",
          "name": "endTime",
          "type": "uint256"
        },
        {
          "internalType": "bool",
          "name": "isCompleted",
          "type": "bool"
        },
        {
          "internalType": "string",
          "name": "winningOption",
          "type": "string"
        },
        {
          "internalType": "uint256",
          "name": "prizePool",
          "type": "uint256"
        },
        {
          "internalType": "string",
          "name": "notificationMessage",
          "type": "string"
        }
      ],
      "stateMutability": "view",
      "type": "function",
      "constant": true
    },
    {
      "inputs": [],
      "name": "nextEventId",
      "outputs": [
        {
          "internalType": "uint256",
          "name": "",
          "type": "uint256"
        }
      ],
      "stateMutability": "view",
      "type": "function",
      "constant": true
    },
    {
      "inputs": [
        {
          "internalType": "string",
          "name": "_name",
          "type": "string"
        },
        {
          "internalType": "string",
          "name": "_description",
          "type": "string"
        },
        {
          "internalType": "string",
          "name": "_imageURL",
          "type": "string"
        },
        {
          "internalType": "string[]",
          "name": "_options",
          "type": "string[]"
        },
        {
          "internalType": "uint256",
          "name": "_startTime",
          "type": "uint256"
        },
        {
          "internalType": "uint256",
          "name": "_endTime",
          "type": "uint256"
        },
        {
          "internalType": "string",
          "name": "_notificationMessage",
          "type": "string"
        }
      ],
      "name": "createEvent",
      "outputs": [],
      "stateMutability": "nonpayable",
      "type": "function"
    },
    {
      "inputs": [
        {
          "internalType": "uint256",
          "name": "_eventId",
          "type": "uint256"
        },
        {
          "internalType": "string",
          "name": "_option",
          "type": "string"
        }
      ],
      "name": "placeBet",
      "outputs": [],
      "stateMutability": "payable",
      "type": "function",
      "payable": true
    },
    {
      "inputs": [
        {
          "internalType": "uint256",
          "name": "_eventId",
          "type": "uint256"
        },
        {
          "internalType": "string",
          "name": "_winningOption",
          "type": "string"
        }
      ],
      "name": "declareWinner",
      "outputs": [],
      "stateMutability": "nonpayable",
      "type": "function"
    },
    {
      "inputs": [
        {
          "internalType": "uint256",
          "name": "_eventId",
          "type": "uint256"
        }
      ],
      "name": "getEvent",
      "outputs": [
        {
          "internalType": "uint256",
          "name": "id",
          "type": "uint256"
        },
        {
          "internalType": "string",
          "name": "name",
          "type": "string"
        },
        {
          "internalType": "string",
          "name": "description",
          "type": "string"
        },
        {
          "internalType": "string",
          "name": "imageURL",
          "type": "string"
        },
        {
          "internalType": "string[]",
          "name": "options",
          "type": "string[]"
        },
        {
          "internalType": "uint256",
          "name": "startTime",
          "type": "uint256"
        },
        {
          "internalType": "uint256",
          "name": "endTime",
          "type": "uint256"
        },
        {
          "internalType": "bool",
          "name": "isCompleted",
          "type": "bool"
        },
        {
          "internalType": "string",
          "name": "winningOption",
          "type": "string"
        },
        {
          "internalType": "uint256",
          "name": "prizePool",
          "type": "uint256"
        },
        {
          "internalType": "string",
          "name": "notificationMessage",
          "type": "string"
        }
      ],
      "stateMutability": "view",
      "type": "function",
      "constant": true
    },
    {
      "inputs": [
        {
          "internalType": "uint256",
          "name": "_eventId",
          "type": "uint256"
        }
      ],
      "name": "getEventOptions",
      "outputs": [
        {
          "internalType": "string[]",
          "name": "",
          "type": "string[]"
        }
      ],
      "stateMutability": "view",
      "type": "function",
      "constant": true
    }
  ],
  "bytecode": "0x608060405234801561001057600080fd5b5033600260006101000a81548173ffffffffffffffffffffffffffffffffffffffff021916908373ffffffffffffffffffffffffffffffffffffffff16021790555061299e806100616000396000f3fe60806040526004361061007b5760003560e01c80636d1884e01161004e5780636d1884e014610148578063891590491461018f5780639f9d903a146101b8578063f851a440146101e35761007b565b80630b791430146100805780633801f697146100c65780635be9cc9c146100ef5780635e8af7351461012c575b600080fd5b34801561008c57600080fd5b506100a760048036038101906100a29190611b3c565b61020e565b6040516100bd9a99989796959493929190612480565b60405180910390f35b3480156100d257600080fd5b506100ed60048036038101906100e89190611b65565b610517565b005b3480156100fb57600080fd5b5061011660048036038101906101119190611b3c565b610bb1565b6040516101239190612172565b60405180910390f35b61014660048036038101906101419190611b65565b610ce5565b005b34801561015457600080fd5b5061016f600480360381019061016a9190611b3c565b6110b5565b6040516101869b9a999897969594939291906123ab565b60405180910390f35b34801561019b57600080fd5b506101b660048036038101906101b19190611a26565b611517565b005b3480156101c457600080fd5b506101cd61178f565b6040516101da9190612314565b60405180910390f35b3480156101ef57600080fd5b506101f8611795565b6040516102059190612157565b60405180910390f35b600060205280600052604060002060009150905080600001549080600101805461023790612809565b80601f016020809104026020016040519081016040528092919081815260200182805461026390612809565b80156102b05780601f10610285576101008083540402835291602001916102b0565b820191906000526020600020905b81548152906001019060200180831161029357829003601f168201915b5050505050908060020180546102c590612809565b80601f01602080910402602001604051908101604052809291908181526020018280546102f190612809565b801561033e5780601f106103135761010080835404028352916020019161033e565b820191906000526020600020905b81548152906001019060200180831161032157829003601f168201915b50505050509080600301805461035390612809565b80601f016020809104026020016040519081016040528092919081815260200182805461037f90612809565b80156103cc5780601f106103a1576101008083540402835291602001916103cc565b820191906000526020600020905b8154815290600101906020018083116103af57829003601f168201915b5050505050908060050154908060060154908060070160009054906101000a900460ff169080600801805461040090612809565b80601f016020809104026020016040519081016040528092919081815260200182805461042c90612809565b80156104795780601f1061044e57610100808354040283529160200191610479565b820191906000526020600020905b81548152906001019060200180831161045c57829003601f168201915b50505050509080600901549080600c01805461049490612809565b80601f01602080910402602001604051908101604052809291908181526020018280546104c090612809565b801561050d5780601f106104e25761010080835404028352916020019161050d565b820191906000526020600020905b8154815290600101906020018083116104f057829003601f168201915b505050505090508a565b600260009054906101000a900473ffffffffffffffffffffffffffffffffffffffff1673ffffffffffffffffffffffffffffffffffffffff163373ffffffffffffffffffffffffffffffffffffffff16146105a7576040517f08c379a000000000000000000000000000000000000000000000000000000000815260040161059e90612274565b60405180910390fd5b8160015481106105ec576040517f08c379a00000000000000000000000000000000000000000000000000000000081526004016105e390612294565b60405180910390fd5b600080600085815260200190815260200160002090508060070160009054906101000a900460ff1615610654576040517f08c379a000000000000000000000000000000000000000000000000000000000815260040161064b906122b4565b60405180910390fd5b806006015442101561069b576040517f08c379a0000000000000000000000000000000000000000000000000000000008152600401610692906122d4565b60405180910390fd5b6000805b826004018054905081101561076357846040516020016106bf9190612129565b60405160208183030381529060405280519060200120836004018281548110610711577f4e487b7100000000000000000000000000000000000000000000000000000000600052603260045260246000fd5b9060005260206000200160405160200161072b9190612140565b6040516020818303038152906040528051906020012014156107505760019150610763565b808061075b9061283b565b91505061069f565b50806107a4576040517f08c379a000000000000000000000000000000000000000000000000000000000815260040161079b906121d4565b60405180910390fd5b838260080190805190602001906107bc9291906117bb565b5060018260070160006101000a81548160ff02191690831515021790555060008083600b018054905067ffffffffffffffff811115610824577f4e487b7100000000000000000000000000000000000000000000000000000000600052604160045260246000fd5b6040519080825280602002602001820160405280156108525781602001602082028036833780820191505090505b5090506000805b85600b0180549050811015610a5357600086600b0182815481106108a6577f4e487b7100000000000000000000000000000000000000000000000000000000600052603260045260246000fd5b9060005260206000200160009054906101000a900473ffffffffffffffffffffffffffffffffffffffff169050886040516020016108e49190612129565b6040516020818303038152906040528051906020012087600a0160008373ffffffffffffffffffffffffffffffffffffffff1673ffffffffffffffffffffffffffffffffffffffff16815260200190815260200160002060000160405160200161094e9190612140565b604051602081830303815290604052805190602001201415610a3f5786600a0160008273ffffffffffffffffffffffffffffffffffffffff1673ffffffffffffffffffffffffffffffffffffffff16815260200190815260200160002060010154856109ba919061269e565b9450808484815181106109f6577f4e487b7100000000000000000000000000000000000000000000000000000000600052603260045260246000fd5b602002602001019073ffffffffffffffffffffffffffffffffffffffff16908173ffffffffffffffffffffffffffffffffffffffff16815250508280610a3b9061283b565b9350505b508080610a4b9061283b565b915050610859565b506000831115610b6e5760005b81811015610b6c576000838281518110610aa3577f4e487b7100000000000000000000000000000000000000000000000000000000600052603260045260246000fd5b60200260200101519050600085886009015489600a0160008573ffffffffffffffffffffffffffffffffffffffff1673ffffffffffffffffffffffffffffffffffffffff16815260200190815260200160002060010154610b049190612725565b610b0e91906126f4565b90508173ffffffffffffffffffffffffffffffffffffffff166108fc829081150290604051600060405180830381858888f19350505050158015610b56573d6000803e3d6000fd5b5050508080610b649061283b565b915050610a60565b505b7f174d40141d388f930fca11a3c885eba334def4ea654c9b34dbe4c549f3af5a3d8888604051610b9f92919061237b565b60405180910390a15050505050505050565b6060816001548110610bf8576040517f08c379a0000000000000000000000000000000000000000000000000000000008152600401610bef90612294565b60405180910390fd5b600080848152602001908152602001600020600401805480602002602001604051908101604052809291908181526020016000905b82821015610cd9578382906000526020600020018054610c4c90612809565b80601f0160208091040260200160405190810160405280929190818152602001828054610c7890612809565b8015610cc55780601f10610c9a57610100808354040283529160200191610cc5565b820191906000526020600020905b815481529060010190602001808311610ca857829003601f168201915b505050505081526020019060010190610c2d565b50505050915050919050565b816001548110610d2a576040517f08c379a0000000000000000000000000000000000000000000000000000000008152600401610d2190612294565b60405180910390fd5b600080600085815260200190815260200160002090508060050154421015610d87576040517f08c379a0000000000000000000000000000000000000000000000000000000008152600401610d7e90612194565b60405180910390fd5b8060060154421115610dce576040517f08c379a0000000000000000000000000000000000000000000000000000000008152600401610dc590612234565b60405180910390fd5b60003411610e11576040517f08c379a0000000000000000000000000000000000000000000000000000000008152600401610e0890612214565b60405180910390fd5b6000805b8260040180549050811015610ed95784604051602001610e359190612129565b60405160208183030381529060405280519060200120836004018281548110610e87577f4e487b7100000000000000000000000000000000000000000000000000000000600052603260045260246000fd5b90600052602060002001604051602001610ea19190612140565b604051602081830303815290604052805190602001201415610ec65760019150610ed9565b8080610ed19061283b565b915050610e15565b5080610f1a576040517f08c379a0000000000000000000000000000000000000000000000000000000008152600401610f11906122f4565b60405180910390fd5b600082600a0160003373ffffffffffffffffffffffffffffffffffffffff1673ffffffffffffffffffffffffffffffffffffffff16815260200190815260200160002090508060020160009054906101000a900460ff1615610fb1576040517f08c379a0000000000000000000000000000000000000000000000000000000008152600401610fa890612254565b60405180910390fd5b84816000019080519060200190610fc99291906117bb565b5034816001018190555060018160020160006101000a81548160ff02191690831515021790555082600b01339080600181540180825580915050600190039060005260206000200160009091909190916101000a81548173ffffffffffffffffffffffffffffffffffffffff021916908373ffffffffffffffffffffffffffffffffffffffff16021790555034836009016000828254611069919061269e565b925050819055507f3a5b25f48e15ab3e4d810304ed7368c35de823921fa3fd504ba8ab2841bf1ad7863334886040516110a5949392919061232f565b60405180910390a1505050505050565b600060608060608060008060006060600060608b600154811061110d576040517f08c379a000000000000000000000000000000000000000000000000000000000815260040161110490612294565b60405180910390fd5b60008060008f81526020019081526020016000209050806000015481600101826002018360030184600401856005015486600601548760070160009054906101000a900460ff168860080189600901548a600c0189805461116d90612809565b80601f016020809104026020016040519081016040528092919081815260200182805461119990612809565b80156111e65780601f106111bb576101008083540402835291602001916111e6565b820191906000526020600020905b8154815290600101906020018083116111c957829003601f168201915b505050505099508880546111f990612809565b80601f016020809104026020016040519081016040528092919081815260200182805461122590612809565b80156112725780601f1061124757610100808354040283529160200191611272565b820191906000526020600020905b81548152906001019060200180831161125557829003601f168201915b5050505050985087805461128590612809565b80601f01602080910402602001604051908101604052809291908181526020018280546112b190612809565b80156112fe5780601f106112d3576101008083540402835291602001916112fe565b820191906000526020600020905b8154815290600101906020018083116112e157829003601f168201915b5050505050975086805480602002602001604051908101604052809291908181526020016000905b828210156113d257838290600052602060002001805461134590612809565b80601f016020809104026020016040519081016040528092919081815260200182805461137190612809565b80156113be5780601f10611393576101008083540402835291602001916113be565b820191906000526020600020905b8154815290600101906020018083116113a157829003601f168201915b505050505081526020019060010190611326565b5050505096508280546113e490612809565b80601f016020809104026020016040519081016040528092919081815260200182805461141090612809565b801561145d5780601f106114325761010080835404028352916020019161145d565b820191906000526020600020905b81548152906001019060200180831161144057829003601f168201915b5050505050925080805461147090612809565b80601f016020809104026020016040519081016040528092919081815260200182805461149c90612809565b80156114e95780601f106114be576101008083540402835291602001916114e9565b820191906000526020600020905b8154815290600101906020018083116114cc57829003601f168201915b505050505090509c509c509c509c509c509c509c509c509c509c509c50505091939597999b90929496989a50565b600260009054906101000a900473ffffffffffffffffffffffffffffffffffffffff1673ffffffffffffffffffffffffffffffffffffffff163373ffffffffffffffffffffffffffffffffffffffff16146115a7576040517f08c379a000000000000000000000000000000000000000000000000000000000815260040161159e90612274565b60405180910390fd5b8183106115e9576040517f08c379a00000000000000000000000000000000000000000000000000000000081526004016115e0906121b4565b60405180910390fd5b600184511161162d576040517f08c379a0000000000000000000000000000000000000000000000000000000008152600401611624906121f4565b60405180910390fd5b6000806000600154815260200190815260200160002090506001548160000181905550878160010190805190602001906116689291906117bb565b50868160020190805190602001906116819291906117bb565b508581600301908051906020019061169a9291906117bb565b50848160040190805190602001906116b3929190611841565b5083816005018190555082816006018190555060008160070160006101000a81548160ff0219169083151502179055506040518060200160405280600081525081600801908051906020019061170a9291906117bb565b50600081600901819055508181600c01908051906020019061172d9291906117bb565b507f42e6867e52299b45991308391cccb9ee79466d194059ff10fc15c2d88f0ea061600154898686604051611765949392919061253f565b60405180910390a1600160008154809291906117809061283b565b91905055505050505050505050565b60015481565b600260009054906101000a900473ffffffffffffffffffffffffffffffffffffffff1681565b8280546117c790612809565b90600052602060002090601f0160209004810192826117e95760008555611830565b82601f1061180257805160ff1916838001178555611830565b82800160010185558215611830579182015b8281111561182f578251825591602001919060010190611814565b5b50905061183d91906118a1565b5090565b828054828255906000526020600020908101928215611890579160200282015b8281111561188f57825182908051906020019061187f9291906117bb565b5091602001919060010190611861565b5b50905061189d91906118be565b5090565b5b808211156118ba5760008160009055506001016118a2565b5090565b5b808211156118de57600081816118d591906118e2565b506001016118bf565b5090565b5080546118ee90612809565b6000825580601f10611900575061191f565b601f01602090049060005260206000209081019061191e91906118a1565b5b50565b6000611935611930846125bc565b61258b565b9050808382526020820190508260005b85811015611975578135850161195b88826119e7565b845260208401935060208301925050600181019050611945565b5050509392505050565b600061199261198d846125e8565b61258b565b9050828152602081018484840111156119aa57600080fd5b6119b58482856127c7565b509392505050565b600082601f8301126119ce57600080fd5b81356119de848260208601611922565b91505092915050565b600082601f8301126119f857600080fd5b8135611a0884826020860161197f565b91505092915050565b600081359050611a2081612951565b92915050565b600080600080600080600060e0888a031215611a4157600080fd5b600088013567ffffffffffffffff811115611a5b57600080fd5b611a678a828b016119e7565b975050602088013567ffffffffffffffff811115611a8457600080fd5b611a908a828b016119e7565b965050604088013567ffffffffffffffff811115611aad57600080fd5b611ab98a828b016119e7565b955050606088013567ffffffffffffffff811115611ad657600080fd5b611ae28a828b016119bd565b9450506080611af38a828b01611a11565b93505060a0611b048a828b01611a11565b92505060c088013567ffffffffffffffff811115611b2157600080fd5b611b2d8a828b016119e7565b91505092959891949750929550565b600060208284031215611b4e57600080fd5b6000611b5c84828501611a11565b91505092915050565b60008060408385031215611b7857600080fd5b6000611b8685828601611a11565b925050602083013567ffffffffffffffff811115611ba357600080fd5b611baf858286016119e7565b9150509250929050565b6000611bc58383611c60565b905092915050565b611bd68161277f565b82525050565b6000611be78261263d565b611bf18185612660565b935083602082028501611c0385612618565b8060005b85811015611c3f5784840389528151611c208582611bb9565b9450611c2b83612653565b925060208a01995050600181019050611c07565b50829750879550505050505092915050565b611c5a81612791565b82525050565b6000611c6b82612648565b611c758185612671565b9350611c858185602086016127d6565b611c8e81612940565b840191505092915050565b6000611ca482612648565b611cae8185612682565b9350611cbe8185602086016127d6565b611cc781612940565b840191505092915050565b6000611cdd82612648565b611ce78185612693565b9350611cf78185602086016127d6565b80840191505092915050565b60008154611d1081612809565b611d1a8186612693565b94506001821660008114611d355760018114611d4657611d79565b60ff19831686528186019350611d79565b611d4f85612628565b60005b83811015611d7157815481890152600182019150602081019050611d52565b838801955050505b50505092915050565b6000611d8f601983612682565b91507f4576656e7420686173206e6f74207374617274656420796574000000000000006000830152602082019050919050565b6000611dcf602283612682565b91507f53746172742074696d65206d757374206265206265666f726520656e6420746960008301527f6d650000000000000000000000000000000000000000000000000000000000006020830152604082019050919050565b6000611e35600e83612682565b91507f496e76616c6964206f7074696f6e0000000000000000000000000000000000006000830152602082019050919050565b6000611e75602a83612682565b91507f5468657265206d757374206265206174206c656173742074776f20626574746960008301527f6e67206f7074696f6e73000000000000000000000000000000000000000000006020830152604082019050919050565b6000611edb602183612682565b91507f42657420616d6f756e74206d7573742062652067726561746572207468616e2060008301527f30000000000000000000000000000000000000000000000000000000000000006020830152604082019050919050565b6000611f41600f83612682565b91507f4576656e742068617320656e64656400000000000000000000000000000000006000830152602082019050919050565b6000611f81601d83612682565b91507f596f75206861766520616c726561647920706c616365642061206265740000006000830152602082019050919050565b6000611fc1602283612682565b91507f4f6e6c792061646d696e2063616e20706572666f726d2074686973206163746960008301527f6f6e0000000000000000000000000000000000000000000000000000000000006020830152604082019050919050565b6000612027601483612682565b91507f4576656e7420646f6573206e6f742065786973740000000000000000000000006000830152602082019050919050565b6000612067601783612682565b91507f4576656e7420616c726561647920636f6d706c657465640000000000000000006000830152602082019050919050565b60006120a7601383612682565b91507f4576656e74206e6f7420656e64656420796574000000000000000000000000006000830152602082019050919050565b60006120e7601683612682565b91507f496e76616c69642062657474696e67206f7074696f6e000000000000000000006000830152602082019050919050565b612123816127bd565b82525050565b60006121358284611cd2565b915081905092915050565b600061214c8284611d03565b915081905092915050565b600060208201905061216c6000830184611bcd565b92915050565b6000602082019050818103600083015261218c8184611bdc565b905092915050565b600060208201905081810360008301526121ad81611d82565b9050919050565b600060208201905081810360008301526121cd81611dc2565b9050919050565b600060208201905081810360008301526121ed81611e28565b9050919050565b6000602082019050818103600083015261220d81611e68565b9050919050565b6000602082019050818103600083015261222d81611ece565b9050919050565b6000602082019050818103600083015261224d81611f34565b9050919050565b6000602082019050818103600083015261226d81611f74565b9050919050565b6000602082019050818103600083015261228d81611fb4565b9050919050565b600060208201905081810360008301526122ad8161201a565b9050919050565b600060208201905081810360008301526122cd8161205a565b9050919050565b600060208201905081810360008301526122ed8161209a565b9050919050565b6000602082019050818103600083015261230d816120da565b9050919050565b6000602082019050612329600083018461211a565b92915050565b6000608082019050612344600083018761211a565b6123516020830186611bcd565b61235e604083018561211a565b81810360608301526123708184611c99565b905095945050505050565b6000604082019050612390600083018561211a565b81810360208301526123a28184611c99565b90509392505050565b6000610160820190506123c1600083018e61211a565b81810360208301526123d3818d611c99565b905081810360408301526123e7818c611c99565b905081810360608301526123fb818b611c99565b9050818103608083015261240f818a611bdc565b905061241e60a083018961211a565b61242b60c083018861211a565b61243860e0830187611c51565b81810361010083015261244b8186611c99565b905061245b61012083018561211a565b81810361014083015261246e8184611c99565b90509c9b505050505050505050505050565b600061014082019050612496600083018d61211a565b81810360208301526124a8818c611c99565b905081810360408301526124bc818b611c99565b905081810360608301526124d0818a611c99565b90506124df608083018961211a565b6124ec60a083018861211a565b6124f960c0830187611c51565b81810360e083015261250b8186611c99565b905061251b61010083018561211a565b81810361012083015261252e8184611c99565b90509b9a5050505050505050505050565b6000608082019050612554600083018761211a565b81810360208301526125668186611c99565b9050612575604083018561211a565b612582606083018461211a565b95945050505050565b6000604051905081810181811067ffffffffffffffff821117156125b2576125b1612911565b5b8060405250919050565b600067ffffffffffffffff8211156125d7576125d6612911565b5b602082029050602081019050919050565b600067ffffffffffffffff82111561260357612602612911565b5b601f19601f8301169050602081019050919050565b6000819050602082019050919050565b60008190508160005260206000209050919050565b600081519050919050565b600081519050919050565b6000602082019050919050565b600082825260208201905092915050565b600082825260208201905092915050565b600082825260208201905092915050565b600081905092915050565b60006126a9826127bd565b91506126b4836127bd565b9250827fffffffffffffffffffffffffffffffffffffffffffffffffffffffffffffffff038211156126e9576126e8612884565b5b828201905092915050565b60006126ff826127bd565b915061270a836127bd565b92508261271a576127196128b3565b5b828204905092915050565b6000612730826127bd565b915061273b836127bd565b9250817fffffffffffffffffffffffffffffffffffffffffffffffffffffffffffffffff048311821515161561277457612773612884565b5b828202905092915050565b600061278a8261279d565b9050919050565b60008115159050919050565b600073ffffffffffffffffffffffffffffffffffffffff82169050919050565b6000819050919050565b82818337600083830152505050565b60005b838110156127f45780820151818401526020810190506127d9565b83811115612803576000848401525b50505050565b6000600282049050600182168061282157607f821691505b60208210811415612835576128346128e2565b5b50919050565b6000612846826127bd565b91507fffffffffffffffffffffffffffffffffffffffffffffffffffffffffffffffff82141561287957612878612884565b5b600182019050919050565b7f4e487b7100000000000000000000000000000000000000000000000000000000600052601160045260246000fd5b7f4e487b7100000000000000000000000000000000000000000000000000000000600052601260045260246000fd5b7f4e487b7100000000000000000000000000000000000000000000000000000000600052602260045260246000fd5b7f4e487b7100000000000000000000000000000000000000000000000000000000600052604160045260246000fd5b6000601f19601f8301169050919050565b61295a816127bd565b811461296557600080fd5b5056fea264697066735822122019ef6ca0d0a25fc27f7025719bf7b470f8be27419d9118f8aac81745fcefc20264736f6c63430008000033",
  "immutableReferences": {},
  "source": "// SPDX-License-Identifier: MIT\r\npragma solidity ^0.8.0;\r\n\r\ncontract BettingEvents {\r\n    struct BetEvent {\r\n        uint256 id;\r\n        string name;\r\n        string description;\r\n        string imageURL;\r\n        string[] options;\r\n        uint256 startTime;\r\n        uint256 endTime;\r\n        bool isCompleted;\r\n        string winningOption;\r\n        uint256 prizePool;\r\n        mapping(address => Bet) bets;\r\n        address[] bettors;\r\n        string notificationMessage; // added notification message here\r\n    }\r\n\r\n    struct Bet {\r\n        string option;\r\n        uint256 amount;\r\n        bool exists;\r\n    }\r\n\r\n    mapping(uint256 => BetEvent) public events;\r\n    uint256 public nextEventId;\r\n    address public admin;\r\n\r\n    event EventCreated(\r\n        uint256 id,\r\n        string name,\r\n        uint256 startTime,\r\n        uint256 endTime\r\n    );\r\n    event BetPlaced(\r\n        uint256 eventId,\r\n        address bettor,\r\n        uint256 amount,\r\n        string option\r\n    );\r\n    event WinnerDeclared(uint256 eventId, string winningOption);\r\n\r\n    modifier onlyAdmin() {\r\n        require(msg.sender == admin, \"Only admin can perform this action\");\r\n        _;\r\n    }\r\n\r\n    modifier eventExists(uint256 _eventId) {\r\n        require(_eventId < nextEventId, \"Event does not exist\");\r\n        _;\r\n    }\r\n\r\n    constructor() {\r\n        admin = msg.sender;\r\n    }\r\n\r\n    function createEvent(\r\n        string memory _name,\r\n        string memory _description,\r\n        string memory _imageURL,\r\n        string[] memory _options,\r\n        uint256 _startTime,\r\n        uint256 _endTime,\r\n        string memory _notificationMessage // added notification message parameter here\r\n    ) external onlyAdmin {\r\n        require(_startTime < _endTime, \"Start time must be before end time\");\r\n        require(\r\n            _options.length > 1,\r\n            \"There must be at least two betting options\"\r\n        );\r\n\r\n        BetEvent storage newEvent = events[nextEventId];\r\n        newEvent.id = nextEventId;\r\n        newEvent.name = _name;\r\n        newEvent.description = _description;\r\n        newEvent.imageURL = _imageURL;\r\n        newEvent.options = _options;\r\n        newEvent.startTime = _startTime;\r\n        newEvent.endTime = _endTime;\r\n        newEvent.isCompleted = false;\r\n        newEvent.winningOption = \"\";\r\n        newEvent.prizePool = 0;\r\n        newEvent.notificationMessage = _notificationMessage; // storing notification message\r\n\r\n        emit EventCreated(nextEventId, _name, _startTime, _endTime);\r\n        nextEventId++;\r\n    }\r\n\r\n    function placeBet(\r\n        uint256 _eventId,\r\n        string memory _option\r\n    ) external payable eventExists(_eventId) {\r\n        BetEvent storage betEvent = events[_eventId];\r\n        require(\r\n            block.timestamp >= betEvent.startTime,\r\n            \"Event has not started yet\"\r\n        );\r\n        require(block.timestamp <= betEvent.endTime, \"Event has ended\");\r\n        require(msg.value > 0, \"Bet amount must be greater than 0\");\r\n\r\n        bool validOption = false;\r\n        for (uint256 i = 0; i < betEvent.options.length; i++) {\r\n            if (\r\n                keccak256(abi.encodePacked(betEvent.options[i])) ==\r\n                keccak256(abi.encodePacked(_option))\r\n            ) {\r\n                validOption = true;\r\n                break;\r\n            }\r\n        }\r\n        require(validOption, \"Invalid betting option\");\r\n\r\n        Bet storage userBet = betEvent.bets[msg.sender];\r\n        require(!userBet.exists, \"You have already placed a bet\");\r\n\r\n        userBet.option = _option;\r\n        userBet.amount = msg.value;\r\n        userBet.exists = true;\r\n        betEvent.bettors.push(msg.sender);\r\n        betEvent.prizePool += msg.value;\r\n\r\n        emit BetPlaced(_eventId, msg.sender, msg.value, _option);\r\n    }\r\n\r\n    function declareWinner(\r\n        uint256 _eventId,\r\n        string memory _winningOption\r\n    ) external onlyAdmin eventExists(_eventId) {\r\n        BetEvent storage betEvent = events[_eventId];\r\n        require(!betEvent.isCompleted, \"Event already completed\");\r\n        require(block.timestamp >= betEvent.endTime, \"Event not ended yet\");\r\n\r\n        bool validOption = false;\r\n        for (uint256 i = 0; i < betEvent.options.length; i++) {\r\n            if (\r\n                keccak256(abi.encodePacked(betEvent.options[i])) ==\r\n                keccak256(abi.encodePacked(_winningOption))\r\n            ) {\r\n                validOption = true;\r\n                break;\r\n            }\r\n        }\r\n        require(validOption, \"Invalid option\");\r\n\r\n        betEvent.winningOption = _winningOption;\r\n        betEvent.isCompleted = true;\r\n\r\n        uint256 totalWinnersBetAmount = 0;\r\n        address payable[] memory winnersPayable = new address payable[](\r\n            betEvent.bettors.length\r\n        );\r\n        uint256 winnersCount = 0;\r\n\r\n        for (uint256 i = 0; i < betEvent.bettors.length; i++) {\r\n            address bettor = betEvent.bettors[i];\r\n            if (\r\n                keccak256(abi.encodePacked(betEvent.bets[bettor].option)) ==\r\n                keccak256(abi.encodePacked(_winningOption))\r\n            ) {\r\n                totalWinnersBetAmount += betEvent.bets[bettor].amount;\r\n                winnersPayable[winnersCount] = payable(bettor);\r\n                winnersCount++;\r\n            }\r\n        }\r\n\r\n        if (totalWinnersBetAmount > 0) {\r\n            for (uint256 i = 0; i < winnersCount; i++) {\r\n                address payable winner = winnersPayable[i];\r\n                uint256 winnerReward = (betEvent.bets[winner].amount *\r\n                    betEvent.prizePool) / totalWinnersBetAmount;\r\n                winner.transfer(winnerReward);\r\n            }\r\n        }\r\n\r\n        emit WinnerDeclared(_eventId, _winningOption);\r\n    }\r\n\r\n    function getEvent(\r\n        uint256 _eventId\r\n    )\r\n        external\r\n        view\r\n        eventExists(_eventId)\r\n        returns (\r\n            uint256 id,\r\n            string memory name,\r\n            string memory description,\r\n            string memory imageURL,\r\n            string[] memory options,\r\n            uint256 startTime,\r\n            uint256 endTime,\r\n            bool isCompleted,\r\n            string memory winningOption,\r\n            uint256 prizePool,\r\n            string memory notificationMessage // added notification message to return\r\n        )\r\n    {\r\n        BetEvent storage betEvent = events[_eventId];\r\n        return (\r\n            betEvent.id,\r\n            betEvent.name,\r\n            betEvent.description,\r\n            betEvent.imageURL,\r\n            betEvent.options,\r\n            betEvent.startTime,\r\n            betEvent.endTime,\r\n            betEvent.isCompleted,\r\n            betEvent.winningOption,\r\n            betEvent.prizePool,\r\n            betEvent.notificationMessage // returning notification message\r\n        );\r\n    }\r\n\r\n    function getEventOptions(\r\n        uint256 _eventId\r\n    ) external view eventExists(_eventId) returns (string[] memory) {\r\n        return events[_eventId].options;\r\n    }\r\n}\r\n",
  "sourcePath": "F:\\Software Project\\project Files\\StakeWise-Blockchain\\contracts\\BettingEvents.sol",
  "compiler": {
    "name": "solc",
    "version": "0.8.0+commit.c7dfd78e.Emscripten.clang"
  },
  "schemaVersion": "3.4.16",
  "updatedAt": "2025-02-21T12:24:32.190Z",
  "networkType": "ethereum",
  "devdoc": {
    "kind": "dev",
    "methods": {},
    "version": 1
  },
  "userdoc": {
    "kind": "user",
    "methods": {},
    "version": 1
  }
}