{
  "contractName": "BettingEvents",
  "abi": [
    {
      "inputs": [],
      "stateMutability": "nonpayable",
      "type": "constructor"
    },
    {
      "anonymous": false,
      "inputs": [
        {
          "indexed": false,
          "internalType": "uint256",
          "name": "eventId",
          "type": "uint256"
        },
        {
          "indexed": false,
          "internalType": "address",
          "name": "bettor",
          "type": "address"
        },
        {
          "indexed": false,
          "internalType": "uint256",
          "name": "amount",
          "type": "uint256"
        },
        {
          "indexed": false,
          "internalType": "string",
          "name": "option",
          "type": "string"
        }
      ],
      "name": "BetPlaced",
      "type": "event"
    },
    {
      "anonymous": false,
      "inputs": [
        {
          "indexed": false,
          "internalType": "uint256",
          "name": "eventId",
          "type": "uint256"
        },
        {
          "indexed": false,
          "internalType": "string",
          "name": "name",
          "type": "string"
        },
        {
          "indexed": false,
          "internalType": "uint256",
          "name": "startTime",
          "type": "uint256"
        },
        {
          "indexed": false,
          "internalType": "uint256",
          "name": "endTime",
          "type": "uint256"
        }
      ],
      "name": "EventCreated",
      "type": "event"
    },
    {
      "anonymous": false,
      "inputs": [
        {
          "indexed": false,
          "internalType": "uint256",
          "name": "eventId",
          "type": "uint256"
        },
        {
          "indexed": false,
          "internalType": "string",
          "name": "winningOption",
          "type": "string"
        }
      ],
      "name": "WinnerDeclared",
      "type": "event"
    },
    {
      "inputs": [],
      "name": "admin",
      "outputs": [
        {
          "internalType": "address",
          "name": "",
          "type": "address"
        }
      ],
      "stateMutability": "view",
      "type": "function",
      "constant": true
    },
    {
      "inputs": [
        {
          "internalType": "uint256",
          "name": "",
          "type": "uint256"
        }
      ],
      "name": "events",
      "outputs": [
        {
          "internalType": "uint256",
          "name": "eventId",
          "type": "uint256"
        },
        {
          "internalType": "string",
          "name": "name",
          "type": "string"
        },
        {
          "internalType": "string",
          "name": "description",
          "type": "string"
        },
        {
          "internalType": "string",
          "name": "imageURL",
          "type": "string"
        },
        {
          "internalType": "uint256",
          "name": "startTime",
          "type": "uint256"
        },
        {
          "internalType": "uint256",
          "name": "endTime",
          "type": "uint256"
        },
        {
          "internalType": "bool",
          "name": "isCompleted",
          "type": "bool"
        },
        {
          "internalType": "string",
          "name": "winningOption",
          "type": "string"
        },
        {
          "internalType": "uint256",
          "name": "prizePool",
          "type": "uint256"
        },
        {
          "internalType": "string",
          "name": "notificationMessage",
          "type": "string"
        }
      ],
      "stateMutability": "view",
      "type": "function",
      "constant": true
    },
    {
      "inputs": [],
      "name": "nextEventId",
      "outputs": [
        {
          "internalType": "uint256",
          "name": "",
          "type": "uint256"
        }
      ],
      "stateMutability": "view",
      "type": "function",
      "constant": true
    },
    {
      "inputs": [
        {
          "internalType": "uint256",
          "name": "_eventId",
          "type": "uint256"
        },
        {
          "internalType": "string",
          "name": "_name",
          "type": "string"
        },
        {
          "internalType": "string",
          "name": "_description",
          "type": "string"
        },
        {
          "internalType": "string",
          "name": "_imageURL",
          "type": "string"
        },
        {
          "internalType": "string[]",
          "name": "_options",
          "type": "string[]"
        },
        {
          "internalType": "uint256",
          "name": "_startTime",
          "type": "uint256"
        },
        {
          "internalType": "uint256",
          "name": "_endTime",
          "type": "uint256"
        },
        {
          "internalType": "string",
          "name": "_notificationMessage",
          "type": "string"
        }
      ],
      "name": "createEvent",
      "outputs": [],
      "stateMutability": "nonpayable",
      "type": "function"
    },
    {
      "inputs": [
        {
          "internalType": "uint256",
          "name": "_eventId",
          "type": "uint256"
        },
        {
          "internalType": "string",
          "name": "_option",
          "type": "string"
        }
      ],
      "name": "placeBet",
      "outputs": [],
      "stateMutability": "payable",
      "type": "function",
      "payable": true
    },
    {
      "inputs": [
        {
          "internalType": "uint256",
          "name": "_eventId",
          "type": "uint256"
        },
        {
          "internalType": "string",
          "name": "_winningOption",
          "type": "string"
        }
      ],
      "name": "declareWinner",
      "outputs": [],
      "stateMutability": "nonpayable",
      "type": "function"
    },
    {
      "inputs": [
        {
          "internalType": "uint256",
          "name": "_eventId",
          "type": "uint256"
        }
      ],
      "name": "getEvent",
      "outputs": [
        {
          "internalType": "uint256",
          "name": "eventId",
          "type": "uint256"
        },
        {
          "internalType": "string",
          "name": "name",
          "type": "string"
        },
        {
          "internalType": "string",
          "name": "description",
          "type": "string"
        },
        {
          "internalType": "string",
          "name": "imageURL",
          "type": "string"
        },
        {
          "internalType": "string[]",
          "name": "options",
          "type": "string[]"
        },
        {
          "internalType": "uint256",
          "name": "startTime",
          "type": "uint256"
        },
        {
          "internalType": "uint256",
          "name": "endTime",
          "type": "uint256"
        },
        {
          "internalType": "bool",
          "name": "isCompleted",
          "type": "bool"
        },
        {
          "internalType": "string",
          "name": "winningOption",
          "type": "string"
        },
        {
          "internalType": "uint256",
          "name": "prizePool",
          "type": "uint256"
        },
        {
          "internalType": "string",
          "name": "notificationMessage",
          "type": "string"
        }
      ],
      "stateMutability": "view",
      "type": "function",
      "constant": true
    },
    {
      "inputs": [
        {
          "internalType": "uint256",
          "name": "_eventId",
          "type": "uint256"
        }
      ],
      "name": "getEventOptions",
      "outputs": [
        {
          "internalType": "string[]",
          "name": "",
          "type": "string[]"
        }
      ],
      "stateMutability": "view",
      "type": "function",
      "constant": true
    }
  ],
  "bytecode": "0x608060405234801561001057600080fd5b5033600260006101000a81548173ffffffffffffffffffffffffffffffffffffffff021916908373ffffffffffffffffffffffffffffffffffffffff160217905550612ab9806100616000396000f3fe60806040526004361061007b5760003560e01c80636d1884e01161004e5780636d1884e0146101485780637653a3c11461018f5780639f9d903a146101b8578063f851a440146101e35761007b565b80630b791430146100805780633801f697146100c65780635be9cc9c146100ef5780635e8af7351461012c575b600080fd5b34801561008c57600080fd5b506100a760048036038101906100a29190611acd565b61020e565b6040516100bd9a9998979695949392919061259b565b60405180910390f35b3480156100d257600080fd5b506100ed60048036038101906100e89190611af6565b610517565b005b3480156100fb57600080fd5b5061011660048036038101906101119190611acd565b610bc6565b604051610123919061226d565b60405180910390f35b61014660048036038101906101419190611af6565b610d0f565b005b34801561015457600080fd5b5061016f600480360381019061016a9190611acd565b6110f4565b6040516101869b9a999897969594939291906124c6565b60405180910390f35b34801561019b57600080fd5b506101b660048036038101906101b19190611b4a565b61156b565b005b3480156101c457600080fd5b506101cd611836565b6040516101da919061242f565b60405180910390f35b3480156101ef57600080fd5b506101f861183c565b6040516102059190612252565b60405180910390f35b600060205280600052604060002060009150905080600001549080600101805461023790612924565b80601f016020809104026020016040519081016040528092919081815260200182805461026390612924565b80156102b05780601f10610285576101008083540402835291602001916102b0565b820191906000526020600020905b81548152906001019060200180831161029357829003601f168201915b5050505050908060020180546102c590612924565b80601f01602080910402602001604051908101604052809291908181526020018280546102f190612924565b801561033e5780601f106103135761010080835404028352916020019161033e565b820191906000526020600020905b81548152906001019060200180831161032157829003601f168201915b50505050509080600301805461035390612924565b80601f016020809104026020016040519081016040528092919081815260200182805461037f90612924565b80156103cc5780601f106103a1576101008083540402835291602001916103cc565b820191906000526020600020905b8154815290600101906020018083116103af57829003601f168201915b5050505050908060050154908060060154908060070160009054906101000a900460ff169080600801805461040090612924565b80601f016020809104026020016040519081016040528092919081815260200182805461042c90612924565b80156104795780601f1061044e57610100808354040283529160200191610479565b820191906000526020600020905b81548152906001019060200180831161045c57829003601f168201915b50505050509080600901549080600c01805461049490612924565b80601f01602080910402602001604051908101604052809291908181526020018280546104c090612924565b801561050d5780601f106104e25761010080835404028352916020019161050d565b820191906000526020600020905b8154815290600101906020018083116104f057829003601f168201915b505050505090508a565b600260009054906101000a900473ffffffffffffffffffffffffffffffffffffffff1673ffffffffffffffffffffffffffffffffffffffff163373ffffffffffffffffffffffffffffffffffffffff16146105a7576040517f08c379a000000000000000000000000000000000000000000000000000000000815260040161059e9061238f565b60405180910390fd5b816000806000838152602001908152602001600020600001541415610601576040517f08c379a00000000000000000000000000000000000000000000000000000000081526004016105f8906123af565b60405180910390fd5b600080600085815260200190815260200160002090508060070160009054906101000a900460ff1615610669576040517f08c379a0000000000000000000000000000000000000000000000000000000008152600401610660906123cf565b60405180910390fd5b80600601544210156106b0576040517f08c379a00000000000000000000000000000000000000000000000000000000081526004016106a7906123ef565b60405180910390fd5b6000805b826004018054905081101561077857846040516020016106d49190612224565b60405160208183030381529060405280519060200120836004018281548110610726577f4e487b7100000000000000000000000000000000000000000000000000000000600052603260045260246000fd5b90600052602060002001604051602001610740919061223b565b6040516020818303038152906040528051906020012014156107655760019150610778565b808061077090612956565b9150506106b4565b50806107b9576040517f08c379a00000000000000000000000000000000000000000000000000000000081526004016107b0906122cf565b60405180910390fd5b838260080190805190602001906107d1929190611862565b5060018260070160006101000a81548160ff02191690831515021790555060008083600b018054905067ffffffffffffffff811115610839577f4e487b7100000000000000000000000000000000000000000000000000000000600052604160045260246000fd5b6040519080825280602002602001820160405280156108675781602001602082028036833780820191505090505b5090506000805b85600b0180549050811015610a6857600086600b0182815481106108bb577f4e487b7100000000000000000000000000000000000000000000000000000000600052603260045260246000fd5b9060005260206000200160009054906101000a900473ffffffffffffffffffffffffffffffffffffffff169050886040516020016108f99190612224565b6040516020818303038152906040528051906020012087600a0160008373ffffffffffffffffffffffffffffffffffffffff1673ffffffffffffffffffffffffffffffffffffffff168152602001908152602001600020600001604051602001610963919061223b565b604051602081830303815290604052805190602001201415610a545786600a0160008273ffffffffffffffffffffffffffffffffffffffff1673ffffffffffffffffffffffffffffffffffffffff16815260200190815260200160002060010154856109cf91906127b9565b945080848481518110610a0b577f4e487b7100000000000000000000000000000000000000000000000000000000600052603260045260246000fd5b602002602001019073ffffffffffffffffffffffffffffffffffffffff16908173ffffffffffffffffffffffffffffffffffffffff16815250508280610a5090612956565b9350505b508080610a6090612956565b91505061086e565b506000831115610b835760005b81811015610b81576000838281518110610ab8577f4e487b7100000000000000000000000000000000000000000000000000000000600052603260045260246000fd5b60200260200101519050600085886009015489600a0160008573ffffffffffffffffffffffffffffffffffffffff1673ffffffffffffffffffffffffffffffffffffffff16815260200190815260200160002060010154610b199190612840565b610b23919061280f565b90508173ffffffffffffffffffffffffffffffffffffffff166108fc829081150290604051600060405180830381858888f19350505050158015610b6b573d6000803e3d6000fd5b5050508080610b7990612956565b915050610a75565b505b7f174d40141d388f930fca11a3c885eba334def4ea654c9b34dbe4c549f3af5a3d8888604051610bb4929190612496565b60405180910390a15050505050505050565b6060816000806000838152602001908152602001600020600001541415610c22576040517f08c379a0000000000000000000000000000000000000000000000000000000008152600401610c19906123af565b60405180910390fd5b600080848152602001908152602001600020600401805480602002602001604051908101604052809291908181526020016000905b82821015610d03578382906000526020600020018054610c7690612924565b80601f0160208091040260200160405190810160405280929190818152602001828054610ca290612924565b8015610cef5780601f10610cc457610100808354040283529160200191610cef565b820191906000526020600020905b815481529060010190602001808311610cd257829003601f168201915b505050505081526020019060010190610c57565b50505050915050919050565b816000806000838152602001908152602001600020600001541415610d69576040517f08c379a0000000000000000000000000000000000000000000000000000000008152600401610d60906123af565b60405180910390fd5b600080600085815260200190815260200160002090508060050154421015610dc6576040517f08c379a0000000000000000000000000000000000000000000000000000000008152600401610dbd9061228f565b60405180910390fd5b8060060154421115610e0d576040517f08c379a0000000000000000000000000000000000000000000000000000000008152600401610e049061234f565b60405180910390fd5b60003411610e50576040517f08c379a0000000000000000000000000000000000000000000000000000000008152600401610e479061230f565b60405180910390fd5b6000805b8260040180549050811015610f185784604051602001610e749190612224565b60405160208183030381529060405280519060200120836004018281548110610ec6577f4e487b7100000000000000000000000000000000000000000000000000000000600052603260045260246000fd5b90600052602060002001604051602001610ee0919061223b565b604051602081830303815290604052805190602001201415610f055760019150610f18565b8080610f1090612956565b915050610e54565b5080610f59576040517f08c379a0000000000000000000000000000000000000000000000000000000008152600401610f509061240f565b60405180910390fd5b600082600a0160003373ffffffffffffffffffffffffffffffffffffffff1673ffffffffffffffffffffffffffffffffffffffff16815260200190815260200160002090508060020160009054906101000a900460ff1615610ff0576040517f08c379a0000000000000000000000000000000000000000000000000000000008152600401610fe79061236f565b60405180910390fd5b84816000019080519060200190611008929190611862565b5034816001018190555060018160020160006101000a81548160ff02191690831515021790555082600b01339080600181540180825580915050600190039060005260206000200160009091909190916101000a81548173ffffffffffffffffffffffffffffffffffffffff021916908373ffffffffffffffffffffffffffffffffffffffff160217905550348360090160008282546110a891906127b9565b925050819055507f3a5b25f48e15ab3e4d810304ed7368c35de823921fa3fd504ba8ab2841bf1ad7863334886040516110e4949392919061244a565b60405180910390a1505050505050565b600060608060608060008060006060600060608b6000806000838152602001908152602001600020600001541415611161576040517f08c379a0000000000000000000000000000000000000000000000000000000008152600401611158906123af565b60405180910390fd5b60008060008f81526020019081526020016000209050806000015481600101826002018360030184600401856005015486600601548760070160009054906101000a900460ff168860080189600901548a600c018980546111c190612924565b80601f01602080910402602001604051908101604052809291908181526020018280546111ed90612924565b801561123a5780601f1061120f5761010080835404028352916020019161123a565b820191906000526020600020905b81548152906001019060200180831161121d57829003601f168201915b5050505050995088805461124d90612924565b80601f016020809104026020016040519081016040528092919081815260200182805461127990612924565b80156112c65780601f1061129b576101008083540402835291602001916112c6565b820191906000526020600020905b8154815290600101906020018083116112a957829003601f168201915b505050505098508780546112d990612924565b80601f016020809104026020016040519081016040528092919081815260200182805461130590612924565b80156113525780601f1061132757610100808354040283529160200191611352565b820191906000526020600020905b81548152906001019060200180831161133557829003601f168201915b5050505050975086805480602002602001604051908101604052809291908181526020016000905b8282101561142657838290600052602060002001805461139990612924565b80601f01602080910402602001604051908101604052809291908181526020018280546113c590612924565b80156114125780601f106113e757610100808354040283529160200191611412565b820191906000526020600020905b8154815290600101906020018083116113f557829003601f168201915b50505050508152602001906001019061137a565b50505050965082805461143890612924565b80601f016020809104026020016040519081016040528092919081815260200182805461146490612924565b80156114b15780601f10611486576101008083540402835291602001916114b1565b820191906000526020600020905b81548152906001019060200180831161149457829003601f168201915b505050505092508080546114c490612924565b80601f01602080910402602001604051908101604052809291908181526020018280546114f090612924565b801561153d5780601f106115125761010080835404028352916020019161153d565b820191906000526020600020905b81548152906001019060200180831161152057829003601f168201915b505050505090509c509c509c509c509c509c509c509c509c509c509c50505091939597999b90929496989a50565b600260009054906101000a900473ffffffffffffffffffffffffffffffffffffffff1673ffffffffffffffffffffffffffffffffffffffff163373ffffffffffffffffffffffffffffffffffffffff16146115fb576040517f08c379a00000000000000000000000000000000000000000000000000000000081526004016115f29061238f565b60405180910390fd5b81831061163d576040517f08c379a0000000000000000000000000000000000000000000000000000000008152600401611634906122af565b60405180910390fd5b6001845111611681576040517f08c379a0000000000000000000000000000000000000000000000000000000008152600401611678906122ef565b60405180910390fd5b60008060008a815260200190815260200160002060000154146116d9576040517f08c379a00000000000000000000000000000000000000000000000000000000081526004016116d09061232f565b60405180910390fd5b60008060008a8152602001908152602001600020905088816000018190555087816001019080519060200190611710929190611862565b5086816002019080519060200190611729929190611862565b5085816003019080519060200190611742929190611862565b508481600401908051906020019061175b9291906118e8565b5083816005018190555082816006018190555060008160070160006101000a81548160ff021916908315150217905550604051806020016040528060008152508160080190805190602001906117b2929190611862565b50600081600901819055508181600c0190805190602001906117d5929190611862565b507f42e6867e52299b45991308391cccb9ee79466d194059ff10fc15c2d88f0ea0618989868660405161180b949392919061265a565b60405180910390a16001600081548092919061182690612956565b9190505550505050505050505050565b60015481565b600260009054906101000a900473ffffffffffffffffffffffffffffffffffffffff1681565b82805461186e90612924565b90600052602060002090601f01602090048101928261189057600085556118d7565b82601f106118a957805160ff19168380011785556118d7565b828001600101855582156118d7579182015b828111156118d65782518255916020019190600101906118bb565b5b5090506118e49190611948565b5090565b828054828255906000526020600020908101928215611937579160200282015b82811115611936578251829080519060200190611926929190611862565b5091602001919060010190611908565b5b5090506119449190611965565b5090565b5b80821115611961576000816000905550600101611949565b5090565b5b80821115611985576000818161197c9190611989565b50600101611966565b5090565b50805461199590612924565b6000825580601f106119a757506119c6565b601f0160209004906000526020600020908101906119c59190611948565b5b50565b60006119dc6119d7846126d7565b6126a6565b9050808382526020820190508260005b85811015611a1c5781358501611a028882611a8e565b8452602084019350602083019250506001810190506119ec565b5050509392505050565b6000611a39611a3484612703565b6126a6565b905082815260208101848484011115611a5157600080fd5b611a5c8482856128e2565b509392505050565b600082601f830112611a7557600080fd5b8135611a858482602086016119c9565b91505092915050565b600082601f830112611a9f57600080fd5b8135611aaf848260208601611a26565b91505092915050565b600081359050611ac781612a6c565b92915050565b600060208284031215611adf57600080fd5b6000611aed84828501611ab8565b91505092915050565b60008060408385031215611b0957600080fd5b6000611b1785828601611ab8565b925050602083013567ffffffffffffffff811115611b3457600080fd5b611b4085828601611a8e565b9150509250929050565b600080600080600080600080610100898b031215611b6757600080fd5b6000611b758b828c01611ab8565b985050602089013567ffffffffffffffff811115611b9257600080fd5b611b9e8b828c01611a8e565b975050604089013567ffffffffffffffff811115611bbb57600080fd5b611bc78b828c01611a8e565b965050606089013567ffffffffffffffff811115611be457600080fd5b611bf08b828c01611a8e565b955050608089013567ffffffffffffffff811115611c0d57600080fd5b611c198b828c01611a64565b94505060a0611c2a8b828c01611ab8565b93505060c0611c3b8b828c01611ab8565b92505060e089013567ffffffffffffffff811115611c5857600080fd5b611c648b828c01611a8e565b9150509295985092959890939650565b6000611c808383611d1b565b905092915050565b611c918161289a565b82525050565b6000611ca282612758565b611cac818561277b565b935083602082028501611cbe85612733565b8060005b85811015611cfa5784840389528151611cdb8582611c74565b9450611ce68361276e565b925060208a01995050600181019050611cc2565b50829750879550505050505092915050565b611d15816128ac565b82525050565b6000611d2682612763565b611d30818561278c565b9350611d408185602086016128f1565b611d4981612a5b565b840191505092915050565b6000611d5f82612763565b611d69818561279d565b9350611d798185602086016128f1565b611d8281612a5b565b840191505092915050565b6000611d9882612763565b611da281856127ae565b9350611db28185602086016128f1565b80840191505092915050565b60008154611dcb81612924565b611dd581866127ae565b94506001821660008114611df05760018114611e0157611e34565b60ff19831686528186019350611e34565b611e0a85612743565b60005b83811015611e2c57815481890152600182019150602081019050611e0d565b838801955050505b50505092915050565b6000611e4a60198361279d565b91507f4576656e7420686173206e6f74207374617274656420796574000000000000006000830152602082019050919050565b6000611e8a60228361279d565b91507f53746172742074696d65206d757374206265206265666f726520656e6420746960008301527f6d650000000000000000000000000000000000000000000000000000000000006020830152604082019050919050565b6000611ef0600e8361279d565b91507f496e76616c6964206f7074696f6e0000000000000000000000000000000000006000830152602082019050919050565b6000611f30602a8361279d565b91507f5468657265206d757374206265206174206c656173742074776f20626574746960008301527f6e67206f7074696f6e73000000000000000000000000000000000000000000006020830152604082019050919050565b6000611f9660218361279d565b91507f42657420616d6f756e74206d7573742062652067726561746572207468616e2060008301527f30000000000000000000000000000000000000000000000000000000000000006020830152604082019050919050565b6000611ffc60178361279d565b91507f4576656e7420494420616c7265616479206578697374730000000000000000006000830152602082019050919050565b600061203c600f8361279d565b91507f4576656e742068617320656e64656400000000000000000000000000000000006000830152602082019050919050565b600061207c601d8361279d565b91507f596f75206861766520616c726561647920706c616365642061206265740000006000830152602082019050919050565b60006120bc60228361279d565b91507f4f6e6c792061646d696e2063616e20706572666f726d2074686973206163746960008301527f6f6e0000000000000000000000000000000000000000000000000000000000006020830152604082019050919050565b600061212260148361279d565b91507f4576656e7420646f6573206e6f742065786973740000000000000000000000006000830152602082019050919050565b600061216260178361279d565b91507f4576656e7420616c726561647920636f6d706c657465640000000000000000006000830152602082019050919050565b60006121a260138361279d565b91507f4576656e74206e6f7420656e64656420796574000000000000000000000000006000830152602082019050919050565b60006121e260168361279d565b91507f496e76616c69642062657474696e67206f7074696f6e000000000000000000006000830152602082019050919050565b61221e816128d8565b82525050565b60006122308284611d8d565b915081905092915050565b60006122478284611dbe565b915081905092915050565b60006020820190506122676000830184611c88565b92915050565b600060208201905081810360008301526122878184611c97565b905092915050565b600060208201905081810360008301526122a881611e3d565b9050919050565b600060208201905081810360008301526122c881611e7d565b9050919050565b600060208201905081810360008301526122e881611ee3565b9050919050565b6000602082019050818103600083015261230881611f23565b9050919050565b6000602082019050818103600083015261232881611f89565b9050919050565b6000602082019050818103600083015261234881611fef565b9050919050565b600060208201905081810360008301526123688161202f565b9050919050565b600060208201905081810360008301526123888161206f565b9050919050565b600060208201905081810360008301526123a8816120af565b9050919050565b600060208201905081810360008301526123c881612115565b9050919050565b600060208201905081810360008301526123e881612155565b9050919050565b6000602082019050818103600083015261240881612195565b9050919050565b60006020820190508181036000830152612428816121d5565b9050919050565b60006020820190506124446000830184612215565b92915050565b600060808201905061245f6000830187612215565b61246c6020830186611c88565b6124796040830185612215565b818103606083015261248b8184611d54565b905095945050505050565b60006040820190506124ab6000830185612215565b81810360208301526124bd8184611d54565b90509392505050565b6000610160820190506124dc600083018e612215565b81810360208301526124ee818d611d54565b90508181036040830152612502818c611d54565b90508181036060830152612516818b611d54565b9050818103608083015261252a818a611c97565b905061253960a0830189612215565b61254660c0830188612215565b61255360e0830187611d0c565b8181036101008301526125668186611d54565b9050612576610120830185612215565b8181036101408301526125898184611d54565b90509c9b505050505050505050505050565b6000610140820190506125b1600083018d612215565b81810360208301526125c3818c611d54565b905081810360408301526125d7818b611d54565b905081810360608301526125eb818a611d54565b90506125fa6080830189612215565b61260760a0830188612215565b61261460c0830187611d0c565b81810360e08301526126268186611d54565b9050612636610100830185612215565b8181036101208301526126498184611d54565b90509b9a5050505050505050505050565b600060808201905061266f6000830187612215565b81810360208301526126818186611d54565b90506126906040830185612215565b61269d6060830184612215565b95945050505050565b6000604051905081810181811067ffffffffffffffff821117156126cd576126cc612a2c565b5b8060405250919050565b600067ffffffffffffffff8211156126f2576126f1612a2c565b5b602082029050602081019050919050565b600067ffffffffffffffff82111561271e5761271d612a2c565b5b601f19601f8301169050602081019050919050565b6000819050602082019050919050565b60008190508160005260206000209050919050565b600081519050919050565b600081519050919050565b6000602082019050919050565b600082825260208201905092915050565b600082825260208201905092915050565b600082825260208201905092915050565b600081905092915050565b60006127c4826128d8565b91506127cf836128d8565b9250827fffffffffffffffffffffffffffffffffffffffffffffffffffffffffffffffff038211156128045761280361299f565b5b828201905092915050565b600061281a826128d8565b9150612825836128d8565b925082612835576128346129ce565b5b828204905092915050565b600061284b826128d8565b9150612856836128d8565b9250817fffffffffffffffffffffffffffffffffffffffffffffffffffffffffffffffff048311821515161561288f5761288e61299f565b5b828202905092915050565b60006128a5826128b8565b9050919050565b60008115159050919050565b600073ffffffffffffffffffffffffffffffffffffffff82169050919050565b6000819050919050565b82818337600083830152505050565b60005b8381101561290f5780820151818401526020810190506128f4565b8381111561291e576000848401525b50505050565b6000600282049050600182168061293c57607f821691505b602082108114156129505761294f6129fd565b5b50919050565b6000612961826128d8565b91507fffffffffffffffffffffffffffffffffffffffffffffffffffffffffffffffff8214156129945761299361299f565b5b600182019050919050565b7f4e487b7100000000000000000000000000000000000000000000000000000000600052601160045260246000fd5b7f4e487b7100000000000000000000000000000000000000000000000000000000600052601260045260246000fd5b7f4e487b7100000000000000000000000000000000000000000000000000000000600052602260045260246000fd5b7f4e487b7100000000000000000000000000000000000000000000000000000000600052604160045260246000fd5b6000601f19601f8301169050919050565b612a75816128d8565b8114612a8057600080fd5b5056fea2646970667358221220ecc8df5b41c98c163eb71461f4746081032bf0cb9d19af3a7764d49e59d6595464736f6c63430008000033",
  "immutableReferences": {},
  "source": "// SPDX-License-Identifier: MIT\r\npragma solidity ^0.8.0;\r\n\r\ncontract BettingEvents {\r\n    struct BetEvent {\r\n        uint256 eventId; // Renamed 'id' to 'eventId'\r\n        string name;\r\n        string description;\r\n        string imageURL;\r\n        string[] options;\r\n        uint256 startTime;\r\n        uint256 endTime;\r\n        bool isCompleted;\r\n        string winningOption;\r\n        uint256 prizePool;\r\n        mapping(address => Bet) bets;\r\n        address[] bettors;\r\n        string notificationMessage;\r\n    }\r\n\r\n    struct Bet {\r\n        string option;\r\n        uint256 amount;\r\n        bool exists;\r\n    }\r\n\r\n    mapping(uint256 => BetEvent) public events;\r\n    uint256 public nextEventId;\r\n    address public admin;\r\n\r\n    event EventCreated(\r\n        uint256 eventId, // Event emits eventId, not id\r\n        string name,\r\n        uint256 startTime,\r\n        uint256 endTime\r\n    );\r\n    event BetPlaced(\r\n        uint256 eventId,\r\n        address bettor,\r\n        uint256 amount,\r\n        string option\r\n    );\r\n    event WinnerDeclared(uint256 eventId, string winningOption);\r\n\r\n    modifier onlyAdmin() {\r\n        require(msg.sender == admin, \"Only admin can perform this action\");\r\n        _;\r\n    }\r\n\r\n    modifier eventExists(uint256 _eventId) {\r\n        require(events[_eventId].eventId != 0, \"Event does not exist\"); // Check eventId instead of id\r\n        _;\r\n    }\r\n\r\n    constructor() {\r\n        admin = msg.sender;\r\n    }\r\n\r\n    function createEvent(\r\n        uint256 _eventId, // ADDED _eventId parameter - VERY IMPORTANT\r\n        string memory _name,\r\n        string memory _description,\r\n        string memory _imageURL,\r\n        string[] memory _options,\r\n        uint256 _startTime,\r\n        uint256 _endTime,\r\n        string memory _notificationMessage\r\n    ) external onlyAdmin {\r\n        require(_startTime < _endTime, \"Start time must be before end time\");\r\n        require(\r\n            _options.length > 1,\r\n            \"There must be at least two betting options\"\r\n        );\r\n        require(events[_eventId].eventId == 0, \"Event ID already exists\"); // Ensure eventId is not already used\r\n\r\n        BetEvent storage newEvent = events[_eventId];\r\n        newEvent.eventId = _eventId; // Use _eventId provided from frontend - VERY IMPORTANT\r\n        newEvent.name = _name;\r\n        newEvent.description = _description;\r\n        newEvent.imageURL = _imageURL;\r\n        newEvent.options = _options;\r\n        newEvent.startTime = _startTime;\r\n        newEvent.endTime = _endTime;\r\n        newEvent.isCompleted = false;\r\n        newEvent.winningOption = \"\";\r\n        newEvent.prizePool = 0;\r\n        newEvent.notificationMessage = _notificationMessage;\r\n\r\n        emit EventCreated(_eventId, _name, _startTime, _endTime); // Emit eventId - VERY IMPORTANT\r\n        nextEventId++; // Increment nextEventId AFTER using current value\r\n    }\r\n\r\n    function placeBet(\r\n        uint256 _eventId,\r\n        string memory _option\r\n    ) external payable eventExists(_eventId) {\r\n        BetEvent storage betEvent = events[_eventId];\r\n        require(\r\n            block.timestamp >= betEvent.startTime,\r\n            \"Event has not started yet\"\r\n        );\r\n        require(block.timestamp <= betEvent.endTime, \"Event has ended\");\r\n        require(msg.value > 0, \"Bet amount must be greater than 0\");\r\n\r\n        bool validOption = false;\r\n        for (uint256 i = 0; i < betEvent.options.length; i++) {\r\n            if (\r\n                keccak256(abi.encodePacked(betEvent.options[i])) ==\r\n                keccak256(abi.encodePacked(_option))\r\n            ) {\r\n                validOption = true;\r\n                break;\r\n            }\r\n        }\r\n        require(validOption, \"Invalid betting option\");\r\n\r\n        Bet storage userBet = betEvent.bets[msg.sender];\r\n        require(!userBet.exists, \"You have already placed a bet\");\r\n\r\n        userBet.option = _option;\r\n        userBet.amount = msg.value;\r\n        userBet.exists = true;\r\n        betEvent.bettors.push(msg.sender);\r\n        betEvent.prizePool += msg.value;\r\n\r\n        emit BetPlaced(_eventId, msg.sender, msg.value, _option);\r\n    }\r\n\r\n    function declareWinner(\r\n        uint256 _eventId,\r\n        string memory _winningOption\r\n    ) external onlyAdmin eventExists(_eventId) {\r\n        BetEvent storage betEvent = events[_eventId];\r\n        require(!betEvent.isCompleted, \"Event already completed\");\r\n        require(block.timestamp >= betEvent.endTime, \"Event not ended yet\");\r\n\r\n        bool validOption = false;\r\n        for (uint256 i = 0; i < betEvent.options.length; i++) {\r\n            if (\r\n                keccak256(abi.encodePacked(betEvent.options[i])) ==\r\n                keccak256(abi.encodePacked(_winningOption))\r\n            ) {\r\n                validOption = true;\r\n                break;\r\n            }\r\n        }\r\n        require(validOption, \"Invalid option\");\r\n\r\n        betEvent.winningOption = _winningOption;\r\n        betEvent.isCompleted = true;\r\n\r\n        uint256 totalWinnersBetAmount = 0;\r\n        address payable[] memory winnersPayable = new address payable[](\r\n            betEvent.bettors.length\r\n        );\r\n        uint256 winnersCount = 0;\r\n\r\n        for (uint256 i = 0; i < betEvent.bettors.length; i++) {\r\n            address bettor = betEvent.bettors[i];\r\n            if (\r\n                keccak256(abi.encodePacked(betEvent.bets[bettor].option)) ==\r\n                keccak256(abi.encodePacked(_winningOption))\r\n            ) {\r\n                totalWinnersBetAmount += betEvent.bets[bettor].amount;\r\n                winnersPayable[winnersCount] = payable(bettor);\r\n                winnersCount++;\r\n            }\r\n        }\r\n\r\n        if (totalWinnersBetAmount > 0) {\r\n            for (uint256 i = 0; i < winnersCount; i++) {\r\n                address payable winner = winnersPayable[i];\r\n                uint256 winnerReward = (betEvent.bets[winner].amount *\r\n                    betEvent.prizePool) / totalWinnersBetAmount;\r\n                winner.transfer(winnerReward);\r\n            }\r\n        }\r\n\r\n        emit WinnerDeclared(_eventId, _winningOption);\r\n    }\r\n\r\n    function getEvent(\r\n        uint256 _eventId\r\n    )\r\n        external\r\n        view\r\n        eventExists(_eventId)\r\n        returns (\r\n            uint256 eventId, // Returns eventId, not id\r\n            string memory name,\r\n            string memory description,\r\n            string memory imageURL,\r\n            string[] memory options,\r\n            uint256 startTime,\r\n            uint256 endTime,\r\n            bool isCompleted,\r\n            string memory winningOption,\r\n            uint256 prizePool,\r\n            string memory notificationMessage\r\n        )\r\n    {\r\n        BetEvent storage betEvent = events[_eventId];\r\n        return (\r\n            betEvent.eventId, // Returns betEvent.eventId\r\n            betEvent.name,\r\n            betEvent.description,\r\n            betEvent.imageURL,\r\n            betEvent.options,\r\n            betEvent.startTime,\r\n            betEvent.endTime,\r\n            betEvent.isCompleted,\r\n            betEvent.winningOption,\r\n            betEvent.prizePool,\r\n            betEvent.notificationMessage\r\n        );\r\n    }\r\n\r\n    function getEventOptions(\r\n        uint256 _eventId\r\n    ) external view eventExists(_eventId) returns (string[] memory) {\r\n        return events[_eventId].options;\r\n    }\r\n}\r\n",
  "sourcePath": "F:\\Software Project\\project Files\\StakeWise-Blockchain\\contracts\\BettingEvents.sol",
  "compiler": {
    "name": "solc",
    "version": "0.8.0+commit.c7dfd78e.Emscripten.clang"
  },
  "schemaVersion": "3.4.16",
  "updatedAt": "2025-02-28T16:47:56.721Z",
  "networkType": "ethereum",
  "devdoc": {
    "kind": "dev",
    "methods": {},
    "version": 1
  },
  "userdoc": {
    "kind": "user",
    "methods": {},
    "version": 1
  }
}