{
  "contractName": "BettingEvents",
  "abi": [
    {
      "inputs": [],
      "stateMutability": "nonpayable",
      "type": "constructor"
    },
    {
      "anonymous": false,
      "inputs": [
        {
          "indexed": false,
          "internalType": "uint256",
          "name": "eventId",
          "type": "uint256"
        },
        {
          "indexed": false,
          "internalType": "address",
          "name": "bettor",
          "type": "address"
        },
        {
          "indexed": false,
          "internalType": "uint256",
          "name": "amount",
          "type": "uint256"
        },
        {
          "indexed": false,
          "internalType": "string",
          "name": "option",
          "type": "string"
        }
      ],
      "name": "BetPlaced",
      "type": "event"
    },
    {
      "anonymous": false,
      "inputs": [
        {
          "indexed": false,
          "internalType": "uint256",
          "name": "eventId",
          "type": "uint256"
        },
        {
          "indexed": false,
          "internalType": "string",
          "name": "name",
          "type": "string"
        },
        {
          "indexed": false,
          "internalType": "uint256",
          "name": "startTime",
          "type": "uint256"
        },
        {
          "indexed": false,
          "internalType": "uint256",
          "name": "endTime",
          "type": "uint256"
        }
      ],
      "name": "EventCreated",
      "type": "event"
    },
    {
      "anonymous": false,
      "inputs": [
        {
          "indexed": false,
          "internalType": "uint256",
          "name": "eventId",
          "type": "uint256"
        },
        {
          "indexed": false,
          "internalType": "string",
          "name": "winningOption",
          "type": "string"
        }
      ],
      "name": "WinnerDeclared",
      "type": "event"
    },
    {
      "inputs": [],
      "name": "admin",
      "outputs": [
        {
          "internalType": "address",
          "name": "",
          "type": "address"
        }
      ],
      "stateMutability": "view",
      "type": "function",
      "constant": true
    },
    {
      "inputs": [
        {
          "internalType": "uint256",
          "name": "",
          "type": "uint256"
        }
      ],
      "name": "eventIds",
      "outputs": [
        {
          "internalType": "uint256",
          "name": "",
          "type": "uint256"
        }
      ],
      "stateMutability": "view",
      "type": "function",
      "constant": true
    },
    {
      "inputs": [
        {
          "internalType": "uint256",
          "name": "",
          "type": "uint256"
        }
      ],
      "name": "events",
      "outputs": [
        {
          "internalType": "uint256",
          "name": "eventId",
          "type": "uint256"
        },
        {
          "internalType": "string",
          "name": "name",
          "type": "string"
        },
        {
          "internalType": "string",
          "name": "description",
          "type": "string"
        },
        {
          "internalType": "string",
          "name": "imageURL",
          "type": "string"
        },
        {
          "internalType": "uint256",
          "name": "startTime",
          "type": "uint256"
        },
        {
          "internalType": "uint256",
          "name": "endTime",
          "type": "uint256"
        },
        {
          "internalType": "bool",
          "name": "isCompleted",
          "type": "bool"
        },
        {
          "internalType": "string",
          "name": "winningOption",
          "type": "string"
        },
        {
          "internalType": "uint256",
          "name": "prizePool",
          "type": "uint256"
        },
        {
          "internalType": "string",
          "name": "rules",
          "type": "string"
        },
        {
          "internalType": "string",
          "name": "notificationImageURL",
          "type": "string"
        },
        {
          "internalType": "string",
          "name": "notificationMessage",
          "type": "string"
        }
      ],
      "stateMutability": "view",
      "type": "function",
      "constant": true
    },
    {
      "inputs": [],
      "name": "nextEventId",
      "outputs": [
        {
          "internalType": "uint256",
          "name": "",
          "type": "uint256"
        }
      ],
      "stateMutability": "view",
      "type": "function",
      "constant": true
    },
    {
      "inputs": [],
      "name": "totalAdminProfit",
      "outputs": [
        {
          "internalType": "uint256",
          "name": "",
          "type": "uint256"
        }
      ],
      "stateMutability": "view",
      "type": "function",
      "constant": true
    },
    {
      "inputs": [
        {
          "internalType": "uint256",
          "name": "_eventId",
          "type": "uint256"
        },
        {
          "internalType": "address",
          "name": "_user",
          "type": "address"
        }
      ],
      "name": "getUserBet",
      "outputs": [
        {
          "internalType": "string",
          "name": "",
          "type": "string"
        },
        {
          "internalType": "uint256",
          "name": "",
          "type": "uint256"
        },
        {
          "internalType": "bool",
          "name": "",
          "type": "bool"
        }
      ],
      "stateMutability": "view",
      "type": "function",
      "constant": true
    },
    {
      "inputs": [],
      "name": "getAllEventIds",
      "outputs": [
        {
          "internalType": "uint256[]",
          "name": "",
          "type": "uint256[]"
        }
      ],
      "stateMutability": "view",
      "type": "function",
      "constant": true
    },
    {
      "inputs": [
        {
          "internalType": "uint256",
          "name": "_eventId",
          "type": "uint256"
        },
        {
          "internalType": "string",
          "name": "_name",
          "type": "string"
        },
        {
          "internalType": "string",
          "name": "_description",
          "type": "string"
        },
        {
          "internalType": "string",
          "name": "_imageURL",
          "type": "string"
        },
        {
          "internalType": "string[]",
          "name": "_options",
          "type": "string[]"
        },
        {
          "internalType": "uint256",
          "name": "_startTime",
          "type": "uint256"
        },
        {
          "internalType": "uint256",
          "name": "_endTime",
          "type": "uint256"
        },
        {
          "internalType": "string",
          "name": "_rules",
          "type": "string"
        },
        {
          "internalType": "string",
          "name": "_notificationImageURL",
          "type": "string"
        },
        {
          "internalType": "string",
          "name": "_notificationMessage",
          "type": "string"
        }
      ],
      "name": "createEvent",
      "outputs": [],
      "stateMutability": "nonpayable",
      "type": "function"
    },
    {
      "inputs": [
        {
          "internalType": "uint256",
          "name": "_eventId",
          "type": "uint256"
        },
        {
          "internalType": "string",
          "name": "_option",
          "type": "string"
        }
      ],
      "name": "placeBet",
      "outputs": [],
      "stateMutability": "payable",
      "type": "function",
      "payable": true
    },
    {
      "inputs": [
        {
          "internalType": "uint256",
          "name": "_eventId",
          "type": "uint256"
        },
        {
          "internalType": "string",
          "name": "_winningOption",
          "type": "string"
        }
      ],
      "name": "declareWinner",
      "outputs": [],
      "stateMutability": "nonpayable",
      "type": "function"
    },
    {
      "inputs": [
        {
          "internalType": "uint256",
          "name": "_eventId",
          "type": "uint256"
        }
      ],
      "name": "getEvent",
      "outputs": [
        {
          "components": [
            {
              "internalType": "uint256",
              "name": "eventId",
              "type": "uint256"
            },
            {
              "internalType": "string",
              "name": "name",
              "type": "string"
            },
            {
              "internalType": "string",
              "name": "description",
              "type": "string"
            },
            {
              "internalType": "string",
              "name": "imageURL",
              "type": "string"
            },
            {
              "internalType": "string[]",
              "name": "options",
              "type": "string[]"
            },
            {
              "internalType": "uint256",
              "name": "startTime",
              "type": "uint256"
            },
            {
              "internalType": "uint256",
              "name": "endTime",
              "type": "uint256"
            },
            {
              "internalType": "bool",
              "name": "isCompleted",
              "type": "bool"
            },
            {
              "internalType": "string",
              "name": "winningOption",
              "type": "string"
            },
            {
              "internalType": "uint256",
              "name": "prizePool",
              "type": "uint256"
            },
            {
              "internalType": "string",
              "name": "rules",
              "type": "string"
            },
            {
              "internalType": "string",
              "name": "notificationImageURL",
              "type": "string"
            },
            {
              "internalType": "string",
              "name": "notificationMessage",
              "type": "string"
            }
          ],
          "internalType": "struct BettingEvents.BetEventView",
          "name": "",
          "type": "tuple"
        }
      ],
      "stateMutability": "view",
      "type": "function",
      "constant": true
    },
    {
      "inputs": [
        {
          "internalType": "uint256",
          "name": "_eventId",
          "type": "uint256"
        }
      ],
      "name": "getEventOptions",
      "outputs": [
        {
          "internalType": "string[]",
          "name": "",
          "type": "string[]"
        }
      ],
      "stateMutability": "view",
      "type": "function",
      "constant": true
    },
    {
      "inputs": [
        {
          "internalType": "uint256",
          "name": "_eventId",
          "type": "uint256"
        }
      ],
      "name": "getEventPrizePool",
      "outputs": [
        {
          "internalType": "uint256",
          "name": "",
          "type": "uint256"
        }
      ],
      "stateMutability": "view",
      "type": "function",
      "constant": true
    },
    {
      "inputs": [
        {
          "internalType": "uint256",
          "name": "_eventId",
          "type": "uint256"
        }
      ],
      "name": "getEventOdds",
      "outputs": [
        {
          "components": [
            {
              "internalType": "string",
              "name": "optionName",
              "type": "string"
            },
            {
              "internalType": "uint256",
              "name": "oddsPercentage",
              "type": "uint256"
            }
          ],
          "internalType": "struct BettingEvents.OptionOdds[]",
          "name": "",
          "type": "tuple[]"
        }
      ],
      "stateMutability": "view",
      "type": "function",
      "constant": true
    },
    {
      "inputs": [],
      "name": "getTotalAdminProfit",
      "outputs": [
        {
          "internalType": "uint256",
          "name": "",
          "type": "uint256"
        }
      ],
      "stateMutability": "view",
      "type": "function",
      "constant": true
    },
    {
      "inputs": [],
      "name": "getTotalBetsPlaced",
      "outputs": [
        {
          "internalType": "uint256",
          "name": "",
          "type": "uint256"
        }
      ],
      "stateMutability": "view",
      "type": "function",
      "constant": true
    }
  ],
  "bytecode": "0x608060405234801561001057600080fd5b5033600260006101000a81548173ffffffffffffffffffffffffffffffffffffffff021916908373ffffffffffffffffffffffffffffffffffffffff1602179055506000600381905550613c50806100696000396000f3fe6080604052600436106100f35760003560e01c806395db9b0b1161008a578063bb61799611610059578063bb6179961461034e578063c03fb87c1461038b578063d74982ef146103ca578063f851a440146103f5576100f3565b806395db9b0b1461027e578063998f6ac0146102a95780639f9d903a146102e6578063acc566a514610311576100f3565b80635e8af735116100c65780635e8af735146101cf578063682e54cd146101eb5780636d1884e0146102165780638ff8550c14610253576100f3565b80630b791430146100f85780633801f697146101405780633c6f876c146101695780635be9cc9c14610192575b600080fd5b34801561010457600080fd5b5061011f600480360381019061011a91906127ed565b610420565b6040516101379c9b9a99989796959493929190613638565b60405180910390f35b34801561014c57600080fd5b5061016760048036038101906101629190612852565b610845565b005b34801561017557600080fd5b50610190600480360381019061018b91906128a6565b610fa9565b005b34801561019e57600080fd5b506101b960048036038101906101b491906127ed565b6112d1565b6040516101c6919061333b565b60405180910390f35b6101e960048036038101906101e49190612852565b61141a565b005b3480156101f757600080fd5b5061020061186c565b60405161020d919061337f565b60405180910390f35b34801561022257600080fd5b5061023d600480360381019061023891906127ed565b6118c4565b60405161024a919061357f565b60405180910390f35b34801561025f57600080fd5b50610268611e67565b60405161027591906135a1565b60405180910390f35b34801561028a57600080fd5b50610293611e6d565b6040516102a091906135a1565b60405180910390f35b3480156102b557600080fd5b506102d060048036038101906102cb91906127ed565b611e77565b6040516102dd91906135a1565b60405180910390f35b3480156102f257600080fd5b506102fb611e9b565b60405161030891906135a1565b60405180910390f35b34801561031d57600080fd5b50610338600480360381019061033391906127ed565b611ea1565b604051610345919061335d565b60405180910390f35b34801561035a57600080fd5b50610375600480360381019061037091906127ed565b6122a0565b60405161038291906135a1565b60405180910390f35b34801561039757600080fd5b506103b260048036038101906103ad9190612816565b61231a565b6040516103c1939291906133a1565b60405180910390f35b3480156103d657600080fd5b506103df61242a565b6040516103ec91906135a1565b60405180910390f35b34801561040157600080fd5b5061040a6124c3565b6040516104179190613320565b60405180910390f35b600060205280600052604060002060009150905080600001549080600101805461044990613aa4565b80601f016020809104026020016040519081016040528092919081815260200182805461047590613aa4565b80156104c25780601f10610497576101008083540402835291602001916104c2565b820191906000526020600020905b8154815290600101906020018083116104a557829003601f168201915b5050505050908060020180546104d790613aa4565b80601f016020809104026020016040519081016040528092919081815260200182805461050390613aa4565b80156105505780601f1061052557610100808354040283529160200191610550565b820191906000526020600020905b81548152906001019060200180831161053357829003601f168201915b50505050509080600301805461056590613aa4565b80601f016020809104026020016040519081016040528092919081815260200182805461059190613aa4565b80156105de5780601f106105b3576101008083540402835291602001916105de565b820191906000526020600020905b8154815290600101906020018083116105c157829003601f168201915b5050505050908060050154908060060154908060070160009054906101000a900460ff169080600801805461061290613aa4565b80601f016020809104026020016040519081016040528092919081815260200182805461063e90613aa4565b801561068b5780601f106106605761010080835404028352916020019161068b565b820191906000526020600020905b81548152906001019060200180831161066e57829003601f168201915b50505050509080600901549080600a0180546106a690613aa4565b80601f01602080910402602001604051908101604052809291908181526020018280546106d290613aa4565b801561071f5780601f106106f45761010080835404028352916020019161071f565b820191906000526020600020905b81548152906001019060200180831161070257829003601f168201915b50505050509080600b01805461073490613aa4565b80601f016020809104026020016040519081016040528092919081815260200182805461076090613aa4565b80156107ad5780601f10610782576101008083540402835291602001916107ad565b820191906000526020600020905b81548152906001019060200180831161079057829003601f168201915b50505050509080600c0180546107c290613aa4565b80601f01602080910402602001604051908101604052809291908181526020018280546107ee90613aa4565b801561083b5780601f106108105761010080835404028352916020019161083b565b820191906000526020600020905b81548152906001019060200180831161081e57829003601f168201915b505050505090508c565b600260009054906101000a900473ffffffffffffffffffffffffffffffffffffffff1673ffffffffffffffffffffffffffffffffffffffff163373ffffffffffffffffffffffffffffffffffffffff16146108d5576040517f08c379a00000000000000000000000000000000000000000000000000000000081526004016108cc906134df565b60405180910390fd5b81600080600083815260200190815260200160002060000154141561092f576040517f08c379a0000000000000000000000000000000000000000000000000000000008152600401610926906134ff565b60405180910390fd5b600080600085815260200190815260200160002090508060070160009054906101000a900460ff1615610997576040517f08c379a000000000000000000000000000000000000000000000000000000000815260040161098e9061351f565b60405180910390fd5b80600601544210156109de576040517f08c379a00000000000000000000000000000000000000000000000000000000081526004016109d59061353f565b60405180910390fd5b6000805b8260040180549050811015610aa65784604051602001610a0291906132f2565b60405160208183030381529060405280519060200120836004018281548110610a54577f4e487b7100000000000000000000000000000000000000000000000000000000600052603260045260246000fd5b90600052602060002001604051602001610a6e9190613309565b604051602081830303815290604052805190602001201415610a935760019150610aa6565b8080610a9e90613ad6565b9150506109e2565b5080610ae7576040517f08c379a0000000000000000000000000000000000000000000000000000000008152600401610ade9061341f565b60405180910390fd5b83826008019080519060200190610aff9291906124e9565b5060018260070160006101000a81548160ff02191690831515021790555060008083600e018054905067ffffffffffffffff811115610b67577f4e487b7100000000000000000000000000000000000000000000000000000000600052604160045260246000fd5b604051908082528060200260200182016040528015610b955781602001602082028036833780820191505090505b5090506000805b85600e0180549050811015610d9657600086600e018281548110610be9577f4e487b7100000000000000000000000000000000000000000000000000000000600052603260045260246000fd5b9060005260206000200160009054906101000a900473ffffffffffffffffffffffffffffffffffffffff16905088604051602001610c2791906132f2565b6040516020818303038152906040528051906020012087600d0160008373ffffffffffffffffffffffffffffffffffffffff1673ffffffffffffffffffffffffffffffffffffffff168152602001908152602001600020600001604051602001610c919190613309565b604051602081830303815290604052805190602001201415610d825786600d0160008273ffffffffffffffffffffffffffffffffffffffff1673ffffffffffffffffffffffffffffffffffffffff1681526020019081526020016000206001015485610cfd9190613905565b945080848481518110610d39577f4e487b7100000000000000000000000000000000000000000000000000000000600052603260045260246000fd5b602002602001019073ffffffffffffffffffffffffffffffffffffffff16908173ffffffffffffffffffffffffffffffffffffffff16815250508280610d7e90613ad6565b9350505b508080610d8e90613ad6565b915050610b9c565b506000606460058760090154610dac919061398c565b610db6919061395b565b90506000818760090154610dca91906139e6565b90508160036000828254610dde9190613905565b92505081905550600260009054906101000a900473ffffffffffffffffffffffffffffffffffffffff1673ffffffffffffffffffffffffffffffffffffffff166108fc839081150290604051600060405180830381858888f19350505050158015610e4d573d6000803e3d6000fd5b506000851115610f645760005b83811015610f62576000858281518110610e9d577f4e487b7100000000000000000000000000000000000000000000000000000000600052603260045260246000fd5b60200260200101519050600087848b600d0160008573ffffffffffffffffffffffffffffffffffffffff1673ffffffffffffffffffffffffffffffffffffffff16815260200190815260200160002060010154610efa919061398c565b610f04919061395b565b90508173ffffffffffffffffffffffffffffffffffffffff166108fc829081150290604051600060405180830381858888f19350505050158015610f4c573d6000803e3d6000fd5b5050508080610f5a90613ad6565b915050610e5a565b505b7f174d40141d388f930fca11a3c885eba334def4ea654c9b34dbe4c549f3af5a3d8a8a604051610f95929190613608565b60405180910390a150505050505050505050565b600260009054906101000a900473ffffffffffffffffffffffffffffffffffffffff1673ffffffffffffffffffffffffffffffffffffffff163373ffffffffffffffffffffffffffffffffffffffff1614611039576040517f08c379a0000000000000000000000000000000000000000000000000000000008152600401611030906134df565b60405180910390fd5b83851061107b576040517f08c379a0000000000000000000000000000000000000000000000000000000008152600401611072906133ff565b60405180910390fd5b60018651116110bf576040517f08c379a00000000000000000000000000000000000000000000000000000000081526004016110b69061343f565b60405180910390fd5b60008060008c81526020019081526020016000206000015414611117576040517f08c379a000000000000000000000000000000000000000000000000000000000815260040161110e9061347f565b60405180910390fd5b60048a908060018154018082558091505060019003906000526020600020016000909190919091505560008060008c815260200190815260200160002090508a8160000181905550898160010190805190602001906111779291906124e9565b50888160020190805190602001906111909291906124e9565b50878160030190805190602001906111a99291906124e9565b50868160040190805190602001906111c292919061256f565b5085816005018190555084816006018190555060008160070160006101000a81548160ff021916908315150217905550604051806020016040528060008152508160080190805190602001906112199291906124e9565b50600081600901819055508381600a01908051906020019061123c9291906124e9565b508281600b0190805190602001906112559291906124e9565b508181600c01908051906020019061126e9291906124e9565b507f42e6867e52299b45991308391cccb9ee79466d194059ff10fc15c2d88f0ea0618b8b88886040516112a49493929190613723565b60405180910390a1600160008154809291906112bf90613ad6565b91905055505050505050505050505050565b606081600080600083815260200190815260200160002060000154141561132d576040517f08c379a0000000000000000000000000000000000000000000000000000000008152600401611324906134ff565b60405180910390fd5b600080848152602001908152602001600020600401805480602002602001604051908101604052809291908181526020016000905b8282101561140e57838290600052602060002001805461138190613aa4565b80601f01602080910402602001604051908101604052809291908181526020018280546113ad90613aa4565b80156113fa5780601f106113cf576101008083540402835291602001916113fa565b820191906000526020600020905b8154815290600101906020018083116113dd57829003601f168201915b505050505081526020019060010190611362565b50505050915050919050565b816000806000838152602001908152602001600020600001541415611474576040517f08c379a000000000000000000000000000000000000000000000000000000000815260040161146b906134ff565b60405180910390fd5b6000806000858152602001908152602001600020905080600501544210156114d1576040517f08c379a00000000000000000000000000000000000000000000000000000000081526004016114c8906133df565b60405180910390fd5b8060060154421115611518576040517f08c379a000000000000000000000000000000000000000000000000000000000815260040161150f9061349f565b60405180910390fd5b6000341161155b576040517f08c379a00000000000000000000000000000000000000000000000000000000081526004016115529061345f565b60405180910390fd5b6000805b8260040180549050811015611623578460405160200161157f91906132f2565b604051602081830303815290604052805190602001208360040182815481106115d1577f4e487b7100000000000000000000000000000000000000000000000000000000600052603260045260246000fd5b906000526020600020016040516020016115eb9190613309565b6040516020818303038152906040528051906020012014156116105760019150611623565b808061161b90613ad6565b91505061155f565b5080611664576040517f08c379a000000000000000000000000000000000000000000000000000000000815260040161165b9061355f565b60405180910390fd5b600082600d0160003373ffffffffffffffffffffffffffffffffffffffff1673ffffffffffffffffffffffffffffffffffffffff16815260200190815260200160002090508060020160009054906101000a900460ff16156116fb576040517f08c379a00000000000000000000000000000000000000000000000000000000081526004016116f2906134bf565b60405180910390fd5b848160000190805190602001906117139291906124e9565b5034816001018190555060018160020160006101000a81548160ff02191690831515021790555082600e01339080600181540180825580915050600190039060005260206000200160009091909190916101000a81548173ffffffffffffffffffffffffffffffffffffffff021916908373ffffffffffffffffffffffffffffffffffffffff160217905550348360090160008282546117b39190613905565b9250508190555082600f01856040516117cc91906132f2565b908152602001604051809103902060008154809291906117eb90613ad6565b919050555034836010018660405161180391906132f2565b908152602001604051809103902060008282546118209190613905565b925050819055507f3a5b25f48e15ab3e4d810304ed7368c35de823921fa3fd504ba8ab2841bf1ad78633348860405161185c94939291906135bc565b60405180910390a1505050505050565b606060048054806020026020016040519081016040528092919081815260200182805480156118ba57602002820191906000526020600020905b8154815260200190600101908083116118a6575b5050505050905090565b6118cc6125cf565b816000806000838152602001908152602001600020600001541415611926576040517f08c379a000000000000000000000000000000000000000000000000000000000815260040161191d906134ff565b60405180910390fd5b60008060008581526020019081526020016000209050604051806101a001604052808260000154815260200182600101805461196190613aa4565b80601f016020809104026020016040519081016040528092919081815260200182805461198d90613aa4565b80156119da5780601f106119af576101008083540402835291602001916119da565b820191906000526020600020905b8154815290600101906020018083116119bd57829003601f168201915b505050505081526020018260020180546119f390613aa4565b80601f0160208091040260200160405190810160405280929190818152602001828054611a1f90613aa4565b8015611a6c5780601f10611a4157610100808354040283529160200191611a6c565b820191906000526020600020905b815481529060010190602001808311611a4f57829003601f168201915b50505050508152602001826003018054611a8590613aa4565b80601f0160208091040260200160405190810160405280929190818152602001828054611ab190613aa4565b8015611afe5780601f10611ad357610100808354040283529160200191611afe565b820191906000526020600020905b815481529060010190602001808311611ae157829003601f168201915b5050505050815260200182600401805480602002602001604051908101604052809291908181526020016000905b82821015611bd8578382906000526020600020018054611b4b90613aa4565b80601f0160208091040260200160405190810160405280929190818152602001828054611b7790613aa4565b8015611bc45780601f10611b9957610100808354040283529160200191611bc4565b820191906000526020600020905b815481529060010190602001808311611ba757829003601f168201915b505050505081526020019060010190611b2c565b50505050815260200182600501548152602001826006015481526020018260070160009054906101000a900460ff1615158152602001826008018054611c1d90613aa4565b80601f0160208091040260200160405190810160405280929190818152602001828054611c4990613aa4565b8015611c965780601f10611c6b57610100808354040283529160200191611c96565b820191906000526020600020905b815481529060010190602001808311611c7957829003601f168201915b505050505081526020018260090154815260200182600a018054611cb990613aa4565b80601f0160208091040260200160405190810160405280929190818152602001828054611ce590613aa4565b8015611d325780601f10611d0757610100808354040283529160200191611d32565b820191906000526020600020905b815481529060010190602001808311611d1557829003601f168201915b5050505050815260200182600b018054611d4b90613aa4565b80601f0160208091040260200160405190810160405280929190818152602001828054611d7790613aa4565b8015611dc45780601f10611d9957610100808354040283529160200191611dc4565b820191906000526020600020905b815481529060010190602001808311611da757829003601f168201915b5050505050815260200182600c018054611ddd90613aa4565b80601f0160208091040260200160405190810160405280929190818152602001828054611e0990613aa4565b8015611e565780601f10611e2b57610100808354040283529160200191611e56565b820191906000526020600020905b815481529060010190602001808311611e3957829003601f168201915b505050505081525092505050919050565b60035481565b6000600354905090565b60048181548110611e8757600080fd5b906000526020600020016000915090505481565b60015481565b6060816000806000838152602001908152602001600020600001541415611efd576040517f08c379a0000000000000000000000000000000000000000000000000000000008152600401611ef4906134ff565b60405180910390fd5b600080600085815260200190815260200160002090506000816009015490506000826004018054905067ffffffffffffffff811115611f65577f4e487b7100000000000000000000000000000000000000000000000000000000600052604160045260246000fd5b604051908082528060200260200182016040528015611f9e57816020015b611f8b612639565b815260200190600190039081611f835790505b50905060008214156121035760005b83600401805490508110156120f7576040518060400160405280856004018381548110612003577f4e487b7100000000000000000000000000000000000000000000000000000000600052603260045260246000fd5b90600052602060002001805461201890613aa4565b80601f016020809104026020016040519081016040528092919081815260200182805461204490613aa4565b80156120915780601f1061206657610100808354040283529160200191612091565b820191906000526020600020905b81548152906001019060200180831161207457829003601f168201915b5050505050815260200160008152508282815181106120d9577f4e487b7100000000000000000000000000000000000000000000000000000000600052603260045260246000fd5b602002602001018190525080806120ef90613ad6565b915050611fad565b5080945050505061229a565b60005b8360040180549050811015612292576000846004018281548110612153577f4e487b7100000000000000000000000000000000000000000000000000000000600052603260045260246000fd5b90600052602060002001805461216890613aa4565b80601f016020809104026020016040519081016040528092919081815260200182805461219490613aa4565b80156121e15780601f106121b6576101008083540402835291602001916121e1565b820191906000526020600020905b8154815290600101906020018083116121c457829003601f168201915b50505050509050600085601001826040516121fc91906132f2565b908152602001604051809103902054905060405180604001604052808381526020018660648461222c919061398c565b612236919061395b565b815250848481518110612272577f4e487b7100000000000000000000000000000000000000000000000000000000600052603260045260246000fd5b60200260200101819052505050808061228a90613ad6565b915050612106565b508094505050505b50919050565b60008160008060008381526020019081526020016000206000015414156122fc576040517f08c379a00000000000000000000000000000000000000000000000000000000081526004016122f3906134ff565b60405180910390fd5b60008084815260200190815260200160002060090154915050919050565b60606000806000806000878152602001908152602001600020600d0160008673ffffffffffffffffffffffffffffffffffffffff1673ffffffffffffffffffffffffffffffffffffffff16815260200190815260200160002090508060000181600101548260020160009054906101000a900460ff1682805461239c90613aa4565b80601f01602080910402602001604051908101604052809291908181526020018280546123c890613aa4565b80156124155780601f106123ea57610100808354040283529160200191612415565b820191906000526020600020905b8154815290600101906020018083116123f857829003601f168201915b50505050509250935093509350509250925092565b6000806000905060005b6004805490508110156124bb576000806004838154811061247e577f4e487b7100000000000000000000000000000000000000000000000000000000600052603260045260246000fd5b9060005260206000200154815260200190815260200160002060090154826124a69190613905565b915080806124b390613ad6565b915050612434565b508091505090565b600260009054906101000a900473ffffffffffffffffffffffffffffffffffffffff1681565b8280546124f590613aa4565b90600052602060002090601f016020900481019282612517576000855561255e565b82601f1061253057805160ff191683800117855561255e565b8280016001018555821561255e579182015b8281111561255d578251825591602001919060010190612542565b5b50905061256b9190612653565b5090565b8280548282559060005260206000209081019282156125be579160200282015b828111156125bd5782518290805190602001906125ad9291906124e9565b509160200191906001019061258f565b5b5090506125cb9190612670565b5090565b604051806101a001604052806000815260200160608152602001606081526020016060815260200160608152602001600081526020016000815260200160001515815260200160608152602001600081526020016060815260200160608152602001606081525090565b604051806040016040528060608152602001600081525090565b5b8082111561266c576000816000905550600101612654565b5090565b5b8082111561269057600081816126879190612694565b50600101612671565b5090565b5080546126a090613aa4565b6000825580601f106126b257506126d1565b601f0160209004906000526020600020908101906126d09190612653565b5b50565b60006126e76126e2846137a0565b61376f565b9050808382526020820190508260005b85811015612727578135850161270d88826127ae565b8452602084019350602083019250506001810190506126f7565b5050509392505050565b600061274461273f846137cc565b61376f565b90508281526020810184848401111561275c57600080fd5b612767848285613a62565b509392505050565b60008135905061277e81613bec565b92915050565b600082601f83011261279557600080fd5b81356127a58482602086016126d4565b91505092915050565b600082601f8301126127bf57600080fd5b81356127cf848260208601612731565b91505092915050565b6000813590506127e781613c03565b92915050565b6000602082840312156127ff57600080fd5b600061280d848285016127d8565b91505092915050565b6000806040838503121561282957600080fd5b6000612837858286016127d8565b92505060206128488582860161276f565b9150509250929050565b6000806040838503121561286557600080fd5b6000612873858286016127d8565b925050602083013567ffffffffffffffff81111561289057600080fd5b61289c858286016127ae565b9150509250929050565b6000806000806000806000806000806101408b8d0312156128c657600080fd5b60006128d48d828e016127d8565b9a505060208b013567ffffffffffffffff8111156128f157600080fd5b6128fd8d828e016127ae565b99505060408b013567ffffffffffffffff81111561291a57600080fd5b6129268d828e016127ae565b98505060608b013567ffffffffffffffff81111561294357600080fd5b61294f8d828e016127ae565b97505060808b013567ffffffffffffffff81111561296c57600080fd5b6129788d828e01612784565b96505060a06129898d828e016127d8565b95505060c061299a8d828e016127d8565b94505060e08b013567ffffffffffffffff8111156129b757600080fd5b6129c38d828e016127ae565b9350506101008b013567ffffffffffffffff8111156129e157600080fd5b6129ed8d828e016127ae565b9250506101208b013567ffffffffffffffff811115612a0b57600080fd5b612a178d828e016127ae565b9150509295989b9194979a5092959850565b6000612a358383612c53565b905092915050565b6000612a498383613297565b905092915050565b6000612a5d83836132d4565b60208301905092915050565b612a7281613a1a565b82525050565b6000612a8382613841565b612a8d8185613894565b935083602082028501612a9f856137fc565b8060005b85811015612adb5784840389528151612abc8582612a29565b9450612ac78361386d565b925060208a01995050600181019050612aa3565b50829750879550505050505092915050565b6000612af882613841565b612b0281856138a5565b935083602082028501612b14856137fc565b8060005b85811015612b505784840389528151612b318582612a29565b9450612b3c8361386d565b925060208a01995050600181019050612b18565b50829750879550505050505092915050565b6000612b6d8261384c565b612b7781856138b6565b935083602082028501612b898561380c565b8060005b85811015612bc55784840389528151612ba68582612a3d565b9450612bb18361387a565b925060208a01995050600181019050612b8d565b50829750879550505050505092915050565b6000612be282613857565b612bec81856138c7565b9350612bf78361381c565b8060005b83811015612c28578151612c0f8882612a51565b9750612c1a83613887565b925050600181019050612bfb565b5085935050505092915050565b612c3e81613a2c565b82525050565b612c4d81613a2c565b82525050565b6000612c5e82613862565b612c6881856138d8565b9350612c78818560208601613a71565b612c8181613bdb565b840191505092915050565b6000612c9782613862565b612ca181856138e9565b9350612cb1818560208601613a71565b612cba81613bdb565b840191505092915050565b6000612cd082613862565b612cda81856138fa565b9350612cea818560208601613a71565b80840191505092915050565b60008154612d0381613aa4565b612d0d81866138fa565b94506001821660008114612d285760018114612d3957612d6c565b60ff19831686528186019350612d6c565b612d428561382c565b60005b83811015612d6457815481890152600182019150602081019050612d45565b838801955050505b50505092915050565b6000612d826019836138e9565b91507f4576656e7420686173206e6f74207374617274656420796574000000000000006000830152602082019050919050565b6000612dc26022836138e9565b91507f53746172742074696d65206d757374206265206265666f726520656e6420746960008301527f6d650000000000000000000000000000000000000000000000000000000000006020830152604082019050919050565b6000612e28600e836138e9565b91507f496e76616c6964206f7074696f6e0000000000000000000000000000000000006000830152602082019050919050565b6000612e68602a836138e9565b91507f5468657265206d757374206265206174206c656173742074776f20626574746960008301527f6e67206f7074696f6e73000000000000000000000000000000000000000000006020830152604082019050919050565b6000612ece6021836138e9565b91507f42657420616d6f756e74206d7573742062652067726561746572207468616e2060008301527f30000000000000000000000000000000000000000000000000000000000000006020830152604082019050919050565b6000612f346017836138e9565b91507f4576656e7420494420616c7265616479206578697374730000000000000000006000830152602082019050919050565b6000612f74600f836138e9565b91507f4576656e742068617320656e64656400000000000000000000000000000000006000830152602082019050919050565b6000612fb4601d836138e9565b91507f596f75206861766520616c726561647920706c616365642061206265740000006000830152602082019050919050565b6000612ff46022836138e9565b91507f4f6e6c792061646d696e2063616e20706572666f726d2074686973206163746960008301527f6f6e0000000000000000000000000000000000000000000000000000000000006020830152604082019050919050565b600061305a6014836138e9565b91507f4576656e7420646f6573206e6f742065786973740000000000000000000000006000830152602082019050919050565b600061309a6017836138e9565b91507f4576656e7420616c726561647920636f6d706c657465640000000000000000006000830152602082019050919050565b60006130da6013836138e9565b91507f4576656e74206e6f7420656e64656420796574000000000000000000000000006000830152602082019050919050565b600061311a6016836138e9565b91507f496e76616c69642062657474696e67206f7074696f6e000000000000000000006000830152602082019050919050565b60006101a08301600083015161316660008601826132d4565b506020830151848203602086015261317e8282612c53565b915050604083015184820360408601526131988282612c53565b915050606083015184820360608601526131b28282612c53565b915050608083015184820360808601526131cc8282612a78565b91505060a08301516131e160a08601826132d4565b5060c08301516131f460c08601826132d4565b5060e083015161320760e0860182612c35565b506101008301518482036101008601526132218282612c53565b9150506101208301516132386101208601826132d4565b506101408301518482036101408601526132528282612c53565b91505061016083015184820361016086015261326e8282612c53565b91505061018083015184820361018086015261328a8282612c53565b9150508091505092915050565b600060408301600083015184820360008601526132b48282612c53565b91505060208301516132c960208601826132d4565b508091505092915050565b6132dd81613a58565b82525050565b6132ec81613a58565b82525050565b60006132fe8284612cc5565b915081905092915050565b60006133158284612cf6565b915081905092915050565b60006020820190506133356000830184612a69565b92915050565b600060208201905081810360008301526133558184612aed565b905092915050565b600060208201905081810360008301526133778184612b62565b905092915050565b600060208201905081810360008301526133998184612bd7565b905092915050565b600060608201905081810360008301526133bb8186612c8c565b90506133ca60208301856132e3565b6133d76040830184612c44565b949350505050565b600060208201905081810360008301526133f881612d75565b9050919050565b6000602082019050818103600083015261341881612db5565b9050919050565b6000602082019050818103600083015261343881612e1b565b9050919050565b6000602082019050818103600083015261345881612e5b565b9050919050565b6000602082019050818103600083015261347881612ec1565b9050919050565b6000602082019050818103600083015261349881612f27565b9050919050565b600060208201905081810360008301526134b881612f67565b9050919050565b600060208201905081810360008301526134d881612fa7565b9050919050565b600060208201905081810360008301526134f881612fe7565b9050919050565b600060208201905081810360008301526135188161304d565b9050919050565b600060208201905081810360008301526135388161308d565b9050919050565b60006020820190508181036000830152613558816130cd565b9050919050565b600060208201905081810360008301526135788161310d565b9050919050565b60006020820190508181036000830152613599818461314d565b905092915050565b60006020820190506135b660008301846132e3565b92915050565b60006080820190506135d160008301876132e3565b6135de6020830186612a69565b6135eb60408301856132e3565b81810360608301526135fd8184612c8c565b905095945050505050565b600060408201905061361d60008301856132e3565b818103602083015261362f8184612c8c565b90509392505050565b60006101808201905061364e600083018f6132e3565b8181036020830152613660818e612c8c565b90508181036040830152613674818d612c8c565b90508181036060830152613688818c612c8c565b9050613697608083018b6132e3565b6136a460a083018a6132e3565b6136b160c0830189612c44565b81810360e08301526136c38188612c8c565b90506136d36101008301876132e3565b8181036101208301526136e68186612c8c565b90508181036101408301526136fb8185612c8c565b90508181036101608301526137108184612c8c565b90509d9c50505050505050505050505050565b600060808201905061373860008301876132e3565b818103602083015261374a8186612c8c565b905061375960408301856132e3565b61376660608301846132e3565b95945050505050565b6000604051905081810181811067ffffffffffffffff8211171561379657613795613bac565b5b8060405250919050565b600067ffffffffffffffff8211156137bb576137ba613bac565b5b602082029050602081019050919050565b600067ffffffffffffffff8211156137e7576137e6613bac565b5b601f19601f8301169050602081019050919050565b6000819050602082019050919050565b6000819050602082019050919050565b6000819050602082019050919050565b60008190508160005260206000209050919050565b600081519050919050565b600081519050919050565b600081519050919050565b600081519050919050565b6000602082019050919050565b6000602082019050919050565b6000602082019050919050565b600082825260208201905092915050565b600082825260208201905092915050565b600082825260208201905092915050565b600082825260208201905092915050565b600082825260208201905092915050565b600082825260208201905092915050565b600081905092915050565b600061391082613a58565b915061391b83613a58565b9250827fffffffffffffffffffffffffffffffffffffffffffffffffffffffffffffffff038211156139505761394f613b1f565b5b828201905092915050565b600061396682613a58565b915061397183613a58565b92508261398157613980613b4e565b5b828204905092915050565b600061399782613a58565b91506139a283613a58565b9250817fffffffffffffffffffffffffffffffffffffffffffffffffffffffffffffffff04831182151516156139db576139da613b1f565b5b828202905092915050565b60006139f182613a58565b91506139fc83613a58565b925082821015613a0f57613a0e613b1f565b5b828203905092915050565b6000613a2582613a38565b9050919050565b60008115159050919050565b600073ffffffffffffffffffffffffffffffffffffffff82169050919050565b6000819050919050565b82818337600083830152505050565b60005b83811015613a8f578082015181840152602081019050613a74565b83811115613a9e576000848401525b50505050565b60006002820490506001821680613abc57607f821691505b60208210811415613ad057613acf613b7d565b5b50919050565b6000613ae182613a58565b91507fffffffffffffffffffffffffffffffffffffffffffffffffffffffffffffffff821415613b1457613b13613b1f565b5b600182019050919050565b7f4e487b7100000000000000000000000000000000000000000000000000000000600052601160045260246000fd5b7f4e487b7100000000000000000000000000000000000000000000000000000000600052601260045260246000fd5b7f4e487b7100000000000000000000000000000000000000000000000000000000600052602260045260246000fd5b7f4e487b7100000000000000000000000000000000000000000000000000000000600052604160045260246000fd5b6000601f19601f8301169050919050565b613bf581613a1a565b8114613c0057600080fd5b50565b613c0c81613a58565b8114613c1757600080fd5b5056fea2646970667358221220edc6f8bbb46cfe8c27c44bd05ae5b3e9eb0a06626a5425393bbe493fca21829864736f6c63430008000033",
  "immutableReferences": {},
  "source": "// SPDX-License-Identifier: MIT\r\npragma solidity ^0.8.0;\r\n\r\ncontract BettingEvents {\r\n    struct Bet {\r\n        string option;\r\n        uint256 amount;\r\n        bool exists;\r\n    }\r\n\r\n    struct OptionOdds {\r\n        string optionName;\r\n        uint256 oddsPercentage;\r\n    }\r\n\r\n    struct BetEvent {\r\n        uint256 eventId;\r\n        string name;\r\n        string description;\r\n        string imageURL;\r\n        string[] options;\r\n        uint256 startTime;\r\n        uint256 endTime;\r\n        bool isCompleted;\r\n        string winningOption;\r\n        uint256 prizePool;\r\n        string rules;\r\n        string notificationImageURL;\r\n        string notificationMessage;\r\n        mapping(address => Bet) bets;\r\n        address[] bettors;\r\n        mapping(string => uint256) optionBetCounts;\r\n        mapping(string => uint256) optionBetAmounts; // Added to track amount per option\r\n    }\r\n\r\n    // Readable version of BetEvent for return\r\n    struct BetEventView {\r\n        uint256 eventId;\r\n        string name;\r\n        string description;\r\n        string imageURL;\r\n        string[] options;\r\n        uint256 startTime;\r\n        uint256 endTime;\r\n        bool isCompleted;\r\n        string winningOption;\r\n        uint256 prizePool;\r\n        string rules;\r\n        string notificationImageURL;\r\n        string notificationMessage;\r\n    }\r\n\r\n    mapping(uint256 => BetEvent) public events;\r\n    uint256 public nextEventId;\r\n    address public admin;\r\n    uint256 public totalAdminProfit;\r\n\r\n    event EventCreated(\r\n        uint256 eventId,\r\n        string name,\r\n        uint256 startTime,\r\n        uint256 endTime\r\n    );\r\n    event BetPlaced(\r\n        uint256 eventId,\r\n        address bettor,\r\n        uint256 amount,\r\n        string option\r\n    );\r\n    event WinnerDeclared(uint256 eventId, string winningOption);\r\n\r\n    modifier onlyAdmin() {\r\n        require(msg.sender == admin, \"Only admin can perform this action\");\r\n        _;\r\n    }\r\n\r\n    modifier eventExists(uint256 _eventId) {\r\n        require(events[_eventId].eventId != 0, \"Event does not exist\");\r\n        _;\r\n    }\r\n\r\n    constructor() {\r\n        admin = msg.sender;\r\n        totalAdminProfit = 0;\r\n    }\r\n\r\n    uint256[] public eventIds;\r\n\r\n    function getUserBet(\r\n        uint256 _eventId,\r\n        address _user\r\n    ) public view returns (string memory, uint256, bool) {\r\n        Bet storage bet = events[_eventId].bets[_user];\r\n        return (bet.option, bet.amount, bet.exists);\r\n    }\r\n\r\n    function getAllEventIds() public view returns (uint256[] memory) {\r\n        return eventIds;\r\n    }\r\n\r\n    function createEvent(\r\n        uint256 _eventId,\r\n        string memory _name,\r\n        string memory _description,\r\n        string memory _imageURL,\r\n        string[] memory _options,\r\n        uint256 _startTime,\r\n        uint256 _endTime,\r\n        string memory _rules,\r\n        string memory _notificationImageURL,\r\n        string memory _notificationMessage\r\n    ) external onlyAdmin {\r\n        require(_startTime < _endTime, \"Start time must be before end time\");\r\n        require(\r\n            _options.length > 1,\r\n            \"There must be at least two betting options\"\r\n        );\r\n        require(events[_eventId].eventId == 0, \"Event ID already exists\");\r\n        eventIds.push(_eventId);\r\n\r\n        BetEvent storage newEvent = events[_eventId];\r\n        newEvent.eventId = _eventId;\r\n        newEvent.name = _name;\r\n        newEvent.description = _description;\r\n        newEvent.imageURL = _imageURL;\r\n        newEvent.options = _options;\r\n        newEvent.startTime = _startTime;\r\n        newEvent.endTime = _endTime;\r\n        newEvent.isCompleted = false;\r\n        newEvent.winningOption = \"\";\r\n        newEvent.prizePool = 0;\r\n        newEvent.rules = _rules;\r\n        newEvent.notificationImageURL = _notificationImageURL;\r\n        newEvent.notificationMessage = _notificationMessage;\r\n\r\n        emit EventCreated(_eventId, _name, _startTime, _endTime);\r\n        nextEventId++;\r\n    }\r\n\r\n    function placeBet(\r\n        uint256 _eventId,\r\n        string memory _option\r\n    ) external payable eventExists(_eventId) {\r\n        BetEvent storage betEvent = events[_eventId];\r\n        require(\r\n            block.timestamp >= betEvent.startTime,\r\n            \"Event has not started yet\"\r\n        );\r\n        require(block.timestamp <= betEvent.endTime, \"Event has ended\");\r\n        require(msg.value > 0, \"Bet amount must be greater than 0\");\r\n\r\n        bool validOption = false;\r\n        for (uint256 i = 0; i < betEvent.options.length; i++) {\r\n            if (\r\n                keccak256(abi.encodePacked(betEvent.options[i])) ==\r\n                keccak256(abi.encodePacked(_option))\r\n            ) {\r\n                validOption = true;\r\n                break;\r\n            }\r\n        }\r\n        require(validOption, \"Invalid betting option\");\r\n\r\n        Bet storage userBet = betEvent.bets[msg.sender];\r\n        require(!userBet.exists, \"You have already placed a bet\");\r\n\r\n        userBet.option = _option;\r\n        userBet.amount = msg.value;\r\n        userBet.exists = true;\r\n        betEvent.bettors.push(msg.sender);\r\n        betEvent.prizePool += msg.value;\r\n        betEvent.optionBetCounts[_option]++;\r\n        betEvent.optionBetAmounts[_option] += msg.value; // Added to track amount per option\r\n\r\n        emit BetPlaced(_eventId, msg.sender, msg.value, _option);\r\n    }\r\n\r\n    function declareWinner(\r\n        uint256 _eventId,\r\n        string memory _winningOption\r\n    ) external onlyAdmin eventExists(_eventId) {\r\n        BetEvent storage betEvent = events[_eventId];\r\n        require(!betEvent.isCompleted, \"Event already completed\");\r\n        require(block.timestamp >= betEvent.endTime, \"Event not ended yet\");\r\n\r\n        bool validOption = false;\r\n        for (uint256 i = 0; i < betEvent.options.length; i++) {\r\n            if (\r\n                keccak256(abi.encodePacked(betEvent.options[i])) ==\r\n                keccak256(abi.encodePacked(_winningOption))\r\n            ) {\r\n                validOption = true;\r\n                break;\r\n            }\r\n        }\r\n        require(validOption, \"Invalid option\");\r\n\r\n        betEvent.winningOption = _winningOption;\r\n        betEvent.isCompleted = true;\r\n\r\n        uint256 totalWinnersBetAmount = 0;\r\n        address payable[] memory winnersPayable = new address payable[](\r\n            betEvent.bettors.length\r\n        );\r\n        uint256 winnersCount = 0;\r\n\r\n        for (uint256 i = 0; i < betEvent.bettors.length; i++) {\r\n            address bettor = betEvent.bettors[i];\r\n            if (\r\n                keccak256(abi.encodePacked(betEvent.bets[bettor].option)) ==\r\n                keccak256(abi.encodePacked(_winningOption))\r\n            ) {\r\n                totalWinnersBetAmount += betEvent.bets[bettor].amount;\r\n                winnersPayable[winnersCount] = payable(bettor);\r\n                winnersCount++;\r\n            }\r\n        }\r\n\r\n        uint256 adminFee = (betEvent.prizePool * 5) / 100;\r\n        uint256 remainingPrizePool = betEvent.prizePool - adminFee;\r\n        totalAdminProfit += adminFee;\r\n        payable(admin).transfer(adminFee);\r\n\r\n        if (totalWinnersBetAmount > 0) {\r\n            for (uint256 i = 0; i < winnersCount; i++) {\r\n                address payable winner = winnersPayable[i];\r\n                uint256 winnerReward = (betEvent.bets[winner].amount *\r\n                    remainingPrizePool) / totalWinnersBetAmount;\r\n                winner.transfer(winnerReward);\r\n            }\r\n        }\r\n\r\n        emit WinnerDeclared(_eventId, _winningOption);\r\n    }\r\n\r\n    function getEvent(\r\n        uint256 _eventId\r\n    ) external view eventExists(_eventId) returns (BetEventView memory) {\r\n        BetEvent storage betEvent = events[_eventId];\r\n        return\r\n            BetEventView(\r\n                betEvent.eventId,\r\n                betEvent.name,\r\n                betEvent.description,\r\n                betEvent.imageURL,\r\n                betEvent.options,\r\n                betEvent.startTime,\r\n                betEvent.endTime,\r\n                betEvent.isCompleted,\r\n                betEvent.winningOption,\r\n                betEvent.prizePool,\r\n                betEvent.rules,\r\n                betEvent.notificationImageURL,\r\n                betEvent.notificationMessage\r\n            );\r\n    }\r\n\r\n    function getEventOptions(\r\n        uint256 _eventId\r\n    ) external view eventExists(_eventId) returns (string[] memory) {\r\n        return events[_eventId].options;\r\n    }\r\n\r\n    function getEventPrizePool(\r\n        uint256 _eventId\r\n    ) external view eventExists(_eventId) returns (uint256) {\r\n        return events[_eventId].prizePool;\r\n    }\r\n\r\n    function getEventOdds(\r\n        uint256 _eventId\r\n    ) external view eventExists(_eventId) returns (OptionOdds[] memory) {\r\n        BetEvent storage betEvent = events[_eventId];\r\n        uint256 totalPrizePool = betEvent.prizePool;\r\n        OptionOdds[] memory optionOddsArray = new OptionOdds[](\r\n            betEvent.options.length\r\n        );\r\n\r\n        if (totalPrizePool == 0) {\r\n            for (uint256 i = 0; i < betEvent.options.length; i++) {\r\n                optionOddsArray[i] = OptionOdds({\r\n                    optionName: betEvent.options[i],\r\n                    oddsPercentage: 0\r\n                });\r\n            }\r\n            return optionOddsArray;\r\n        }\r\n\r\n        for (uint256 i = 0; i < betEvent.options.length; i++) {\r\n            string memory option = betEvent.options[i];\r\n            uint256 amountOnOption = betEvent.optionBetAmounts[option];\r\n            optionOddsArray[i] = OptionOdds({\r\n                optionName: option,\r\n                oddsPercentage: (amountOnOption * 100) / totalPrizePool\r\n            });\r\n        }\r\n\r\n        return optionOddsArray;\r\n    }\r\n\r\n    function getTotalAdminProfit() external view returns (uint256) {\r\n        return totalAdminProfit;\r\n    }\r\n\r\n    function getTotalBetsPlaced() public view returns (uint256) {\r\n        uint256 total = 0;\r\n        for (uint256 i = 0; i < eventIds.length; i++) {\r\n            total += events[eventIds[i]].prizePool;\r\n        }\r\n        return total;\r\n    }\r\n}\r\n",
  "sourcePath": "F:\\Software Project\\Project Files 2\\StakeWise-Blockchain\\contracts\\BettingEvents.sol",
  "compiler": {
    "name": "solc",
    "version": "0.8.0+commit.c7dfd78e.Emscripten.clang"
  },
  "schemaVersion": "3.4.16",
  "updatedAt": "2025-07-21T13:20:49.896Z",
  "networkType": "ethereum",
  "devdoc": {
    "kind": "dev",
    "methods": {},
    "version": 1
  },
  "userdoc": {
    "kind": "user",
    "methods": {},
    "version": 1
  }
}