{
  "contractName": "BettingEvents",
  "abi": [
    {
      "inputs": [],
      "stateMutability": "nonpayable",
      "type": "constructor"
    },
    {
      "anonymous": false,
      "inputs": [
        {
          "indexed": false,
          "internalType": "uint256",
          "name": "eventId",
          "type": "uint256"
        },
        {
          "indexed": false,
          "internalType": "address",
          "name": "bettor",
          "type": "address"
        },
        {
          "indexed": false,
          "internalType": "uint256",
          "name": "amount",
          "type": "uint256"
        },
        {
          "indexed": false,
          "internalType": "string",
          "name": "option",
          "type": "string"
        }
      ],
      "name": "BetPlaced",
      "type": "event"
    },
    {
      "anonymous": false,
      "inputs": [
        {
          "indexed": false,
          "internalType": "uint256",
          "name": "eventId",
          "type": "uint256"
        },
        {
          "indexed": false,
          "internalType": "string",
          "name": "name",
          "type": "string"
        },
        {
          "indexed": false,
          "internalType": "uint256",
          "name": "startTime",
          "type": "uint256"
        },
        {
          "indexed": false,
          "internalType": "uint256",
          "name": "endTime",
          "type": "uint256"
        }
      ],
      "name": "EventCreated",
      "type": "event"
    },
    {
      "anonymous": false,
      "inputs": [
        {
          "indexed": false,
          "internalType": "uint256",
          "name": "eventId",
          "type": "uint256"
        },
        {
          "indexed": false,
          "internalType": "string",
          "name": "winningOption",
          "type": "string"
        }
      ],
      "name": "WinnerDeclared",
      "type": "event"
    },
    {
      "inputs": [],
      "name": "admin",
      "outputs": [
        {
          "internalType": "address",
          "name": "",
          "type": "address"
        }
      ],
      "stateMutability": "view",
      "type": "function",
      "constant": true
    },
    {
      "inputs": [
        {
          "internalType": "uint256",
          "name": "",
          "type": "uint256"
        }
      ],
      "name": "events",
      "outputs": [
        {
          "internalType": "uint256",
          "name": "eventId",
          "type": "uint256"
        },
        {
          "internalType": "string",
          "name": "name",
          "type": "string"
        },
        {
          "internalType": "string",
          "name": "description",
          "type": "string"
        },
        {
          "internalType": "string",
          "name": "imageURL",
          "type": "string"
        },
        {
          "internalType": "uint256",
          "name": "startTime",
          "type": "uint256"
        },
        {
          "internalType": "uint256",
          "name": "endTime",
          "type": "uint256"
        },
        {
          "internalType": "bool",
          "name": "isCompleted",
          "type": "bool"
        },
        {
          "internalType": "string",
          "name": "winningOption",
          "type": "string"
        },
        {
          "internalType": "uint256",
          "name": "prizePool",
          "type": "uint256"
        },
        {
          "internalType": "string",
          "name": "rules",
          "type": "string"
        },
        {
          "internalType": "string",
          "name": "notificationImageURL",
          "type": "string"
        },
        {
          "internalType": "string",
          "name": "notificationMessage",
          "type": "string"
        }
      ],
      "stateMutability": "view",
      "type": "function",
      "constant": true
    },
    {
      "inputs": [],
      "name": "nextEventId",
      "outputs": [
        {
          "internalType": "uint256",
          "name": "",
          "type": "uint256"
        }
      ],
      "stateMutability": "view",
      "type": "function",
      "constant": true
    },
    {
      "inputs": [],
      "name": "totalAdminProfit",
      "outputs": [
        {
          "internalType": "uint256",
          "name": "",
          "type": "uint256"
        }
      ],
      "stateMutability": "view",
      "type": "function",
      "constant": true
    },
    {
      "inputs": [
        {
          "internalType": "uint256",
          "name": "_eventId",
          "type": "uint256"
        },
        {
          "internalType": "string",
          "name": "_name",
          "type": "string"
        },
        {
          "internalType": "string",
          "name": "_description",
          "type": "string"
        },
        {
          "internalType": "string",
          "name": "_imageURL",
          "type": "string"
        },
        {
          "internalType": "string[]",
          "name": "_options",
          "type": "string[]"
        },
        {
          "internalType": "uint256",
          "name": "_startTime",
          "type": "uint256"
        },
        {
          "internalType": "uint256",
          "name": "_endTime",
          "type": "uint256"
        },
        {
          "internalType": "string",
          "name": "_rules",
          "type": "string"
        },
        {
          "internalType": "string",
          "name": "_notificationImageURL",
          "type": "string"
        },
        {
          "internalType": "string",
          "name": "_notificationMessage",
          "type": "string"
        }
      ],
      "name": "createEvent",
      "outputs": [],
      "stateMutability": "nonpayable",
      "type": "function"
    },
    {
      "inputs": [
        {
          "internalType": "uint256",
          "name": "_eventId",
          "type": "uint256"
        },
        {
          "internalType": "string",
          "name": "_option",
          "type": "string"
        }
      ],
      "name": "placeBet",
      "outputs": [],
      "stateMutability": "payable",
      "type": "function",
      "payable": true
    },
    {
      "inputs": [
        {
          "internalType": "uint256",
          "name": "_eventId",
          "type": "uint256"
        },
        {
          "internalType": "string",
          "name": "_winningOption",
          "type": "string"
        }
      ],
      "name": "declareWinner",
      "outputs": [],
      "stateMutability": "nonpayable",
      "type": "function"
    },
    {
      "inputs": [
        {
          "internalType": "uint256",
          "name": "_eventId",
          "type": "uint256"
        }
      ],
      "name": "getEvent",
      "outputs": [
        {
          "components": [
            {
              "internalType": "uint256",
              "name": "eventId",
              "type": "uint256"
            },
            {
              "internalType": "string",
              "name": "name",
              "type": "string"
            },
            {
              "internalType": "string",
              "name": "description",
              "type": "string"
            },
            {
              "internalType": "string",
              "name": "imageURL",
              "type": "string"
            },
            {
              "internalType": "string[]",
              "name": "options",
              "type": "string[]"
            },
            {
              "internalType": "uint256",
              "name": "startTime",
              "type": "uint256"
            },
            {
              "internalType": "uint256",
              "name": "endTime",
              "type": "uint256"
            },
            {
              "internalType": "bool",
              "name": "isCompleted",
              "type": "bool"
            },
            {
              "internalType": "string",
              "name": "winningOption",
              "type": "string"
            },
            {
              "internalType": "uint256",
              "name": "prizePool",
              "type": "uint256"
            },
            {
              "internalType": "string",
              "name": "rules",
              "type": "string"
            },
            {
              "internalType": "string",
              "name": "notificationImageURL",
              "type": "string"
            },
            {
              "internalType": "string",
              "name": "notificationMessage",
              "type": "string"
            }
          ],
          "internalType": "struct BettingEvents.BetEventView",
          "name": "",
          "type": "tuple"
        }
      ],
      "stateMutability": "view",
      "type": "function",
      "constant": true
    },
    {
      "inputs": [
        {
          "internalType": "uint256",
          "name": "_eventId",
          "type": "uint256"
        }
      ],
      "name": "getEventOptions",
      "outputs": [
        {
          "internalType": "string[]",
          "name": "",
          "type": "string[]"
        }
      ],
      "stateMutability": "view",
      "type": "function",
      "constant": true
    },
    {
      "inputs": [
        {
          "internalType": "uint256",
          "name": "_eventId",
          "type": "uint256"
        }
      ],
      "name": "getEventPrizePool",
      "outputs": [
        {
          "internalType": "uint256",
          "name": "",
          "type": "uint256"
        }
      ],
      "stateMutability": "view",
      "type": "function",
      "constant": true
    },
    {
      "inputs": [
        {
          "internalType": "uint256",
          "name": "_eventId",
          "type": "uint256"
        }
      ],
      "name": "getEventOdds",
      "outputs": [
        {
          "components": [
            {
              "internalType": "string",
              "name": "optionName",
              "type": "string"
            },
            {
              "internalType": "uint256",
              "name": "oddsPercentage",
              "type": "uint256"
            }
          ],
          "internalType": "struct BettingEvents.OptionOdds[]",
          "name": "",
          "type": "tuple[]"
        }
      ],
      "stateMutability": "view",
      "type": "function",
      "constant": true
    },
    {
      "inputs": [],
      "name": "getTotalAdminProfit",
      "outputs": [
        {
          "internalType": "uint256",
          "name": "",
          "type": "uint256"
        }
      ],
      "stateMutability": "view",
      "type": "function",
      "constant": true
    }
  ],
  "bytecode": "0x608060405234801561001057600080fd5b5033600260006101000a81548173ffffffffffffffffffffffffffffffffffffffff021916908373ffffffffffffffffffffffffffffffffffffffff1602179055506000600381905550613739806100696000396000f3fe6080604052600436106100a75760003560e01c80638ff8550c116100645780638ff8550c146101dc57806395db9b0b146102075780639f9d903a14610232578063acc566a51461025d578063bb6179961461029a578063f851a440146102d7576100a7565b80630b791430146100ac5780633801f697146100f45780633c6f876c1461011d5780635be9cc9c146101465780635e8af735146101835780636d1884e01461019f575b600080fd5b3480156100b857600080fd5b506100d360048036038101906100ce9190612438565b610302565b6040516100eb9c9b9a99989796959493929190613171565b60405180910390f35b34801561010057600080fd5b5061011b60048036038101906101169190612461565b610727565b005b34801561012957600080fd5b50610144600480360381019061013f91906124b5565b610e8b565b005b34801561015257600080fd5b5061016d60048036038101906101689190612438565b61118a565b60405161017a9190612ed4565b60405180910390f35b61019d60048036038101906101989190612461565b6112d3565b005b3480156101ab57600080fd5b506101c660048036038101906101c19190612438565b6116ee565b6040516101d391906130b8565b60405180910390f35b3480156101e857600080fd5b506101f1611c91565b6040516101fe91906130da565b60405180910390f35b34801561021357600080fd5b5061021c611c97565b60405161022991906130da565b60405180910390f35b34801561023e57600080fd5b50610247611ca1565b60405161025491906130da565b60405180910390f35b34801561026957600080fd5b50610284600480360381019061027f9190612438565b611ca7565b6040516102919190612ef6565b60405180910390f35b3480156102a657600080fd5b506102c160048036038101906102bc9190612438565b6120a9565b6040516102ce91906130da565b60405180910390f35b3480156102e357600080fd5b506102ec612123565b6040516102f99190612eb9565b60405180910390f35b600060205280600052604060002060009150905080600001549080600101805461032b906135a4565b80601f0160208091040260200160405190810160405280929190818152602001828054610357906135a4565b80156103a45780601f10610379576101008083540402835291602001916103a4565b820191906000526020600020905b81548152906001019060200180831161038757829003601f168201915b5050505050908060020180546103b9906135a4565b80601f01602080910402602001604051908101604052809291908181526020018280546103e5906135a4565b80156104325780601f1061040757610100808354040283529160200191610432565b820191906000526020600020905b81548152906001019060200180831161041557829003601f168201915b505050505090806003018054610447906135a4565b80601f0160208091040260200160405190810160405280929190818152602001828054610473906135a4565b80156104c05780601f10610495576101008083540402835291602001916104c0565b820191906000526020600020905b8154815290600101906020018083116104a357829003601f168201915b5050505050908060050154908060060154908060070160009054906101000a900460ff16908060080180546104f4906135a4565b80601f0160208091040260200160405190810160405280929190818152602001828054610520906135a4565b801561056d5780601f106105425761010080835404028352916020019161056d565b820191906000526020600020905b81548152906001019060200180831161055057829003601f168201915b50505050509080600901549080600a018054610588906135a4565b80601f01602080910402602001604051908101604052809291908181526020018280546105b4906135a4565b80156106015780601f106105d657610100808354040283529160200191610601565b820191906000526020600020905b8154815290600101906020018083116105e457829003601f168201915b50505050509080600b018054610616906135a4565b80601f0160208091040260200160405190810160405280929190818152602001828054610642906135a4565b801561068f5780601f106106645761010080835404028352916020019161068f565b820191906000526020600020905b81548152906001019060200180831161067257829003601f168201915b50505050509080600c0180546106a4906135a4565b80601f01602080910402602001604051908101604052809291908181526020018280546106d0906135a4565b801561071d5780601f106106f25761010080835404028352916020019161071d565b820191906000526020600020905b81548152906001019060200180831161070057829003601f168201915b505050505090508c565b600260009054906101000a900473ffffffffffffffffffffffffffffffffffffffff1673ffffffffffffffffffffffffffffffffffffffff163373ffffffffffffffffffffffffffffffffffffffff16146107b7576040517f08c379a00000000000000000000000000000000000000000000000000000000081526004016107ae90613018565b60405180910390fd5b816000806000838152602001908152602001600020600001541415610811576040517f08c379a000000000000000000000000000000000000000000000000000000000815260040161080890613038565b60405180910390fd5b600080600085815260200190815260200160002090508060070160009054906101000a900460ff1615610879576040517f08c379a000000000000000000000000000000000000000000000000000000000815260040161087090613058565b60405180910390fd5b80600601544210156108c0576040517f08c379a00000000000000000000000000000000000000000000000000000000081526004016108b790613078565b60405180910390fd5b6000805b826004018054905081101561098857846040516020016108e49190612e8b565b60405160208183030381529060405280519060200120836004018281548110610936577f4e487b7100000000000000000000000000000000000000000000000000000000600052603260045260246000fd5b906000526020600020016040516020016109509190612ea2565b6040516020818303038152906040528051906020012014156109755760019150610988565b8080610980906135d6565b9150506108c4565b50806109c9576040517f08c379a00000000000000000000000000000000000000000000000000000000081526004016109c090612f58565b60405180910390fd5b838260080190805190602001906109e1929190612149565b5060018260070160006101000a81548160ff02191690831515021790555060008083600e018054905067ffffffffffffffff811115610a49577f4e487b7100000000000000000000000000000000000000000000000000000000600052604160045260246000fd5b604051908082528060200260200182016040528015610a775781602001602082028036833780820191505090505b5090506000805b85600e0180549050811015610c7857600086600e018281548110610acb577f4e487b7100000000000000000000000000000000000000000000000000000000600052603260045260246000fd5b9060005260206000200160009054906101000a900473ffffffffffffffffffffffffffffffffffffffff16905088604051602001610b099190612e8b565b6040516020818303038152906040528051906020012087600d0160008373ffffffffffffffffffffffffffffffffffffffff1673ffffffffffffffffffffffffffffffffffffffff168152602001908152602001600020600001604051602001610b739190612ea2565b604051602081830303815290604052805190602001201415610c645786600d0160008273ffffffffffffffffffffffffffffffffffffffff1673ffffffffffffffffffffffffffffffffffffffff1681526020019081526020016000206001015485610bdf9190613405565b945080848481518110610c1b577f4e487b7100000000000000000000000000000000000000000000000000000000600052603260045260246000fd5b602002602001019073ffffffffffffffffffffffffffffffffffffffff16908173ffffffffffffffffffffffffffffffffffffffff16815250508280610c60906135d6565b9350505b508080610c70906135d6565b915050610a7e565b506000606460058760090154610c8e919061348c565b610c98919061345b565b90506000818760090154610cac91906134e6565b90508160036000828254610cc09190613405565b92505081905550600260009054906101000a900473ffffffffffffffffffffffffffffffffffffffff1673ffffffffffffffffffffffffffffffffffffffff166108fc839081150290604051600060405180830381858888f19350505050158015610d2f573d6000803e3d6000fd5b506000851115610e465760005b83811015610e44576000858281518110610d7f577f4e487b7100000000000000000000000000000000000000000000000000000000600052603260045260246000fd5b60200260200101519050600087848b600d0160008573ffffffffffffffffffffffffffffffffffffffff1673ffffffffffffffffffffffffffffffffffffffff16815260200190815260200160002060010154610ddc919061348c565b610de6919061345b565b90508173ffffffffffffffffffffffffffffffffffffffff166108fc829081150290604051600060405180830381858888f19350505050158015610e2e573d6000803e3d6000fd5b5050508080610e3c906135d6565b915050610d3c565b505b7f174d40141d388f930fca11a3c885eba334def4ea654c9b34dbe4c549f3af5a3d8a8a604051610e77929190613141565b60405180910390a150505050505050505050565b600260009054906101000a900473ffffffffffffffffffffffffffffffffffffffff1673ffffffffffffffffffffffffffffffffffffffff163373ffffffffffffffffffffffffffffffffffffffff1614610f1b576040517f08c379a0000000000000000000000000000000000000000000000000000000008152600401610f1290613018565b60405180910390fd5b838510610f5d576040517f08c379a0000000000000000000000000000000000000000000000000000000008152600401610f5490612f38565b60405180910390fd5b6001865111610fa1576040517f08c379a0000000000000000000000000000000000000000000000000000000008152600401610f9890612f78565b60405180910390fd5b60008060008c81526020019081526020016000206000015414610ff9576040517f08c379a0000000000000000000000000000000000000000000000000000000008152600401610ff090612fb8565b60405180910390fd5b60008060008c815260200190815260200160002090508a816000018190555089816001019080519060200190611030929190612149565b5088816002019080519060200190611049929190612149565b5087816003019080519060200190611062929190612149565b508681600401908051906020019061107b9291906121cf565b5085816005018190555084816006018190555060008160070160006101000a81548160ff021916908315150217905550604051806020016040528060008152508160080190805190602001906110d2929190612149565b50600081600901819055508381600a0190805190602001906110f5929190612149565b508281600b01908051906020019061110e929190612149565b508181600c019080519060200190611127929190612149565b507f42e6867e52299b45991308391cccb9ee79466d194059ff10fc15c2d88f0ea0618b8b888860405161115d949392919061325c565b60405180910390a160016000815480929190611178906135d6565b91905055505050505050505050505050565b60608160008060008381526020019081526020016000206000015414156111e6576040517f08c379a00000000000000000000000000000000000000000000000000000000081526004016111dd90613038565b60405180910390fd5b600080848152602001908152602001600020600401805480602002602001604051908101604052809291908181526020016000905b828210156112c757838290600052602060002001805461123a906135a4565b80601f0160208091040260200160405190810160405280929190818152602001828054611266906135a4565b80156112b35780601f10611288576101008083540402835291602001916112b3565b820191906000526020600020905b81548152906001019060200180831161129657829003601f168201915b50505050508152602001906001019061121b565b50505050915050919050565b81600080600083815260200190815260200160002060000154141561132d576040517f08c379a000000000000000000000000000000000000000000000000000000000815260040161132490613038565b60405180910390fd5b60008060008581526020019081526020016000209050806005015442101561138a576040517f08c379a000000000000000000000000000000000000000000000000000000000815260040161138190612f18565b60405180910390fd5b80600601544211156113d1576040517f08c379a00000000000000000000000000000000000000000000000000000000081526004016113c890612fd8565b60405180910390fd5b60003411611414576040517f08c379a000000000000000000000000000000000000000000000000000000000815260040161140b90612f98565b60405180910390fd5b6000805b82600401805490508110156114dc57846040516020016114389190612e8b565b6040516020818303038152906040528051906020012083600401828154811061148a577f4e487b7100000000000000000000000000000000000000000000000000000000600052603260045260246000fd5b906000526020600020016040516020016114a49190612ea2565b6040516020818303038152906040528051906020012014156114c957600191506114dc565b80806114d4906135d6565b915050611418565b508061151d576040517f08c379a000000000000000000000000000000000000000000000000000000000815260040161151490613098565b60405180910390fd5b600082600d0160003373ffffffffffffffffffffffffffffffffffffffff1673ffffffffffffffffffffffffffffffffffffffff16815260200190815260200160002090508060020160009054906101000a900460ff16156115b4576040517f08c379a00000000000000000000000000000000000000000000000000000000081526004016115ab90612ff8565b60405180910390fd5b848160000190805190602001906115cc929190612149565b5034816001018190555060018160020160006101000a81548160ff02191690831515021790555082600e01339080600181540180825580915050600190039060005260206000200160009091909190916101000a81548173ffffffffffffffffffffffffffffffffffffffff021916908373ffffffffffffffffffffffffffffffffffffffff1602179055503483600901600082825461166c9190613405565b9250508190555082600f01856040516116859190612e8b565b908152602001604051809103902060008154809291906116a4906135d6565b91905055507f3a5b25f48e15ab3e4d810304ed7368c35de823921fa3fd504ba8ab2841bf1ad7863334886040516116de94939291906130f5565b60405180910390a1505050505050565b6116f661222f565b816000806000838152602001908152602001600020600001541415611750576040517f08c379a000000000000000000000000000000000000000000000000000000000815260040161174790613038565b60405180910390fd5b60008060008581526020019081526020016000209050604051806101a001604052808260000154815260200182600101805461178b906135a4565b80601f01602080910402602001604051908101604052809291908181526020018280546117b7906135a4565b80156118045780601f106117d957610100808354040283529160200191611804565b820191906000526020600020905b8154815290600101906020018083116117e757829003601f168201915b5050505050815260200182600201805461181d906135a4565b80601f0160208091040260200160405190810160405280929190818152602001828054611849906135a4565b80156118965780601f1061186b57610100808354040283529160200191611896565b820191906000526020600020905b81548152906001019060200180831161187957829003601f168201915b505050505081526020018260030180546118af906135a4565b80601f01602080910402602001604051908101604052809291908181526020018280546118db906135a4565b80156119285780601f106118fd57610100808354040283529160200191611928565b820191906000526020600020905b81548152906001019060200180831161190b57829003601f168201915b5050505050815260200182600401805480602002602001604051908101604052809291908181526020016000905b82821015611a02578382906000526020600020018054611975906135a4565b80601f01602080910402602001604051908101604052809291908181526020018280546119a1906135a4565b80156119ee5780601f106119c3576101008083540402835291602001916119ee565b820191906000526020600020905b8154815290600101906020018083116119d157829003601f168201915b505050505081526020019060010190611956565b50505050815260200182600501548152602001826006015481526020018260070160009054906101000a900460ff1615158152602001826008018054611a47906135a4565b80601f0160208091040260200160405190810160405280929190818152602001828054611a73906135a4565b8015611ac05780601f10611a9557610100808354040283529160200191611ac0565b820191906000526020600020905b815481529060010190602001808311611aa357829003601f168201915b505050505081526020018260090154815260200182600a018054611ae3906135a4565b80601f0160208091040260200160405190810160405280929190818152602001828054611b0f906135a4565b8015611b5c5780601f10611b3157610100808354040283529160200191611b5c565b820191906000526020600020905b815481529060010190602001808311611b3f57829003601f168201915b5050505050815260200182600b018054611b75906135a4565b80601f0160208091040260200160405190810160405280929190818152602001828054611ba1906135a4565b8015611bee5780601f10611bc357610100808354040283529160200191611bee565b820191906000526020600020905b815481529060010190602001808311611bd157829003601f168201915b5050505050815260200182600c018054611c07906135a4565b80601f0160208091040260200160405190810160405280929190818152602001828054611c33906135a4565b8015611c805780601f10611c5557610100808354040283529160200191611c80565b820191906000526020600020905b815481529060010190602001808311611c6357829003601f168201915b505050505081525092505050919050565b60035481565b6000600354905090565b60015481565b6060816000806000838152602001908152602001600020600001541415611d03576040517f08c379a0000000000000000000000000000000000000000000000000000000008152600401611cfa90613038565b60405180910390fd5b60008060008581526020019081526020016000209050600081600e018054905090506000826004018054905067ffffffffffffffff811115611d6e577f4e487b7100000000000000000000000000000000000000000000000000000000600052604160045260246000fd5b604051908082528060200260200182016040528015611da757816020015b611d94612299565b815260200190600190039081611d8c5790505b5090506000821415611f0c5760005b8360040180549050811015611f00576040518060400160405280856004018381548110611e0c577f4e487b7100000000000000000000000000000000000000000000000000000000600052603260045260246000fd5b906000526020600020018054611e21906135a4565b80601f0160208091040260200160405190810160405280929190818152602001828054611e4d906135a4565b8015611e9a5780601f10611e6f57610100808354040283529160200191611e9a565b820191906000526020600020905b815481529060010190602001808311611e7d57829003601f168201915b505050505081526020016000815250828281518110611ee2577f4e487b7100000000000000000000000000000000000000000000000000000000600052603260045260246000fd5b60200260200101819052508080611ef8906135d6565b915050611db6565b508094505050506120a3565b60005b836004018054905081101561209b576000846004018281548110611f5c577f4e487b7100000000000000000000000000000000000000000000000000000000600052603260045260246000fd5b906000526020600020018054611f71906135a4565b80601f0160208091040260200160405190810160405280929190818152602001828054611f9d906135a4565b8015611fea5780601f10611fbf57610100808354040283529160200191611fea565b820191906000526020600020905b815481529060010190602001808311611fcd57829003601f168201915b50505050509050600085600f01826040516120059190612e8b565b9081526020016040518091039020549050604051806040016040528083815260200186606484612035919061348c565b61203f919061345b565b81525084848151811061207b577f4e487b7100000000000000000000000000000000000000000000000000000000600052603260045260246000fd5b602002602001018190525050508080612093906135d6565b915050611f0f565b508094505050505b50919050565b6000816000806000838152602001908152602001600020600001541415612105576040517f08c379a00000000000000000000000000000000000000000000000000000000081526004016120fc90613038565b60405180910390fd5b60008084815260200190815260200160002060090154915050919050565b600260009054906101000a900473ffffffffffffffffffffffffffffffffffffffff1681565b828054612155906135a4565b90600052602060002090601f01602090048101928261217757600085556121be565b82601f1061219057805160ff19168380011785556121be565b828001600101855582156121be579182015b828111156121bd5782518255916020019190600101906121a2565b5b5090506121cb91906122b3565b5090565b82805482825590600052602060002090810192821561221e579160200282015b8281111561221d57825182908051906020019061220d929190612149565b50916020019190600101906121ef565b5b50905061222b91906122d0565b5090565b604051806101a001604052806000815260200160608152602001606081526020016060815260200160608152602001600081526020016000815260200160001515815260200160608152602001600081526020016060815260200160608152602001606081525090565b604051806040016040528060608152602001600081525090565b5b808211156122cc5760008160009055506001016122b4565b5090565b5b808211156122f057600081816122e791906122f4565b506001016122d1565b5090565b508054612300906135a4565b6000825580601f106123125750612331565b601f01602090049060005260206000209081019061233091906122b3565b5b50565b6000612347612342846132d9565b6132a8565b9050808382526020820190508260005b85811015612387578135850161236d88826123f9565b845260208401935060208301925050600181019050612357565b5050509392505050565b60006123a461239f84613305565b6132a8565b9050828152602081018484840111156123bc57600080fd5b6123c7848285613562565b509392505050565b600082601f8301126123e057600080fd5b81356123f0848260208601612334565b91505092915050565b600082601f83011261240a57600080fd5b813561241a848260208601612391565b91505092915050565b600081359050612432816136ec565b92915050565b60006020828403121561244a57600080fd5b600061245884828501612423565b91505092915050565b6000806040838503121561247457600080fd5b600061248285828601612423565b925050602083013567ffffffffffffffff81111561249f57600080fd5b6124ab858286016123f9565b9150509250929050565b6000806000806000806000806000806101408b8d0312156124d557600080fd5b60006124e38d828e01612423565b9a505060208b013567ffffffffffffffff81111561250057600080fd5b61250c8d828e016123f9565b99505060408b013567ffffffffffffffff81111561252957600080fd5b6125358d828e016123f9565b98505060608b013567ffffffffffffffff81111561255257600080fd5b61255e8d828e016123f9565b97505060808b013567ffffffffffffffff81111561257b57600080fd5b6125878d828e016123cf565b96505060a06125988d828e01612423565b95505060c06125a98d828e01612423565b94505060e08b013567ffffffffffffffff8111156125c657600080fd5b6125d28d828e016123f9565b9350506101008b013567ffffffffffffffff8111156125f057600080fd5b6125fc8d828e016123f9565b9250506101208b013567ffffffffffffffff81111561261a57600080fd5b6126268d828e016123f9565b9150509295989b9194979a5092959850565b600061264483836127ec565b905092915050565b60006126588383612e30565b905092915050565b6126698161351a565b82525050565b600061267a8261336a565b61268481856133a5565b93508360208202850161269685613335565b8060005b858110156126d257848403895281516126b38582612638565b94506126be8361338b565b925060208a0199505060018101905061269a565b50829750879550505050505092915050565b60006126ef8261336a565b6126f981856133b6565b93508360208202850161270b85613335565b8060005b8581101561274757848403895281516127288582612638565b94506127338361338b565b925060208a0199505060018101905061270f565b50829750879550505050505092915050565b600061276482613375565b61276e81856133c7565b93508360208202850161278085613345565b8060005b858110156127bc578484038952815161279d858261264c565b94506127a883613398565b925060208a01995050600181019050612784565b50829750879550505050505092915050565b6127d78161352c565b82525050565b6127e68161352c565b82525050565b60006127f782613380565b61280181856133d8565b9350612811818560208601613571565b61281a816136db565b840191505092915050565b600061283082613380565b61283a81856133e9565b935061284a818560208601613571565b612853816136db565b840191505092915050565b600061286982613380565b61287381856133fa565b9350612883818560208601613571565b80840191505092915050565b6000815461289c816135a4565b6128a681866133fa565b945060018216600081146128c157600181146128d257612905565b60ff19831686528186019350612905565b6128db85613355565b60005b838110156128fd578154818901526001820191506020810190506128de565b838801955050505b50505092915050565b600061291b6019836133e9565b91507f4576656e7420686173206e6f74207374617274656420796574000000000000006000830152602082019050919050565b600061295b6022836133e9565b91507f53746172742074696d65206d757374206265206265666f726520656e6420746960008301527f6d650000000000000000000000000000000000000000000000000000000000006020830152604082019050919050565b60006129c1600e836133e9565b91507f496e76616c6964206f7074696f6e0000000000000000000000000000000000006000830152602082019050919050565b6000612a01602a836133e9565b91507f5468657265206d757374206265206174206c656173742074776f20626574746960008301527f6e67206f7074696f6e73000000000000000000000000000000000000000000006020830152604082019050919050565b6000612a676021836133e9565b91507f42657420616d6f756e74206d7573742062652067726561746572207468616e2060008301527f30000000000000000000000000000000000000000000000000000000000000006020830152604082019050919050565b6000612acd6017836133e9565b91507f4576656e7420494420616c7265616479206578697374730000000000000000006000830152602082019050919050565b6000612b0d600f836133e9565b91507f4576656e742068617320656e64656400000000000000000000000000000000006000830152602082019050919050565b6000612b4d601d836133e9565b91507f596f75206861766520616c726561647920706c616365642061206265740000006000830152602082019050919050565b6000612b8d6022836133e9565b91507f4f6e6c792061646d696e2063616e20706572666f726d2074686973206163746960008301527f6f6e0000000000000000000000000000000000000000000000000000000000006020830152604082019050919050565b6000612bf36014836133e9565b91507f4576656e7420646f6573206e6f742065786973740000000000000000000000006000830152602082019050919050565b6000612c336017836133e9565b91507f4576656e7420616c726561647920636f6d706c657465640000000000000000006000830152602082019050919050565b6000612c736013836133e9565b91507f4576656e74206e6f7420656e64656420796574000000000000000000000000006000830152602082019050919050565b6000612cb36016836133e9565b91507f496e76616c69642062657474696e67206f7074696f6e000000000000000000006000830152602082019050919050565b60006101a083016000830151612cff6000860182612e6d565b5060208301518482036020860152612d1782826127ec565b91505060408301518482036040860152612d3182826127ec565b91505060608301518482036060860152612d4b82826127ec565b91505060808301518482036080860152612d65828261266f565b91505060a0830151612d7a60a0860182612e6d565b5060c0830151612d8d60c0860182612e6d565b5060e0830151612da060e08601826127ce565b50610100830151848203610100860152612dba82826127ec565b915050610120830151612dd1610120860182612e6d565b50610140830151848203610140860152612deb82826127ec565b915050610160830151848203610160860152612e0782826127ec565b915050610180830151848203610180860152612e2382826127ec565b9150508091505092915050565b60006040830160008301518482036000860152612e4d82826127ec565b9150506020830151612e626020860182612e6d565b508091505092915050565b612e7681613558565b82525050565b612e8581613558565b82525050565b6000612e97828461285e565b915081905092915050565b6000612eae828461288f565b915081905092915050565b6000602082019050612ece6000830184612660565b92915050565b60006020820190508181036000830152612eee81846126e4565b905092915050565b60006020820190508181036000830152612f108184612759565b905092915050565b60006020820190508181036000830152612f318161290e565b9050919050565b60006020820190508181036000830152612f518161294e565b9050919050565b60006020820190508181036000830152612f71816129b4565b9050919050565b60006020820190508181036000830152612f91816129f4565b9050919050565b60006020820190508181036000830152612fb181612a5a565b9050919050565b60006020820190508181036000830152612fd181612ac0565b9050919050565b60006020820190508181036000830152612ff181612b00565b9050919050565b6000602082019050818103600083015261301181612b40565b9050919050565b6000602082019050818103600083015261303181612b80565b9050919050565b6000602082019050818103600083015261305181612be6565b9050919050565b6000602082019050818103600083015261307181612c26565b9050919050565b6000602082019050818103600083015261309181612c66565b9050919050565b600060208201905081810360008301526130b181612ca6565b9050919050565b600060208201905081810360008301526130d28184612ce6565b905092915050565b60006020820190506130ef6000830184612e7c565b92915050565b600060808201905061310a6000830187612e7c565b6131176020830186612660565b6131246040830185612e7c565b81810360608301526131368184612825565b905095945050505050565b60006040820190506131566000830185612e7c565b81810360208301526131688184612825565b90509392505050565b600061018082019050613187600083018f612e7c565b8181036020830152613199818e612825565b905081810360408301526131ad818d612825565b905081810360608301526131c1818c612825565b90506131d0608083018b612e7c565b6131dd60a083018a612e7c565b6131ea60c08301896127dd565b81810360e08301526131fc8188612825565b905061320c610100830187612e7c565b81810361012083015261321f8186612825565b90508181036101408301526132348185612825565b90508181036101608301526132498184612825565b90509d9c50505050505050505050505050565b60006080820190506132716000830187612e7c565b81810360208301526132838186612825565b90506132926040830185612e7c565b61329f6060830184612e7c565b95945050505050565b6000604051905081810181811067ffffffffffffffff821117156132cf576132ce6136ac565b5b8060405250919050565b600067ffffffffffffffff8211156132f4576132f36136ac565b5b602082029050602081019050919050565b600067ffffffffffffffff8211156133205761331f6136ac565b5b601f19601f8301169050602081019050919050565b6000819050602082019050919050565b6000819050602082019050919050565b60008190508160005260206000209050919050565b600081519050919050565b600081519050919050565b600081519050919050565b6000602082019050919050565b6000602082019050919050565b600082825260208201905092915050565b600082825260208201905092915050565b600082825260208201905092915050565b600082825260208201905092915050565b600082825260208201905092915050565b600081905092915050565b600061341082613558565b915061341b83613558565b9250827fffffffffffffffffffffffffffffffffffffffffffffffffffffffffffffffff038211156134505761344f61361f565b5b828201905092915050565b600061346682613558565b915061347183613558565b9250826134815761348061364e565b5b828204905092915050565b600061349782613558565b91506134a283613558565b9250817fffffffffffffffffffffffffffffffffffffffffffffffffffffffffffffffff04831182151516156134db576134da61361f565b5b828202905092915050565b60006134f182613558565b91506134fc83613558565b92508282101561350f5761350e61361f565b5b828203905092915050565b600061352582613538565b9050919050565b60008115159050919050565b600073ffffffffffffffffffffffffffffffffffffffff82169050919050565b6000819050919050565b82818337600083830152505050565b60005b8381101561358f578082015181840152602081019050613574565b8381111561359e576000848401525b50505050565b600060028204905060018216806135bc57607f821691505b602082108114156135d0576135cf61367d565b5b50919050565b60006135e182613558565b91507fffffffffffffffffffffffffffffffffffffffffffffffffffffffffffffffff8214156136145761361361361f565b5b600182019050919050565b7f4e487b7100000000000000000000000000000000000000000000000000000000600052601160045260246000fd5b7f4e487b7100000000000000000000000000000000000000000000000000000000600052601260045260246000fd5b7f4e487b7100000000000000000000000000000000000000000000000000000000600052602260045260246000fd5b7f4e487b7100000000000000000000000000000000000000000000000000000000600052604160045260246000fd5b6000601f19601f8301169050919050565b6136f581613558565b811461370057600080fd5b5056fea264697066735822122039aac478784a5d9e67ebfa8db446919c3d87357480e46107ee1950aae24ac78f64736f6c63430008000033",
  "immutableReferences": {},
  "source": "// SPDX-License-Identifier: MIT\r\npragma solidity ^0.8.0;\r\n\r\ncontract BettingEvents {\r\n    struct Bet {\r\n        string option;\r\n        uint256 amount;\r\n        bool exists;\r\n    }\r\n\r\n    struct OptionOdds {\r\n        string optionName;\r\n        uint256 oddsPercentage;\r\n    }\r\n\r\n    struct BetEvent {\r\n        uint256 eventId;\r\n        string name;\r\n        string description;\r\n        string imageURL;\r\n        string[] options;\r\n        uint256 startTime;\r\n        uint256 endTime;\r\n        bool isCompleted;\r\n        string winningOption;\r\n        uint256 prizePool;\r\n        string rules;\r\n        string notificationImageURL;\r\n        string notificationMessage;\r\n        mapping(address => Bet) bets;\r\n        address[] bettors;\r\n        mapping(string => uint256) optionBetCounts;\r\n    }\r\n\r\n    // Readable version of BetEvent for return\r\n    struct BetEventView {\r\n        uint256 eventId;\r\n        string name;\r\n        string description;\r\n        string imageURL;\r\n        string[] options;\r\n        uint256 startTime;\r\n        uint256 endTime;\r\n        bool isCompleted;\r\n        string winningOption;\r\n        uint256 prizePool;\r\n        string rules;\r\n        string notificationImageURL;\r\n        string notificationMessage;\r\n    }\r\n\r\n    mapping(uint256 => BetEvent) public events;\r\n    uint256 public nextEventId;\r\n    address public admin;\r\n    uint256 public totalAdminProfit;\r\n\r\n    event EventCreated(\r\n        uint256 eventId,\r\n        string name,\r\n        uint256 startTime,\r\n        uint256 endTime\r\n    );\r\n    event BetPlaced(\r\n        uint256 eventId,\r\n        address bettor,\r\n        uint256 amount,\r\n        string option\r\n    );\r\n    event WinnerDeclared(uint256 eventId, string winningOption);\r\n\r\n    modifier onlyAdmin() {\r\n        require(msg.sender == admin, \"Only admin can perform this action\");\r\n        _;\r\n    }\r\n\r\n    modifier eventExists(uint256 _eventId) {\r\n        require(events[_eventId].eventId != 0, \"Event does not exist\");\r\n        _;\r\n    }\r\n\r\n    constructor() {\r\n        admin = msg.sender;\r\n        totalAdminProfit = 0;\r\n    }\r\n\r\n    function createEvent(\r\n        uint256 _eventId,\r\n        string memory _name,\r\n        string memory _description,\r\n        string memory _imageURL,\r\n        string[] memory _options,\r\n        uint256 _startTime,\r\n        uint256 _endTime,\r\n        string memory _rules,\r\n        string memory _notificationImageURL,\r\n        string memory _notificationMessage\r\n    ) external onlyAdmin {\r\n        require(_startTime < _endTime, \"Start time must be before end time\");\r\n        require(\r\n            _options.length > 1,\r\n            \"There must be at least two betting options\"\r\n        );\r\n        require(events[_eventId].eventId == 0, \"Event ID already exists\");\r\n\r\n        BetEvent storage newEvent = events[_eventId];\r\n        newEvent.eventId = _eventId;\r\n        newEvent.name = _name;\r\n        newEvent.description = _description;\r\n        newEvent.imageURL = _imageURL;\r\n        newEvent.options = _options;\r\n        newEvent.startTime = _startTime;\r\n        newEvent.endTime = _endTime;\r\n        newEvent.isCompleted = false;\r\n        newEvent.winningOption = \"\";\r\n        newEvent.prizePool = 0;\r\n        newEvent.rules = _rules;\r\n        newEvent.notificationImageURL = _notificationImageURL;\r\n        newEvent.notificationMessage = _notificationMessage;\r\n\r\n        emit EventCreated(_eventId, _name, _startTime, _endTime);\r\n        nextEventId++;\r\n    }\r\n\r\n    function placeBet(\r\n        uint256 _eventId,\r\n        string memory _option\r\n    ) external payable eventExists(_eventId) {\r\n        BetEvent storage betEvent = events[_eventId];\r\n        require(\r\n            block.timestamp >= betEvent.startTime,\r\n            \"Event has not started yet\"\r\n        );\r\n        require(block.timestamp <= betEvent.endTime, \"Event has ended\");\r\n        require(msg.value > 0, \"Bet amount must be greater than 0\");\r\n\r\n        bool validOption = false;\r\n        for (uint256 i = 0; i < betEvent.options.length; i++) {\r\n            if (\r\n                keccak256(abi.encodePacked(betEvent.options[i])) ==\r\n                keccak256(abi.encodePacked(_option))\r\n            ) {\r\n                validOption = true;\r\n                break;\r\n            }\r\n        }\r\n        require(validOption, \"Invalid betting option\");\r\n\r\n        Bet storage userBet = betEvent.bets[msg.sender];\r\n        require(!userBet.exists, \"You have already placed a bet\");\r\n\r\n        userBet.option = _option;\r\n        userBet.amount = msg.value;\r\n        userBet.exists = true;\r\n        betEvent.bettors.push(msg.sender);\r\n        betEvent.prizePool += msg.value;\r\n        betEvent.optionBetCounts[_option]++;\r\n\r\n        emit BetPlaced(_eventId, msg.sender, msg.value, _option);\r\n    }\r\n\r\n    function declareWinner(\r\n        uint256 _eventId,\r\n        string memory _winningOption\r\n    ) external onlyAdmin eventExists(_eventId) {\r\n        BetEvent storage betEvent = events[_eventId];\r\n        require(!betEvent.isCompleted, \"Event already completed\");\r\n        require(block.timestamp >= betEvent.endTime, \"Event not ended yet\");\r\n\r\n        bool validOption = false;\r\n        for (uint256 i = 0; i < betEvent.options.length; i++) {\r\n            if (\r\n                keccak256(abi.encodePacked(betEvent.options[i])) ==\r\n                keccak256(abi.encodePacked(_winningOption))\r\n            ) {\r\n                validOption = true;\r\n                break;\r\n            }\r\n        }\r\n        require(validOption, \"Invalid option\");\r\n\r\n        betEvent.winningOption = _winningOption;\r\n        betEvent.isCompleted = true;\r\n\r\n        uint256 totalWinnersBetAmount = 0;\r\n        address payable[] memory winnersPayable = new address payable[](\r\n            betEvent.bettors.length\r\n        );\r\n        uint256 winnersCount = 0;\r\n\r\n        for (uint256 i = 0; i < betEvent.bettors.length; i++) {\r\n            address bettor = betEvent.bettors[i];\r\n            if (\r\n                keccak256(abi.encodePacked(betEvent.bets[bettor].option)) ==\r\n                keccak256(abi.encodePacked(_winningOption))\r\n            ) {\r\n                totalWinnersBetAmount += betEvent.bets[bettor].amount;\r\n                winnersPayable[winnersCount] = payable(bettor);\r\n                winnersCount++;\r\n            }\r\n        }\r\n\r\n        uint256 adminFee = (betEvent.prizePool * 5) / 100;\r\n        uint256 remainingPrizePool = betEvent.prizePool - adminFee;\r\n        totalAdminProfit += adminFee;\r\n        payable(admin).transfer(adminFee);\r\n\r\n        if (totalWinnersBetAmount > 0) {\r\n            for (uint256 i = 0; i < winnersCount; i++) {\r\n                address payable winner = winnersPayable[i];\r\n                uint256 winnerReward = (betEvent.bets[winner].amount *\r\n                    remainingPrizePool) / totalWinnersBetAmount;\r\n                winner.transfer(winnerReward);\r\n            }\r\n        }\r\n\r\n        emit WinnerDeclared(_eventId, _winningOption);\r\n    }\r\n\r\n    function getEvent(\r\n        uint256 _eventId\r\n    ) external view eventExists(_eventId) returns (BetEventView memory) {\r\n        BetEvent storage betEvent = events[_eventId];\r\n        return\r\n            BetEventView(\r\n                betEvent.eventId,\r\n                betEvent.name,\r\n                betEvent.description,\r\n                betEvent.imageURL,\r\n                betEvent.options,\r\n                betEvent.startTime,\r\n                betEvent.endTime,\r\n                betEvent.isCompleted,\r\n                betEvent.winningOption,\r\n                betEvent.prizePool,\r\n                betEvent.rules,\r\n                betEvent.notificationImageURL,\r\n                betEvent.notificationMessage\r\n            );\r\n    }\r\n\r\n    function getEventOptions(\r\n        uint256 _eventId\r\n    ) external view eventExists(_eventId) returns (string[] memory) {\r\n        return events[_eventId].options;\r\n    }\r\n\r\n    function getEventPrizePool(\r\n        uint256 _eventId\r\n    ) external view eventExists(_eventId) returns (uint256) {\r\n        return events[_eventId].prizePool;\r\n    }\r\n\r\n    function getEventOdds(\r\n        uint256 _eventId\r\n    ) external view eventExists(_eventId) returns (OptionOdds[] memory) {\r\n        BetEvent storage betEvent = events[_eventId];\r\n        uint256 totalBets = betEvent.bettors.length;\r\n        OptionOdds[] memory optionOddsArray = new OptionOdds[](\r\n            betEvent.options.length\r\n        );\r\n\r\n        if (totalBets == 0) {\r\n            for (uint256 i = 0; i < betEvent.options.length; i++) {\r\n                optionOddsArray[i] = OptionOdds({\r\n                    optionName: betEvent.options[i],\r\n                    oddsPercentage: 0\r\n                });\r\n            }\r\n            return optionOddsArray;\r\n        }\r\n\r\n        for (uint256 i = 0; i < betEvent.options.length; i++) {\r\n            string memory option = betEvent.options[i];\r\n            uint256 betCount = betEvent.optionBetCounts[option];\r\n            optionOddsArray[i] = OptionOdds({\r\n                optionName: option,\r\n                oddsPercentage: (betCount * 100) / totalBets\r\n            });\r\n        }\r\n\r\n        return optionOddsArray;\r\n    }\r\n\r\n    function getTotalAdminProfit() external view returns (uint256) {\r\n        return totalAdminProfit;\r\n    }\r\n}\r\n",
  "sourcePath": "F:\\Software Project\\Project Files\\StakeWise-Blockchain\\contracts\\BettingEvents.sol",
  "compiler": {
    "name": "solc",
    "version": "0.8.0+commit.c7dfd78e.Emscripten.clang"
  },
  "schemaVersion": "3.4.16",
  "updatedAt": "2025-04-28T04:10:40.478Z",
  "networkType": "ethereum",
  "devdoc": {
    "kind": "dev",
    "methods": {},
    "version": 1
  },
  "userdoc": {
    "kind": "user",
    "methods": {},
    "version": 1
  }
}