{
  "contractName": "Betting",
  "abi": [
    {
      "inputs": [],
      "stateMutability": "nonpayable",
      "type": "constructor"
    },
    {
      "anonymous": false,
      "inputs": [
        {
          "indexed": true,
          "internalType": "address",
          "name": "user",
          "type": "address"
        },
        {
          "indexed": false,
          "internalType": "enum Betting.Option",
          "name": "option",
          "type": "uint8"
        },
        {
          "indexed": false,
          "internalType": "uint256",
          "name": "amount",
          "type": "uint256"
        }
      ],
      "name": "BetPlaced",
      "type": "event"
    },
    {
      "anonymous": false,
      "inputs": [
        {
          "indexed": true,
          "internalType": "address",
          "name": "user",
          "type": "address"
        },
        {
          "indexed": false,
          "internalType": "uint256",
          "name": "amount",
          "type": "uint256"
        }
      ],
      "name": "Payout",
      "type": "event"
    },
    {
      "anonymous": false,
      "inputs": [
        {
          "indexed": false,
          "internalType": "enum Betting.Option",
          "name": "winningOption",
          "type": "uint8"
        }
      ],
      "name": "WinnerSet",
      "type": "event"
    },
    {
      "inputs": [
        {
          "internalType": "address",
          "name": "",
          "type": "address"
        }
      ],
      "name": "balances",
      "outputs": [
        {
          "internalType": "uint256",
          "name": "",
          "type": "uint256"
        }
      ],
      "stateMutability": "view",
      "type": "function"
    },
    {
      "inputs": [
        {
          "internalType": "uint256",
          "name": "",
          "type": "uint256"
        }
      ],
      "name": "betsA",
      "outputs": [
        {
          "internalType": "address",
          "name": "user",
          "type": "address"
        },
        {
          "internalType": "enum Betting.Option",
          "name": "option",
          "type": "uint8"
        },
        {
          "internalType": "uint256",
          "name": "amount",
          "type": "uint256"
        }
      ],
      "stateMutability": "view",
      "type": "function"
    },
    {
      "inputs": [
        {
          "internalType": "uint256",
          "name": "",
          "type": "uint256"
        }
      ],
      "name": "betsB",
      "outputs": [
        {
          "internalType": "address",
          "name": "user",
          "type": "address"
        },
        {
          "internalType": "enum Betting.Option",
          "name": "option",
          "type": "uint8"
        },
        {
          "internalType": "uint256",
          "name": "amount",
          "type": "uint256"
        }
      ],
      "stateMutability": "view",
      "type": "function"
    },
    {
      "inputs": [],
      "name": "owner",
      "outputs": [
        {
          "internalType": "address",
          "name": "",
          "type": "address"
        }
      ],
      "stateMutability": "view",
      "type": "function"
    },
    {
      "inputs": [],
      "name": "totalPoolSize",
      "outputs": [
        {
          "internalType": "uint256",
          "name": "",
          "type": "uint256"
        }
      ],
      "stateMutability": "view",
      "type": "function"
    },
    {
      "inputs": [],
      "name": "winnerSet",
      "outputs": [
        {
          "internalType": "bool",
          "name": "",
          "type": "bool"
        }
      ],
      "stateMutability": "view",
      "type": "function"
    },
    {
      "inputs": [],
      "name": "winningOption",
      "outputs": [
        {
          "internalType": "enum Betting.Option",
          "name": "",
          "type": "uint8"
        }
      ],
      "stateMutability": "view",
      "type": "function"
    },
    {
      "stateMutability": "payable",
      "type": "receive"
    },
    {
      "inputs": [
        {
          "internalType": "enum Betting.Option",
          "name": "_option",
          "type": "uint8"
        }
      ],
      "name": "placeBet",
      "outputs": [],
      "stateMutability": "payable",
      "type": "function"
    },
    {
      "inputs": [
        {
          "internalType": "enum Betting.Option",
          "name": "_winningOption",
          "type": "uint8"
        }
      ],
      "name": "setWinningOption",
      "outputs": [],
      "stateMutability": "nonpayable",
      "type": "function"
    },
    {
      "inputs": [],
      "name": "ownerWithdraw",
      "outputs": [],
      "stateMutability": "nonpayable",
      "type": "function"
    }
  ],
  "bytecode": "0x608060405234801561001057600080fd5b5033600460006101000a81548173ffffffffffffffffffffffffffffffffffffffff021916908373ffffffffffffffffffffffffffffffffffffffff1602179055506000600460146101000a81548160ff0219169083600181111561009e577f4e487b7100000000000000000000000000000000000000000000000000000000600052602160045260246000fd5b02179055506000600460156101000a81548160ff0219169083151502179055506117d1806100cd6000396000f3fe6080604052600436106100955760003560e01c806389296bda1161005957806389296bda1461017b5780638da5cb5b146101a45780639fde4ef8146101cf578063abab97f2146101fa578063c4353d8d146102395761009c565b806327e235e3146100a157806343046844146100de5780634311de8f146100fa57806353a579d21461011157806378e73ff8146101505761009c565b3661009c57005b600080fd5b3480156100ad57600080fd5b506100c860048036038101906100c39190611037565b610264565b6040516100d591906114ba565b60405180910390f35b6100f860048036038101906100f39190611060565b61027c565b005b34801561010657600080fd5b5061010f610618565b005b34801561011d57600080fd5b5061013860048036038101906101339190611089565b6107be565b60405161014793929190611344565b60405180910390f35b34801561015c57600080fd5b50610165610825565b604051610172919061137b565b60405180910390f35b34801561018757600080fd5b506101a2600480360381019061019d9190611060565b610838565b005b3480156101b057600080fd5b506101b96109c5565b6040516101c69190611329565b60405180910390f35b3480156101db57600080fd5b506101e46109eb565b6040516101f19190611396565b60405180910390f35b34801561020657600080fd5b50610221600480360381019061021c9190611089565b6109fe565b60405161023093929190611344565b60405180910390f35b34801561024557600080fd5b5061024e610a65565b60405161025b91906114ba565b60405180910390f35b60026020528060005260406000206000915090505481565b600034116102bf576040517f08c379a00000000000000000000000000000000000000000000000000000000081526004016102b69061147a565b60405180910390fd5b600060405180606001604052803373ffffffffffffffffffffffffffffffffffffffff168152602001836001811115610321577f4e487b7100000000000000000000000000000000000000000000000000000000600052602160045260246000fd5b815260200134815250905060006001811115610366577f4e487b7100000000000000000000000000000000000000000000000000000000600052602160045260246000fd5b82600181111561039f577f4e487b7100000000000000000000000000000000000000000000000000000000600052602160045260246000fd5b141561047f57600081908060018154018082558091505060019003906000526020600020906002020160009091909190915060008201518160000160006101000a81548173ffffffffffffffffffffffffffffffffffffffff021916908373ffffffffffffffffffffffffffffffffffffffff16021790555060208201518160000160146101000a81548160ff02191690836001811115610469577f4e487b7100000000000000000000000000000000000000000000000000000000600052602160045260246000fd5b0217905550604082015181600101555050610555565b600181908060018154018082558091505060019003906000526020600020906002020160009091909190915060008201518160000160006101000a81548173ffffffffffffffffffffffffffffffffffffffff021916908373ffffffffffffffffffffffffffffffffffffffff16021790555060208201518160000160146101000a81548160ff02191690836001811115610543577f4e487b7100000000000000000000000000000000000000000000000000000000600052602160045260246000fd5b02179055506040820151816001015550505b34600260003373ffffffffffffffffffffffffffffffffffffffff1673ffffffffffffffffffffffffffffffffffffffff16815260200190815260200160002060008282546105a491906114f1565b9250508190555034600360008282546105bd91906114f1565b925050819055503373ffffffffffffffffffffffffffffffffffffffff167f9f6b4cced64244a64465098f682029975b1614400b96bc6bd12c668083719166833460405161060c9291906113b1565b60405180910390a25050565b600460009054906101000a900473ffffffffffffffffffffffffffffffffffffffff1673ffffffffffffffffffffffffffffffffffffffff163373ffffffffffffffffffffffffffffffffffffffff16146106a8576040517f08c379a000000000000000000000000000000000000000000000000000000000815260040161069f906113fa565b60405180910390fd5b6000600354146106ed576040517f08c379a00000000000000000000000000000000000000000000000000000000081526004016106e49061149a565b60405180910390fd5b6000600460009054906101000a900473ffffffffffffffffffffffffffffffffffffffff1673ffffffffffffffffffffffffffffffffffffffff164760405161073590611314565b60006040518083038185875af1925050503d8060008114610772576040519150601f19603f3d011682016040523d82523d6000602084013e610777565b606091505b50509050806107bb576040517f08c379a00000000000000000000000000000000000000000000000000000000081526004016107b29061143a565b60405180910390fd5b50565b600181815481106107ce57600080fd5b90600052602060002090600202016000915090508060000160009054906101000a900473ffffffffffffffffffffffffffffffffffffffff16908060000160149054906101000a900460ff16908060010154905083565b600460159054906101000a900460ff1681565b600460009054906101000a900473ffffffffffffffffffffffffffffffffffffffff1673ffffffffffffffffffffffffffffffffffffffff163373ffffffffffffffffffffffffffffffffffffffff16146108c8576040517f08c379a00000000000000000000000000000000000000000000000000000000081526004016108bf906113fa565b60405180910390fd5b600460159054906101000a900460ff1615610918576040517f08c379a000000000000000000000000000000000000000000000000000000000815260040161090f906113da565b60405180910390fd5b80600460146101000a81548160ff02191690836001811115610963577f4e487b7100000000000000000000000000000000000000000000000000000000600052602160045260246000fd5b02179055506001600460156101000a81548160ff02191690831515021790555061098b610a6b565b7f59222abacde21962fe53d9ea0a8315139914a28f738fe1c4fac6739b696639c7816040516109ba9190611396565b60405180910390a150565b600460009054906101000a900473ffffffffffffffffffffffffffffffffffffffff1681565b600460149054906101000a900460ff1681565b60008181548110610a0e57600080fd5b90600052602060002090600202016000915090508060000160009054906101000a900473ffffffffffffffffffffffffffffffffffffffff16908060000160149054906101000a900460ff16908060010154905083565b60035481565b600460159054906101000a900460ff16610aba576040517f08c379a0000000000000000000000000000000000000000000000000000000008152600401610ab19061145a565b60405180910390fd5b606060006001811115610af6577f4e487b7100000000000000000000000000000000000000000000000000000000600052602160045260246000fd5b600460149054906101000a900460ff166001811115610b3e577f4e487b7100000000000000000000000000000000000000000000000000000000600052602160045260246000fd5b1415610c8a576000805480602002602001604051908101604052809291908181526020016000905b82821015610c7f57838290600052602060002090600202016040518060600160405290816000820160009054906101000a900473ffffffffffffffffffffffffffffffffffffffff1673ffffffffffffffffffffffffffffffffffffffff1673ffffffffffffffffffffffffffffffffffffffff1681526020016000820160149054906101000a900460ff166001811115610c2a577f4e487b7100000000000000000000000000000000000000000000000000000000600052602160045260246000fd5b6001811115610c62577f4e487b7100000000000000000000000000000000000000000000000000000000600052602160045260246000fd5b815260200160018201548152505081526020019060010190610b66565b505050509050610dcc565b6001805480602002602001604051908101604052809291908181526020016000905b82821015610dc557838290600052602060002090600202016040518060600160405290816000820160009054906101000a900473ffffffffffffffffffffffffffffffffffffffff1673ffffffffffffffffffffffffffffffffffffffff1673ffffffffffffffffffffffffffffffffffffffff1681526020016000820160149054906101000a900460ff166001811115610d70577f4e487b7100000000000000000000000000000000000000000000000000000000600052602160045260246000fd5b6001811115610da8577f4e487b7100000000000000000000000000000000000000000000000000000000600052602160045260246000fd5b815260200160018201548152505081526020019060010190610cac565b5050505090505b6000805b8251811015610e3e57828181518110610e12577f4e487b7100000000000000000000000000000000000000000000000000000000600052603260045260246000fd5b60200260200101516040015182610e2991906114f1565b91508080610e3690611673565b915050610dd0565b506000811415610e4f575050610ff6565b60005b8251811015610ff2576000838281518110610e96577f4e487b7100000000000000000000000000000000000000000000000000000000600052603260045260246000fd5b602002602001015190506000836003548360400151610eb59190611578565b610ebf9190611547565b90506000826000015173ffffffffffffffffffffffffffffffffffffffff1682604051610eeb90611314565b60006040518083038185875af1925050503d8060008114610f28576040519150601f19603f3d011682016040523d82523d6000602084013e610f2d565b606091505b5050905080610f71576040517f08c379a0000000000000000000000000000000000000000000000000000000008152600401610f689061141a565b60405180910390fd5b826000015173ffffffffffffffffffffffffffffffffffffffff167f5afeca38b2064c23a692c4cf353015d80ab3ecc417b4f893f372690c11fbd9a683604051610fbb91906114ba565b60405180910390a28160036000828254610fd591906115d2565b925050819055505050508080610fea90611673565b915050610e52565b5050505b565b6000813590506110078161175d565b92915050565b60008135905061101c81611774565b92915050565b60008135905061103181611784565b92915050565b60006020828403121561104957600080fd5b600061105784828501610ff8565b91505092915050565b60006020828403121561107257600080fd5b60006110808482850161100d565b91505092915050565b60006020828403121561109b57600080fd5b60006110a984828501611022565b91505092915050565b6110bb81611606565b82525050565b6110ca81611618565b82525050565b6110d981611661565b82525050565b60006110ec6013836114e0565b91507f57696e6e657220616c7265616479207365742e000000000000000000000000006000830152602082019050919050565b600061112c6026836114e0565b91507f4f6e6c7920746865206f776e65722063616e2063616c6c20746869732066756e60008301527f6374696f6e2e00000000000000000000000000000000000000000000000000006020830152604082019050919050565b6000611192600e836114e0565b91507f5061796f7574206661696c65642e0000000000000000000000000000000000006000830152602082019050919050565b60006111d26012836114e0565b91507f5769746864726177616c206661696c65642e00000000000000000000000000006000830152602082019050919050565b60006112126013836114e0565b91507f57696e6e6572206e6f7420796574207365742e000000000000000000000000006000830152602082019050919050565b60006112526025836114e0565b91507f42657420616d6f756e74206d7573742062652067726561746572207468616e2060008301527f7a65726f2e0000000000000000000000000000000000000000000000000000006020830152604082019050919050565b60006112b8601f836114e0565b91507f416c6c20706f6f6c20616d6f756e74206e6f74206469737472696275746564006000830152602082019050919050565b60006112f86000836114d5565b9150600082019050919050565b61130e81611657565b82525050565b600061131f826112eb565b9150819050919050565b600060208201905061133e60008301846110b2565b92915050565b600060608201905061135960008301866110b2565b61136660208301856110d0565b6113736040830184611305565b949350505050565b600060208201905061139060008301846110c1565b92915050565b60006020820190506113ab60008301846110d0565b92915050565b60006040820190506113c660008301856110d0565b6113d36020830184611305565b9392505050565b600060208201905081810360008301526113f3816110df565b9050919050565b600060208201905081810360008301526114138161111f565b9050919050565b6000602082019050818103600083015261143381611185565b9050919050565b60006020820190508181036000830152611453816111c5565b9050919050565b6000602082019050818103600083015261147381611205565b9050919050565b6000602082019050818103600083015261149381611245565b9050919050565b600060208201905081810360008301526114b3816112ab565b9050919050565b60006020820190506114cf6000830184611305565b92915050565b600081905092915050565b600082825260208201905092915050565b60006114fc82611657565b915061150783611657565b9250827fffffffffffffffffffffffffffffffffffffffffffffffffffffffffffffffff0382111561153c5761153b6116bc565b5b828201905092915050565b600061155282611657565b915061155d83611657565b92508261156d5761156c6116eb565b5b828204905092915050565b600061158382611657565b915061158e83611657565b9250817fffffffffffffffffffffffffffffffffffffffffffffffffffffffffffffffff04831182151516156115c7576115c66116bc565b5b828202905092915050565b60006115dd82611657565b91506115e883611657565b9250828210156115fb576115fa6116bc565b5b828203905092915050565b600061161182611637565b9050919050565b60008115159050919050565b600081905061163282611749565b919050565b600073ffffffffffffffffffffffffffffffffffffffff82169050919050565b6000819050919050565b600061166c82611624565b9050919050565b600061167e82611657565b91507fffffffffffffffffffffffffffffffffffffffffffffffffffffffffffffffff8214156116b1576116b06116bc565b5b600182019050919050565b7f4e487b7100000000000000000000000000000000000000000000000000000000600052601160045260246000fd5b7f4e487b7100000000000000000000000000000000000000000000000000000000600052601260045260246000fd5b7f4e487b7100000000000000000000000000000000000000000000000000000000600052602160045260246000fd5b6002811061175a5761175961171a565b5b50565b61176681611606565b811461177157600080fd5b50565b6002811061178157600080fd5b50565b61178d81611657565b811461179857600080fd5b5056fea2646970667358221220abb4499716e8cb0a7e06f2211b541a51409c80aff10f85c113fe81dc2c36643c64736f6c63430008000033",
  "immutableReferences": {},
  "source": "pragma solidity ^0.8.0;\r\n\r\ncontract Betting {\r\n    // Enum for the betting options\r\n    enum Option {\r\n        OptionA,\r\n        OptionB\r\n    }\r\n\r\n    // Structure to store bet information\r\n    struct Bet {\r\n        address user;\r\n        Option option;\r\n        uint256 amount;\r\n    }\r\n\r\n    // Variables to store the bets for each option\r\n    Bet[] public betsA;\r\n    Bet[] public betsB;\r\n\r\n    // Mapping of user addresses to their deposited amounts (redundant, but useful for some calculations)\r\n    mapping(address => uint256) public balances;\r\n\r\n    // Total pool size\r\n    uint256 public totalPoolSize;\r\n\r\n    // Owner of the contract\r\n    address public owner;\r\n\r\n    // Winning option (initially none)\r\n    Option public winningOption;\r\n\r\n    // Whether the winner has been set\r\n    bool public winnerSet;\r\n\r\n    // Event emitted when a bet is placed\r\n    event BetPlaced(address indexed user, Option option, uint256 amount);\r\n\r\n    // Event emitted when the winner is set and payouts are made\r\n    event WinnerSet(Option winningOption);\r\n    event Payout(address indexed user, uint256 amount);\r\n\r\n    constructor() {\r\n        owner = msg.sender;\r\n        winningOption = Option.OptionA; // Set default to A, just for init\r\n        winnerSet = false;\r\n    }\r\n\r\n    modifier onlyOwner() {\r\n        require(msg.sender == owner, \"Only the owner can call this function.\");\r\n        _;\r\n    }\r\n\r\n    modifier winnerNotSet() {\r\n        require(!winnerSet, \"Winner already set.\");\r\n        _;\r\n    }\r\n\r\n    function placeBet(Option _option) public payable {\r\n        require(msg.value > 0, \"Bet amount must be greater than zero.\");\r\n\r\n        Bet memory newBet = Bet({\r\n            user: msg.sender,\r\n            option: _option,\r\n            amount: msg.value\r\n        });\r\n\r\n        if (_option == Option.OptionA) {\r\n            betsA.push(newBet);\r\n        } else {\r\n            betsB.push(newBet);\r\n        }\r\n\r\n        balances[msg.sender] += msg.value;\r\n        totalPoolSize += msg.value;\r\n\r\n        emit BetPlaced(msg.sender, _option, msg.value);\r\n    }\r\n\r\n    function setWinningOption(\r\n        Option _winningOption\r\n    ) public onlyOwner winnerNotSet {\r\n        winningOption = _winningOption;\r\n        winnerSet = true;\r\n\r\n        // Payout to winners\r\n        payoutWinners();\r\n\r\n        emit WinnerSet(_winningOption);\r\n    }\r\n\r\n    function payoutWinners() private {\r\n        require(winnerSet, \"Winner not yet set.\");\r\n\r\n        Bet[] memory winningBets;\r\n\r\n        if (winningOption == Option.OptionA) {\r\n            winningBets = betsA;\r\n        } else {\r\n            winningBets = betsB;\r\n        }\r\n\r\n        uint256 totalWinningBetsAmount = 0;\r\n        for (uint256 i = 0; i < winningBets.length; i++) {\r\n            totalWinningBetsAmount += winningBets[i].amount;\r\n        }\r\n\r\n        // Avoid division by zero\r\n        if (totalWinningBetsAmount == 0) {\r\n            return; // No winners, nothing to payout.  Consider refunding losers here.\r\n        }\r\n\r\n        for (uint256 i = 0; i < winningBets.length; i++) {\r\n            Bet memory bet = winningBets[i];\r\n            uint256 payoutAmount = (bet.amount * totalPoolSize) /\r\n                totalWinningBetsAmount; // Proportional payout\r\n\r\n            (bool success, ) = bet.user.call{value: payoutAmount}(\"\");\r\n            require(success, \"Payout failed.\");\r\n            emit Payout(bet.user, payoutAmount);\r\n            totalPoolSize -= payoutAmount; // Reduce the total pool.\r\n        }\r\n\r\n        // Optional: Refund losers if needed, depending on your requirements.\r\n    }\r\n\r\n    // Optional function to allow the owner to withdraw any remaining contract balance.\r\n    function ownerWithdraw() public onlyOwner {\r\n        require(totalPoolSize == 0, \"All pool amount not distributed\");\r\n        (bool success, ) = owner.call{value: address(this).balance}(\"\");\r\n        require(success, \"Withdrawal failed.\");\r\n    }\r\n\r\n    receive() external payable {}\r\n}\r\n",
  "sourcePath": "F:\\Software Project\\New folder\\StakeWise-Blockchain\\contracts\\Betting.sol",
  "compiler": {
    "name": "solc",
    "version": "0.8.0+commit.c7dfd78e.Emscripten.clang"
  },
  "schemaVersion": "3.4.16",
  "updatedAt": "2025-02-17T19:05:06.850Z",
  "devdoc": {
    "kind": "dev",
    "methods": {},
    "version": 1
  },
  "userdoc": {
    "kind": "user",
    "methods": {},
    "version": 1
  }
}