{
  "contractName": "BettingEvents",
  "abi": [
    {
      "inputs": [],
      "stateMutability": "nonpayable",
      "type": "constructor"
    },
    {
      "anonymous": false,
      "inputs": [
        {
          "indexed": false,
          "internalType": "uint256",
          "name": "eventId",
          "type": "uint256"
        },
        {
          "indexed": false,
          "internalType": "address",
          "name": "bettor",
          "type": "address"
        },
        {
          "indexed": false,
          "internalType": "uint256",
          "name": "amount",
          "type": "uint256"
        },
        {
          "indexed": false,
          "internalType": "string",
          "name": "option",
          "type": "string"
        }
      ],
      "name": "BetPlaced",
      "type": "event"
    },
    {
      "anonymous": false,
      "inputs": [
        {
          "indexed": false,
          "internalType": "uint256",
          "name": "id",
          "type": "uint256"
        },
        {
          "indexed": false,
          "internalType": "string",
          "name": "name",
          "type": "string"
        },
        {
          "indexed": false,
          "internalType": "uint256",
          "name": "startTime",
          "type": "uint256"
        },
        {
          "indexed": false,
          "internalType": "uint256",
          "name": "endTime",
          "type": "uint256"
        }
      ],
      "name": "EventCreated",
      "type": "event"
    },
    {
      "anonymous": false,
      "inputs": [
        {
          "indexed": false,
          "internalType": "uint256",
          "name": "eventId",
          "type": "uint256"
        },
        {
          "indexed": false,
          "internalType": "string",
          "name": "winningOption",
          "type": "string"
        }
      ],
      "name": "WinnerDeclared",
      "type": "event"
    },
    {
      "inputs": [],
      "name": "admin",
      "outputs": [
        {
          "internalType": "address",
          "name": "",
          "type": "address"
        }
      ],
      "stateMutability": "view",
      "type": "function"
    },
    {
      "inputs": [
        {
          "internalType": "uint256",
          "name": "",
          "type": "uint256"
        }
      ],
      "name": "events",
      "outputs": [
        {
          "internalType": "uint256",
          "name": "id",
          "type": "uint256"
        },
        {
          "internalType": "string",
          "name": "name",
          "type": "string"
        },
        {
          "internalType": "string",
          "name": "description",
          "type": "string"
        },
        {
          "internalType": "string",
          "name": "imageURL",
          "type": "string"
        },
        {
          "internalType": "uint256",
          "name": "startTime",
          "type": "uint256"
        },
        {
          "internalType": "uint256",
          "name": "endTime",
          "type": "uint256"
        },
        {
          "internalType": "bool",
          "name": "isCompleted",
          "type": "bool"
        },
        {
          "internalType": "string",
          "name": "winningOption",
          "type": "string"
        },
        {
          "internalType": "uint256",
          "name": "prizePool",
          "type": "uint256"
        }
      ],
      "stateMutability": "view",
      "type": "function"
    },
    {
      "inputs": [],
      "name": "nextEventId",
      "outputs": [
        {
          "internalType": "uint256",
          "name": "",
          "type": "uint256"
        }
      ],
      "stateMutability": "view",
      "type": "function"
    },
    {
      "inputs": [
        {
          "internalType": "string",
          "name": "_name",
          "type": "string"
        },
        {
          "internalType": "string",
          "name": "_description",
          "type": "string"
        },
        {
          "internalType": "string",
          "name": "_imageURL",
          "type": "string"
        },
        {
          "internalType": "string[]",
          "name": "_options",
          "type": "string[]"
        },
        {
          "internalType": "uint256",
          "name": "_startTime",
          "type": "uint256"
        },
        {
          "internalType": "uint256",
          "name": "_endTime",
          "type": "uint256"
        }
      ],
      "name": "createEvent",
      "outputs": [],
      "stateMutability": "nonpayable",
      "type": "function"
    },
    {
      "inputs": [
        {
          "internalType": "uint256",
          "name": "_eventId",
          "type": "uint256"
        },
        {
          "internalType": "string",
          "name": "_option",
          "type": "string"
        }
      ],
      "name": "placeBet",
      "outputs": [],
      "stateMutability": "payable",
      "type": "function"
    },
    {
      "inputs": [
        {
          "internalType": "uint256",
          "name": "_eventId",
          "type": "uint256"
        },
        {
          "internalType": "string",
          "name": "_winningOption",
          "type": "string"
        }
      ],
      "name": "declareWinner",
      "outputs": [],
      "stateMutability": "nonpayable",
      "type": "function"
    },
    {
      "inputs": [
        {
          "internalType": "uint256",
          "name": "_eventId",
          "type": "uint256"
        }
      ],
      "name": "getEvent",
      "outputs": [
        {
          "internalType": "uint256",
          "name": "id",
          "type": "uint256"
        },
        {
          "internalType": "string",
          "name": "name",
          "type": "string"
        },
        {
          "internalType": "string",
          "name": "description",
          "type": "string"
        },
        {
          "internalType": "string",
          "name": "imageURL",
          "type": "string"
        },
        {
          "internalType": "string[]",
          "name": "options",
          "type": "string[]"
        },
        {
          "internalType": "uint256",
          "name": "startTime",
          "type": "uint256"
        },
        {
          "internalType": "uint256",
          "name": "endTime",
          "type": "uint256"
        },
        {
          "internalType": "bool",
          "name": "isCompleted",
          "type": "bool"
        },
        {
          "internalType": "string",
          "name": "winningOption",
          "type": "string"
        },
        {
          "internalType": "uint256",
          "name": "prizePool",
          "type": "uint256"
        }
      ],
      "stateMutability": "view",
      "type": "function"
    },
    {
      "inputs": [
        {
          "internalType": "uint256",
          "name": "_eventId",
          "type": "uint256"
        }
      ],
      "name": "getEventOptions",
      "outputs": [
        {
          "internalType": "string[]",
          "name": "",
          "type": "string[]"
        }
      ],
      "stateMutability": "view",
      "type": "function"
    }
  ],
  "bytecode": "0x608060405234801561001057600080fd5b5033600260006101000a81548173ffffffffffffffffffffffffffffffffffffffff021916908373ffffffffffffffffffffffffffffffffffffffff160217905550612805806100616000396000f3fe60806040526004361061007b5760003560e01c80635e8af7351161004e5780635e8af735146101545780636d1884e0146101705780639f9d903a146101b6578063f851a440146101e15761007b565b80630ab3f6a8146100805780630b791430146100a95780633801f697146100ee5780635be9cc9c14610117575b600080fd5b34801561008c57600080fd5b506100a760048036038101906100a291906118e6565b61020c565b005b3480156100b557600080fd5b506100d060048036038101906100cb91906119cf565b61046a565b6040516100e5999897969594939291906122fd565b60405180910390f35b3480156100fa57600080fd5b50610115600480360381019061011091906119f8565b6106e5565b005b34801561012357600080fd5b5061013e600480360381019061013991906119cf565b610d7f565b60405161014b9190612005565b60405180910390f35b61016e600480360381019061016991906119f8565b610eb3565b005b34801561017c57600080fd5b50610197600480360381019061019291906119cf565b611283565b6040516101ad9a9998979695949392919061223e565b60405180910390f35b3480156101c257600080fd5b506101cb61164f565b6040516101d891906121a7565b60405180910390f35b3480156101ed57600080fd5b506101f6611655565b6040516102039190611fea565b60405180910390f35b600260009054906101000a900473ffffffffffffffffffffffffffffffffffffffff1673ffffffffffffffffffffffffffffffffffffffff163373ffffffffffffffffffffffffffffffffffffffff161461029c576040517f08c379a000000000000000000000000000000000000000000000000000000000815260040161029390612107565b60405180910390fd5b8082106102de576040517f08c379a00000000000000000000000000000000000000000000000000000000081526004016102d590612047565b60405180910390fd5b6001835111610322576040517f08c379a000000000000000000000000000000000000000000000000000000000815260040161031990612087565b60405180910390fd5b60008060006001548152602001908152602001600020905060015481600001819055508681600101908051906020019061035d92919061167b565b508581600201908051906020019061037692919061167b565b508481600301908051906020019061038f92919061167b565b50838160040190805190602001906103a8929190611701565b5082816005018190555081816006018190555060008160070160006101000a81548160ff021916908315150217905550604051806020016040528060008152508160080190805190602001906103ff92919061167b565b50600081600901819055507f42e6867e52299b45991308391cccb9ee79466d194059ff10fc15c2d88f0ea06160015488858560405161044194939291906123a6565b60405180910390a16001600081548092919061045c906126a2565b919050555050505050505050565b600060205280600052604060002060009150905080600001549080600101805461049390612670565b80601f01602080910402602001604051908101604052809291908181526020018280546104bf90612670565b801561050c5780601f106104e15761010080835404028352916020019161050c565b820191906000526020600020905b8154815290600101906020018083116104ef57829003601f168201915b50505050509080600201805461052190612670565b80601f016020809104026020016040519081016040528092919081815260200182805461054d90612670565b801561059a5780601f1061056f5761010080835404028352916020019161059a565b820191906000526020600020905b81548152906001019060200180831161057d57829003601f168201915b5050505050908060030180546105af90612670565b80601f01602080910402602001604051908101604052809291908181526020018280546105db90612670565b80156106285780601f106105fd57610100808354040283529160200191610628565b820191906000526020600020905b81548152906001019060200180831161060b57829003601f168201915b5050505050908060050154908060060154908060070160009054906101000a900460ff169080600801805461065c90612670565b80601f016020809104026020016040519081016040528092919081815260200182805461068890612670565b80156106d55780601f106106aa576101008083540402835291602001916106d5565b820191906000526020600020905b8154815290600101906020018083116106b857829003601f168201915b5050505050908060090154905089565b600260009054906101000a900473ffffffffffffffffffffffffffffffffffffffff1673ffffffffffffffffffffffffffffffffffffffff163373ffffffffffffffffffffffffffffffffffffffff1614610775576040517f08c379a000000000000000000000000000000000000000000000000000000000815260040161076c90612107565b60405180910390fd5b8160015481106107ba576040517f08c379a00000000000000000000000000000000000000000000000000000000081526004016107b190612127565b60405180910390fd5b600080600085815260200190815260200160002090508060070160009054906101000a900460ff1615610822576040517f08c379a000000000000000000000000000000000000000000000000000000000815260040161081990612147565b60405180910390fd5b8060060154421015610869576040517f08c379a000000000000000000000000000000000000000000000000000000000815260040161086090612167565b60405180910390fd5b6000805b8260040180549050811015610931578460405160200161088d9190611fbc565b604051602081830303815290604052805190602001208360040182815481106108df577f4e487b7100000000000000000000000000000000000000000000000000000000600052603260045260246000fd5b906000526020600020016040516020016108f99190611fd3565b60405160208183030381529060405280519060200120141561091e5760019150610931565b8080610929906126a2565b91505061086d565b5080610972576040517f08c379a000000000000000000000000000000000000000000000000000000000815260040161096990612067565b60405180910390fd5b8382600801908051906020019061098a92919061167b565b5060018260070160006101000a81548160ff02191690831515021790555060008083600b018054905067ffffffffffffffff8111156109f2577f4e487b7100000000000000000000000000000000000000000000000000000000600052604160045260246000fd5b604051908082528060200260200182016040528015610a205781602001602082028036833780820191505090505b5090506000805b85600b0180549050811015610c2157600086600b018281548110610a74577f4e487b7100000000000000000000000000000000000000000000000000000000600052603260045260246000fd5b9060005260206000200160009054906101000a900473ffffffffffffffffffffffffffffffffffffffff16905088604051602001610ab29190611fbc565b6040516020818303038152906040528051906020012087600a0160008373ffffffffffffffffffffffffffffffffffffffff1673ffffffffffffffffffffffffffffffffffffffff168152602001908152602001600020600001604051602001610b1c9190611fd3565b604051602081830303815290604052805190602001201415610c0d5786600a0160008273ffffffffffffffffffffffffffffffffffffffff1673ffffffffffffffffffffffffffffffffffffffff1681526020019081526020016000206001015485610b889190612505565b945080848481518110610bc4577f4e487b7100000000000000000000000000000000000000000000000000000000600052603260045260246000fd5b602002602001019073ffffffffffffffffffffffffffffffffffffffff16908173ffffffffffffffffffffffffffffffffffffffff16815250508280610c09906126a2565b9350505b508080610c19906126a2565b915050610a27565b506000831115610d3c5760005b81811015610d3a576000838281518110610c71577f4e487b7100000000000000000000000000000000000000000000000000000000600052603260045260246000fd5b60200260200101519050600085886009015489600a0160008573ffffffffffffffffffffffffffffffffffffffff1673ffffffffffffffffffffffffffffffffffffffff16815260200190815260200160002060010154610cd2919061258c565b610cdc919061255b565b90508173ffffffffffffffffffffffffffffffffffffffff166108fc829081150290604051600060405180830381858888f19350505050158015610d24573d6000803e3d6000fd5b5050508080610d32906126a2565b915050610c2e565b505b7f174d40141d388f930fca11a3c885eba334def4ea654c9b34dbe4c549f3af5a3d8888604051610d6d92919061220e565b60405180910390a15050505050505050565b6060816001548110610dc6576040517f08c379a0000000000000000000000000000000000000000000000000000000008152600401610dbd90612127565b60405180910390fd5b600080848152602001908152602001600020600401805480602002602001604051908101604052809291908181526020016000905b82821015610ea7578382906000526020600020018054610e1a90612670565b80601f0160208091040260200160405190810160405280929190818152602001828054610e4690612670565b8015610e935780601f10610e6857610100808354040283529160200191610e93565b820191906000526020600020905b815481529060010190602001808311610e7657829003601f168201915b505050505081526020019060010190610dfb565b50505050915050919050565b816001548110610ef8576040517f08c379a0000000000000000000000000000000000000000000000000000000008152600401610eef90612127565b60405180910390fd5b600080600085815260200190815260200160002090508060050154421015610f55576040517f08c379a0000000000000000000000000000000000000000000000000000000008152600401610f4c90612027565b60405180910390fd5b8060060154421115610f9c576040517f08c379a0000000000000000000000000000000000000000000000000000000008152600401610f93906120c7565b60405180910390fd5b60003411610fdf576040517f08c379a0000000000000000000000000000000000000000000000000000000008152600401610fd6906120a7565b60405180910390fd5b6000805b82600401805490508110156110a757846040516020016110039190611fbc565b60405160208183030381529060405280519060200120836004018281548110611055577f4e487b7100000000000000000000000000000000000000000000000000000000600052603260045260246000fd5b9060005260206000200160405160200161106f9190611fd3565b60405160208183030381529060405280519060200120141561109457600191506110a7565b808061109f906126a2565b915050610fe3565b50806110e8576040517f08c379a00000000000000000000000000000000000000000000000000000000081526004016110df90612187565b60405180910390fd5b600082600a0160003373ffffffffffffffffffffffffffffffffffffffff1673ffffffffffffffffffffffffffffffffffffffff16815260200190815260200160002090508060020160009054906101000a900460ff161561117f576040517f08c379a0000000000000000000000000000000000000000000000000000000008152600401611176906120e7565b60405180910390fd5b8481600001908051906020019061119792919061167b565b5034816001018190555060018160020160006101000a81548160ff02191690831515021790555082600b01339080600181540180825580915050600190039060005260206000200160009091909190916101000a81548173ffffffffffffffffffffffffffffffffffffffff021916908373ffffffffffffffffffffffffffffffffffffffff160217905550348360090160008282546112379190612505565b925050819055507f3a5b25f48e15ab3e4d810304ed7368c35de823921fa3fd504ba8ab2841bf1ad78633348860405161127394939291906121c2565b60405180910390a1505050505050565b60006060806060806000806000606060008a60015481106112d9576040517f08c379a00000000000000000000000000000000000000000000000000000000081526004016112d090612127565b60405180910390fd5b60008060008e81526020019081526020016000209050806000015481600101826002018360030184600401856005015486600601548760070160009054906101000a900460ff1688600801896009015488805461133590612670565b80601f016020809104026020016040519081016040528092919081815260200182805461136190612670565b80156113ae5780601f10611383576101008083540402835291602001916113ae565b820191906000526020600020905b81548152906001019060200180831161139157829003601f168201915b505050505098508780546113c190612670565b80601f01602080910402602001604051908101604052809291908181526020018280546113ed90612670565b801561143a5780601f1061140f5761010080835404028352916020019161143a565b820191906000526020600020905b81548152906001019060200180831161141d57829003601f168201915b5050505050975086805461144d90612670565b80601f016020809104026020016040519081016040528092919081815260200182805461147990612670565b80156114c65780601f1061149b576101008083540402835291602001916114c6565b820191906000526020600020905b8154815290600101906020018083116114a957829003601f168201915b5050505050965085805480602002602001604051908101604052809291908181526020016000905b8282101561159a57838290600052602060002001805461150d90612670565b80601f016020809104026020016040519081016040528092919081815260200182805461153990612670565b80156115865780601f1061155b57610100808354040283529160200191611586565b820191906000526020600020905b81548152906001019060200180831161156957829003601f168201915b5050505050815260200190600101906114ee565b5050505095508180546115ac90612670565b80601f01602080910402602001604051908101604052809291908181526020018280546115d890612670565b80156116255780601f106115fa57610100808354040283529160200191611625565b820191906000526020600020905b81548152906001019060200180831161160857829003601f168201915b505050505091509b509b509b509b509b509b509b509b509b509b5050509193959799509193959799565b60015481565b600260009054906101000a900473ffffffffffffffffffffffffffffffffffffffff1681565b82805461168790612670565b90600052602060002090601f0160209004810192826116a957600085556116f0565b82601f106116c257805160ff19168380011785556116f0565b828001600101855582156116f0579182015b828111156116ef5782518255916020019190600101906116d4565b5b5090506116fd9190611761565b5090565b828054828255906000526020600020908101928215611750579160200282015b8281111561174f57825182908051906020019061173f92919061167b565b5091602001919060010190611721565b5b50905061175d919061177e565b5090565b5b8082111561177a576000816000905550600101611762565b5090565b5b8082111561179e576000818161179591906117a2565b5060010161177f565b5090565b5080546117ae90612670565b6000825580601f106117c057506117df565b601f0160209004906000526020600020908101906117de9190611761565b5b50565b60006117f56117f084612423565b6123f2565b9050808382526020820190508260005b85811015611835578135850161181b88826118a7565b845260208401935060208301925050600181019050611805565b5050509392505050565b600061185261184d8461244f565b6123f2565b90508281526020810184848401111561186a57600080fd5b61187584828561262e565b509392505050565b600082601f83011261188e57600080fd5b813561189e8482602086016117e2565b91505092915050565b600082601f8301126118b857600080fd5b81356118c884826020860161183f565b91505092915050565b6000813590506118e0816127b8565b92915050565b60008060008060008060c087890312156118ff57600080fd5b600087013567ffffffffffffffff81111561191957600080fd5b61192589828a016118a7565b965050602087013567ffffffffffffffff81111561194257600080fd5b61194e89828a016118a7565b955050604087013567ffffffffffffffff81111561196b57600080fd5b61197789828a016118a7565b945050606087013567ffffffffffffffff81111561199457600080fd5b6119a089828a0161187d565b93505060806119b189828a016118d1565b92505060a06119c289828a016118d1565b9150509295509295509295565b6000602082840312156119e157600080fd5b60006119ef848285016118d1565b91505092915050565b60008060408385031215611a0b57600080fd5b6000611a19858286016118d1565b925050602083013567ffffffffffffffff811115611a3657600080fd5b611a42858286016118a7565b9150509250929050565b6000611a588383611af3565b905092915050565b611a69816125e6565b82525050565b6000611a7a826124a4565b611a8481856124c7565b935083602082028501611a968561247f565b8060005b85811015611ad25784840389528151611ab38582611a4c565b9450611abe836124ba565b925060208a01995050600181019050611a9a565b50829750879550505050505092915050565b611aed816125f8565b82525050565b6000611afe826124af565b611b0881856124d8565b9350611b1881856020860161263d565b611b21816127a7565b840191505092915050565b6000611b37826124af565b611b4181856124e9565b9350611b5181856020860161263d565b611b5a816127a7565b840191505092915050565b6000611b70826124af565b611b7a81856124fa565b9350611b8a81856020860161263d565b80840191505092915050565b60008154611ba381612670565b611bad81866124fa565b94506001821660008114611bc85760018114611bd957611c0c565b60ff19831686528186019350611c0c565b611be28561248f565b60005b83811015611c0457815481890152600182019150602081019050611be5565b838801955050505b50505092915050565b6000611c226019836124e9565b91507f4576656e7420686173206e6f74207374617274656420796574000000000000006000830152602082019050919050565b6000611c626022836124e9565b91507f53746172742074696d65206d757374206265206265666f726520656e6420746960008301527f6d650000000000000000000000000000000000000000000000000000000000006020830152604082019050919050565b6000611cc8600e836124e9565b91507f496e76616c6964206f7074696f6e0000000000000000000000000000000000006000830152602082019050919050565b6000611d08602a836124e9565b91507f5468657265206d757374206265206174206c656173742074776f20626574746960008301527f6e67206f7074696f6e73000000000000000000000000000000000000000000006020830152604082019050919050565b6000611d6e6021836124e9565b91507f42657420616d6f756e74206d7573742062652067726561746572207468616e2060008301527f30000000000000000000000000000000000000000000000000000000000000006020830152604082019050919050565b6000611dd4600f836124e9565b91507f4576656e742068617320656e64656400000000000000000000000000000000006000830152602082019050919050565b6000611e14601d836124e9565b91507f596f75206861766520616c726561647920706c616365642061206265740000006000830152602082019050919050565b6000611e546022836124e9565b91507f4f6e6c792061646d696e2063616e20706572666f726d2074686973206163746960008301527f6f6e0000000000000000000000000000000000000000000000000000000000006020830152604082019050919050565b6000611eba6014836124e9565b91507f4576656e7420646f6573206e6f742065786973740000000000000000000000006000830152602082019050919050565b6000611efa6017836124e9565b91507f4576656e7420616c726561647920636f6d706c657465640000000000000000006000830152602082019050919050565b6000611f3a6013836124e9565b91507f4576656e74206e6f7420656e64656420796574000000000000000000000000006000830152602082019050919050565b6000611f7a6016836124e9565b91507f496e76616c69642062657474696e67206f7074696f6e000000000000000000006000830152602082019050919050565b611fb681612624565b82525050565b6000611fc88284611b65565b915081905092915050565b6000611fdf8284611b96565b915081905092915050565b6000602082019050611fff6000830184611a60565b92915050565b6000602082019050818103600083015261201f8184611a6f565b905092915050565b6000602082019050818103600083015261204081611c15565b9050919050565b6000602082019050818103600083015261206081611c55565b9050919050565b6000602082019050818103600083015261208081611cbb565b9050919050565b600060208201905081810360008301526120a081611cfb565b9050919050565b600060208201905081810360008301526120c081611d61565b9050919050565b600060208201905081810360008301526120e081611dc7565b9050919050565b6000602082019050818103600083015261210081611e07565b9050919050565b6000602082019050818103600083015261212081611e47565b9050919050565b6000602082019050818103600083015261214081611ead565b9050919050565b6000602082019050818103600083015261216081611eed565b9050919050565b6000602082019050818103600083015261218081611f2d565b9050919050565b600060208201905081810360008301526121a081611f6d565b9050919050565b60006020820190506121bc6000830184611fad565b92915050565b60006080820190506121d76000830187611fad565b6121e46020830186611a60565b6121f16040830185611fad565b81810360608301526122038184611b2c565b905095945050505050565b60006040820190506122236000830185611fad565b81810360208301526122358184611b2c565b90509392505050565b600061014082019050612254600083018d611fad565b8181036020830152612266818c611b2c565b9050818103604083015261227a818b611b2c565b9050818103606083015261228e818a611b2c565b905081810360808301526122a28189611a6f565b90506122b160a0830188611fad565b6122be60c0830187611fad565b6122cb60e0830186611ae4565b8181036101008301526122de8185611b2c565b90506122ee610120830184611fad565b9b9a5050505050505050505050565b600061012082019050612313600083018c611fad565b8181036020830152612325818b611b2c565b90508181036040830152612339818a611b2c565b9050818103606083015261234d8189611b2c565b905061235c6080830188611fad565b61236960a0830187611fad565b61237660c0830186611ae4565b81810360e08301526123888185611b2c565b9050612398610100830184611fad565b9a9950505050505050505050565b60006080820190506123bb6000830187611fad565b81810360208301526123cd8186611b2c565b90506123dc6040830185611fad565b6123e96060830184611fad565b95945050505050565b6000604051905081810181811067ffffffffffffffff8211171561241957612418612778565b5b8060405250919050565b600067ffffffffffffffff82111561243e5761243d612778565b5b602082029050602081019050919050565b600067ffffffffffffffff82111561246a57612469612778565b5b601f19601f8301169050602081019050919050565b6000819050602082019050919050565b60008190508160005260206000209050919050565b600081519050919050565b600081519050919050565b6000602082019050919050565b600082825260208201905092915050565b600082825260208201905092915050565b600082825260208201905092915050565b600081905092915050565b600061251082612624565b915061251b83612624565b9250827fffffffffffffffffffffffffffffffffffffffffffffffffffffffffffffffff038211156125505761254f6126eb565b5b828201905092915050565b600061256682612624565b915061257183612624565b9250826125815761258061271a565b5b828204905092915050565b600061259782612624565b91506125a283612624565b9250817fffffffffffffffffffffffffffffffffffffffffffffffffffffffffffffffff04831182151516156125db576125da6126eb565b5b828202905092915050565b60006125f182612604565b9050919050565b60008115159050919050565b600073ffffffffffffffffffffffffffffffffffffffff82169050919050565b6000819050919050565b82818337600083830152505050565b60005b8381101561265b578082015181840152602081019050612640565b8381111561266a576000848401525b50505050565b6000600282049050600182168061268857607f821691505b6020821081141561269c5761269b612749565b5b50919050565b60006126ad82612624565b91507fffffffffffffffffffffffffffffffffffffffffffffffffffffffffffffffff8214156126e0576126df6126eb565b5b600182019050919050565b7f4e487b7100000000000000000000000000000000000000000000000000000000600052601160045260246000fd5b7f4e487b7100000000000000000000000000000000000000000000000000000000600052601260045260246000fd5b7f4e487b7100000000000000000000000000000000000000000000000000000000600052602260045260246000fd5b7f4e487b7100000000000000000000000000000000000000000000000000000000600052604160045260246000fd5b6000601f19601f8301169050919050565b6127c181612624565b81146127cc57600080fd5b5056fea264697066735822122062cc8bd6f1b655c8f42839dbb4236b610ae972e0214d40ce6ff68147ef27e64364736f6c63430008000033",
  "immutableReferences": {},
  "source": "// SPDX-License-Identifier: MIT\r\npragma solidity ^0.8.0;\r\n\r\ncontract BettingEvents {\r\n    struct BetEvent {\r\n        uint256 id;\r\n        string name;\r\n        string description;\r\n        string imageURL;\r\n        string[] options;\r\n        uint256 startTime;\r\n        uint256 endTime;\r\n        bool isCompleted;\r\n        string winningOption;\r\n        uint256 prizePool;\r\n        mapping(address => Bet) bets;\r\n        address[] bettors;\r\n    }\r\n\r\n    struct Bet {\r\n        string option;\r\n        uint256 amount;\r\n        bool exists;\r\n    }\r\n\r\n    mapping(uint256 => BetEvent) public events;\r\n    uint256 public nextEventId;\r\n    address public admin;\r\n\r\n    event EventCreated(\r\n        uint256 id,\r\n        string name,\r\n        uint256 startTime,\r\n        uint256 endTime\r\n    );\r\n    event BetPlaced(\r\n        uint256 eventId,\r\n        address bettor,\r\n        uint256 amount,\r\n        string option\r\n    );\r\n    event WinnerDeclared(uint256 eventId, string winningOption);\r\n\r\n    modifier onlyAdmin() {\r\n        require(msg.sender == admin, \"Only admin can perform this action\");\r\n        _;\r\n    }\r\n\r\n    modifier eventExists(uint256 _eventId) {\r\n        require(_eventId < nextEventId, \"Event does not exist\");\r\n        _;\r\n    }\r\n\r\n    constructor() {\r\n        admin = msg.sender;\r\n    }\r\n\r\n    function createEvent(\r\n        string memory _name,\r\n        string memory _description,\r\n        string memory _imageURL,\r\n        string[] memory _options,\r\n        uint256 _startTime,\r\n        uint256 _endTime\r\n    ) external onlyAdmin {\r\n        require(_startTime < _endTime, \"Start time must be before end time\");\r\n        require(\r\n            _options.length > 1,\r\n            \"There must be at least two betting options\"\r\n        );\r\n\r\n        BetEvent storage newEvent = events[nextEventId];\r\n        newEvent.id = nextEventId;\r\n        newEvent.name = _name;\r\n        newEvent.description = _description;\r\n        newEvent.imageURL = _imageURL;\r\n        newEvent.options = _options;\r\n        newEvent.startTime = _startTime;\r\n        newEvent.endTime = _endTime;\r\n        newEvent.isCompleted = false;\r\n        newEvent.winningOption = \"\";\r\n        newEvent.prizePool = 0;\r\n\r\n        emit EventCreated(nextEventId, _name, _startTime, _endTime);\r\n        nextEventId++;\r\n    }\r\n\r\n    function placeBet(\r\n        uint256 _eventId,\r\n        string memory _option\r\n    ) external payable eventExists(_eventId) {\r\n        BetEvent storage betEvent = events[_eventId];\r\n        require(\r\n            block.timestamp >= betEvent.startTime,\r\n            \"Event has not started yet\"\r\n        );\r\n        require(block.timestamp <= betEvent.endTime, \"Event has ended\");\r\n        require(msg.value > 0, \"Bet amount must be greater than 0\");\r\n\r\n        bool validOption = false;\r\n        for (uint256 i = 0; i < betEvent.options.length; i++) {\r\n            if (\r\n                keccak256(abi.encodePacked(betEvent.options[i])) ==\r\n                keccak256(abi.encodePacked(_option))\r\n            ) {\r\n                validOption = true;\r\n                break;\r\n            }\r\n        }\r\n        require(validOption, \"Invalid betting option\");\r\n\r\n        Bet storage userBet = betEvent.bets[msg.sender];\r\n        require(!userBet.exists, \"You have already placed a bet\");\r\n\r\n        userBet.option = _option;\r\n        userBet.amount = msg.value;\r\n        userBet.exists = true;\r\n        betEvent.bettors.push(msg.sender);\r\n        betEvent.prizePool += msg.value;\r\n\r\n        emit BetPlaced(_eventId, msg.sender, msg.value, _option);\r\n    }\r\n\r\n    function declareWinner(\r\n        uint256 _eventId,\r\n        string memory _winningOption\r\n    ) external onlyAdmin eventExists(_eventId) {\r\n        BetEvent storage betEvent = events[_eventId];\r\n        require(!betEvent.isCompleted, \"Event already completed\");\r\n        require(block.timestamp >= betEvent.endTime, \"Event not ended yet\");\r\n\r\n        bool validOption = false;\r\n        for (uint256 i = 0; i < betEvent.options.length; i++) {\r\n            if (\r\n                keccak256(abi.encodePacked(betEvent.options[i])) ==\r\n                keccak256(abi.encodePacked(_winningOption))\r\n            ) {\r\n                validOption = true;\r\n                break;\r\n            }\r\n        }\r\n        require(validOption, \"Invalid option\");\r\n\r\n        betEvent.winningOption = _winningOption;\r\n        betEvent.isCompleted = true;\r\n\r\n        uint256 totalWinnersBetAmount = 0;\r\n        address payable[] memory winnersPayable = new address payable[](\r\n            betEvent.bettors.length\r\n        );\r\n        uint256 winnersCount = 0;\r\n\r\n        for (uint256 i = 0; i < betEvent.bettors.length; i++) {\r\n            address bettor = betEvent.bettors[i];\r\n            if (\r\n                keccak256(abi.encodePacked(betEvent.bets[bettor].option)) ==\r\n                keccak256(abi.encodePacked(_winningOption))\r\n            ) {\r\n                totalWinnersBetAmount += betEvent.bets[bettor].amount;\r\n                winnersPayable[winnersCount] = payable(bettor);\r\n                winnersCount++;\r\n            }\r\n        }\r\n\r\n        if (totalWinnersBetAmount > 0) {\r\n            for (uint256 i = 0; i < winnersCount; i++) {\r\n                address payable winner = winnersPayable[i];\r\n                uint256 winnerReward = (betEvent.bets[winner].amount *\r\n                    betEvent.prizePool) / totalWinnersBetAmount;\r\n                winner.transfer(winnerReward);\r\n            }\r\n        }\r\n\r\n        emit WinnerDeclared(_eventId, _winningOption);\r\n    }\r\n\r\n    function getEvent(\r\n        uint256 _eventId\r\n    )\r\n        external\r\n        view\r\n        eventExists(_eventId)\r\n        returns (\r\n            uint256 id,\r\n            string memory name,\r\n            string memory description,\r\n            string memory imageURL,\r\n            string[] memory options,\r\n            uint256 startTime,\r\n            uint256 endTime,\r\n            bool isCompleted,\r\n            string memory winningOption,\r\n            uint256 prizePool\r\n        )\r\n    {\r\n        BetEvent storage betEvent = events[_eventId];\r\n        return (\r\n            betEvent.id,\r\n            betEvent.name,\r\n            betEvent.description,\r\n            betEvent.imageURL,\r\n            betEvent.options,\r\n            betEvent.startTime,\r\n            betEvent.endTime,\r\n            betEvent.isCompleted,\r\n            betEvent.winningOption,\r\n            betEvent.prizePool\r\n        );\r\n    }\r\n\r\n    function getEventOptions(\r\n        uint256 _eventId\r\n    ) external view eventExists(_eventId) returns (string[] memory) {\r\n        return events[_eventId].options;\r\n    }\r\n}\r\n",
  "sourcePath": "F:\\Software Project\\New folder\\StakeWise-Blockchain\\contracts\\BettingEvents.sol",
  "compiler": {
    "name": "solc",
    "version": "0.8.0+commit.c7dfd78e.Emscripten.clang"
  },
  "schemaVersion": "3.4.16",
  "updatedAt": "2025-02-17T19:05:06.886Z",
  "devdoc": {
    "kind": "dev",
    "methods": {},
    "version": 1
  },
  "userdoc": {
    "kind": "user",
    "methods": {},
    "version": 1
  }
}