{
  "contractName": "BettingEvents",
  "abi": [
    {
      "inputs": [],
      "stateMutability": "nonpayable",
      "type": "constructor"
    },
    {
      "anonymous": false,
      "inputs": [
        {
          "indexed": false,
          "internalType": "uint256",
          "name": "eventId",
          "type": "uint256"
        },
        {
          "indexed": false,
          "internalType": "address",
          "name": "bettor",
          "type": "address"
        },
        {
          "indexed": false,
          "internalType": "uint256",
          "name": "amount",
          "type": "uint256"
        },
        {
          "indexed": false,
          "internalType": "string",
          "name": "option",
          "type": "string"
        }
      ],
      "name": "BetPlaced",
      "type": "event"
    },
    {
      "anonymous": false,
      "inputs": [
        {
          "indexed": false,
          "internalType": "uint256",
          "name": "eventId",
          "type": "uint256"
        },
        {
          "indexed": false,
          "internalType": "string",
          "name": "name",
          "type": "string"
        },
        {
          "indexed": false,
          "internalType": "uint256",
          "name": "startTime",
          "type": "uint256"
        },
        {
          "indexed": false,
          "internalType": "uint256",
          "name": "endTime",
          "type": "uint256"
        }
      ],
      "name": "EventCreated",
      "type": "event"
    },
    {
      "anonymous": false,
      "inputs": [
        {
          "indexed": false,
          "internalType": "uint256",
          "name": "eventId",
          "type": "uint256"
        },
        {
          "indexed": false,
          "internalType": "string",
          "name": "winningOption",
          "type": "string"
        }
      ],
      "name": "WinnerDeclared",
      "type": "event"
    },
    {
      "inputs": [],
      "name": "admin",
      "outputs": [
        {
          "internalType": "address",
          "name": "",
          "type": "address"
        }
      ],
      "stateMutability": "view",
      "type": "function",
      "constant": true
    },
    {
      "inputs": [
        {
          "internalType": "uint256",
          "name": "",
          "type": "uint256"
        }
      ],
      "name": "events",
      "outputs": [
        {
          "internalType": "uint256",
          "name": "eventId",
          "type": "uint256"
        },
        {
          "internalType": "string",
          "name": "name",
          "type": "string"
        },
        {
          "internalType": "string",
          "name": "description",
          "type": "string"
        },
        {
          "internalType": "string",
          "name": "imageURL",
          "type": "string"
        },
        {
          "internalType": "uint256",
          "name": "startTime",
          "type": "uint256"
        },
        {
          "internalType": "uint256",
          "name": "endTime",
          "type": "uint256"
        },
        {
          "internalType": "bool",
          "name": "isCompleted",
          "type": "bool"
        },
        {
          "internalType": "string",
          "name": "winningOption",
          "type": "string"
        },
        {
          "internalType": "uint256",
          "name": "prizePool",
          "type": "uint256"
        },
        {
          "internalType": "string",
          "name": "rules",
          "type": "string"
        }
      ],
      "stateMutability": "view",
      "type": "function",
      "constant": true
    },
    {
      "inputs": [],
      "name": "nextEventId",
      "outputs": [
        {
          "internalType": "uint256",
          "name": "",
          "type": "uint256"
        }
      ],
      "stateMutability": "view",
      "type": "function",
      "constant": true
    },
    {
      "inputs": [],
      "name": "totalAdminProfit",
      "outputs": [
        {
          "internalType": "uint256",
          "name": "",
          "type": "uint256"
        }
      ],
      "stateMutability": "view",
      "type": "function",
      "constant": true
    },
    {
      "inputs": [
        {
          "internalType": "uint256",
          "name": "_eventId",
          "type": "uint256"
        },
        {
          "internalType": "string",
          "name": "_name",
          "type": "string"
        },
        {
          "internalType": "string",
          "name": "_description",
          "type": "string"
        },
        {
          "internalType": "string",
          "name": "_imageURL",
          "type": "string"
        },
        {
          "internalType": "string[]",
          "name": "_options",
          "type": "string[]"
        },
        {
          "internalType": "uint256",
          "name": "_startTime",
          "type": "uint256"
        },
        {
          "internalType": "uint256",
          "name": "_endTime",
          "type": "uint256"
        },
        {
          "internalType": "string",
          "name": "_rules",
          "type": "string"
        }
      ],
      "name": "createEvent",
      "outputs": [],
      "stateMutability": "nonpayable",
      "type": "function"
    },
    {
      "inputs": [
        {
          "internalType": "uint256",
          "name": "_eventId",
          "type": "uint256"
        },
        {
          "internalType": "string",
          "name": "_option",
          "type": "string"
        }
      ],
      "name": "placeBet",
      "outputs": [],
      "stateMutability": "payable",
      "type": "function",
      "payable": true
    },
    {
      "inputs": [
        {
          "internalType": "uint256",
          "name": "_eventId",
          "type": "uint256"
        },
        {
          "internalType": "string",
          "name": "_winningOption",
          "type": "string"
        }
      ],
      "name": "declareWinner",
      "outputs": [],
      "stateMutability": "nonpayable",
      "type": "function"
    },
    {
      "inputs": [
        {
          "internalType": "uint256",
          "name": "_eventId",
          "type": "uint256"
        }
      ],
      "name": "getEvent",
      "outputs": [
        {
          "internalType": "uint256",
          "name": "eventId",
          "type": "uint256"
        },
        {
          "internalType": "string",
          "name": "name",
          "type": "string"
        },
        {
          "internalType": "string",
          "name": "description",
          "type": "string"
        },
        {
          "internalType": "string",
          "name": "imageURL",
          "type": "string"
        },
        {
          "internalType": "string[]",
          "name": "options",
          "type": "string[]"
        },
        {
          "internalType": "uint256",
          "name": "startTime",
          "type": "uint256"
        },
        {
          "internalType": "uint256",
          "name": "endTime",
          "type": "uint256"
        },
        {
          "internalType": "bool",
          "name": "isCompleted",
          "type": "bool"
        },
        {
          "internalType": "string",
          "name": "winningOption",
          "type": "string"
        },
        {
          "internalType": "uint256",
          "name": "prizePool",
          "type": "uint256"
        },
        {
          "internalType": "string",
          "name": "rules",
          "type": "string"
        }
      ],
      "stateMutability": "view",
      "type": "function",
      "constant": true
    },
    {
      "inputs": [
        {
          "internalType": "uint256",
          "name": "_eventId",
          "type": "uint256"
        }
      ],
      "name": "getEventOptions",
      "outputs": [
        {
          "internalType": "string[]",
          "name": "",
          "type": "string[]"
        }
      ],
      "stateMutability": "view",
      "type": "function",
      "constant": true
    },
    {
      "inputs": [
        {
          "internalType": "uint256",
          "name": "_eventId",
          "type": "uint256"
        }
      ],
      "name": "getEventPrizePool",
      "outputs": [
        {
          "internalType": "uint256",
          "name": "",
          "type": "uint256"
        }
      ],
      "stateMutability": "view",
      "type": "function",
      "constant": true
    },
    {
      "inputs": [
        {
          "internalType": "uint256",
          "name": "_eventId",
          "type": "uint256"
        }
      ],
      "name": "getEventOdds",
      "outputs": [
        {
          "components": [
            {
              "internalType": "string",
              "name": "optionName",
              "type": "string"
            },
            {
              "internalType": "uint256",
              "name": "oddsPercentage",
              "type": "uint256"
            }
          ],
          "internalType": "struct BettingEvents.OptionOdds[]",
          "name": "",
          "type": "tuple[]"
        }
      ],
      "stateMutability": "view",
      "type": "function",
      "constant": true
    },
    {
      "inputs": [],
      "name": "getTotalAdminProfit",
      "outputs": [
        {
          "internalType": "uint256",
          "name": "",
          "type": "uint256"
        }
      ],
      "stateMutability": "view",
      "type": "function",
      "constant": true
    }
  ],
  "bytecode": "0x608060405234801561001057600080fd5b5033600260006101000a81548173ffffffffffffffffffffffffffffffffffffffff021916908373ffffffffffffffffffffffffffffffffffffffff16021790555060006003819055506132aa806100696000396000f3fe6080604052600436106100a75760003560e01c80638ff8550c116100645780638ff8550c146101e457806395db9b0b1461020f5780639f9d903a1461023a578063acc566a514610265578063bb617996146102a2578063f851a440146102df576100a7565b80630b791430146100ac5780633801f697146100f25780635be9cc9c1461011b5780635e8af735146101585780636d1884e0146101745780637653a3c1146101bb575b600080fd5b3480156100b857600080fd5b506100d360048036038101906100ce919061215a565b61030a565b6040516100e99a99989796959493929190612d1f565b60405180910390f35b3480156100fe57600080fd5b5061011960048036038101906101149190612183565b610613565b005b34801561012757600080fd5b50610142600480360381019061013d919061215a565b610d77565b60405161014f91906129cf565b60405180910390f35b610172600480360381019061016d9190612183565b610ec0565b005b34801561018057600080fd5b5061019b6004803603810190610196919061215a565b6112db565b6040516101b29b9a99989796959493929190612c4a565b60405180910390f35b3480156101c757600080fd5b506101e260048036038101906101dd91906121d7565b611752565b005b3480156101f057600080fd5b506101f9611a1d565b6040516102069190612bb3565b60405180910390f35b34801561021b57600080fd5b50610224611a23565b6040516102319190612bb3565b60405180910390f35b34801561024657600080fd5b5061024f611a2d565b60405161025c9190612bb3565b60405180910390f35b34801561027157600080fd5b5061028c6004803603810190610287919061215a565b611a33565b60405161029991906129f1565b60405180910390f35b3480156102ae57600080fd5b506102c960048036038101906102c4919061215a565b611e35565b6040516102d69190612bb3565b60405180910390f35b3480156102eb57600080fd5b506102f4611eaf565b60405161030191906129b4565b60405180910390f35b600060205280600052604060002060009150905080600001549080600101805461033390613115565b80601f016020809104026020016040519081016040528092919081815260200182805461035f90613115565b80156103ac5780601f10610381576101008083540402835291602001916103ac565b820191906000526020600020905b81548152906001019060200180831161038f57829003601f168201915b5050505050908060020180546103c190613115565b80601f01602080910402602001604051908101604052809291908181526020018280546103ed90613115565b801561043a5780601f1061040f5761010080835404028352916020019161043a565b820191906000526020600020905b81548152906001019060200180831161041d57829003601f168201915b50505050509080600301805461044f90613115565b80601f016020809104026020016040519081016040528092919081815260200182805461047b90613115565b80156104c85780601f1061049d576101008083540402835291602001916104c8565b820191906000526020600020905b8154815290600101906020018083116104ab57829003601f168201915b5050505050908060050154908060060154908060070160009054906101000a900460ff16908060080180546104fc90613115565b80601f016020809104026020016040519081016040528092919081815260200182805461052890613115565b80156105755780601f1061054a57610100808354040283529160200191610575565b820191906000526020600020905b81548152906001019060200180831161055857829003601f168201915b50505050509080600901549080600d01805461059090613115565b80601f01602080910402602001604051908101604052809291908181526020018280546105bc90613115565b80156106095780601f106105de57610100808354040283529160200191610609565b820191906000526020600020905b8154815290600101906020018083116105ec57829003601f168201915b505050505090508a565b600260009054906101000a900473ffffffffffffffffffffffffffffffffffffffff1673ffffffffffffffffffffffffffffffffffffffff163373ffffffffffffffffffffffffffffffffffffffff16146106a3576040517f08c379a000000000000000000000000000000000000000000000000000000000815260040161069a90612b13565b60405180910390fd5b8160008060008381526020019081526020016000206000015414156106fd576040517f08c379a00000000000000000000000000000000000000000000000000000000081526004016106f490612b33565b60405180910390fd5b600080600085815260200190815260200160002090508060070160009054906101000a900460ff1615610765576040517f08c379a000000000000000000000000000000000000000000000000000000000815260040161075c90612b53565b60405180910390fd5b80600601544210156107ac576040517f08c379a00000000000000000000000000000000000000000000000000000000081526004016107a390612b73565b60405180910390fd5b6000805b826004018054905081101561087457846040516020016107d09190612986565b60405160208183030381529060405280519060200120836004018281548110610822577f4e487b7100000000000000000000000000000000000000000000000000000000600052603260045260246000fd5b9060005260206000200160405160200161083c919061299d565b6040516020818303038152906040528051906020012014156108615760019150610874565b808061086c90613147565b9150506107b0565b50806108b5576040517f08c379a00000000000000000000000000000000000000000000000000000000081526004016108ac90612a53565b60405180910390fd5b838260080190805190602001906108cd929190611ed5565b5060018260070160006101000a81548160ff02191690831515021790555060008083600b018054905067ffffffffffffffff811115610935577f4e487b7100000000000000000000000000000000000000000000000000000000600052604160045260246000fd5b6040519080825280602002602001820160405280156109635781602001602082028036833780820191505090505b5090506000805b85600b0180549050811015610b6457600086600b0182815481106109b7577f4e487b7100000000000000000000000000000000000000000000000000000000600052603260045260246000fd5b9060005260206000200160009054906101000a900473ffffffffffffffffffffffffffffffffffffffff169050886040516020016109f59190612986565b6040516020818303038152906040528051906020012087600a0160008373ffffffffffffffffffffffffffffffffffffffff1673ffffffffffffffffffffffffffffffffffffffff168152602001908152602001600020600001604051602001610a5f919061299d565b604051602081830303815290604052805190602001201415610b505786600a0160008273ffffffffffffffffffffffffffffffffffffffff1673ffffffffffffffffffffffffffffffffffffffff1681526020019081526020016000206001015485610acb9190612f76565b945080848481518110610b07577f4e487b7100000000000000000000000000000000000000000000000000000000600052603260045260246000fd5b602002602001019073ffffffffffffffffffffffffffffffffffffffff16908173ffffffffffffffffffffffffffffffffffffffff16815250508280610b4c90613147565b9350505b508080610b5c90613147565b91505061096a565b506000606460058760090154610b7a9190612ffd565b610b849190612fcc565b90506000818760090154610b989190613057565b90508160036000828254610bac9190612f76565b92505081905550600260009054906101000a900473ffffffffffffffffffffffffffffffffffffffff1673ffffffffffffffffffffffffffffffffffffffff166108fc839081150290604051600060405180830381858888f19350505050158015610c1b573d6000803e3d6000fd5b506000851115610d325760005b83811015610d30576000858281518110610c6b577f4e487b7100000000000000000000000000000000000000000000000000000000600052603260045260246000fd5b60200260200101519050600087848b600a0160008573ffffffffffffffffffffffffffffffffffffffff1673ffffffffffffffffffffffffffffffffffffffff16815260200190815260200160002060010154610cc89190612ffd565b610cd29190612fcc565b90508173ffffffffffffffffffffffffffffffffffffffff166108fc829081150290604051600060405180830381858888f19350505050158015610d1a573d6000803e3d6000fd5b5050508080610d2890613147565b915050610c28565b505b7f174d40141d388f930fca11a3c885eba334def4ea654c9b34dbe4c549f3af5a3d8a8a604051610d63929190612c1a565b60405180910390a150505050505050505050565b6060816000806000838152602001908152602001600020600001541415610dd3576040517f08c379a0000000000000000000000000000000000000000000000000000000008152600401610dca90612b33565b60405180910390fd5b600080848152602001908152602001600020600401805480602002602001604051908101604052809291908181526020016000905b82821015610eb4578382906000526020600020018054610e2790613115565b80601f0160208091040260200160405190810160405280929190818152602001828054610e5390613115565b8015610ea05780601f10610e7557610100808354040283529160200191610ea0565b820191906000526020600020905b815481529060010190602001808311610e8357829003601f168201915b505050505081526020019060010190610e08565b50505050915050919050565b816000806000838152602001908152602001600020600001541415610f1a576040517f08c379a0000000000000000000000000000000000000000000000000000000008152600401610f1190612b33565b60405180910390fd5b600080600085815260200190815260200160002090508060050154421015610f77576040517f08c379a0000000000000000000000000000000000000000000000000000000008152600401610f6e90612a13565b60405180910390fd5b8060060154421115610fbe576040517f08c379a0000000000000000000000000000000000000000000000000000000008152600401610fb590612ad3565b60405180910390fd5b60003411611001576040517f08c379a0000000000000000000000000000000000000000000000000000000008152600401610ff890612a93565b60405180910390fd5b6000805b82600401805490508110156110c957846040516020016110259190612986565b60405160208183030381529060405280519060200120836004018281548110611077577f4e487b7100000000000000000000000000000000000000000000000000000000600052603260045260246000fd5b90600052602060002001604051602001611091919061299d565b6040516020818303038152906040528051906020012014156110b657600191506110c9565b80806110c190613147565b915050611005565b508061110a576040517f08c379a000000000000000000000000000000000000000000000000000000000815260040161110190612b93565b60405180910390fd5b600082600a0160003373ffffffffffffffffffffffffffffffffffffffff1673ffffffffffffffffffffffffffffffffffffffff16815260200190815260200160002090508060020160009054906101000a900460ff16156111a1576040517f08c379a000000000000000000000000000000000000000000000000000000000815260040161119890612af3565b60405180910390fd5b848160000190805190602001906111b9929190611ed5565b5034816001018190555060018160020160006101000a81548160ff02191690831515021790555082600b01339080600181540180825580915050600190039060005260206000200160009091909190916101000a81548173ffffffffffffffffffffffffffffffffffffffff021916908373ffffffffffffffffffffffffffffffffffffffff160217905550348360090160008282546112599190612f76565b9250508190555082600c01856040516112729190612986565b9081526020016040518091039020600081548092919061129190613147565b91905055507f3a5b25f48e15ab3e4d810304ed7368c35de823921fa3fd504ba8ab2841bf1ad7863334886040516112cb9493929190612bce565b60405180910390a1505050505050565b600060608060608060008060006060600060608b6000806000838152602001908152602001600020600001541415611348576040517f08c379a000000000000000000000000000000000000000000000000000000000815260040161133f90612b33565b60405180910390fd5b60008060008f81526020019081526020016000209050806000015481600101826002018360030184600401856005015486600601548760070160009054906101000a900460ff168860080189600901548a600d018980546113a890613115565b80601f01602080910402602001604051908101604052809291908181526020018280546113d490613115565b80156114215780601f106113f657610100808354040283529160200191611421565b820191906000526020600020905b81548152906001019060200180831161140457829003601f168201915b5050505050995088805461143490613115565b80601f016020809104026020016040519081016040528092919081815260200182805461146090613115565b80156114ad5780601f10611482576101008083540402835291602001916114ad565b820191906000526020600020905b81548152906001019060200180831161149057829003601f168201915b505050505098508780546114c090613115565b80601f01602080910402602001604051908101604052809291908181526020018280546114ec90613115565b80156115395780601f1061150e57610100808354040283529160200191611539565b820191906000526020600020905b81548152906001019060200180831161151c57829003601f168201915b5050505050975086805480602002602001604051908101604052809291908181526020016000905b8282101561160d57838290600052602060002001805461158090613115565b80601f01602080910402602001604051908101604052809291908181526020018280546115ac90613115565b80156115f95780601f106115ce576101008083540402835291602001916115f9565b820191906000526020600020905b8154815290600101906020018083116115dc57829003601f168201915b505050505081526020019060010190611561565b50505050965082805461161f90613115565b80601f016020809104026020016040519081016040528092919081815260200182805461164b90613115565b80156116985780601f1061166d57610100808354040283529160200191611698565b820191906000526020600020905b81548152906001019060200180831161167b57829003601f168201915b505050505092508080546116ab90613115565b80601f01602080910402602001604051908101604052809291908181526020018280546116d790613115565b80156117245780601f106116f957610100808354040283529160200191611724565b820191906000526020600020905b81548152906001019060200180831161170757829003601f168201915b505050505090509c509c509c509c509c509c509c509c509c509c509c50505091939597999b90929496989a50565b600260009054906101000a900473ffffffffffffffffffffffffffffffffffffffff1673ffffffffffffffffffffffffffffffffffffffff163373ffffffffffffffffffffffffffffffffffffffff16146117e2576040517f08c379a00000000000000000000000000000000000000000000000000000000081526004016117d990612b13565b60405180910390fd5b818310611824576040517f08c379a000000000000000000000000000000000000000000000000000000000815260040161181b90612a33565b60405180910390fd5b6001845111611868576040517f08c379a000000000000000000000000000000000000000000000000000000000815260040161185f90612a73565b60405180910390fd5b60008060008a815260200190815260200160002060000154146118c0576040517f08c379a00000000000000000000000000000000000000000000000000000000081526004016118b790612ab3565b60405180910390fd5b60008060008a81526020019081526020016000209050888160000181905550878160010190805190602001906118f7929190611ed5565b5086816002019080519060200190611910929190611ed5565b5085816003019080519060200190611929929190611ed5565b5084816004019080519060200190611942929190611f5b565b5083816005018190555082816006018190555060008160070160006101000a81548160ff02191690831515021790555060405180602001604052806000815250816008019080519060200190611999929190611ed5565b50600081600901819055508181600d0190805190602001906119bc929190611ed5565b507f42e6867e52299b45991308391cccb9ee79466d194059ff10fc15c2d88f0ea061898986866040516119f29493929190612dde565b60405180910390a160016000815480929190611a0d90613147565b9190505550505050505050505050565b60035481565b6000600354905090565b60015481565b6060816000806000838152602001908152602001600020600001541415611a8f576040517f08c379a0000000000000000000000000000000000000000000000000000000008152600401611a8690612b33565b60405180910390fd5b60008060008581526020019081526020016000209050600081600b018054905090506000826004018054905067ffffffffffffffff811115611afa577f4e487b7100000000000000000000000000000000000000000000000000000000600052604160045260246000fd5b604051908082528060200260200182016040528015611b3357816020015b611b20611fbb565b815260200190600190039081611b185790505b5090506000821415611c985760005b8360040180549050811015611c8c576040518060400160405280856004018381548110611b98577f4e487b7100000000000000000000000000000000000000000000000000000000600052603260045260246000fd5b906000526020600020018054611bad90613115565b80601f0160208091040260200160405190810160405280929190818152602001828054611bd990613115565b8015611c265780601f10611bfb57610100808354040283529160200191611c26565b820191906000526020600020905b815481529060010190602001808311611c0957829003601f168201915b505050505081526020016000815250828281518110611c6e577f4e487b7100000000000000000000000000000000000000000000000000000000600052603260045260246000fd5b60200260200101819052508080611c8490613147565b915050611b42565b50809450505050611e2f565b60005b8360040180549050811015611e27576000846004018281548110611ce8577f4e487b7100000000000000000000000000000000000000000000000000000000600052603260045260246000fd5b906000526020600020018054611cfd90613115565b80601f0160208091040260200160405190810160405280929190818152602001828054611d2990613115565b8015611d765780601f10611d4b57610100808354040283529160200191611d76565b820191906000526020600020905b815481529060010190602001808311611d5957829003601f168201915b50505050509050600085600c0182604051611d919190612986565b9081526020016040518091039020549050604051806040016040528083815260200186606484611dc19190612ffd565b611dcb9190612fcc565b815250848481518110611e07577f4e487b7100000000000000000000000000000000000000000000000000000000600052603260045260246000fd5b602002602001018190525050508080611e1f90613147565b915050611c9b565b508094505050505b50919050565b6000816000806000838152602001908152602001600020600001541415611e91576040517f08c379a0000000000000000000000000000000000000000000000000000000008152600401611e8890612b33565b60405180910390fd5b60008084815260200190815260200160002060090154915050919050565b600260009054906101000a900473ffffffffffffffffffffffffffffffffffffffff1681565b828054611ee190613115565b90600052602060002090601f016020900481019282611f035760008555611f4a565b82601f10611f1c57805160ff1916838001178555611f4a565b82800160010185558215611f4a579182015b82811115611f49578251825591602001919060010190611f2e565b5b509050611f579190611fd5565b5090565b828054828255906000526020600020908101928215611faa579160200282015b82811115611fa9578251829080519060200190611f99929190611ed5565b5091602001919060010190611f7b565b5b509050611fb79190611ff2565b5090565b604051806040016040528060608152602001600081525090565b5b80821115611fee576000816000905550600101611fd6565b5090565b5b8082111561201257600081816120099190612016565b50600101611ff3565b5090565b50805461202290613115565b6000825580601f106120345750612053565b601f0160209004906000526020600020908101906120529190611fd5565b5b50565b600061206961206484612e5b565b612e2a565b9050808382526020820190508260005b858110156120a9578135850161208f888261211b565b845260208401935060208301925050600181019050612079565b5050509392505050565b60006120c66120c184612e87565b612e2a565b9050828152602081018484840111156120de57600080fd5b6120e98482856130d3565b509392505050565b600082601f83011261210257600080fd5b8135612112848260208601612056565b91505092915050565b600082601f83011261212c57600080fd5b813561213c8482602086016120b3565b91505092915050565b6000813590506121548161325d565b92915050565b60006020828403121561216c57600080fd5b600061217a84828501612145565b91505092915050565b6000806040838503121561219657600080fd5b60006121a485828601612145565b925050602083013567ffffffffffffffff8111156121c157600080fd5b6121cd8582860161211b565b9150509250929050565b600080600080600080600080610100898b0312156121f457600080fd5b60006122028b828c01612145565b985050602089013567ffffffffffffffff81111561221f57600080fd5b61222b8b828c0161211b565b975050604089013567ffffffffffffffff81111561224857600080fd5b6122548b828c0161211b565b965050606089013567ffffffffffffffff81111561227157600080fd5b61227d8b828c0161211b565b955050608089013567ffffffffffffffff81111561229a57600080fd5b6122a68b828c016120f1565b94505060a06122b78b828c01612145565b93505060c06122c88b828c01612145565b92505060e089013567ffffffffffffffff8111156122e557600080fd5b6122f18b828c0161211b565b9150509295985092959890939650565b600061230d8383612431565b905092915050565b6000612321838361292b565b905092915050565b6123328161308b565b82525050565b600061234382612eec565b61234d8185612f27565b93508360208202850161235f85612eb7565b8060005b8581101561239b578484038952815161237c8582612301565b945061238783612f0d565b925060208a01995050600181019050612363565b50829750879550505050505092915050565b60006123b882612ef7565b6123c28185612f38565b9350836020820285016123d485612ec7565b8060005b8581101561241057848403895281516123f18582612315565b94506123fc83612f1a565b925060208a019950506001810190506123d8565b50829750879550505050505092915050565b61242b8161309d565b82525050565b600061243c82612f02565b6124468185612f49565b93506124568185602086016130e2565b61245f8161324c565b840191505092915050565b600061247582612f02565b61247f8185612f5a565b935061248f8185602086016130e2565b6124988161324c565b840191505092915050565b60006124ae82612f02565b6124b88185612f6b565b93506124c88185602086016130e2565b80840191505092915050565b600081546124e181613115565b6124eb8186612f6b565b9450600182166000811461250657600181146125175761254a565b60ff1983168652818601935061254a565b61252085612ed7565b60005b8381101561254257815481890152600182019150602081019050612523565b838801955050505b50505092915050565b6000612560601983612f5a565b91507f4576656e7420686173206e6f74207374617274656420796574000000000000006000830152602082019050919050565b60006125a0602283612f5a565b91507f53746172742074696d65206d757374206265206265666f726520656e6420746960008301527f6d650000000000000000000000000000000000000000000000000000000000006020830152604082019050919050565b6000612606600e83612f5a565b91507f496e76616c6964206f7074696f6e0000000000000000000000000000000000006000830152602082019050919050565b6000612646602a83612f5a565b91507f5468657265206d757374206265206174206c656173742074776f20626574746960008301527f6e67206f7074696f6e73000000000000000000000000000000000000000000006020830152604082019050919050565b60006126ac602183612f5a565b91507f42657420616d6f756e74206d7573742062652067726561746572207468616e2060008301527f30000000000000000000000000000000000000000000000000000000000000006020830152604082019050919050565b6000612712601783612f5a565b91507f4576656e7420494420616c7265616479206578697374730000000000000000006000830152602082019050919050565b6000612752600f83612f5a565b91507f4576656e742068617320656e64656400000000000000000000000000000000006000830152602082019050919050565b6000612792601d83612f5a565b91507f596f75206861766520616c726561647920706c616365642061206265740000006000830152602082019050919050565b60006127d2602283612f5a565b91507f4f6e6c792061646d696e2063616e20706572666f726d2074686973206163746960008301527f6f6e0000000000000000000000000000000000000000000000000000000000006020830152604082019050919050565b6000612838601483612f5a565b91507f4576656e7420646f6573206e6f742065786973740000000000000000000000006000830152602082019050919050565b6000612878601783612f5a565b91507f4576656e7420616c726561647920636f6d706c657465640000000000000000006000830152602082019050919050565b60006128b8601383612f5a565b91507f4576656e74206e6f7420656e64656420796574000000000000000000000000006000830152602082019050919050565b60006128f8601683612f5a565b91507f496e76616c69642062657474696e67206f7074696f6e000000000000000000006000830152602082019050919050565b600060408301600083015184820360008601526129488282612431565b915050602083015161295d6020860182612968565b508091505092915050565b612971816130c9565b82525050565b612980816130c9565b82525050565b600061299282846124a3565b915081905092915050565b60006129a982846124d4565b915081905092915050565b60006020820190506129c96000830184612329565b92915050565b600060208201905081810360008301526129e98184612338565b905092915050565b60006020820190508181036000830152612a0b81846123ad565b905092915050565b60006020820190508181036000830152612a2c81612553565b9050919050565b60006020820190508181036000830152612a4c81612593565b9050919050565b60006020820190508181036000830152612a6c816125f9565b9050919050565b60006020820190508181036000830152612a8c81612639565b9050919050565b60006020820190508181036000830152612aac8161269f565b9050919050565b60006020820190508181036000830152612acc81612705565b9050919050565b60006020820190508181036000830152612aec81612745565b9050919050565b60006020820190508181036000830152612b0c81612785565b9050919050565b60006020820190508181036000830152612b2c816127c5565b9050919050565b60006020820190508181036000830152612b4c8161282b565b9050919050565b60006020820190508181036000830152612b6c8161286b565b9050919050565b60006020820190508181036000830152612b8c816128ab565b9050919050565b60006020820190508181036000830152612bac816128eb565b9050919050565b6000602082019050612bc86000830184612977565b92915050565b6000608082019050612be36000830187612977565b612bf06020830186612329565b612bfd6040830185612977565b8181036060830152612c0f818461246a565b905095945050505050565b6000604082019050612c2f6000830185612977565b8181036020830152612c41818461246a565b90509392505050565b600061016082019050612c60600083018e612977565b8181036020830152612c72818d61246a565b90508181036040830152612c86818c61246a565b90508181036060830152612c9a818b61246a565b90508181036080830152612cae818a612338565b9050612cbd60a0830189612977565b612cca60c0830188612977565b612cd760e0830187612422565b818103610100830152612cea818661246a565b9050612cfa610120830185612977565b818103610140830152612d0d818461246a565b90509c9b505050505050505050505050565b600061014082019050612d35600083018d612977565b8181036020830152612d47818c61246a565b90508181036040830152612d5b818b61246a565b90508181036060830152612d6f818a61246a565b9050612d7e6080830189612977565b612d8b60a0830188612977565b612d9860c0830187612422565b81810360e0830152612daa818661246a565b9050612dba610100830185612977565b818103610120830152612dcd818461246a565b90509b9a5050505050505050505050565b6000608082019050612df36000830187612977565b8181036020830152612e05818661246a565b9050612e146040830185612977565b612e216060830184612977565b95945050505050565b6000604051905081810181811067ffffffffffffffff82111715612e5157612e5061321d565b5b8060405250919050565b600067ffffffffffffffff821115612e7657612e7561321d565b5b602082029050602081019050919050565b600067ffffffffffffffff821115612ea257612ea161321d565b5b601f19601f8301169050602081019050919050565b6000819050602082019050919050565b6000819050602082019050919050565b60008190508160005260206000209050919050565b600081519050919050565b600081519050919050565b600081519050919050565b6000602082019050919050565b6000602082019050919050565b600082825260208201905092915050565b600082825260208201905092915050565b600082825260208201905092915050565b600082825260208201905092915050565b600081905092915050565b6000612f81826130c9565b9150612f8c836130c9565b9250827fffffffffffffffffffffffffffffffffffffffffffffffffffffffffffffffff03821115612fc157612fc0613190565b5b828201905092915050565b6000612fd7826130c9565b9150612fe2836130c9565b925082612ff257612ff16131bf565b5b828204905092915050565b6000613008826130c9565b9150613013836130c9565b9250817fffffffffffffffffffffffffffffffffffffffffffffffffffffffffffffffff048311821515161561304c5761304b613190565b5b828202905092915050565b6000613062826130c9565b915061306d836130c9565b9250828210156130805761307f613190565b5b828203905092915050565b6000613096826130a9565b9050919050565b60008115159050919050565b600073ffffffffffffffffffffffffffffffffffffffff82169050919050565b6000819050919050565b82818337600083830152505050565b60005b838110156131005780820151818401526020810190506130e5565b8381111561310f576000848401525b50505050565b6000600282049050600182168061312d57607f821691505b60208210811415613141576131406131ee565b5b50919050565b6000613152826130c9565b91507fffffffffffffffffffffffffffffffffffffffffffffffffffffffffffffffff82141561318557613184613190565b5b600182019050919050565b7f4e487b7100000000000000000000000000000000000000000000000000000000600052601160045260246000fd5b7f4e487b7100000000000000000000000000000000000000000000000000000000600052601260045260246000fd5b7f4e487b7100000000000000000000000000000000000000000000000000000000600052602260045260246000fd5b7f4e487b7100000000000000000000000000000000000000000000000000000000600052604160045260246000fd5b6000601f19601f8301169050919050565b613266816130c9565b811461327157600080fd5b5056fea264697066735822122024e053e6bc5543f626baa4cc81c8d43e4927cb90ea27ee28ced656999bd134ac64736f6c63430008000033",
  "immutableReferences": {},
  "source": "// SPDX-License-Identifier: MIT\r\npragma solidity ^0.8.0;\r\n\r\ncontract BettingEvents {\r\n    struct BetEvent {\r\n        uint256 eventId; // Renamed 'id' to 'eventId'\r\n        string name;\r\n        string description;\r\n        string imageURL;\r\n        string[] options;\r\n        uint256 startTime;\r\n        uint256 endTime;\r\n        bool isCompleted;\r\n        string winningOption;\r\n        uint256 prizePool;\r\n        mapping(address => Bet) bets;\r\n        address[] bettors;\r\n        mapping(string => uint256) optionBetCounts; // Track bet counts per option\r\n        string rules; // Added rules field\r\n    }\r\n\r\n    struct Bet {\r\n        string option;\r\n        uint256 amount;\r\n        bool exists;\r\n    }\r\n\r\n    struct OptionOdds {\r\n        string optionName;\r\n        uint256 oddsPercentage;\r\n    }\r\n\r\n    mapping(uint256 => BetEvent) public events;\r\n    uint256 public nextEventId;\r\n    address public admin;\r\n    uint256 public totalAdminProfit; // Added state variable to track total admin profit\r\n\r\n    event EventCreated(\r\n        uint256 eventId, // Event emits eventId, not id\r\n        string name,\r\n        uint256 startTime,\r\n        uint256 endTime\r\n    );\r\n    event BetPlaced(\r\n        uint256 eventId,\r\n        address bettor,\r\n        uint256 amount,\r\n        string option\r\n    );\r\n    event WinnerDeclared(uint256 eventId, string winningOption);\r\n\r\n    modifier onlyAdmin() {\r\n        require(msg.sender == admin, \"Only admin can perform this action\");\r\n        _;\r\n    }\r\n\r\n    modifier eventExists(uint256 _eventId) {\r\n        require(events[_eventId].eventId != 0, \"Event does not exist\"); // Check eventId instead of id\r\n        _;\r\n    }\r\n\r\n    constructor() {\r\n        admin = msg.sender;\r\n        totalAdminProfit = 0; // Initialize total admin profit to 0\r\n    }\r\n\r\n    function createEvent(\r\n        uint256 _eventId, // ADDED _eventId parameter - VERY IMPORTANT\r\n        string memory _name,\r\n        string memory _description,\r\n        string memory _imageURL,\r\n        string[] memory _options,\r\n        uint256 _startTime,\r\n        uint256 _endTime,\r\n        string memory _rules // Added rules parameter\r\n    ) external onlyAdmin {\r\n        require(_startTime < _endTime, \"Start time must be before end time\");\r\n        require(\r\n            _options.length > 1,\r\n            \"There must be at least two betting options\"\r\n        );\r\n        require(events[_eventId].eventId == 0, \"Event ID already exists\"); // Ensure eventId is not already used\r\n\r\n        BetEvent storage newEvent = events[_eventId];\r\n        newEvent.eventId = _eventId; // Use _eventId provided from frontend - VERY IMPORTANT\r\n        newEvent.name = _name;\r\n        newEvent.description = _description;\r\n        newEvent.imageURL = _imageURL;\r\n        newEvent.options = _options;\r\n        newEvent.startTime = _startTime;\r\n        newEvent.endTime = _endTime;\r\n        newEvent.isCompleted = false;\r\n        newEvent.winningOption = \"\";\r\n        newEvent.prizePool = 0;\r\n        newEvent.rules = _rules; // Set rules field\r\n\r\n        emit EventCreated(_eventId, _name, _startTime, _endTime); // Emit eventId - VERY IMPORTANT\r\n        nextEventId++; // Increment nextEventId AFTER using current value\r\n    }\r\n\r\n    function placeBet(\r\n        uint256 _eventId,\r\n        string memory _option\r\n    ) external payable eventExists(_eventId) {\r\n        BetEvent storage betEvent = events[_eventId];\r\n        require(\r\n            block.timestamp >= betEvent.startTime,\r\n            \"Event has not started yet\"\r\n        );\r\n        require(block.timestamp <= betEvent.endTime, \"Event has ended\");\r\n        require(msg.value > 0, \"Bet amount must be greater than 0\");\r\n\r\n        bool validOption = false;\r\n        for (uint256 i = 0; i < betEvent.options.length; i++) {\r\n            if (\r\n                keccak256(abi.encodePacked(betEvent.options[i])) ==\r\n                keccak256(abi.encodePacked(_option))\r\n            ) {\r\n                validOption = true;\r\n                break;\r\n            }\r\n        }\r\n        require(validOption, \"Invalid betting option\");\r\n\r\n        Bet storage userBet = betEvent.bets[msg.sender];\r\n        require(!userBet.exists, \"You have already placed a bet\");\r\n\r\n        userBet.option = _option;\r\n        userBet.amount = msg.value;\r\n        userBet.exists = true;\r\n        betEvent.bettors.push(msg.sender);\r\n        betEvent.prizePool += msg.value;\r\n        betEvent.optionBetCounts[_option]++; // Increment bet count for the option\r\n\r\n        emit BetPlaced(_eventId, msg.sender, msg.value, _option);\r\n    }\r\n\r\n    function declareWinner(\r\n        uint256 _eventId,\r\n        string memory _winningOption\r\n    ) external onlyAdmin eventExists(_eventId) {\r\n        BetEvent storage betEvent = events[_eventId];\r\n        require(!betEvent.isCompleted, \"Event already completed\");\r\n        require(block.timestamp >= betEvent.endTime, \"Event not ended yet\");\r\n\r\n        bool validOption = false;\r\n        for (uint256 i = 0; i < betEvent.options.length; i++) {\r\n            if (\r\n                keccak256(abi.encodePacked(betEvent.options[i])) ==\r\n                keccak256(abi.encodePacked(_winningOption))\r\n            ) {\r\n                validOption = true;\r\n                break;\r\n            }\r\n        }\r\n        require(validOption, \"Invalid option\");\r\n\r\n        betEvent.winningOption = _winningOption;\r\n        betEvent.isCompleted = true;\r\n\r\n        uint256 totalWinnersBetAmount = 0;\r\n        address payable[] memory winnersPayable = new address payable[](\r\n            betEvent.bettors.length\r\n        );\r\n        uint256 winnersCount = 0;\r\n\r\n        for (uint256 i = 0; i < betEvent.bettors.length; i++) {\r\n            address bettor = betEvent.bettors[i];\r\n            if (\r\n                keccak256(abi.encodePacked(betEvent.bets[bettor].option)) ==\r\n                keccak256(abi.encodePacked(_winningOption))\r\n            ) {\r\n                totalWinnersBetAmount += betEvent.bets[bettor].amount;\r\n                winnersPayable[winnersCount] = payable(bettor);\r\n                winnersCount++;\r\n            }\r\n        }\r\n\r\n        // Calculate 5% admin fee\r\n        uint256 adminFee = (betEvent.prizePool * 5) / 100;\r\n        uint256 remainingPrizePool = betEvent.prizePool - adminFee;\r\n\r\n        // Update total admin profit\r\n        totalAdminProfit += adminFee;\r\n\r\n        // Transfer 5% to admin\r\n        payable(admin).transfer(adminFee);\r\n\r\n        if (totalWinnersBetAmount > 0) {\r\n            for (uint256 i = 0; i < winnersCount; i++) {\r\n                address payable winner = winnersPayable[i];\r\n                uint256 winnerReward = (betEvent.bets[winner].amount *\r\n                    remainingPrizePool) / totalWinnersBetAmount;\r\n                winner.transfer(winnerReward);\r\n            }\r\n        }\r\n\r\n        emit WinnerDeclared(_eventId, _winningOption);\r\n    }\r\n\r\n    function getEvent(\r\n        uint256 _eventId\r\n    )\r\n        external\r\n        view\r\n        eventExists(_eventId)\r\n        returns (\r\n            uint256 eventId, // Returns eventId, not id\r\n            string memory name,\r\n            string memory description,\r\n            string memory imageURL,\r\n            string[] memory options,\r\n            uint256 startTime,\r\n            uint256 endTime,\r\n            bool isCompleted,\r\n            string memory winningOption,\r\n            uint256 prizePool,\r\n            string memory rules // Added rules to return data\r\n        )\r\n    {\r\n        BetEvent storage betEvent = events[_eventId];\r\n        return (\r\n            betEvent.eventId, // Returns betEvent.eventId\r\n            betEvent.name,\r\n            betEvent.description,\r\n            betEvent.imageURL,\r\n            betEvent.options,\r\n            betEvent.startTime,\r\n            betEvent.endTime,\r\n            betEvent.isCompleted,\r\n            betEvent.winningOption,\r\n            betEvent.prizePool,\r\n            betEvent.rules // Return rules\r\n        );\r\n    }\r\n\r\n    function getEventOptions(\r\n        uint256 _eventId\r\n    ) external view eventExists(_eventId) returns (string[] memory) {\r\n        return events[_eventId].options;\r\n    }\r\n\r\n    function getEventPrizePool(\r\n        uint256 _eventId\r\n    ) external view eventExists(_eventId) returns (uint256) {\r\n        return events[_eventId].prizePool;\r\n    }\r\n\r\n    function getEventOdds(\r\n        uint256 _eventId\r\n    ) external view eventExists(_eventId) returns (OptionOdds[] memory) {\r\n        BetEvent storage betEvent = events[_eventId];\r\n        uint256 totalBets = betEvent.bettors.length;\r\n        OptionOdds[] memory optionOddsArray = new OptionOdds[](\r\n            betEvent.options.length\r\n        );\r\n\r\n        if (totalBets == 0) {\r\n            for (uint256 i = 0; i < betEvent.options.length; i++) {\r\n                optionOddsArray[i] = OptionOdds({\r\n                    optionName: betEvent.options[i],\r\n                    oddsPercentage: 0\r\n                }); // Default to 0% if no bets yet\r\n            }\r\n            return optionOddsArray;\r\n        }\r\n\r\n        for (uint256 i = 0; i < betEvent.options.length; i++) {\r\n            string memory option = betEvent.options[i];\r\n            uint256 betCount = betEvent.optionBetCounts[option];\r\n            optionOddsArray[i] = OptionOdds({\r\n                optionName: option,\r\n                oddsPercentage: (betCount * 100) / totalBets // Percentage of bets for each option\r\n            });\r\n        }\r\n        return optionOddsArray;\r\n    }\r\n\r\n    function getTotalAdminProfit() external view returns (uint256) {\r\n        return totalAdminProfit;\r\n    }\r\n}\r\n",
  "sourcePath": "F:\\Software Project\\Project Files\\StakeWise-Blockchain\\contracts\\BettingEvents.sol",
  "compiler": {
    "name": "solc",
    "version": "0.8.0+commit.c7dfd78e.Emscripten.clang"
  },
  "schemaVersion": "3.4.16",
  "updatedAt": "2025-03-23T19:34:35.843Z",
  "networkType": "ethereum",
  "devdoc": {
    "kind": "dev",
    "methods": {},
    "version": 1
  },
  "userdoc": {
    "kind": "user",
    "methods": {},
    "version": 1
  }
}