{
  "contractName": "RaffleDraw",
  "abi": [
    {
      "inputs": [],
      "stateMutability": "nonpayable",
      "type": "constructor"
    },
    {
      "anonymous": false,
      "inputs": [
        {
          "indexed": true,
          "internalType": "uint256",
          "name": "raffleId",
          "type": "uint256"
        },
        {
          "indexed": false,
          "internalType": "string",
          "name": "name",
          "type": "string"
        },
        {
          "indexed": false,
          "internalType": "uint256",
          "name": "prizeAmount",
          "type": "uint256"
        },
        {
          "indexed": false,
          "internalType": "uint256",
          "name": "endTime",
          "type": "uint256"
        }
      ],
      "name": "RaffleCreated",
      "type": "event"
    },
    {
      "anonymous": false,
      "inputs": [
        {
          "indexed": true,
          "internalType": "uint256",
          "name": "raffleId",
          "type": "uint256"
        },
        {
          "indexed": false,
          "internalType": "string",
          "name": "name",
          "type": "string"
        },
        {
          "indexed": false,
          "internalType": "uint256",
          "name": "prizeAmountReturned",
          "type": "uint256"
        }
      ],
      "name": "RaffleEnded",
      "type": "event"
    },
    {
      "anonymous": false,
      "inputs": [
        {
          "indexed": true,
          "internalType": "uint256",
          "name": "raffleId",
          "type": "uint256"
        },
        {
          "indexed": true,
          "internalType": "address",
          "name": "buyer",
          "type": "address"
        },
        {
          "indexed": false,
          "internalType": "uint256",
          "name": "quantity",
          "type": "uint256"
        },
        {
          "indexed": false,
          "internalType": "uint256",
          "name": "totalCost",
          "type": "uint256"
        }
      ],
      "name": "TicketPurchased",
      "type": "event"
    },
    {
      "anonymous": false,
      "inputs": [
        {
          "indexed": true,
          "internalType": "uint256",
          "name": "raffleId",
          "type": "uint256"
        },
        {
          "indexed": true,
          "internalType": "address",
          "name": "winner",
          "type": "address"
        },
        {
          "indexed": false,
          "internalType": "uint256",
          "name": "prizeAmount",
          "type": "uint256"
        }
      ],
      "name": "WinnerDrawn",
      "type": "event"
    },
    {
      "inputs": [],
      "name": "admin",
      "outputs": [
        {
          "internalType": "address",
          "name": "",
          "type": "address"
        }
      ],
      "stateMutability": "view",
      "type": "function",
      "constant": true
    },
    {
      "inputs": [],
      "name": "nextRaffleId",
      "outputs": [
        {
          "internalType": "uint256",
          "name": "",
          "type": "uint256"
        }
      ],
      "stateMutability": "view",
      "type": "function",
      "constant": true
    },
    {
      "inputs": [
        {
          "internalType": "uint256",
          "name": "",
          "type": "uint256"
        }
      ],
      "name": "raffleIds",
      "outputs": [
        {
          "internalType": "uint256",
          "name": "",
          "type": "uint256"
        }
      ],
      "stateMutability": "view",
      "type": "function",
      "constant": true
    },
    {
      "inputs": [
        {
          "internalType": "uint256",
          "name": "",
          "type": "uint256"
        }
      ],
      "name": "raffles",
      "outputs": [
        {
          "internalType": "uint256",
          "name": "raffleId",
          "type": "uint256"
        },
        {
          "internalType": "string",
          "name": "name",
          "type": "string"
        },
        {
          "internalType": "string",
          "name": "imageURL",
          "type": "string"
        },
        {
          "internalType": "string",
          "name": "category",
          "type": "string"
        },
        {
          "internalType": "uint256",
          "name": "startTime",
          "type": "uint256"
        },
        {
          "internalType": "uint256",
          "name": "endTime",
          "type": "uint256"
        },
        {
          "internalType": "uint256",
          "name": "ticketPrice",
          "type": "uint256"
        },
        {
          "internalType": "uint256",
          "name": "prizeAmount",
          "type": "uint256"
        },
        {
          "internalType": "bool",
          "name": "isCompleted",
          "type": "bool"
        },
        {
          "internalType": "address",
          "name": "winner",
          "type": "address"
        },
        {
          "internalType": "uint256",
          "name": "totalTicketsSold",
          "type": "uint256"
        }
      ],
      "stateMutability": "view",
      "type": "function",
      "constant": true
    },
    {
      "inputs": [
        {
          "internalType": "string",
          "name": "_name",
          "type": "string"
        },
        {
          "internalType": "string",
          "name": "_imageURL",
          "type": "string"
        },
        {
          "internalType": "string",
          "name": "_category",
          "type": "string"
        },
        {
          "internalType": "uint256",
          "name": "_startTime",
          "type": "uint256"
        },
        {
          "internalType": "uint256",
          "name": "_endTime",
          "type": "uint256"
        },
        {
          "internalType": "uint256",
          "name": "_ticketPrice",
          "type": "uint256"
        },
        {
          "internalType": "uint256",
          "name": "_prizeAmount",
          "type": "uint256"
        }
      ],
      "name": "createRaffle",
      "outputs": [],
      "stateMutability": "payable",
      "type": "function",
      "payable": true
    },
    {
      "inputs": [
        {
          "internalType": "uint256",
          "name": "_raffleId",
          "type": "uint256"
        },
        {
          "internalType": "uint256",
          "name": "_quantity",
          "type": "uint256"
        }
      ],
      "name": "buyTickets",
      "outputs": [],
      "stateMutability": "payable",
      "type": "function",
      "payable": true
    },
    {
      "inputs": [
        {
          "internalType": "uint256",
          "name": "_raffleId",
          "type": "uint256"
        }
      ],
      "name": "drawWinner",
      "outputs": [],
      "stateMutability": "nonpayable",
      "type": "function"
    },
    {
      "inputs": [
        {
          "internalType": "uint256",
          "name": "_raffleId",
          "type": "uint256"
        }
      ],
      "name": "endRaffle",
      "outputs": [],
      "stateMutability": "nonpayable",
      "type": "function"
    },
    {
      "inputs": [
        {
          "internalType": "uint256",
          "name": "_raffleId",
          "type": "uint256"
        }
      ],
      "name": "getRaffle",
      "outputs": [
        {
          "components": [
            {
              "internalType": "uint256",
              "name": "raffleId",
              "type": "uint256"
            },
            {
              "internalType": "string",
              "name": "name",
              "type": "string"
            },
            {
              "internalType": "string",
              "name": "imageURL",
              "type": "string"
            },
            {
              "internalType": "string",
              "name": "category",
              "type": "string"
            },
            {
              "internalType": "uint256",
              "name": "startTime",
              "type": "uint256"
            },
            {
              "internalType": "uint256",
              "name": "endTime",
              "type": "uint256"
            },
            {
              "internalType": "uint256",
              "name": "ticketPrice",
              "type": "uint256"
            },
            {
              "internalType": "uint256",
              "name": "prizeAmount",
              "type": "uint256"
            },
            {
              "internalType": "bool",
              "name": "isCompleted",
              "type": "bool"
            },
            {
              "internalType": "address",
              "name": "winner",
              "type": "address"
            },
            {
              "internalType": "uint256",
              "name": "totalTicketsSold",
              "type": "uint256"
            }
          ],
          "internalType": "struct RaffleDraw.RaffleView",
          "name": "",
          "type": "tuple"
        }
      ],
      "stateMutability": "view",
      "type": "function",
      "constant": true
    },
    {
      "inputs": [],
      "name": "getAllRaffleIds",
      "outputs": [
        {
          "internalType": "uint256[]",
          "name": "",
          "type": "uint256[]"
        }
      ],
      "stateMutability": "view",
      "type": "function",
      "constant": true
    },
    {
      "inputs": [
        {
          "internalType": "uint256",
          "name": "_raffleId",
          "type": "uint256"
        },
        {
          "internalType": "address",
          "name": "_user",
          "type": "address"
        }
      ],
      "name": "getUserTicketCount",
      "outputs": [
        {
          "internalType": "uint256",
          "name": "",
          "type": "uint256"
        }
      ],
      "stateMutability": "view",
      "type": "function",
      "constant": true
    }
  ],
  "bytecode": "0x608060405234801561001057600080fd5b50336000806101000a81548173ffffffffffffffffffffffffffffffffffffffff021916908373ffffffffffffffffffffffffffffffffffffffff16021790555060018081905550612d0e806100676000396000f3fe60806040526004361061009c5760003560e01c806383ab96f01161006457806383ab96f0146101955780638458e3e4146101d25780638627df46146101fd5780639def429d14610219578063e4dafec914610242578063f851a4401461027f5761009c565b80632273f76d146100a1578063227f337c146100cc5780635d4bc0ce146100e857806360b2a56a1461012f5780637ee41f7314610158575b600080fd5b3480156100ad57600080fd5b506100b66102aa565b6040516100c391906124ab565b60405180910390f35b6100e660048036038101906100e1919061197d565b610302565b005b3480156100f457600080fd5b5061010f600480360381019061010a9190611a63565b610630565b6040516101269b9a999897969594939291906127b8565b60405180910390f35b34801561013b57600080fd5b5061015660048036038101906101519190611a63565b61084f565b005b34801561016457600080fd5b5061017f600480360381019061017a9190611a63565b610d09565b60405161018c919061279d565b60405180910390f35b3480156101a157600080fd5b506101bc60048036038101906101b79190611a8c565b610d2d565b6040516101c9919061279d565b60405180910390f35b3480156101de57600080fd5b506101e7610de7565b6040516101f4919061279d565b60405180910390f35b61021760048036038101906102129190611ac8565b610ded565b005b34801561022557600080fd5b50610240600480360381019061023b9190611a63565b611135565b005b34801561024e57600080fd5b5061026960048036038101906102649190611a63565b611491565b604051610276919061277b565b60405180910390f35b34801561028b57600080fd5b50610294611769565b6040516102a19190612490565b60405180910390f35b606060038054806020026020016040519081016040528092919081815260200182805480156102f857602002820191906000526020600020905b8154815260200190600101908083116102e4575b5050505050905090565b60008054906101000a900473ffffffffffffffffffffffffffffffffffffffff1673ffffffffffffffffffffffffffffffffffffffff163373ffffffffffffffffffffffffffffffffffffffff1614610390576040517f08c379a00000000000000000000000000000000000000000000000000000000081526004016103879061269b565b60405180910390fd5b8284106103d2576040517f08c379a00000000000000000000000000000000000000000000000000000000081526004016103c9906125bb565b60405180910390fd5b60008211610415576040517f08c379a000000000000000000000000000000000000000000000000000000000815260040161040c906126fb565b60405180910390fd5b60008111610458576040517f08c379a000000000000000000000000000000000000000000000000000000000815260040161044f9061261b565b60405180910390fd5b80341461049a576040517f08c379a00000000000000000000000000000000000000000000000000000000081526004016104919061259b565b60405180910390fd5b60006001549050806002600083815260200190815260200160002060000181905550876002600083815260200190815260200160002060010190805190602001906104e69291906117d6565b50866002600083815260200190815260200160002060020190805190602001906105119291906117d6565b508560026000838152602001908152602001600020600301908051906020019061053c9291906117d6565b508460026000838152602001908152602001600020600401819055508360026000838152602001908152602001600020600501819055508260026000838152602001908152602001600020600601819055508160026000838152602001908152602001600020600701819055506003819080600181540180825580915050600190039060005260206000200160009091909190915055600160008154809291906105e590612b28565b9190505550807fa67a3ae202f19c155f33ec43781f888d5b6b6ddf7467ff4893647ece828a26b289848760405161061e939291906124cd565b60405180910390a25050505050505050565b600260205280600052604060002060009150905080600001549080600101805461065990612af6565b80601f016020809104026020016040519081016040528092919081815260200182805461068590612af6565b80156106d25780601f106106a7576101008083540402835291602001916106d2565b820191906000526020600020905b8154815290600101906020018083116106b557829003601f168201915b5050505050908060020180546106e790612af6565b80601f016020809104026020016040519081016040528092919081815260200182805461071390612af6565b80156107605780601f1061073557610100808354040283529160200191610760565b820191906000526020600020905b81548152906001019060200180831161074357829003601f168201915b50505050509080600301805461077590612af6565b80601f01602080910402602001604051908101604052809291908181526020018280546107a190612af6565b80156107ee5780601f106107c3576101008083540402835291602001916107ee565b820191906000526020600020905b8154815290600101906020018083116107d157829003601f168201915b5050505050908060040154908060050154908060060154908060070154908060080160009054906101000a900460ff16908060080160019054906101000a900473ffffffffffffffffffffffffffffffffffffffff1690806009015490508b565b60008054906101000a900473ffffffffffffffffffffffffffffffffffffffff1673ffffffffffffffffffffffffffffffffffffffff163373ffffffffffffffffffffffffffffffffffffffff16146108dd576040517f08c379a00000000000000000000000000000000000000000000000000000000081526004016108d49061269b565b60405180910390fd5b80600060026000838152602001908152602001600020600001541415610938576040517f08c379a000000000000000000000000000000000000000000000000000000000815260040161092f9061257b565b60405180910390fd5b60006002600084815260200190815260200160002090508060050154421015610996576040517f08c379a000000000000000000000000000000000000000000000000000000000815260040161098d906125db565b60405180910390fd5b8060080160009054906101000a900460ff16156109e8576040517f08c379a00000000000000000000000000000000000000000000000000000000081526004016109df9061271b565b60405180910390fd5b600081600a018054905011610a32576040517f08c379a0000000000000000000000000000000000000000000000000000000008152600401610a299061275b565b60405180910390fd5b6000610a4482600a018054905061178d565b9050600082600a018281548110610a84577f4e487b7100000000000000000000000000000000000000000000000000000000600052603260045260246000fd5b9060005260206000200160009054906101000a900473ffffffffffffffffffffffffffffffffffffffff169050808360080160016101000a81548173ffffffffffffffffffffffffffffffffffffffff021916908373ffffffffffffffffffffffffffffffffffffffff16021790555060018360080160006101000a81548160ff02191690831515021790555060008173ffffffffffffffffffffffffffffffffffffffff168460070154604051610b3b9061242d565b60006040518083038185875af1925050503d8060008114610b78576040519150601f19603f3d011682016040523d82523d6000602084013e610b7d565b606091505b5050905080610bc1576040517f08c379a0000000000000000000000000000000000000000000000000000000008152600401610bb89061265b565b60405180910390fd5b6000846007015447610bd39190612a38565b90506000811115610cad5760008060009054906101000a900473ffffffffffffffffffffffffffffffffffffffff1673ffffffffffffffffffffffffffffffffffffffff1682604051610c259061242d565b60006040518083038185875af1925050503d8060008114610c62576040519150601f19603f3d011682016040523d82523d6000602084013e610c67565b606091505b5050905080610cab576040517f08c379a0000000000000000000000000000000000000000000000000000000008152600401610ca29061267b565b60405180910390fd5b505b8273ffffffffffffffffffffffffffffffffffffffff16877f9c1e776cbdf221420917b223eb09503e61c8e990a1c09065cbf15bdff06a555e8760070154604051610cf8919061279d565b60405180910390a350505050505050565b60038181548110610d1957600080fd5b906000526020600020016000915090505481565b600082600060026000838152602001908152602001600020600001541415610d8a576040517f08c379a0000000000000000000000000000000000000000000000000000000008152600401610d819061257b565b60405180910390fd5b60026000858152602001908152602001600020600b0160008473ffffffffffffffffffffffffffffffffffffffff1673ffffffffffffffffffffffffffffffffffffffff1681526020019081526020016000205491505092915050565b60015481565b81600060026000838152602001908152602001600020600001541415610e48576040517f08c379a0000000000000000000000000000000000000000000000000000000008152600401610e3f9061257b565b60405180910390fd5b60006002600085815260200190815260200160002090508060040154421015610ea6576040517f08c379a0000000000000000000000000000000000000000000000000000000008152600401610e9d906125fb565b60405180910390fd5b8060050154421115610eed576040517f08c379a0000000000000000000000000000000000000000000000000000000008152600401610ee49061263b565b60405180910390fd5b8060080160009054906101000a900460ff1615610f3f576040517f08c379a0000000000000000000000000000000000000000000000000000000008152600401610f36906126bb565b60405180910390fd5b600083118015610f5157506103e88311155b610f90576040517f08c379a0000000000000000000000000000000000000000000000000000000008152600401610f879061255b565b60405180910390fd5b6000838260060154610fa291906129de565b9050803414610fe6576040517f08c379a0000000000000000000000000000000000000000000000000000000008152600401610fdd9061273b565b60405180910390fd5b60005b848110156110695782600a01339080600181540180825580915050600190039060005260206000200160009091909190916101000a81548173ffffffffffffffffffffffffffffffffffffffff021916908373ffffffffffffffffffffffffffffffffffffffff160217905550808061106190612b28565b915050610fe9565b508382600b0160003373ffffffffffffffffffffffffffffffffffffffff1673ffffffffffffffffffffffffffffffffffffffff16815260200190815260200160002060008282546110bb9190612988565b92505081905550838260090160008282546110d69190612988565b925050819055503373ffffffffffffffffffffffffffffffffffffffff16857fef266bb11bf4b58aa8562ab8c8746e3b84a521780a2c57ca09d87bae13f5eb098684604051611126929190612878565b60405180910390a35050505050565b60008054906101000a900473ffffffffffffffffffffffffffffffffffffffff1673ffffffffffffffffffffffffffffffffffffffff163373ffffffffffffffffffffffffffffffffffffffff16146111c3576040517f08c379a00000000000000000000000000000000000000000000000000000000081526004016111ba9061269b565b60405180910390fd5b8060006002600083815260200190815260200160002060000154141561121e576040517f08c379a00000000000000000000000000000000000000000000000000000000081526004016112159061257b565b60405180910390fd5b6000600260008481526020019081526020016000209050806005015442101561127c576040517f08c379a0000000000000000000000000000000000000000000000000000000008152600401611273906125db565b60405180910390fd5b8060080160009054906101000a900460ff16156112ce576040517f08c379a00000000000000000000000000000000000000000000000000000000081526004016112c5906126bb565b60405180910390fd5b600081600a018054905014611318576040517f08c379a000000000000000000000000000000000000000000000000000000000815260040161130f9061253b565b60405180910390fd5b60018160080160006101000a81548160ff02191690831515021790555060008160080160016101000a81548173ffffffffffffffffffffffffffffffffffffffff021916908373ffffffffffffffffffffffffffffffffffffffff16021790555060008060009054906101000a900473ffffffffffffffffffffffffffffffffffffffff1673ffffffffffffffffffffffffffffffffffffffff1682600701546040516113c49061242d565b60006040518083038185875af1925050503d8060008114611401576040519150601f19603f3d011682016040523d82523d6000602084013e611406565b606091505b505090508061144a576040517f08c379a0000000000000000000000000000000000000000000000000000000008152600401611441906126db565b60405180910390fd5b837f51f0fe61ad43dd119e9a4557c999c9ed421b3dfcaa9cd63488272e82afe9617d83600101846007015460405161148392919061250b565b60405180910390a250505050565b61149961185c565b816000600260008381526020019081526020016000206000015414156114f4576040517f08c379a00000000000000000000000000000000000000000000000000000000081526004016114eb9061257b565b60405180910390fd5b60006002600085815260200190815260200160002090506040518061016001604052808260000154815260200182600101805461153090612af6565b80601f016020809104026020016040519081016040528092919081815260200182805461155c90612af6565b80156115a95780601f1061157e576101008083540402835291602001916115a9565b820191906000526020600020905b81548152906001019060200180831161158c57829003601f168201915b505050505081526020018260020180546115c290612af6565b80601f01602080910402602001604051908101604052809291908181526020018280546115ee90612af6565b801561163b5780601f106116105761010080835404028352916020019161163b565b820191906000526020600020905b81548152906001019060200180831161161e57829003601f168201915b5050505050815260200182600301805461165490612af6565b80601f016020809104026020016040519081016040528092919081815260200182805461168090612af6565b80156116cd5780601f106116a2576101008083540402835291602001916116cd565b820191906000526020600020905b8154815290600101906020018083116116b057829003601f168201915b50505050508152602001826004015481526020018260050154815260200182600601548152602001826007015481526020018260080160009054906101000a900460ff16151581526020018260080160019054906101000a900473ffffffffffffffffffffffffffffffffffffffff1673ffffffffffffffffffffffffffffffffffffffff168152602001826009015481525092505050919050565b60008054906101000a900473ffffffffffffffffffffffffffffffffffffffff1681565b600080424433856040516020016117a79493929190612442565b6040516020818303038152906040528051906020012060001c905082816117ce9190612b9f565b915050919050565b8280546117e290612af6565b90600052602060002090601f016020900481019282611804576000855561184b565b82601f1061181d57805160ff191683800117855561184b565b8280016001018555821561184b579182015b8281111561184a57825182559160200191906001019061182f565b5b50905061185891906118ce565b5090565b6040518061016001604052806000815260200160608152602001606081526020016060815260200160008152602001600081526020016000815260200160008152602001600015158152602001600073ffffffffffffffffffffffffffffffffffffffff168152602001600081525090565b5b808211156118e75760008160009055506001016118cf565b5090565b60006118fe6118f9846128d2565b6128a1565b90508281526020810184848401111561191657600080fd5b611921848285612ab4565b509392505050565b60008135905061193881612caa565b92915050565b600082601f83011261194f57600080fd5b813561195f8482602086016118eb565b91505092915050565b60008135905061197781612cc1565b92915050565b600080600080600080600060e0888a03121561199857600080fd5b600088013567ffffffffffffffff8111156119b257600080fd5b6119be8a828b0161193e565b975050602088013567ffffffffffffffff8111156119db57600080fd5b6119e78a828b0161193e565b965050604088013567ffffffffffffffff811115611a0457600080fd5b611a108a828b0161193e565b9550506060611a218a828b01611968565b9450506080611a328a828b01611968565b93505060a0611a438a828b01611968565b92505060c0611a548a828b01611968565b91505092959891949750929550565b600060208284031215611a7557600080fd5b6000611a8384828501611968565b91505092915050565b60008060408385031215611a9f57600080fd5b6000611aad85828601611968565b9250506020611abe85828601611929565b9150509250929050565b60008060408385031215611adb57600080fd5b6000611ae985828601611968565b9250506020611afa85828601611968565b9150509250929050565b6000611b1083836123f8565b60208301905092915050565b611b2581612a6c565b82525050565b611b3481612a6c565b82525050565b611b4b611b4682612a6c565b612b71565b82525050565b6000611b5c82612927565b611b66818561294a565b9350611b7183612902565b8060005b83811015611ba2578151611b898882611b04565b9750611b948361293d565b925050600181019050611b75565b5085935050505092915050565b611bb881612a7e565b82525050565b611bc781612a7e565b82525050565b6000611bd882612932565b611be28185612966565b9350611bf2818560208601612ac3565b611bfb81612c8c565b840191505092915050565b6000611c1182612932565b611c1b8185612977565b9350611c2b818560208601612ac3565b611c3481612c8c565b840191505092915050565b60008154611c4c81612af6565b611c568186612977565b94506001821660008114611c715760018114611c8357611cb6565b60ff1983168652602086019350611cb6565b611c8c85612912565b60005b83811015611cae57815481890152600182019150602081019050611c8f565b808801955050505b50505092915050565b6000611ccc603c83612977565b91507f43616e6e6f7420656e6420726166666c65207769746820736f6c64207469636b60008301527f657473202d20757365206472617757696e6e657220696e7374656164000000006020830152604082019050919050565b6000611d32602383612977565b91507f5175616e74697479206d757374206265206265747765656e203120616e64203160008301527f30303000000000000000000000000000000000000000000000000000000000006020830152604082019050919050565b6000611d98601583612977565b91507f526166666c6520646f6573206e6f7420657869737400000000000000000000006000830152602082019050919050565b6000611dd8602f83612977565b91507f4d7573742073656e64206578616374207072697a6520616d6f756e7420746f2060008301527f66756e642074686520726166666c6500000000000000000000000000000000006020830152604082019050919050565b6000611e3e602283612977565b91507f53746172742074696d65206d757374206265206265666f726520656e6420746960008301527f6d650000000000000000000000000000000000000000000000000000000000006020830152604082019050919050565b6000611ea4601883612977565b91507f526166666c6520686173206e6f7420656e6465642079657400000000000000006000830152602082019050919050565b6000611ee4601a83612977565b91507f526166666c6520686173206e6f742073746172746564207965740000000000006000830152602082019050919050565b6000611f24602383612977565b91507f5072697a6520616d6f756e74206d75737420626520677265617465722074686160008301527f6e203000000000000000000000000000000000000000000000000000000000006020830152604082019050919050565b6000611f8a601083612977565b91507f526166666c652068617320656e646564000000000000000000000000000000006000830152602082019050919050565b6000611fca602283612977565b91507f4661696c656420746f207472616e73666572207072697a6520746f2077696e6e60008301527f65720000000000000000000000000000000000000000000000000000000000006020830152604082019050919050565b6000612030602383612977565b91507f4661696c656420746f207472616e7366657220726576656e756520746f20616460008301527f6d696e00000000000000000000000000000000000000000000000000000000006020830152604082019050919050565b6000612096602283612977565b91507f4f6e6c792061646d696e2063616e20706572666f726d2074686973206163746960008301527f6f6e0000000000000000000000000000000000000000000000000000000000006020830152604082019050919050565b60006120fc60008361295b565b9150600082019050919050565b6000612116601b83612977565b91507f526166666c6520697320616c726561647920636f6d706c6574656400000000006000830152602082019050919050565b6000612156601f83612977565b91507f4661696c656420746f2072657475726e207072697a6520746f2061646d696e006000830152602082019050919050565b6000612196602383612977565b91507f5469636b6574207072696365206d75737420626520677265617465722074686160008301527f6e203000000000000000000000000000000000000000000000000000000000006020830152604082019050919050565b60006121fc602083612977565b91507f57696e6e65722068617320616c7265616479206265656e2073656c65637465646000830152602082019050919050565b600061223c602283612977565b91507f496e73756666696369656e74206f7220696e636f72726563742045544820736560008301527f6e740000000000000000000000000000000000000000000000000000000000006020830152604082019050919050565b60006122a2602483612977565b91507f4e6f207469636b657473207765726520736f6c6420666f72207468697320726160008301527f66666c65000000000000000000000000000000000000000000000000000000006020830152604082019050919050565b60006101608301600083015161231460008601826123f8565b506020830151848203602086015261232c8282611bcd565b915050604083015184820360408601526123468282611bcd565b915050606083015184820360608601526123608282611bcd565b915050608083015161237560808601826123f8565b5060a083015161238860a08601826123f8565b5060c083015161239b60c08601826123f8565b5060e08301516123ae60e08601826123f8565b506101008301516123c3610100860182611baf565b506101208301516123d8610120860182611b1c565b506101408301516123ed6101408601826123f8565b508091505092915050565b61240181612aaa565b82525050565b61241081612aaa565b82525050565b61242761242282612aaa565b612b95565b82525050565b6000612438826120ef565b9150819050919050565b600061244e8287612416565b60208201915061245e8286612416565b60208201915061246e8285611b3a565b60148201915061247e8284612416565b60208201915081905095945050505050565b60006020820190506124a56000830184611b2b565b92915050565b600060208201905081810360008301526124c58184611b51565b905092915050565b600060608201905081810360008301526124e78186611c06565b90506124f66020830185612407565b6125036040830184612407565b949350505050565b600060408201905081810360008301526125258185611c3f565b90506125346020830184612407565b9392505050565b6000602082019050818103600083015261255481611cbf565b9050919050565b6000602082019050818103600083015261257481611d25565b9050919050565b6000602082019050818103600083015261259481611d8b565b9050919050565b600060208201905081810360008301526125b481611dcb565b9050919050565b600060208201905081810360008301526125d481611e31565b9050919050565b600060208201905081810360008301526125f481611e97565b9050919050565b6000602082019050818103600083015261261481611ed7565b9050919050565b6000602082019050818103600083015261263481611f17565b9050919050565b6000602082019050818103600083015261265481611f7d565b9050919050565b6000602082019050818103600083015261267481611fbd565b9050919050565b6000602082019050818103600083015261269481612023565b9050919050565b600060208201905081810360008301526126b481612089565b9050919050565b600060208201905081810360008301526126d481612109565b9050919050565b600060208201905081810360008301526126f481612149565b9050919050565b6000602082019050818103600083015261271481612189565b9050919050565b60006020820190508181036000830152612734816121ef565b9050919050565b600060208201905081810360008301526127548161222f565b9050919050565b6000602082019050818103600083015261277481612295565b9050919050565b6000602082019050818103600083015261279581846122fb565b905092915050565b60006020820190506127b26000830184612407565b92915050565b6000610160820190506127ce600083018e612407565b81810360208301526127e0818d611c06565b905081810360408301526127f4818c611c06565b90508181036060830152612808818b611c06565b9050612817608083018a612407565b61282460a0830189612407565b61283160c0830188612407565b61283e60e0830187612407565b61284c610100830186611bbe565b61285a610120830185611b2b565b612868610140830184612407565b9c9b505050505050505050505050565b600060408201905061288d6000830185612407565b61289a6020830184612407565b9392505050565b6000604051905081810181811067ffffffffffffffff821117156128c8576128c7612c5d565b5b8060405250919050565b600067ffffffffffffffff8211156128ed576128ec612c5d565b5b601f19601f8301169050602081019050919050565b6000819050602082019050919050565b60008190508160005260206000209050919050565b600081519050919050565b600081519050919050565b6000602082019050919050565b600082825260208201905092915050565b600081905092915050565b600082825260208201905092915050565b600082825260208201905092915050565b600061299382612aaa565b915061299e83612aaa565b9250827fffffffffffffffffffffffffffffffffffffffffffffffffffffffffffffffff038211156129d3576129d2612bd0565b5b828201905092915050565b60006129e982612aaa565b91506129f483612aaa565b9250817fffffffffffffffffffffffffffffffffffffffffffffffffffffffffffffffff0483118215151615612a2d57612a2c612bd0565b5b828202905092915050565b6000612a4382612aaa565b9150612a4e83612aaa565b925082821015612a6157612a60612bd0565b5b828203905092915050565b6000612a7782612a8a565b9050919050565b60008115159050919050565b600073ffffffffffffffffffffffffffffffffffffffff82169050919050565b6000819050919050565b82818337600083830152505050565b60005b83811015612ae1578082015181840152602081019050612ac6565b83811115612af0576000848401525b50505050565b60006002820490506001821680612b0e57607f821691505b60208210811415612b2257612b21612c2e565b5b50919050565b6000612b3382612aaa565b91507fffffffffffffffffffffffffffffffffffffffffffffffffffffffffffffffff821415612b6657612b65612bd0565b5b600182019050919050565b6000612b7c82612b83565b9050919050565b6000612b8e82612c9d565b9050919050565b6000819050919050565b6000612baa82612aaa565b9150612bb583612aaa565b925082612bc557612bc4612bff565b5b828206905092915050565b7f4e487b7100000000000000000000000000000000000000000000000000000000600052601160045260246000fd5b7f4e487b7100000000000000000000000000000000000000000000000000000000600052601260045260246000fd5b7f4e487b7100000000000000000000000000000000000000000000000000000000600052602260045260246000fd5b7f4e487b7100000000000000000000000000000000000000000000000000000000600052604160045260246000fd5b6000601f19601f8301169050919050565b60008160601b9050919050565b612cb381612a6c565b8114612cbe57600080fd5b50565b612cca81612aaa565b8114612cd557600080fd5b5056fea26469706673582212204e66a8b4c996e8bc389cbf463e11e2b2dc89b3061f1f359a52511f83ad09448664736f6c63430008000033",
  "immutableReferences": {},
  "source": "// SPDX-License-Identifier: MIT\r\npragma solidity ^0.8.0;\r\n\r\ncontract RaffleDraw {\r\n    // STATE VARIABLES\r\n    address public admin;\r\n    uint256 public nextRaffleId;\r\n\r\n    // DATA STRUCTURES\r\n    struct Raffle {\r\n        uint256 raffleId;\r\n        string name;\r\n        string imageURL;\r\n        string category;\r\n        uint256 startTime;\r\n        uint256 endTime;\r\n        uint256 ticketPrice;\r\n        uint256 prizeAmount;\r\n        bool isCompleted;\r\n        address winner;\r\n        uint256 totalTicketsSold;\r\n        address[] participants;\r\n        mapping(address => uint256) ticketsBought;\r\n    }\r\n\r\n    struct RaffleView {\r\n        uint256 raffleId;\r\n        string name;\r\n        string imageURL;\r\n        string category;\r\n        uint256 startTime;\r\n        uint256 endTime;\r\n        uint256 ticketPrice;\r\n        uint256 prizeAmount;\r\n        bool isCompleted;\r\n        address winner;\r\n        uint256 totalTicketsSold;\r\n    }\r\n\r\n    mapping(uint256 => Raffle) public raffles;\r\n    uint256[] public raffleIds;\r\n\r\n    // EVENTS\r\n    event RaffleCreated(\r\n        uint256 indexed raffleId,\r\n        string name,\r\n        uint256 prizeAmount,\r\n        uint256 endTime\r\n    );\r\n\r\n    event TicketPurchased(\r\n        uint256 indexed raffleId,\r\n        address indexed buyer,\r\n        uint256 quantity,\r\n        uint256 totalCost\r\n    );\r\n\r\n    event WinnerDrawn(\r\n        uint256 indexed raffleId,\r\n        address indexed winner,\r\n        uint256 prizeAmount\r\n    );\r\n\r\n    // NEW EVENT for ending raffle without tickets\r\n    event RaffleEnded(\r\n        uint256 indexed raffleId,\r\n        string name,\r\n        uint256 prizeAmountReturned\r\n    );\r\n\r\n    // MODIFIERS\r\n    modifier onlyAdmin() {\r\n        require(msg.sender == admin, \"Only admin can perform this action\");\r\n        _;\r\n    }\r\n\r\n    modifier raffleExists(uint256 _raffleId) {\r\n        require(raffles[_raffleId].raffleId != 0, \"Raffle does not exist\");\r\n        _;\r\n    }\r\n\r\n    constructor() {\r\n        admin = msg.sender;\r\n        nextRaffleId = 1;\r\n    }\r\n\r\n    function createRaffle(\r\n        string memory _name,\r\n        string memory _imageURL,\r\n        string memory _category,\r\n        uint256 _startTime,\r\n        uint256 _endTime,\r\n        uint256 _ticketPrice,\r\n        uint256 _prizeAmount\r\n    ) external payable onlyAdmin {\r\n        require(_startTime < _endTime, \"Start time must be before end time\");\r\n        require(_ticketPrice > 0, \"Ticket price must be greater than 0\");\r\n        require(_prizeAmount > 0, \"Prize amount must be greater than 0\");\r\n        require(msg.value == _prizeAmount, \"Must send exact prize amount to fund the raffle\");\r\n\r\n        uint256 currentRaffleId = nextRaffleId;\r\n        raffles[currentRaffleId].raffleId = currentRaffleId;\r\n        raffles[currentRaffleId].name = _name;\r\n        raffles[currentRaffleId].imageURL = _imageURL;\r\n        raffles[currentRaffleId].category = _category;\r\n        raffles[currentRaffleId].startTime = _startTime;\r\n        raffles[currentRaffleId].endTime = _endTime;\r\n        raffles[currentRaffleId].ticketPrice = _ticketPrice;\r\n        raffles[currentRaffleId].prizeAmount = _prizeAmount;\r\n        \r\n        raffleIds.push(currentRaffleId);\r\n        nextRaffleId++;\r\n\r\n        emit RaffleCreated(currentRaffleId, _name, _prizeAmount, _endTime);\r\n    }\r\n\r\n    function buyTickets(uint256 _raffleId, uint256 _quantity) external payable raffleExists(_raffleId) {\r\n        Raffle storage raffle = raffles[_raffleId];\r\n        require(block.timestamp >= raffle.startTime, \"Raffle has not started yet\");\r\n        require(block.timestamp <= raffle.endTime, \"Raffle has ended\");\r\n        require(!raffle.isCompleted, \"Raffle is already completed\");\r\n        require(_quantity > 0 && _quantity <= 1000, \"Quantity must be between 1 and 1000\");\r\n\r\n        uint256 totalCost = raffle.ticketPrice * _quantity;\r\n        require(msg.value == totalCost, \"Insufficient or incorrect ETH sent\");\r\n\r\n        for (uint i = 0; i < _quantity; i++) {\r\n            raffle.participants.push(msg.sender);\r\n        }\r\n        \r\n        raffle.ticketsBought[msg.sender] += _quantity;\r\n        raffle.totalTicketsSold += _quantity;\r\n\r\n        emit TicketPurchased(_raffleId, msg.sender, _quantity, totalCost);\r\n    }\r\n\r\n    function drawWinner(uint256 _raffleId) external onlyAdmin raffleExists(_raffleId) {\r\n        Raffle storage raffle = raffles[_raffleId];\r\n        require(block.timestamp >= raffle.endTime, \"Raffle has not ended yet\");\r\n        require(!raffle.isCompleted, \"Winner has already been selected\");\r\n        require(raffle.participants.length > 0, \"No tickets were sold for this raffle\");\r\n\r\n        uint256 randomIndex = _generateRandomNumber(raffle.participants.length);\r\n        address winningAddress = raffle.participants[randomIndex];\r\n        raffle.winner = winningAddress;\r\n        raffle.isCompleted = true;\r\n\r\n        (bool successPrize, ) = payable(winningAddress).call{value: raffle.prizeAmount}(\"\");\r\n        require(successPrize, \"Failed to transfer prize to winner\");\r\n        \r\n        uint256 ticketRevenue = address(this).balance - raffle.prizeAmount;\r\n        if (ticketRevenue > 0) {\r\n            (bool successRevenue, ) = payable(admin).call{value: ticketRevenue}(\"\");\r\n            require(successRevenue, \"Failed to transfer revenue to admin\");\r\n        }\r\n\r\n        emit WinnerDrawn(_raffleId, winningAddress, raffle.prizeAmount);\r\n    }\r\n\r\n    /**\r\n     * @dev NEW FUNCTION: Ends a raffle with no tickets sold and returns prize to admin\r\n     */\r\n    function endRaffle(uint256 _raffleId) external onlyAdmin raffleExists(_raffleId) {\r\n        Raffle storage raffle = raffles[_raffleId];\r\n        require(block.timestamp >= raffle.endTime, \"Raffle has not ended yet\");\r\n        require(!raffle.isCompleted, \"Raffle is already completed\");\r\n        require(raffle.participants.length == 0, \"Cannot end raffle with sold tickets - use drawWinner instead\");\r\n\r\n        // Mark raffle as completed\r\n        raffle.isCompleted = true;\r\n        // No winner since no tickets were sold\r\n        raffle.winner = address(0);\r\n\r\n        // Return the prize amount to admin\r\n        (bool success, ) = payable(admin).call{value: raffle.prizeAmount}(\"\");\r\n        require(success, \"Failed to return prize to admin\");\r\n\r\n        emit RaffleEnded(_raffleId, raffle.name, raffle.prizeAmount);\r\n    }\r\n\r\n    function _generateRandomNumber(uint256 _upperBound) private view returns (uint256) {\r\n        uint256 randomSeed = uint256(keccak256(abi.encodePacked(\r\n            block.timestamp,\r\n            block.difficulty,\r\n            msg.sender,\r\n            _upperBound\r\n        )));\r\n        return randomSeed % _upperBound;\r\n    }\r\n\r\n    function getRaffle(uint256 _raffleId) external view raffleExists(_raffleId) returns (RaffleView memory) {\r\n        Raffle storage r = raffles[_raffleId];\r\n        return RaffleView(\r\n            r.raffleId,\r\n            r.name,\r\n            r.imageURL,\r\n            r.category,\r\n            r.startTime,\r\n            r.endTime,\r\n            r.ticketPrice,\r\n            r.prizeAmount,\r\n            r.isCompleted,\r\n            r.winner,\r\n            r.totalTicketsSold\r\n        );\r\n    }\r\n\r\n    function getAllRaffleIds() external view returns (uint256[] memory) {\r\n        return raffleIds;\r\n    }\r\n\r\n    function getUserTicketCount(uint256 _raffleId, address _user) external view raffleExists(_raffleId) returns (uint256) {\r\n        return raffles[_raffleId].ticketsBought[_user];\r\n    }\r\n}",
  "sourcePath": "C:\\Users\\bhash\\Desktop\\Blockchain project\\StakeWise-Blockchain\\contracts\\RaffleDraw.sol",
  "compiler": {
    "name": "solc",
    "version": "0.8.0+commit.c7dfd78e.Emscripten.clang"
  },
  "schemaVersion": "3.4.16",
  "updatedAt": "2025-08-03T14:32:39.916Z",
  "networkType": "ethereum",
  "devdoc": {
    "kind": "dev",
    "methods": {
      "endRaffle(uint256)": {
        "details": "NEW FUNCTION: Ends a raffle with no tickets sold and returns prize to admin"
      }
    },
    "version": 1
  },
  "userdoc": {
    "kind": "user",
    "methods": {},
    "version": 1
  }
}