{
  "contractName": "RaffleDraw",
  "abi": [
    {
      "inputs": [],
      "stateMutability": "nonpayable",
      "type": "constructor"
    },
    {
      "anonymous": false,
      "inputs": [
        {
          "indexed": false,
          "internalType": "uint256",
          "name": "raffleId",
          "type": "uint256"
        },
        {
          "indexed": false,
          "internalType": "string",
          "name": "name",
          "type": "string"
        },
        {
          "indexed": false,
          "internalType": "uint256",
          "name": "startTime",
          "type": "uint256"
        },
        {
          "indexed": false,
          "internalType": "uint256",
          "name": "endTime",
          "type": "uint256"
        },
        {
          "indexed": false,
          "internalType": "uint256",
          "name": "ticketPrice",
          "type": "uint256"
        },
        {
          "indexed": false,
          "internalType": "uint256",
          "name": "prizeAmount",
          "type": "uint256"
        }
      ],
      "name": "RaffleCreated",
      "type": "event"
    },
    {
      "anonymous": false,
      "inputs": [
        {
          "indexed": false,
          "internalType": "uint256",
          "name": "raffleId",
          "type": "uint256"
        },
        {
          "indexed": false,
          "internalType": "address",
          "name": "buyer",
          "type": "address"
        },
        {
          "indexed": false,
          "internalType": "uint256",
          "name": "ticketId",
          "type": "uint256"
        },
        {
          "indexed": false,
          "internalType": "uint256",
          "name": "amount",
          "type": "uint256"
        }
      ],
      "name": "TicketPurchased",
      "type": "event"
    },
    {
      "anonymous": false,
      "inputs": [
        {
          "indexed": false,
          "internalType": "uint256",
          "name": "raffleId",
          "type": "uint256"
        },
        {
          "indexed": false,
          "internalType": "address",
          "name": "winner",
          "type": "address"
        },
        {
          "indexed": false,
          "internalType": "uint256",
          "name": "prizeAmount",
          "type": "uint256"
        }
      ],
      "name": "WinnerSelected",
      "type": "event"
    },
    {
      "inputs": [],
      "name": "admin",
      "outputs": [
        {
          "internalType": "address",
          "name": "",
          "type": "address"
        }
      ],
      "stateMutability": "view",
      "type": "function"
    },
    {
      "inputs": [],
      "name": "nextRaffleId",
      "outputs": [
        {
          "internalType": "uint256",
          "name": "",
          "type": "uint256"
        }
      ],
      "stateMutability": "view",
      "type": "function"
    },
    {
      "inputs": [
        {
          "internalType": "uint256",
          "name": "",
          "type": "uint256"
        }
      ],
      "name": "raffleIds",
      "outputs": [
        {
          "internalType": "uint256",
          "name": "",
          "type": "uint256"
        }
      ],
      "stateMutability": "view",
      "type": "function"
    },
    {
      "inputs": [
        {
          "internalType": "uint256",
          "name": "",
          "type": "uint256"
        }
      ],
      "name": "raffles",
      "outputs": [
        {
          "components": [
            {
              "internalType": "uint256",
              "name": "raffleId",
              "type": "uint256"
            },
            {
              "internalType": "string",
              "name": "name",
              "type": "string"
            },
            {
              "internalType": "string",
              "name": "description",
              "type": "string"
            },
            {
              "internalType": "string",
              "name": "imageURL",
              "type": "string"
            },
            {
              "internalType": "uint256",
              "name": "startTime",
              "type": "uint256"
            },
            {
              "internalType": "uint256",
              "name": "endTime",
              "type": "uint256"
            },
            {
              "internalType": "uint256",
              "name": "ticketPrice",
              "type": "uint256"
            },
            {
              "internalType": "uint256",
              "name": "prizeAmount",
              "type": "uint256"
            }
          ],
          "internalType": "struct RaffleDraw.RaffleCore",
          "name": "core",
          "type": "tuple"
        },
        {
          "components": [
            {
              "internalType": "bool",
              "name": "isCompleted",
              "type": "bool"
            },
            {
              "internalType": "address",
              "name": "winner",
              "type": "address"
            },
            {
              "internalType": "uint256",
              "name": "totalTicketsSold",
              "type": "uint256"
            },
            {
              "internalType": "string",
              "name": "notificationImageURL",
              "type": "string"
            },
            {
              "internalType": "string",
              "name": "notificationMessage",
              "type": "string"
            }
          ],
          "internalType": "struct RaffleDraw.RaffleExtra",
          "name": "extra",
          "type": "tuple"
        }
      ],
      "stateMutability": "view",
      "type": "function"
    },
    {
      "inputs": [],
      "name": "totalAdminProfit",
      "outputs": [
        {
          "internalType": "uint256",
          "name": "",
          "type": "uint256"
        }
      ],
      "stateMutability": "view",
      "type": "function"
    },
    {
      "inputs": [
        {
          "internalType": "uint256",
          "name": "_raffleId",
          "type": "uint256"
        },
        {
          "components": [
            {
              "internalType": "string",
              "name": "name",
              "type": "string"
            },
            {
              "internalType": "string",
              "name": "description",
              "type": "string"
            },
            {
              "internalType": "string",
              "name": "imageURL",
              "type": "string"
            },
            {
              "internalType": "uint256",
              "name": "startTime",
              "type": "uint256"
            },
            {
              "internalType": "uint256",
              "name": "endTime",
              "type": "uint256"
            },
            {
              "internalType": "uint256",
              "name": "ticketPrice",
              "type": "uint256"
            },
            {
              "internalType": "uint256",
              "name": "prizeAmount",
              "type": "uint256"
            },
            {
              "internalType": "string",
              "name": "notificationImageURL",
              "type": "string"
            },
            {
              "internalType": "string",
              "name": "notificationMessage",
              "type": "string"
            }
          ],
          "internalType": "struct RaffleDraw.RaffleParams",
          "name": "params",
          "type": "tuple"
        }
      ],
      "name": "createRaffleDraw",
      "outputs": [],
      "stateMutability": "nonpayable",
      "type": "function"
    },
    {
      "inputs": [
        {
          "internalType": "uint256",
          "name": "_raffleId",
          "type": "uint256"
        },
        {
          "internalType": "uint256",
          "name": "_quantity",
          "type": "uint256"
        }
      ],
      "name": "buyTicket",
      "outputs": [],
      "stateMutability": "payable",
      "type": "function"
    },
    {
      "inputs": [
        {
          "internalType": "uint256",
          "name": "_raffleId",
          "type": "uint256"
        }
      ],
      "name": "selectWinner",
      "outputs": [],
      "stateMutability": "nonpayable",
      "type": "function"
    },
    {
      "inputs": [],
      "name": "getAllRaffleIds",
      "outputs": [
        {
          "internalType": "uint256[]",
          "name": "",
          "type": "uint256[]"
        }
      ],
      "stateMutability": "view",
      "type": "function"
    },
    {
      "inputs": [
        {
          "internalType": "uint256",
          "name": "_raffleId",
          "type": "uint256"
        }
      ],
      "name": "getRaffle",
      "outputs": [
        {
          "components": [
            {
              "internalType": "uint256",
              "name": "raffleId",
              "type": "uint256"
            },
            {
              "internalType": "string",
              "name": "name",
              "type": "string"
            },
            {
              "internalType": "string",
              "name": "description",
              "type": "string"
            },
            {
              "internalType": "string",
              "name": "imageURL",
              "type": "string"
            },
            {
              "internalType": "uint256",
              "name": "startTime",
              "type": "uint256"
            },
            {
              "internalType": "uint256",
              "name": "endTime",
              "type": "uint256"
            },
            {
              "internalType": "uint256",
              "name": "ticketPrice",
              "type": "uint256"
            },
            {
              "internalType": "uint256",
              "name": "prizeAmount",
              "type": "uint256"
            },
            {
              "internalType": "bool",
              "name": "isCompleted",
              "type": "bool"
            },
            {
              "internalType": "address",
              "name": "winner",
              "type": "address"
            },
            {
              "internalType": "uint256",
              "name": "totalTicketsSold",
              "type": "uint256"
            },
            {
              "internalType": "string",
              "name": "notificationImageURL",
              "type": "string"
            },
            {
              "internalType": "string",
              "name": "notificationMessage",
              "type": "string"
            }
          ],
          "internalType": "struct RaffleDraw.RaffleDataView",
          "name": "",
          "type": "tuple"
        }
      ],
      "stateMutability": "view",
      "type": "function"
    },
    {
      "inputs": [
        {
          "internalType": "uint256",
          "name": "_raffleId",
          "type": "uint256"
        },
        {
          "internalType": "address",
          "name": "_user",
          "type": "address"
        }
      ],
      "name": "getUserTickets",
      "outputs": [
        {
          "internalType": "uint256[]",
          "name": "",
          "type": "uint256[]"
        }
      ],
      "stateMutability": "view",
      "type": "function"
    },
    {
      "inputs": [
        {
          "internalType": "uint256",
          "name": "_raffleId",
          "type": "uint256"
        }
      ],
      "name": "getTotalTicketsSold",
      "outputs": [
        {
          "internalType": "uint256",
          "name": "",
          "type": "uint256"
        }
      ],
      "stateMutability": "view",
      "type": "function"
    },
    {
      "inputs": [
        {
          "internalType": "uint256",
          "name": "_raffleId",
          "type": "uint256"
        },
        {
          "internalType": "address",
          "name": "_user",
          "type": "address"
        }
      ],
      "name": "hasUserWon",
      "outputs": [
        {
          "internalType": "bool",
          "name": "",
          "type": "bool"
        }
      ],
      "stateMutability": "view",
      "type": "function"
    },
    {
      "inputs": [],
      "name": "getTotalAdminProfit",
      "outputs": [
        {
          "internalType": "uint256",
          "name": "",
          "type": "uint256"
        }
      ],
      "stateMutability": "view",
      "type": "function"
    },
    {
      "inputs": [],
      "name": "getActiveRaffles",
      "outputs": [
        {
          "internalType": "uint256[]",
          "name": "",
          "type": "uint256[]"
        }
      ],
      "stateMutability": "view",
      "type": "function"
    },
    {
      "inputs": [
        {
          "internalType": "uint256",
          "name": "_raffleId",
          "type": "uint256"
        }
      ],
      "name": "raffleReadyForWinnerSelection",
      "outputs": [
        {
          "internalType": "bool",
          "name": "",
          "type": "bool"
        }
      ],
      "stateMutability": "view",
      "type": "function"
    }
  ],
  "bytecode": "0x6080604052600160025534801561001557600080fd5b5033600360006101000a81548173ffffffffffffffffffffffffffffffffffffffff021916908373ffffffffffffffffffffffffffffffffffffffff16021790555060006004819055506130ff8061006e6000396000f3fe6080604052600436106100f35760003560e01c80638458e3e41161008a578063c523417311610059578063c523417314610332578063e4dafec91461036f578063e7a7f65c146103ac578063f851a440146103e9576100f3565b80638458e3e4146102885780638ff8550c146102b3578063949017f6146102de57806395db9b0b14610307576100f3565b80634c524be4116100c65780634c524be4146101a75780635d4bc0ce146101d05780637ee41f731461020e578063806ed4c01461024b576100f3565b80632273f76d146100f8578063298ec208146101235780633dc70c161461013f5780634a1444bf1461016a575b600080fd5b34801561010457600080fd5b5061010d610414565b60405161011a9190612994565b60405180910390f35b61013d600480360381019061013891906120f4565b61046c565b005b34801561014b57600080fd5b5061015461071f565b6040516101619190612994565b60405180910390f35b34801561017657600080fd5b50610191600480360381019061018c919061203b565b610969565b60405161019e9190612bea565b60405180910390f35b3480156101b357600080fd5b506101ce60048036038101906101c9919061203b565b6109e9565b005b3480156101dc57600080fd5b506101f760048036038101906101f2919061203b565b610ba5565b604051610205929190612b91565b60405180910390f35b34801561021a57600080fd5b506102356004803603810190610230919061203b565b610f65565b6040516102429190612bea565b60405180910390f35b34801561025757600080fd5b50610272600480360381019061026d9190612064565b610f89565b60405161027f91906129b6565b60405180910390f35b34801561029457600080fd5b5061029d61107b565b6040516102aa9190612bea565b60405180910390f35b3480156102bf57600080fd5b506102c8611081565b6040516102d59190612bea565b60405180910390f35b3480156102ea57600080fd5b50610305600480360381019061030091906120a0565b611087565b005b34801561031357600080fd5b5061031c6111ad565b6040516103299190612bea565b60405180910390f35b34801561033e57600080fd5b506103596004803603810190610354919061203b565b6111b7565b60405161036691906129b6565b60405180910390f35b34801561037b57600080fd5b506103966004803603810190610391919061203b565b611271565b6040516103a39190612bc8565b60405180910390f35b3480156103b857600080fd5b506103d360048036038101906103ce9190612064565b611695565b6040516103e09190612994565b60405180910390f35b3480156103f557600080fd5b506103fe61179e565b60405161040b9190612979565b60405180910390f35b6060600180548060200260200160405190810160405280929190818152602001828054801561046257602002820191906000526020600020905b81548152602001906001019080831161044e575b5050505050905090565b8160008060008381526020019081526020016000206000016000015414156104c9576040517f08c379a00000000000000000000000000000000000000000000000000000000081526004016104c0906129f1565b60405180910390fd5b600080600085815260200190815260200160002090508060000160040154421015610529576040517f08c379a000000000000000000000000000000000000000000000000000000000815260040161052090612a71565b60405180910390fd5b8060000160050154421115610573576040517f08c379a000000000000000000000000000000000000000000000000000000000815260040161056a90612ad1565b60405180910390fd5b8060080160000160009054906101000a900460ff16156105c8576040517f08c379a00000000000000000000000000000000000000000000000000000000081526004016105bf90612b31565b60405180910390fd5b6000831161060b576040517f08c379a000000000000000000000000000000000000000000000000000000000815260040161060290612af1565b60405180910390fd5b60008382600001600601546106209190612e2f565b905080341015610665576040517f08c379a000000000000000000000000000000000000000000000000000000000815260040161065c90612b71565b60405180910390fd5b60008083600d0160003373ffffffffffffffffffffffffffffffffffffffff1673ffffffffffffffffffffffffffffffffffffffff168152602001908152602001600020805490501490506106bc868685846117c4565b81341115610717573373ffffffffffffffffffffffffffffffffffffffff166108fc83346106ea9190612e89565b9081150290604051600060405180830381858888f19350505050158015610715573d6000803e3d6000fd5b505b505050505050565b60606000805b6001805490508110156107e35760006001828154811061076e577f4e487b7100000000000000000000000000000000000000000000000000000000600052603260045260246000fd5b90600052602060002001549050600080600083815260200190815260200160002090508060080160000160009054906101000a900460ff161580156107ba575080600001600501544211155b156107ce5783806107ca90612f79565b9450505b505080806107db90612f79565b915050610725565b5060008167ffffffffffffffff811115610826577f4e487b7100000000000000000000000000000000000000000000000000000000600052604160045260246000fd5b6040519080825280602002602001820160405280156108545781602001602082028036833780820191505090505b5090506000805b60018054905081101561095f576000600182815481106108a4577f4e487b7100000000000000000000000000000000000000000000000000000000600052603260045260246000fd5b90600052602060002001549050600080600083815260200190815260200160002090508060080160000160009054906101000a900460ff161580156108f0575080600001600501544211155b1561094a578185858151811061092f577f4e487b7100000000000000000000000000000000000000000000000000000000600052603260045260246000fd5b602002602001018181525050838061094690612f79565b9450505b5050808061095790612f79565b91505061085b565b5081935050505090565b60008160008060008381526020019081526020016000206000016000015414156109c8576040517f08c379a00000000000000000000000000000000000000000000000000000000081526004016109bf906129f1565b60405180910390fd5b60008084815260200190815260200160002060080160010154915050919050565b806000806000838152602001908152602001600020600001600001541415610a46576040517f08c379a0000000000000000000000000000000000000000000000000000000008152600401610a3d906129f1565b60405180910390fd5b600080600084815260200190815260200160002090508060000160050154421015610aa6576040517f08c379a0000000000000000000000000000000000000000000000000000000008152600401610a9d90612a31565b60405180910390fd5b8060080160000160009054906101000a900460ff1615610afb576040517f08c379a0000000000000000000000000000000000000000000000000000000008152600401610af290612a51565b60405180910390fd5b6000816008016001015411610b45576040517f08c379a0000000000000000000000000000000000000000000000000000000008152600401610b3c90612a91565b60405180910390fd5b6000610b5182856119ba565b9050610b5d8282611a5c565b7ffee5b04775e1cd2311ed22cd00f5d2403aff38ff6f71d6d393f51854ed6bc98684828460000160070154604051610b9793929190612c05565b60405180910390a150505050565b6000602052806000526040600020600091509050806000016040518061010001604052908160008201548152602001600182018054610be390612f47565b80601f0160208091040260200160405190810160405280929190818152602001828054610c0f90612f47565b8015610c5c5780601f10610c3157610100808354040283529160200191610c5c565b820191906000526020600020905b815481529060010190602001808311610c3f57829003601f168201915b50505050508152602001600282018054610c7590612f47565b80601f0160208091040260200160405190810160405280929190818152602001828054610ca190612f47565b8015610cee5780601f10610cc357610100808354040283529160200191610cee565b820191906000526020600020905b815481529060010190602001808311610cd157829003601f168201915b50505050508152602001600382018054610d0790612f47565b80601f0160208091040260200160405190810160405280929190818152602001828054610d3390612f47565b8015610d805780601f10610d5557610100808354040283529160200191610d80565b820191906000526020600020905b815481529060010190602001808311610d6357829003601f168201915b5050505050815260200160048201548152602001600582015481526020016006820154815260200160078201548152505090806008016040518060a00160405290816000820160009054906101000a900460ff161515151581526020016000820160019054906101000a900473ffffffffffffffffffffffffffffffffffffffff1673ffffffffffffffffffffffffffffffffffffffff1673ffffffffffffffffffffffffffffffffffffffff16815260200160018201548152602001600282018054610e4c90612f47565b80601f0160208091040260200160405190810160405280929190818152602001828054610e7890612f47565b8015610ec55780601f10610e9a57610100808354040283529160200191610ec5565b820191906000526020600020905b815481529060010190602001808311610ea857829003601f168201915b50505050508152602001600382018054610ede90612f47565b80601f0160208091040260200160405190810160405280929190818152602001828054610f0a90612f47565b8015610f575780601f10610f2c57610100808354040283529160200191610f57565b820191906000526020600020905b815481529060010190602001808311610f3a57829003601f168201915b505050505081525050905082565b60018181548110610f7557600080fd5b906000526020600020016000915090505481565b6000826000806000838152602001908152602001600020600001600001541415610fe8576040517f08c379a0000000000000000000000000000000000000000000000000000000008152600401610fdf906129f1565b60405180910390fd5b600080600086815260200190815260200160002090508060080160000160009054906101000a900460ff16801561107157508373ffffffffffffffffffffffffffffffffffffffff168160080160000160019054906101000a900473ffffffffffffffffffffffffffffffffffffffff1673ffffffffffffffffffffffffffffffffffffffff16145b9250505092915050565b60025481565b60045481565b600360009054906101000a900473ffffffffffffffffffffffffffffffffffffffff1673ffffffffffffffffffffffffffffffffffffffff163373ffffffffffffffffffffffffffffffffffffffff1614611117576040517f08c379a000000000000000000000000000000000000000000000000000000000815260040161110e90612b11565b60405180910390fd5b6111218282611bdd565b61112b8282611d14565b7f37ea4daba0dceed985df9f1d229cf61ca6e603c24c7562d685c4e2231c23f9568282806000019061115d9190612ceb565b846060013585608001358660a001358760c001356040516111849796959493929190612c81565b60405180910390a181600254116111a9576001826111a29190612da8565b6002819055505b5050565b6000600454905090565b6000816000806000838152602001908152602001600020600001600001541415611216576040517f08c379a000000000000000000000000000000000000000000000000000000000815260040161120d906129f1565b60405180910390fd5b600080600085815260200190815260200160002090508060000160050154421015801561125557508060080160000160009054906101000a900460ff16155b8015611268575060008160080160010154115b92505050919050565b611279611ed2565b8160008060008381526020019081526020016000206000016000015414156112d6576040517f08c379a00000000000000000000000000000000000000000000000000000000081526004016112cd906129f1565b60405180910390fd5b60008060008581526020019081526020016000209050604051806101a001604052808260000160000154815260200182600001600101805461131790612f47565b80601f016020809104026020016040519081016040528092919081815260200182805461134390612f47565b80156113905780601f1061136557610100808354040283529160200191611390565b820191906000526020600020905b81548152906001019060200180831161137357829003601f168201915b505050505081526020018260000160020180546113ac90612f47565b80601f01602080910402602001604051908101604052809291908181526020018280546113d890612f47565b80156114255780601f106113fa57610100808354040283529160200191611425565b820191906000526020600020905b81548152906001019060200180831161140857829003601f168201915b5050505050815260200182600001600301805461144190612f47565b80601f016020809104026020016040519081016040528092919081815260200182805461146d90612f47565b80156114ba5780601f1061148f576101008083540402835291602001916114ba565b820191906000526020600020905b81548152906001019060200180831161149d57829003601f168201915b50505050508152602001826000016004015481526020018260000160050154815260200182600001600601548152602001826000016007015481526020018260080160000160009054906101000a900460ff16151581526020018260080160000160019054906101000a900473ffffffffffffffffffffffffffffffffffffffff1673ffffffffffffffffffffffffffffffffffffffff1681526020018260080160010154815260200182600801600201805461157690612f47565b80601f01602080910402602001604051908101604052809291908181526020018280546115a290612f47565b80156115ef5780601f106115c4576101008083540402835291602001916115ef565b820191906000526020600020905b8154815290600101906020018083116115d257829003601f168201915b5050505050815260200182600801600301805461160b90612f47565b80601f016020809104026020016040519081016040528092919081815260200182805461163790612f47565b80156116845780601f1061165957610100808354040283529160200191611684565b820191906000526020600020905b81548152906001019060200180831161166757829003601f168201915b505050505081525092505050919050565b60608260008060008381526020019081526020016000206000016000015414156116f4576040517f08c379a00000000000000000000000000000000000000000000000000000000081526004016116eb906129f1565b60405180910390fd5b600080858152602001908152602001600020600d0160008473ffffffffffffffffffffffffffffffffffffffff1673ffffffffffffffffffffffffffffffffffffffff16815260200190815260200160002080548060200260200160405190810160405280929190818152602001828054801561179057602002820191906000526020600020905b81548152602001906001019080831161177c575b505050505091505092915050565b600360009054906101000a900473ffffffffffffffffffffffffffffffffffffffff1681565b60005b83811015611947576000600184600801600101546117e59190612da8565b9050600084600c0160008381526020019081526020016000209050818160000181905550338160010160006101000a81548173ffffffffffffffffffffffffffffffffffffffff021916908373ffffffffffffffffffffffffffffffffffffffff16021790555060018160010160146101000a81548160ff02191690831515021790555084600d0160003373ffffffffffffffffffffffffffffffffffffffff1673ffffffffffffffffffffffffffffffffffffffff1681526020019081526020016000208290806001815401808255809150506001900390600052602060002001600090919091909150558460080160010160008154809291906118e990612f79565b91905055507fef266bb11bf4b58aa8562ab8c8746e3b84a521780a2c57ca09d87bae13f5eb09873384886000016006015460405161192a9493929190612c3c565b60405180910390a15050808061193f90612f79565b9150506117c7565b5080156119b45781600e01339080600181540180825580915050600190039060005260206000200160009091909190916101000a81548173ffffffffffffffffffffffffffffffffffffffff021916908373ffffffffffffffffffffffffffffffffffffffff1602179055505b50505050565b60008042448560080160010154856040516020016119db949392919061292b565b6040516020818303038152906040528051906020012060001c905060006001856008016001015483611a0d9190612fcc565b611a179190612da8565b905084600c01600082815260200190815260200160002060010160009054906101000a900473ffffffffffffffffffffffffffffffffffffffff169250505092915050565b60018260080160000160006101000a81548160ff021916908315150217905550808260080160000160016101000a81548173ffffffffffffffffffffffffffffffffffffffff021916908373ffffffffffffffffffffffffffffffffffffffff160217905550600082600001600601548360080160010154611ade9190612e2f565b905060006064600583611af19190612e2f565b611afb9190612dfe565b905060008183611b0b9190612e89565b90508160046000828254611b1f9190612da8565b925050819055508373ffffffffffffffffffffffffffffffffffffffff166108fc829081150290604051600060405180830381858888f19350505050158015611b6c573d6000803e3d6000fd5b50600360009054906101000a900473ffffffffffffffffffffffffffffffffffffffff1673ffffffffffffffffffffffffffffffffffffffff166108fc839081150290604051600060405180830381858888f19350505050158015611bd5573d6000803e3d6000fd5b505050505050565b8060800135816060013510611c27576040517f08c379a0000000000000000000000000000000000000000000000000000000008152600401611c1e90612a11565b60405180910390fd5b60008160a0013511611c6e576040517f08c379a0000000000000000000000000000000000000000000000000000000008152600401611c6590612b51565b60405180910390fd5b60008160c0013511611cb5576040517f08c379a0000000000000000000000000000000000000000000000000000000008152600401611cac90612ab1565b60405180910390fd5b60008060008481526020019081526020016000206000016000015414611d10576040517f08c379a0000000000000000000000000000000000000000000000000000000008152600401611d07906129d1565b60405180910390fd5b5050565b600182908060018154018082558091505060019003906000526020600020016000909190919091505560008060008481526020019081526020016000209050828160000160000181905550818060000190611d6f9190612ceb565b826000016001019190611d83929190611f52565b50818060200190611d949190612ceb565b826000016002019190611da8929190611f52565b50818060400190611db99190612ceb565b826000016003019190611dcd929190611f52565b5081606001358160000160040181905550816080013581600001600501819055508160a0013581600001600601819055508160c00135816000016007018190555060008160080160000160006101000a81548160ff02191690831515021790555060008160080160000160016101000a81548173ffffffffffffffffffffffffffffffffffffffff021916908373ffffffffffffffffffffffffffffffffffffffff16021790555060008160080160010181905550818060e00190611e929190612ceb565b826008016002019190611ea6929190611f52565b5081806101000190611eb89190612ceb565b826008016003019190611ecc929190611f52565b50505050565b604051806101a001604052806000815260200160608152602001606081526020016060815260200160008152602001600081526020016000815260200160008152602001600015158152602001600073ffffffffffffffffffffffffffffffffffffffff1681526020016000815260200160608152602001606081525090565b828054611f5e90612f47565b90600052602060002090601f016020900481019282611f805760008555611fc7565b82601f10611f9957803560ff1916838001178555611fc7565b82800160010185558215611fc7579182015b82811115611fc6578235825591602001919060010190611fab565b5b509050611fd49190611fd8565b5090565b5b80821115611ff1576000816000905550600101611fd9565b5090565b6000813590506120048161309b565b92915050565b6000610120828403121561201d57600080fd5b81905092915050565b600081359050612035816130b2565b92915050565b60006020828403121561204d57600080fd5b600061205b84828501612026565b91505092915050565b6000806040838503121561207757600080fd5b600061208585828601612026565b925050602061209685828601611ff5565b9150509250929050565b600080604083850312156120b357600080fd5b60006120c185828601612026565b925050602083013567ffffffffffffffff8111156120de57600080fd5b6120ea8582860161200a565b9150509250929050565b6000806040838503121561210757600080fd5b600061211585828601612026565b925050602061212685828601612026565b9150509250929050565b600061213c83836128f6565b60208301905092915050565b61215181612ebd565b82525050565b61216081612ebd565b82525050565b600061217182612d52565b61217b8185612d75565b935061218683612d42565b8060005b838110156121b757815161219e8882612130565b97506121a983612d68565b92505060018101905061218a565b5085935050505092915050565b6121cd81612ecf565b82525050565b6121dc81612ecf565b82525050565b60006121ee8385612d97565b93506121fb838584612f05565b6122048361308a565b840190509392505050565b600061221a82612d5d565b6122248185612d86565b9350612234818560208601612f14565b61223d8161308a565b840191505092915050565b6000612255601883612d97565b91507f526166666c6520494420616c72656164792065786973747300000000000000006000830152602082019050919050565b6000612295601583612d97565b91507f526166666c6520646f6573206e6f7420657869737400000000000000000000006000830152602082019050919050565b60006122d5602283612d97565b91507f53746172742074696d65206d757374206265206265666f726520656e6420746960008301527f6d650000000000000000000000000000000000000000000000000000000000006020830152604082019050919050565b600061233b601883612d97565b91507f526166666c6520686173206e6f7420656e6465642079657400000000000000006000830152602082019050919050565b600061237b601783612d97565b91507f57696e6e657220616c72656164792073656c65637465640000000000000000006000830152602082019050919050565b60006123bb601a83612d97565b91507f526166666c6520686173206e6f742073746172746564207965740000000000006000830152602082019050919050565b60006123fb600f83612d97565b91507f4e6f207469636b65747320736f6c6400000000000000000000000000000000006000830152602082019050919050565b600061243b602383612d97565b91507f5072697a6520616d6f756e74206d75737420626520677265617465722074686160008301527f6e203000000000000000000000000000000000000000000000000000000000006020830152604082019050919050565b60006124a1601083612d97565b91507f526166666c652068617320656e646564000000000000000000000000000000006000830152602082019050919050565b60006124e1602183612d97565b91507f4d757374207075726368617365206174206c65617374206f6e65207469636b6560008301527f74000000000000000000000000000000000000000000000000000000000000006020830152604082019050919050565b6000612547602283612d97565b91507f4f6e6c792061646d696e2063616e20706572666f726d2074686973206163746960008301527f6f6e0000000000000000000000000000000000000000000000000000000000006020830152604082019050919050565b60006125ad601b83612d97565b91507f526166666c6520697320616c726561647920636f6d706c6574656400000000006000830152602082019050919050565b60006125ed602383612d97565b91507f5469636b6574207072696365206d75737420626520677265617465722074686160008301527f6e203000000000000000000000000000000000000000000000000000000000006020830152604082019050919050565b6000612653601783612d97565b91507f496e73756666696369656e742066756e64732073656e740000000000000000006000830152602082019050919050565b60006101008301600083015161269f60008601826128f6565b50602083015184820360208601526126b7828261220f565b915050604083015184820360408601526126d1828261220f565b915050606083015184820360608601526126eb828261220f565b915050608083015161270060808601826128f6565b5060a083015161271360a08601826128f6565b5060c083015161272660c08601826128f6565b5060e083015161273960e08601826128f6565b508091505092915050565b60006101a08301600083015161275d60008601826128f6565b5060208301518482036020860152612775828261220f565b9150506040830151848203604086015261278f828261220f565b915050606083015184820360608601526127a9828261220f565b91505060808301516127be60808601826128f6565b5060a08301516127d160a08601826128f6565b5060c08301516127e460c08601826128f6565b5060e08301516127f760e08601826128f6565b5061010083015161280c6101008601826121c4565b50610120830151612821610120860182612148565b506101408301516128366101408601826128f6565b50610160830151848203610160860152612850828261220f565b91505061018083015184820361018086015261286c828261220f565b9150508091505092915050565b600060a08301600083015161289160008601826121c4565b5060208301516128a46020860182612148565b5060408301516128b760408601826128f6565b50606083015184820360608601526128cf828261220f565b915050608083015184820360808601526128e9828261220f565b9150508091505092915050565b6128ff81612efb565b82525050565b61290e81612efb565b82525050565b61292561292082612efb565b612fc2565b82525050565b60006129378287612914565b6020820191506129478286612914565b6020820191506129578285612914565b6020820191506129678284612914565b60208201915081905095945050505050565b600060208201905061298e6000830184612157565b92915050565b600060208201905081810360008301526129ae8184612166565b905092915050565b60006020820190506129cb60008301846121d3565b92915050565b600060208201905081810360008301526129ea81612248565b9050919050565b60006020820190508181036000830152612a0a81612288565b9050919050565b60006020820190508181036000830152612a2a816122c8565b9050919050565b60006020820190508181036000830152612a4a8161232e565b9050919050565b60006020820190508181036000830152612a6a8161236e565b9050919050565b60006020820190508181036000830152612a8a816123ae565b9050919050565b60006020820190508181036000830152612aaa816123ee565b9050919050565b60006020820190508181036000830152612aca8161242e565b9050919050565b60006020820190508181036000830152612aea81612494565b9050919050565b60006020820190508181036000830152612b0a816124d4565b9050919050565b60006020820190508181036000830152612b2a8161253a565b9050919050565b60006020820190508181036000830152612b4a816125a0565b9050919050565b60006020820190508181036000830152612b6a816125e0565b9050919050565b60006020820190508181036000830152612b8a81612646565b9050919050565b60006040820190508181036000830152612bab8185612686565b90508181036020830152612bbf8184612879565b90509392505050565b60006020820190508181036000830152612be28184612744565b905092915050565b6000602082019050612bff6000830184612905565b92915050565b6000606082019050612c1a6000830186612905565b612c276020830185612157565b612c346040830184612905565b949350505050565b6000608082019050612c516000830187612905565b612c5e6020830186612157565b612c6b6040830185612905565b612c786060830184612905565b95945050505050565b600060c082019050612c96600083018a612905565b8181036020830152612ca981888a6121e2565b9050612cb86040830187612905565b612cc56060830186612905565b612cd26080830185612905565b612cdf60a0830184612905565b98975050505050505050565b60008083356001602003843603038112612d0457600080fd5b80840192508235915067ffffffffffffffff821115612d2257600080fd5b602083019250600182023603831315612d3a57600080fd5b509250929050565b6000819050602082019050919050565b600081519050919050565b600081519050919050565b6000602082019050919050565b600082825260208201905092915050565b600082825260208201905092915050565b600082825260208201905092915050565b6000612db382612efb565b9150612dbe83612efb565b9250827fffffffffffffffffffffffffffffffffffffffffffffffffffffffffffffffff03821115612df357612df2612ffd565b5b828201905092915050565b6000612e0982612efb565b9150612e1483612efb565b925082612e2457612e2361302c565b5b828204905092915050565b6000612e3a82612efb565b9150612e4583612efb565b9250817fffffffffffffffffffffffffffffffffffffffffffffffffffffffffffffffff0483118215151615612e7e57612e7d612ffd565b5b828202905092915050565b6000612e9482612efb565b9150612e9f83612efb565b925082821015612eb257612eb1612ffd565b5b828203905092915050565b6000612ec882612edb565b9050919050565b60008115159050919050565b600073ffffffffffffffffffffffffffffffffffffffff82169050919050565b6000819050919050565b82818337600083830152505050565b60005b83811015612f32578082015181840152602081019050612f17565b83811115612f41576000848401525b50505050565b60006002820490506001821680612f5f57607f821691505b60208210811415612f7357612f7261305b565b5b50919050565b6000612f8482612efb565b91507fffffffffffffffffffffffffffffffffffffffffffffffffffffffffffffffff821415612fb757612fb6612ffd565b5b600182019050919050565b6000819050919050565b6000612fd782612efb565b9150612fe283612efb565b925082612ff257612ff161302c565b5b828206905092915050565b7f4e487b7100000000000000000000000000000000000000000000000000000000600052601160045260246000fd5b7f4e487b7100000000000000000000000000000000000000000000000000000000600052601260045260246000fd5b7f4e487b7100000000000000000000000000000000000000000000000000000000600052602260045260246000fd5b6000601f19601f8301169050919050565b6130a481612ebd565b81146130af57600080fd5b50565b6130bb81612efb565b81146130c657600080fd5b5056fea2646970667358221220304748cfbe9c333f5625baab49202c739b01889dfe170aac0e48d7f04f9274e664736f6c63430008000033",
  "immutableReferences": {},
  "source": "// SPDX-License-Identifier: MIT\npragma solidity ^0.8.0;\n\ncontract RaffleDraw {\n    struct Ticket {\n        uint256 ticketId;\n        address owner;\n        bool exists;\n    }\n\n    // Create a struct for raffle parameters to avoid stack too deep error\n    struct RaffleParams {\n        string name;\n        string description;\n        string imageURL;\n        uint256 startTime;\n        uint256 endTime;\n        uint256 ticketPrice;\n        uint256 prizeAmount;\n        string notificationImageURL;\n        string notificationMessage;\n    }\n\n    // Split the RaffleData into core data and extra data to avoid stack issues\n    struct RaffleCore {\n        uint256 raffleId;\n        string name;\n        string description;\n        string imageURL;\n        uint256 startTime;\n        uint256 endTime;\n        uint256 ticketPrice; \n        uint256 prizeAmount;\n    }\n    \n    struct RaffleExtra {\n        bool isCompleted;\n        address winner;\n        uint256 totalTicketsSold;\n        string notificationImageURL;\n        string notificationMessage;\n    }\n\n    struct RaffleData {\n        RaffleCore core;\n        RaffleExtra extra;\n        mapping(uint256 => Ticket) tickets;\n        mapping(address => uint256[]) userTickets;\n        address[] participants;\n    }\n\n    // Readable version of RaffleData for return\n    struct RaffleDataView {\n        uint256 raffleId;\n        string name;\n        string description;\n        string imageURL;\n        uint256 startTime;\n        uint256 endTime;\n        uint256 ticketPrice;\n        uint256 prizeAmount;\n        bool isCompleted;\n        address winner;\n        uint256 totalTicketsSold;\n        string notificationImageURL;\n        string notificationMessage;\n    }\n\n    mapping(uint256 => RaffleData) public raffles;\n    uint256[] public raffleIds;\n    uint256 public nextRaffleId = 1;\n    address public admin;\n    uint256 public totalAdminProfit;\n\n    event RaffleCreated(\n        uint256 raffleId,\n        string name,\n        uint256 startTime,\n        uint256 endTime,\n        uint256 ticketPrice,\n        uint256 prizeAmount\n    );\n\n    event TicketPurchased(\n        uint256 raffleId,\n        address buyer,\n        uint256 ticketId,\n        uint256 amount\n    );\n\n    event WinnerSelected(\n        uint256 raffleId,\n        address winner,\n        uint256 prizeAmount\n    );\n\n    modifier onlyAdmin() {\n        require(msg.sender == admin, \"Only admin can perform this action\");\n        _;\n    }\n\n    modifier raffleExists(uint256 _raffleId) {\n        require(raffles[_raffleId].core.raffleId != 0, \"Raffle does not exist\");\n        _;\n    }\n\n    constructor() {\n        admin = msg.sender;\n        totalAdminProfit = 0;\n    }\n\n    // Split the createRaffleDraw function into multiple helper functions to avoid stack depth issues\n    function createRaffleDraw(\n        uint256 _raffleId,\n        RaffleParams calldata params\n    ) external onlyAdmin {\n        // Validate parameters\n        _validateRaffleParams(_raffleId, params);\n        \n        // Create the raffle\n        _createRaffle(_raffleId, params);\n        \n        // Emit the event\n        emit RaffleCreated(\n            _raffleId, \n            params.name, \n            params.startTime, \n            params.endTime, \n            params.ticketPrice, \n            params.prizeAmount\n        );\n        \n        // Update nextRaffleId if necessary\n        if (nextRaffleId <= _raffleId) {\n            nextRaffleId = _raffleId + 1;\n        }\n    }\n    \n    // Validation function to reduce stack usage\n    function _validateRaffleParams(uint256 _raffleId, RaffleParams calldata params) private view {\n        require(params.startTime < params.endTime, \"Start time must be before end time\");\n        require(params.ticketPrice > 0, \"Ticket price must be greater than 0\");\n        require(params.prizeAmount > 0, \"Prize amount must be greater than 0\");\n        require(raffles[_raffleId].core.raffleId == 0, \"Raffle ID already exists\");\n    }\n    \n    // Create raffle function to reduce stack usage\n    function _createRaffle(uint256 _raffleId, RaffleParams calldata params) private {\n        raffleIds.push(_raffleId);\n        \n        RaffleData storage newRaffle = raffles[_raffleId];\n        \n        // Set core data\n        newRaffle.core.raffleId = _raffleId;\n        newRaffle.core.name = params.name;\n        newRaffle.core.description = params.description;\n        newRaffle.core.imageURL = params.imageURL;\n        newRaffle.core.startTime = params.startTime;\n        newRaffle.core.endTime = params.endTime;\n        newRaffle.core.ticketPrice = params.ticketPrice;\n        newRaffle.core.prizeAmount = params.prizeAmount;\n        \n        // Set extra data\n        newRaffle.extra.isCompleted = false;\n        newRaffle.extra.winner = address(0);\n        newRaffle.extra.totalTicketsSold = 0;\n        newRaffle.extra.notificationImageURL = params.notificationImageURL;\n        newRaffle.extra.notificationMessage = params.notificationMessage;\n    }\n\n    function buyTicket(uint256 _raffleId, uint256 _quantity) external payable raffleExists(_raffleId) {\n        RaffleData storage raffle = raffles[_raffleId];\n        \n        require(block.timestamp >= raffle.core.startTime, \"Raffle has not started yet\");\n        require(block.timestamp <= raffle.core.endTime, \"Raffle has ended\");\n        require(!raffle.extra.isCompleted, \"Raffle is already completed\");\n        require(_quantity > 0, \"Must purchase at least one ticket\");\n        \n        uint256 totalPrice = raffle.core.ticketPrice * _quantity;\n        require(msg.value >= totalPrice, \"Insufficient funds sent\");\n\n        // Check if this is a new participant\n        bool isNewParticipant = raffle.userTickets[msg.sender].length == 0;\n        \n        // Process ticket purchases - use a helper function to reduce stack usage\n        _processPurchase(_raffleId, _quantity, raffle, isNewParticipant);\n        \n        // Refund excess payment if any\n        if (msg.value > totalPrice) {\n            payable(msg.sender).transfer(msg.value - totalPrice);\n        }\n    }\n    \n    // Helper function to process ticket purchases\n    function _processPurchase(\n        uint256 _raffleId, \n        uint256 _quantity, \n        RaffleData storage raffle, \n        bool isNewParticipant\n    ) private {\n        for (uint256 i = 0; i < _quantity; i++) {\n            uint256 ticketId = raffle.extra.totalTicketsSold + 1;\n            \n            Ticket storage newTicket = raffle.tickets[ticketId];\n            newTicket.ticketId = ticketId;\n            newTicket.owner = msg.sender;\n            newTicket.exists = true;\n            \n            raffle.userTickets[msg.sender].push(ticketId);\n            raffle.extra.totalTicketsSold++;\n            \n            emit TicketPurchased(_raffleId, msg.sender, ticketId, raffle.core.ticketPrice);\n        }\n        \n        // Add participant to list if new\n        if (isNewParticipant) {\n            raffle.participants.push(msg.sender);\n        }\n    }\n\n    function selectWinner(uint256 _raffleId) external raffleExists(_raffleId) {\n        RaffleData storage raffle = raffles[_raffleId];\n        \n        require(block.timestamp >= raffle.core.endTime, \"Raffle has not ended yet\");\n        require(!raffle.extra.isCompleted, \"Winner already selected\");\n        require(raffle.extra.totalTicketsSold > 0, \"No tickets sold\");\n\n        // Use helper functions to reduce stack usage\n        address winnerAddress = _selectRandomWinner(raffle, _raffleId);\n        _distributeRewards(raffle, winnerAddress);\n        \n        emit WinnerSelected(_raffleId, winnerAddress, raffle.core.prizeAmount);\n    }\n    \n    // Helper function to select random winner\n    function _selectRandomWinner(RaffleData storage raffle, uint256 _raffleId) private view returns (address) {\n        // Generate a pseudo-random number for winner selection\n        uint256 randomSeed = uint256(keccak256(abi.encodePacked(\n            block.timestamp,\n            block.difficulty,\n            raffle.extra.totalTicketsSold,\n            _raffleId\n        )));\n        \n        uint256 winningTicketId = (randomSeed % raffle.extra.totalTicketsSold) + 1;\n        \n        // Get the winner from the winning ticket\n        return raffle.tickets[winningTicketId].owner;\n    }\n    \n    // Helper function to distribute rewards\n    function _distributeRewards(RaffleData storage raffle, address winnerAddress) private {\n        // Update raffle data\n        raffle.extra.isCompleted = true;\n        raffle.extra.winner = winnerAddress;\n        \n        // Calculate admin fee (5%)\n        uint256 totalFunds = raffle.extra.totalTicketsSold * raffle.core.ticketPrice;\n        uint256 adminFee = (totalFunds * 5) / 100;\n        uint256 prizeToDistribute = totalFunds - adminFee;\n        \n        // Update admin profit\n        totalAdminProfit += adminFee;\n        \n        // Transfer prize to winner\n        payable(winnerAddress).transfer(prizeToDistribute);\n        \n        // Transfer admin fee\n        payable(admin).transfer(adminFee);\n    }\n\n    // Get all raffle IDs\n    function getAllRaffleIds() public view returns (uint256[] memory) {\n        return raffleIds;\n    }\n\n    // Get raffle details by ID\n    function getRaffle(uint256 _raffleId) external view raffleExists(_raffleId) returns (RaffleDataView memory) {\n        RaffleData storage raffle = raffles[_raffleId];\n        \n        return RaffleDataView(\n            raffle.core.raffleId,\n            raffle.core.name,\n            raffle.core.description,\n            raffle.core.imageURL,\n            raffle.core.startTime,\n            raffle.core.endTime,\n            raffle.core.ticketPrice,\n            raffle.core.prizeAmount,\n            raffle.extra.isCompleted,\n            raffle.extra.winner,\n            raffle.extra.totalTicketsSold,\n            raffle.extra.notificationImageURL,\n            raffle.extra.notificationMessage\n        );\n    }\n\n    // Get user's tickets for a specific raffle\n    function getUserTickets(uint256 _raffleId, address _user) external view raffleExists(_raffleId) returns (uint256[] memory) {\n        return raffles[_raffleId].userTickets[_user];\n    }\n\n    // Get total number of tickets sold for a raffle\n    function getTotalTicketsSold(uint256 _raffleId) external view raffleExists(_raffleId) returns (uint256) {\n        return raffles[_raffleId].extra.totalTicketsSold;\n    }\n\n    // Check if a user has won a raffle\n    function hasUserWon(uint256 _raffleId, address _user) external view raffleExists(_raffleId) returns (bool) {\n        RaffleData storage raffle = raffles[_raffleId];\n        return raffle.extra.isCompleted && raffle.extra.winner == _user;\n    }\n\n    // Get admin profit\n    function getTotalAdminProfit() external view returns (uint256) {\n        return totalAdminProfit;\n    }\n\n    // Get active raffles (not ended or completed)\n    function getActiveRaffles() external view returns (uint256[] memory) {\n        uint256 activeCount = 0;\n        \n        // Count active raffles\n        for (uint256 i = 0; i < raffleIds.length; i++) {\n            uint256 raffleId = raffleIds[i];\n            RaffleData storage raffle = raffles[raffleId];\n            \n            if (!raffle.extra.isCompleted && block.timestamp <= raffle.core.endTime) {\n                activeCount++;\n            }\n        }\n        \n        // Create array of active raffle IDs\n        uint256[] memory activeRaffleIds = new uint256[](activeCount);\n        uint256 index = 0;\n        \n        for (uint256 i = 0; i < raffleIds.length; i++) {\n            uint256 raffleId = raffleIds[i];\n            RaffleData storage raffle = raffles[raffleId];\n            \n            if (!raffle.extra.isCompleted && block.timestamp <= raffle.core.endTime) {\n                activeRaffleIds[index] = raffleId;\n                index++;\n            }\n        }\n        \n        return activeRaffleIds;\n    }\n    \n    // Check if a raffle should select a winner (has ended but winner not selected)\n    function raffleReadyForWinnerSelection(uint256 _raffleId) external view raffleExists(_raffleId) returns (bool) {\n        RaffleData storage raffle = raffles[_raffleId];\n        return block.timestamp >= raffle.core.endTime && !raffle.extra.isCompleted && raffle.extra.totalTicketsSold > 0;\n    }\n}",
  "sourcePath": "/Users/indunilranganath/Desktop/My PC/Project/Betting site/StakeWise-Blockchain/contracts/RaffleDraw.sol",
  "compiler": {
    "name": "solc",
    "version": "0.8.0+commit.c7dfd78e.Emscripten.clang"
  },
  "schemaVersion": "3.4.16",
  "updatedAt": "2025-07-02T02:02:58.414Z",
  "devdoc": {
    "kind": "dev",
    "methods": {},
    "version": 1
  },
  "userdoc": {
    "kind": "user",
    "methods": {},
    "version": 1
  }
}