{
  "contractName": "storeData",
  "abi": [
    {
      "inputs": [],
      "stateMutability": "nonpayable",
      "type": "constructor"
    },
    {
      "anonymous": false,
      "inputs": [
        {
          "indexed": false,
          "internalType": "uint256",
          "name": "id",
          "type": "uint256"
        },
        {
          "indexed": false,
          "internalType": "string",
          "name": "name",
          "type": "string"
        },
        {
          "indexed": false,
          "internalType": "uint256",
          "name": "startTime",
          "type": "uint256"
        },
        {
          "indexed": false,
          "internalType": "uint256",
          "name": "endTime",
          "type": "uint256"
        }
      ],
      "name": "EventCreated",
      "type": "event"
    },
    {
      "anonymous": false,
      "inputs": [
        {
          "indexed": false,
          "internalType": "uint256",
          "name": "id",
          "type": "uint256"
        },
        {
          "indexed": false,
          "internalType": "string",
          "name": "winningOption",
          "type": "string"
        }
      ],
      "name": "WinnerDeclared",
      "type": "event"
    },
    {
      "inputs": [],
      "name": "admin",
      "outputs": [
        {
          "internalType": "address",
          "name": "",
          "type": "address"
        }
      ],
      "stateMutability": "view",
      "type": "function"
    },
    {
      "inputs": [
        {
          "internalType": "uint256",
          "name": "",
          "type": "uint256"
        }
      ],
      "name": "events",
      "outputs": [
        {
          "internalType": "uint256",
          "name": "id",
          "type": "uint256"
        },
        {
          "internalType": "string",
          "name": "name",
          "type": "string"
        },
        {
          "internalType": "uint256",
          "name": "startTime",
          "type": "uint256"
        },
        {
          "internalType": "uint256",
          "name": "endTime",
          "type": "uint256"
        },
        {
          "internalType": "bool",
          "name": "isCompleted",
          "type": "bool"
        },
        {
          "internalType": "string",
          "name": "winningOption",
          "type": "string"
        }
      ],
      "stateMutability": "view",
      "type": "function"
    },
    {
      "inputs": [],
      "name": "nextEventId",
      "outputs": [
        {
          "internalType": "uint256",
          "name": "",
          "type": "uint256"
        }
      ],
      "stateMutability": "view",
      "type": "function"
    },
    {
      "inputs": [
        {
          "internalType": "string",
          "name": "_name",
          "type": "string"
        },
        {
          "internalType": "string[]",
          "name": "_options",
          "type": "string[]"
        },
        {
          "internalType": "uint256",
          "name": "_startTime",
          "type": "uint256"
        },
        {
          "internalType": "uint256",
          "name": "_endTime",
          "type": "uint256"
        }
      ],
      "name": "createEvent",
      "outputs": [],
      "stateMutability": "nonpayable",
      "type": "function"
    },
    {
      "inputs": [
        {
          "internalType": "uint256",
          "name": "_eventId",
          "type": "uint256"
        },
        {
          "internalType": "string",
          "name": "_winningOption",
          "type": "string"
        }
      ],
      "name": "declareWinner",
      "outputs": [],
      "stateMutability": "nonpayable",
      "type": "function"
    },
    {
      "inputs": [
        {
          "internalType": "uint256",
          "name": "_eventId",
          "type": "uint256"
        }
      ],
      "name": "getEvent",
      "outputs": [
        {
          "components": [
            {
              "internalType": "uint256",
              "name": "id",
              "type": "uint256"
            },
            {
              "internalType": "string",
              "name": "name",
              "type": "string"
            },
            {
              "internalType": "string[]",
              "name": "options",
              "type": "string[]"
            },
            {
              "internalType": "uint256",
              "name": "startTime",
              "type": "uint256"
            },
            {
              "internalType": "uint256",
              "name": "endTime",
              "type": "uint256"
            },
            {
              "internalType": "bool",
              "name": "isCompleted",
              "type": "bool"
            },
            {
              "internalType": "string",
              "name": "winningOption",
              "type": "string"
            }
          ],
          "internalType": "struct storeData.BetEvent",
          "name": "",
          "type": "tuple"
        }
      ],
      "stateMutability": "view",
      "type": "function"
    },
    {
      "inputs": [
        {
          "internalType": "uint256",
          "name": "_eventId",
          "type": "uint256"
        }
      ],
      "name": "getEventOptions",
      "outputs": [
        {
          "internalType": "string[]",
          "name": "",
          "type": "string[]"
        }
      ],
      "stateMutability": "view",
      "type": "function"
    }
  ],
  "bytecode": "0x608060405234801561001057600080fd5b5033600260006101000a81548173ffffffffffffffffffffffffffffffffffffffff021916908373ffffffffffffffffffffffffffffffffffffffff1602179055506119ab806100616000396000f3fe608060405234801561001057600080fd5b506004361061007d5760003560e01c80636d1884e01161005b5780636d1884e0146101035780638fb3a45e146101335780639f9d903a1461014f578063f851a4401461016d5761007d565b80630b791430146100825780633801f697146100b75780635be9cc9c146100d3575b600080fd5b61009c60048036038101906100979190610ec0565b61018b565b6040516100ae96959493929190611628565b60405180910390f35b6100d160048036038101906100cc9190610ee9565b6102e4565b005b6100ed60048036038101906100e89190610ec0565b6105a1565b6040516100fa919061148d565b60405180910390f35b61011d60048036038101906101189190610ec0565b61068f565b60405161012a919061156f565b60405180910390f35b61014d60048036038101906101489190610e2d565b6108f1565b005b610157610b57565b6040516101649190611591565b60405180910390f35b610175610b5d565b6040516101829190611472565b60405180910390f35b60006020528060005260406000206000915090508060000154908060010180546101b490611845565b80601f01602080910402602001604051908101604052809291908181526020018280546101e090611845565b801561022d5780601f106102025761010080835404028352916020019161022d565b820191906000526020600020905b81548152906001019060200180831161021057829003601f168201915b5050505050908060030154908060040154908060050160009054906101000a900460ff169080600601805461026190611845565b80601f016020809104026020016040519081016040528092919081815260200182805461028d90611845565b80156102da5780601f106102af576101008083540402835291602001916102da565b820191906000526020600020905b8154815290600101906020018083116102bd57829003601f168201915b5050505050905086565b600260009054906101000a900473ffffffffffffffffffffffffffffffffffffffff1673ffffffffffffffffffffffffffffffffffffffff163373ffffffffffffffffffffffffffffffffffffffff1614610374576040517f08c379a000000000000000000000000000000000000000000000000000000000815260040161036b9061150f565b60405180910390fd5b600080600084815260200190815260200160002090508060050160009054906101000a900460ff16156103dc576040517f08c379a00000000000000000000000000000000000000000000000000000000081526004016103d39061152f565b60405180910390fd5b8060040154421015610423576040517f08c379a000000000000000000000000000000000000000000000000000000000815260040161041a9061154f565b60405180910390fd5b6000805b82600201805490508110156104eb57836040516020016104479190611444565b60405160208183030381529060405280519060200120836002018281548110610499577f4e487b7100000000000000000000000000000000000000000000000000000000600052603260045260246000fd5b906000526020600020016040516020016104b3919061145b565b6040516020818303038152906040528051906020012014156104d857600191506104eb565b80806104e390611877565b915050610427565b508061052c576040517f08c379a0000000000000000000000000000000000000000000000000000000008152600401610523906114cf565b60405180910390fd5b82826006019080519060200190610544929190610b83565b5060018260050160006101000a81548160ff0219169083151502179055507f174d40141d388f930fca11a3c885eba334def4ea654c9b34dbe4c549f3af5a3d84846040516105939291906115ac565b60405180910390a150505050565b6060600080838152602001908152602001600020600201805480602002602001604051908101604052809291908181526020016000905b828210156106845783829060005260206000200180546105f790611845565b80601f016020809104026020016040519081016040528092919081815260200182805461062390611845565b80156106705780601f1061064557610100808354040283529160200191610670565b820191906000526020600020905b81548152906001019060200180831161065357829003601f168201915b5050505050815260200190600101906105d8565b505050509050919050565b610697610c09565b6000808381526020019081526020016000206040518060e0016040529081600082015481526020016001820180546106ce90611845565b80601f01602080910402602001604051908101604052809291908181526020018280546106fa90611845565b80156107475780601f1061071c57610100808354040283529160200191610747565b820191906000526020600020905b81548152906001019060200180831161072a57829003601f168201915b5050505050815260200160028201805480602002602001604051908101604052809291908181526020016000905b8282101561082157838290600052602060002001805461079490611845565b80601f01602080910402602001604051908101604052809291908181526020018280546107c090611845565b801561080d5780601f106107e25761010080835404028352916020019161080d565b820191906000526020600020905b8154815290600101906020018083116107f057829003601f168201915b505050505081526020019060010190610775565b50505050815260200160038201548152602001600482015481526020016005820160009054906101000a900460ff1615151515815260200160068201805461086890611845565b80601f016020809104026020016040519081016040528092919081815260200182805461089490611845565b80156108e15780601f106108b6576101008083540402835291602001916108e1565b820191906000526020600020905b8154815290600101906020018083116108c457829003601f168201915b5050505050815250509050919050565b600260009054906101000a900473ffffffffffffffffffffffffffffffffffffffff1673ffffffffffffffffffffffffffffffffffffffff163373ffffffffffffffffffffffffffffffffffffffff1614610981576040517f08c379a00000000000000000000000000000000000000000000000000000000081526004016109789061150f565b60405180910390fd5b8082106109c3576040517f08c379a00000000000000000000000000000000000000000000000000000000081526004016109ba906114af565b60405180910390fd5b6001835111610a07576040517f08c379a00000000000000000000000000000000000000000000000000000000081526004016109fe906114ef565b60405180910390fd5b6040518060e001604052806001548152602001858152602001848152602001838152602001828152602001600015158152602001604051806020016040528060008152508152506000806001548152602001908152602001600020600082015181600001556020820151816001019080519060200190610a88929190610b83565b506040820151816002019080519060200190610aa5929190610c48565b50606082015181600301556080820151816004015560a08201518160050160006101000a81548160ff02191690831515021790555060c0820151816006019080519060200190610af6929190610b83565b509050507f42e6867e52299b45991308391cccb9ee79466d194059ff10fc15c2d88f0ea061600154858484604051610b3194939291906115dc565b60405180910390a160016000815480929190610b4c90611877565b919050555050505050565b60015481565b600260009054906101000a900473ffffffffffffffffffffffffffffffffffffffff1681565b828054610b8f90611845565b90600052602060002090601f016020900481019282610bb15760008555610bf8565b82601f10610bca57805160ff1916838001178555610bf8565b82800160010185558215610bf8579182015b82811115610bf7578251825591602001919060010190610bdc565b5b509050610c059190610ca8565b5090565b6040518060e001604052806000815260200160608152602001606081526020016000815260200160008152602001600015158152602001606081525090565b828054828255906000526020600020908101928215610c97579160200282015b82811115610c96578251829080519060200190610c86929190610b83565b5091602001919060010190610c68565b5b509050610ca49190610cc5565b5090565b5b80821115610cc1576000816000905550600101610ca9565b5090565b5b80821115610ce55760008181610cdc9190610ce9565b50600101610cc6565b5090565b508054610cf590611845565b6000825580601f10610d075750610d26565b601f016020900490600052602060002090810190610d259190610ca8565b5b50565b6000610d3c610d37846116c8565b611697565b9050808382526020820190508260005b85811015610d7c5781358501610d628882610dee565b845260208401935060208301925050600181019050610d4c565b5050509392505050565b6000610d99610d94846116f4565b611697565b905082815260208101848484011115610db157600080fd5b610dbc848285611803565b509392505050565b600082601f830112610dd557600080fd5b8135610de5848260208601610d29565b91505092915050565b600082601f830112610dff57600080fd5b8135610e0f848260208601610d86565b91505092915050565b600081359050610e278161195e565b92915050565b60008060008060808587031215610e4357600080fd5b600085013567ffffffffffffffff811115610e5d57600080fd5b610e6987828801610dee565b945050602085013567ffffffffffffffff811115610e8657600080fd5b610e9287828801610dc4565b9350506040610ea387828801610e18565b9250506060610eb487828801610e18565b91505092959194509250565b600060208284031215610ed257600080fd5b6000610ee084828501610e18565b91505092915050565b60008060408385031215610efc57600080fd5b6000610f0a85828601610e18565b925050602083013567ffffffffffffffff811115610f2757600080fd5b610f3385828601610dee565b9150509250929050565b6000610f498383611068565b905092915050565b610f5a816117bb565b82525050565b6000610f6b82611749565b610f75818561176c565b935083602082028501610f8785611724565b8060005b85811015610fc35784840389528151610fa48582610f3d565b9450610faf8361175f565b925060208a01995050600181019050610f8b565b50829750879550505050505092915050565b6000610fe082611749565b610fea818561177d565b935083602082028501610ffc85611724565b8060005b8581101561103857848403895281516110198582610f3d565b94506110248361175f565b925060208a01995050600181019050611000565b50829750879550505050505092915050565b611053816117cd565b82525050565b611062816117cd565b82525050565b600061107382611754565b61107d818561178e565b935061108d818560208601611812565b6110968161194d565b840191505092915050565b60006110ac82611754565b6110b6818561179f565b93506110c6818560208601611812565b6110cf8161194d565b840191505092915050565b60006110e582611754565b6110ef81856117b0565b93506110ff818560208601611812565b80840191505092915050565b6000815461111881611845565b61112281866117b0565b9450600182166000811461113d576001811461114e57611181565b60ff19831686528186019350611181565b61115785611734565b60005b838110156111795781548189015260018201915060208101905061115a565b838801955050505b50505092915050565b600061119760228361179f565b91507f53746172742074696d65206d757374206265206265666f726520656e6420746960008301527f6d650000000000000000000000000000000000000000000000000000000000006020830152604082019050919050565b60006111fd600e8361179f565b91507f496e76616c6964206f7074696f6e0000000000000000000000000000000000006000830152602082019050919050565b600061123d602a8361179f565b91507f5468657265206d757374206265206174206c656173742074776f20626574746960008301527f6e67206f7074696f6e73000000000000000000000000000000000000000000006020830152604082019050919050565b60006112a360228361179f565b91507f4f6e6c792061646d696e2063616e20706572666f726d2074686973206163746960008301527f6f6e0000000000000000000000000000000000000000000000000000000000006020830152604082019050919050565b600061130960178361179f565b91507f4576656e7420616c726561647920636f6d706c657465640000000000000000006000830152602082019050919050565b600061134960138361179f565b91507f4576656e74206e6f7420656e64656420796574000000000000000000000000006000830152602082019050919050565b600060e0830160008301516113946000860182611426565b50602083015184820360208601526113ac8282611068565b915050604083015184820360408601526113c68282610f60565b91505060608301516113db6060860182611426565b5060808301516113ee6080860182611426565b5060a083015161140160a086018261104a565b5060c083015184820360c08601526114198282611068565b9150508091505092915050565b61142f816117f9565b82525050565b61143e816117f9565b82525050565b600061145082846110da565b915081905092915050565b6000611467828461110b565b915081905092915050565b60006020820190506114876000830184610f51565b92915050565b600060208201905081810360008301526114a78184610fd5565b905092915050565b600060208201905081810360008301526114c88161118a565b9050919050565b600060208201905081810360008301526114e8816111f0565b9050919050565b6000602082019050818103600083015261150881611230565b9050919050565b6000602082019050818103600083015261152881611296565b9050919050565b60006020820190508181036000830152611548816112fc565b9050919050565b600060208201905081810360008301526115688161133c565b9050919050565b60006020820190508181036000830152611589818461137c565b905092915050565b60006020820190506115a66000830184611435565b92915050565b60006040820190506115c16000830185611435565b81810360208301526115d381846110a1565b90509392505050565b60006080820190506115f16000830187611435565b818103602083015261160381866110a1565b90506116126040830185611435565b61161f6060830184611435565b95945050505050565b600060c08201905061163d6000830189611435565b818103602083015261164f81886110a1565b905061165e6040830187611435565b61166b6060830186611435565b6116786080830185611059565b81810360a083015261168a81846110a1565b9050979650505050505050565b6000604051905081810181811067ffffffffffffffff821117156116be576116bd61191e565b5b8060405250919050565b600067ffffffffffffffff8211156116e3576116e261191e565b5b602082029050602081019050919050565b600067ffffffffffffffff82111561170f5761170e61191e565b5b601f19601f8301169050602081019050919050565b6000819050602082019050919050565b60008190508160005260206000209050919050565b600081519050919050565b600081519050919050565b6000602082019050919050565b600082825260208201905092915050565b600082825260208201905092915050565b600082825260208201905092915050565b600082825260208201905092915050565b600081905092915050565b60006117c6826117d9565b9050919050565b60008115159050919050565b600073ffffffffffffffffffffffffffffffffffffffff82169050919050565b6000819050919050565b82818337600083830152505050565b60005b83811015611830578082015181840152602081019050611815565b8381111561183f576000848401525b50505050565b6000600282049050600182168061185d57607f821691505b60208210811415611871576118706118ef565b5b50919050565b6000611882826117f9565b91507fffffffffffffffffffffffffffffffffffffffffffffffffffffffffffffffff8214156118b5576118b46118c0565b5b600182019050919050565b7f4e487b7100000000000000000000000000000000000000000000000000000000600052601160045260246000fd5b7f4e487b7100000000000000000000000000000000000000000000000000000000600052602260045260246000fd5b7f4e487b7100000000000000000000000000000000000000000000000000000000600052604160045260246000fd5b6000601f19601f8301169050919050565b611967816117f9565b811461197257600080fd5b5056fea2646970667358221220522727248b8f75603bb51abf4614b2a3460e35c8416a3b276b53fcdc1d464f5364736f6c63430008000033",
  "immutableReferences": {},
  "source": "// SPDX-License-Identifier: MIT\r\npragma solidity ^0.8.0;\r\n\r\ncontract storeData {\r\n    struct BetEvent {\r\n        uint256 id;\r\n        string name;\r\n        string[] options;\r\n        uint256 startTime;\r\n        uint256 endTime;\r\n        bool isCompleted;\r\n        string winningOption;\r\n    }\r\n\r\n    mapping(uint256 => BetEvent) public events;\r\n    uint256 public nextEventId;\r\n    address public admin;\r\n\r\n    event EventCreated(\r\n        uint256 id,\r\n        string name,\r\n        uint256 startTime,\r\n        uint256 endTime\r\n    );\r\n    event WinnerDeclared(uint256 id, string winningOption);\r\n\r\n    modifier onlyAdmin() {\r\n        require(msg.sender == admin, \"Only admin can perform this action\");\r\n        _;\r\n    }\r\n\r\n    constructor() {\r\n        admin = msg.sender;\r\n    }\r\n\r\n    function createEvent(\r\n        string memory _name,\r\n        string[] memory _options,\r\n        uint256 _startTime,\r\n        uint256 _endTime\r\n    ) external onlyAdmin {\r\n        require(_startTime < _endTime, \"Start time must be before end time\");\r\n        require(\r\n            _options.length > 1,\r\n            \"There must be at least two betting options\"\r\n        );\r\n\r\n        events[nextEventId] = BetEvent({\r\n            id: nextEventId,\r\n            name: _name,\r\n            options: _options,\r\n            startTime: _startTime,\r\n            endTime: _endTime,\r\n            isCompleted: false,\r\n            winningOption: \"\"\r\n        });\r\n\r\n        emit EventCreated(nextEventId, _name, _startTime, _endTime);\r\n        nextEventId++;\r\n    }\r\n\r\n    function declareWinner(\r\n        uint256 _eventId,\r\n        string memory _winningOption\r\n    ) external onlyAdmin {\r\n        BetEvent storage betEvent = events[_eventId];\r\n        require(!betEvent.isCompleted, \"Event already completed\");\r\n        require(block.timestamp >= betEvent.endTime, \"Event not ended yet\");\r\n\r\n        bool validOption = false;\r\n        for (uint256 i = 0; i < betEvent.options.length; i++) {\r\n            if (\r\n                keccak256(abi.encodePacked(betEvent.options[i])) ==\r\n                keccak256(abi.encodePacked(_winningOption))\r\n            ) {\r\n                validOption = true;\r\n                break;\r\n            }\r\n        }\r\n        require(validOption, \"Invalid option\");\r\n\r\n        betEvent.winningOption = _winningOption;\r\n        betEvent.isCompleted = true;\r\n\r\n        emit WinnerDeclared(_eventId, _winningOption);\r\n    }\r\n\r\n    function getEvent(\r\n        uint256 _eventId\r\n    ) external view returns (BetEvent memory) {\r\n        return events[_eventId];\r\n    }\r\n\r\n    function getEventOptions(\r\n        uint256 _eventId\r\n    ) external view returns (string[] memory) {\r\n        return events[_eventId].options;\r\n    }\r\n}\r\n",
  "sourcePath": "F:\\Software Project\\New folder\\StakeWise-Blockchain\\contracts\\BettingEvents.sol",
  "compiler": {
    "name": "solc",
    "version": "0.8.0+commit.c7dfd78e.Emscripten.clang"
  },
  "schemaVersion": "3.4.16",
  "updatedAt": "2025-02-10T05:40:23.147Z",
  "devdoc": {
    "kind": "dev",
    "methods": {},
    "version": 1
  },
  "userdoc": {
    "kind": "user",
    "methods": {},
    "version": 1
  }
}